:020000040800F2
:10000000404A0020550200080D4500081938000834
:10001000E53A0008010A0008A14F000800000000AE
:100020000000000000000000000000001147000870
:10003000410C000800000000114500083547000889
:100040006F0200086F0200086F0200086F020008CC
:100050006F0200086F0200086F0200086F020008BC
:100060006F0200086F0200086F0200086F020008AC
:100070001D0C00086F0200086F0200086F020008E4
:100080006F0200086F0200086F0200086F0200088C
:10009000050A00086F0200086F0200086F020008DE
:1000A0006F0200086F0200086F0200086F0200086C
:1000B0006F0200086F0200086F0200086F0200085C
:1000C0006F0200086F0200086F0200086F0200084C
:1000D0006F0200086F0200086F020008594E000806
:1000E0006F0200086F0200086F0200086F0200082C
:1000F0006F0200086F0200086F0200086F0200081C
:100100006F0200086F0200086F0200086F0200080B
:100110006F0200086F020008294800086F020008FB
:10012000290C00086F0200086F020008350C000857
:100130006F0200086F0200086F0200086F020008DB
:10014000110A00086F0200086F0200086F02000821
:100150006F0200086F0200086F0200086F020008BB
:100160006F0200086F0200086F0200086F020008AB
:100170006F0200086F0200086F0200080000000014
:100180006F0200086F02000800F002F800F052F859
:1001900014A696E8000CB244B344DA4501D100F04D
:1001A00049F8BAE80F000FA696E83000A5EB040561
:1001B00004EB0607AAEB0704A7F101074FEA1515A0
:1001C0004FEA3414A4F10104AC4201D300F032F838
:1001D00013F0010F18BFFB1A43F0010300F001F800
:1001E000DBE71847F874000018750000103A24BFC8
:1001F00078C878C1FAD8520724BF30C830C144BF8C
:1002000004680C6070470000704700000023002461
:1002100000250026103A28BF78C1FBD8520728BF16
:1002200030C148BF0B6070471FB507F000FA1FBD13
:1002300010B510BD00F04FF91146FFF7F5FF05F0BE
:10024000DFF800F06DF903B4FFF7F2FF03BC00F034
:1002500075F900000948804709480047FEE7FEE7B6
:10026000FEE7FEE7FEE7FEE7FEE7FEE7FEE7FEE766
:1002700004480549054A064B704700001548000828
:100280008901000840440020404A002040460020E8
:100290004046002053EA020C00F069802DE9F04B43
:1002A0004FF00006002B1FBFB3FA83F503FA05F4E5
:1002B00024FA05F65E4012BF1643B2FA82F502FA3E
:1002C00005F4C5F120051EBF22FA05FC44EA0C0422
:1002D000203556EA044C4FEA144418BF641C4FF012
:1002E00000084FF00009904271EB030C39D300294C
:1002F00019BFB1FA81F701FA07F6B0FA80F700FAF0
:1003000007F6C7F120071EBF20FA07FC46EA0C06D5
:100310002037B6FBF4FCA7EB0507103F07F01F0BD7
:10032000CBF120062CFA06F60CFA0BFB44BFB346C1
:100330000026202FA4BF5E464FF0000B5BEA060CA0
:1003400008BF4FF0010B19EB0B0948EB0608ABFB9C
:10035000027C06FB02CC0BFB03CCC01B71EB0C0137
:10036000C1E70B46024641464846BDE8F08B13B54F
:10037000084318BF4FF0FF300146AFF30080BDE8DF
:100380001C407047032A40F2308010F0030C00F04C
:10039000158011F8013BBCF1020F624498BF11F8BF
:1003A00001CB00F8013B38BF11F8013BA2F1040278
:1003B00098BF00F801CB38BF00F8013B11F00303F0
:1003C00000F05780083AC0F0088051F8043B083A22
:1003D00051F804CBA0E80810F5E7121D5CBF51F8F6
:1003E000043B40F8043BAFF30080D20724BF11F870
:1003F000013B11F801CB48BF11F8012B24BF00F8D5
:10040000013B00F801CB48BF00F8012B704702F018
:10041000FF0343EA032242EA024200F002B84FF02F
:10042000000200B5134694469646203922BFA0E844
:100430000C50A0E80C50B1F12001BFF4F7AF090750
:1004400028BFA0E80C5048BF0CC05DF804EB890041
:1004500028BF40F8042B08BF704748BF20F8022B84
:1004600011F0804F18BF00F8012B7047704770479C
:10047000704710B5203AC0F00B80B1E81850A0E8E2
:100480001850B1E81850A0E81850203ABFF4F5AF62
:100490005FEA027C24BFB1E81850A0E8185044BFBE
:1004A00018C918C0BDE810405FEA827C24BF51F82B
:1004B000043B40F8043B08BF7047D20728BF31F81F
:1004C000023B48BF11F8012B28BF20F8023B48BF70
:1004D00000F8012B7047754600F02CF8AE46050079
:1004E0006946534620F00700854618B020B5FFF74F
:1004F000BFFEBDE820404FF000064FF000074FF070
:1005000000084FF0000BAC46ACE8C009ACE8C009ED
:10051000ACE8C009ACE8C00921F007018D4670477E
:1005200010B50446AFF300802046BDE81040FFF749
:100530008ABE00000048704758000020014918207A
:10054000ABBEFEE7260002007047000010B540F287
:10055000BC40C2F2000002F081FA002818BF00F08F
:1005600071FB47F28860C0F60000002104F078FFBC
:1005700040F2B804C2F20004206047F27460C0F692
:100580000000002104F06CFF21686060002918BFA2
:10059000002803D1BDE8104000F054BB10BD00009E
:1005A0000020C4F202001021012201F051BB000022
:1005B0000020C4F202001021002201F049BB00001B
:1005C0007047000040F20040C4F202000121012205
:1005D00001F03EBB40F20040C4F2020001210022C3
:1005E00001F036BB70470000002808BF7047B0B567
:1005F0004EF2180149F24002CEF2000110F0030C55
:10060000C0F2020222D051F804EC0C68002307E08B
:1006100023445B1BA54228BF734493422C460DD252
:100620000D68A542F4D10D68A542F1D10D68A5422F
:10063000EED10D68A542F3D0EAE700BFBCF1010F8F
:1006400008D1A0F1010C042851D247E084460428C7
:100650004DD243E051F804EC0C68002308E000BFE1
:1006600023445B1BA54228BF734493422C460DD202
:100670000D68A542F4D10D68A542F1D10D68A542DF
:10068000EED10D68A542F3D0EAE700BFBCF1020F3E
:1006900004D1A0F1020C042829D21FE051F804CCA7
:1006A0000D68002308E000BF2B441B1BAC4228BF91
:1006B0006344934225460DD20C68AC42F4D10C68D9
:1006C000AC42F1D10C68AC42EED10C68AC42F3D034
:1006D000EAE700BFA0F1030C042808D2BDE8B0404F
:1006E000704700BFACF1040C5FEA0C40F6D051F843
:1006F000040C0D68002307E02B441B1BAC4228BFF1
:100700000344934225460DD20C68AC42F4D10C68E8
:10071000AC42F1D10C68AC42EED10C68AC42F3D0E3
:10072000EAE700BF51F8040C0D68002308E000BFA1
:100730002B441B1BAC4228BF0344934225460DD2D9
:100740000C68AC42F4D10C68AC42F1D10C68AC42FC
:10075000EED10C68AC42F3D0EAE700BF51F8040CCC
:100760000D68002308E000BF2B441B1BAC4228BFD0
:100770000344934225460DD20C68AC42F4D10C6878
:10078000AC42F1D10C68AC42EED10C68AC42F3D073
:10079000EAE700BF51F8040C0D6800230AE000BF2F
:1007A0002B441B1BAC4228BF034493422546BFF495
:1007B00099AF00BF0C68AC42F2D10C68AC42EFD1EB
:1007C0000C68AC42ECD10C68AC42F3D0E8E7000016
:1007D00080B54EF21801CEF20001A82251F804CCE7
:1007E00000FB02FE086800230AE000BF03449B1AD6
:1007F000824228BF63447345104628BF80BD00BFB6
:100800000A688242F2D10A688242EFD10A688242C3
:10081000ECD10A688242F3D0E8E7000010B5FFF798
:10082000CFFEFFF7DFFE04F0BDFB044604F0E0FC62
:10083000204310BD2DE9F04F83B002920E46019087
:10084000FFF7B6FE922000F0C3F8922000F0C0F847
:10085000552000F0BDF88046552000F0B9F8054657
:10086000552000F0B5F88246552000F0B1F8044656
:10087000552000F0ADF88346552000F0A9F8074652
:10088000FFF78EFE48EA052040F2000900B2C2F2EE
:10089000000900EE100A99ED001AB8EEC00A4AEA03
:1008A000042021EE000A00B286ED000A00EE100AD4
:1008B0004BEA072000B299ED001A02EE100AB8EEDA
:1008C000C00AB8EEC22A21EE000A21EE021A86ED15
:1008D000010A86ED021AFFF77DFE802000F078F80D
:1008E000552000F075F80646552000F071F85520A7
:1008F00000F06EF88246552000F06AF80546552053
:1009000000F066F88346552000F062F80446552052
:1009100000F05EF80746552000F05AF88046FFF7D1
:1009200051FE0F2E25D14AEA052000B200EE100A32
:1009300099ED011AB8EEC00A01994BEA042021EEA4
:10094000000A00B281ED000A00EE100A47EA082012
:1009500000B299ED011A02EE100AB8EEC00AB8EE24
:10096000C22A21EE000A21EE021A81ED010A81ED70
:10097000021AFFF71DFEA22000F02AF8A22000F0C4
:1009800027F8552000F024F8044646B2552000F020
:100990001FF80546FFF704FEE00040EA55104FF649
:1009A0000001CFF6FF71002E48BF084300EE100A89
:1009B000B8EEC00AB4EE001A20EE010AB3EE071A30
:1009C000029830EE010A80ED000A03B0BDE8F08F16
:1009D00080B582B08DF8070040F264404FF47A7C15
:1009E000C2F200000DF107010DF106020123CDF85E
:1009F00000C001F0C9FD9DF8060002B080BD0000F6
:100A0000FEE7000040F2F420C2F2000000F0F0BA6D
:100A100040F21C30C2F2000000F0EABA10B58AB011
:100A20000020CDE90500CDE90000CDE902000490E9
:100A30000E200121099040F2F420CDE90711C2F205
:100A40000000694600F0B0F940F21C14C2F2000444
:100A500010B1E0880130E08040F2F420C2F20000E2
:100A600000F0A8FD10B1E0880130E08040F2F420F1
:100A7000C2F2000000F0A8FA10B9E0880130E0806E
:100A800040F2F420C2F20000022100F023F910B17C
:100A9000E0880130E0800E20059040F21C30C2F268
:100AA0000000694600F080F910B1E0880130E08074
:100AB00040F21C30C2F2000000F07CFD10B1E08872
:100AC0000130E08040F21C30C2F2000000F07CFAFD
:100AD00010B9E0880130E08040F21C30C2F2000022
:100AE000022100F0F7F810B1E0880130E08003F057
:100AF00007FB0AB010BD000010B588B00446002006
:100B0000CDE901010821CDE9040006918DF81C0012
:100B100002A901AB204600F0F5F8A8B1206840F228
:100B20001C11C2F2000180698A8840F2F423C2F2EB
:100B300000039C4202F101028A8007D040F21C327D
:100B4000C2F20002944209D008B010BD01F1020EB9
:100B500001F1100C01F1080407E000BF01F1030EE0
:100B600001F1140C01F10A040131C0F302122388CF
:100B7000CCF800000A7001209EF80010904001336C
:100B8000084323808EF8000008B010BD642004F0F4
:100B900059FCFBE700000000B0B5054600889FED5A
:100BA0001E1A00BA000C088068880C46C0BA00EE15
:100BB000100AB8EEC00A80EE010A30EE000A10EE0C
:100BC000100A06F0C3FC9FED100B53EC102B06F03F
:100BD000BFFB9FED0F0B53EC102B06F05DFA06F0F8
:100BE00029FA6060688800BA000C2081A88800BAE1
:100BF000000C6081A87920730020E084012084F833
:100C00002800B0BD00BF00BF182D4454FB2109408F
:100C1000000000608FC22D400000704240F204408E
:100C2000C2F2000000F05EBD40F24430C2F20000AB
:100C300000F058BD40F2A430C2F2000000F052BDF6
:100C40007047000072B600BFFEE700000000000021
:100C5000B0B5054600889FED1E1A00BA000C08804A
:100C600068880C46C0BA00EE100AB8EEC00A80EEE2
:100C7000010A30EE000A10EE100A06F067FC9FED44
:100C8000100B53EC102B06F063FB9FED0F0B53EC96
:100C9000102B06F001FA06F0CDF96060688800BA02
:100CA000000C2081A88800BA000C6081A87920730C
:100CB0000020E084012084F82800B0BD00BF00BF00
:100CC000182D4454FB210940000000608FC22D40C4
:100CD0000000704290F82020013A012A08D80068EC
:100CE00000F114020020136819431160704700BF1F
:100CF00000F1240201204FF4802113681943116090
:100D00007047000010B590F820E0D0F800C0AEF1B8
:100D1000010EBEF1010FDCF808E011D81EF0E05F13
:100D200018D0CEF301640120A04018608B68DBB1BD
:100D3000D1F804E0C86840EACE0040EA030E17E0AC
:100D400000F1240301204FF480211A681143196037
:100D500010BD00BF00F1240301204FF400111A68F8
:100D60001143196010BD00BF0868CB6843EA405EBC
:100D70000CF5C07000EB0413240140F804E00C698A
:100D8000184640F8044F097D012903D1016841F458
:100D90008071016050680121D8601068986000205F
:100DA0001A681143196010BD90F82020013A012AF9
:100DB00030D8B0B546F20060C4F20000026842F0DC
:100DC00001020260026822F47C520260D1F814E051
:100DD000CC694A6A0368012C43EA022202600EF0E1
:100DE0001F024FF0010303FA02F2C3696FEA020C1B
:100DF00023EA0203C36113D02CBBC36803EA0C03CC
:100E0000C360CB688C8844EA034300EBCE042364C0
:100E10000B4611E0416A41F4802141620120704794
:100E2000C3681343C3600B688C8844EA034300EB38
:100E3000CE04236401F10C038C681B8843EA04434D
:100E400000EBCE04636443688D6943EA0204D1F881
:100E500010E0096A002D08BF03EA0C0444604369EE
:100E6000BEF1000F43EA020408BF03EA0C040129A3
:100E7000446102D1C1691143C161016821F00101DE
:100E800001600020B0BD000040F21C10C2F2000062
:100E9000C1880131C1807047B0B590F82040013C55
:100EA000012C7DD8D0F800C000290CBFDCF80C4024
:100EB000DCF81040A4077DD00CF5D8754FEA011C72
:100EC00055F80C4014F00404946055F80CE005EB60
:100ED000011C19BF4FEADE0555604FEA5E551560EB
:100EE000DCF80050E64605F00205D5605EF8044FD8
:100EF00024075ABFDEF8004004F00F0408241461F0
:100F0000DEF800400029C4F307249461DEF80050A5
:100F10004FEA15455561DCF808201A70026802EBAB
:100F20000112D2F8B8214FEA12225A70026802EB7D
:100F30000112D2F8B8214FEA12429A70026802EB0D
:100F40000112D2F8B8214FEA1262DA70026802EB9D
:100F50000112D2F8BC211A71026802EB0112D2F818
:100F6000BC214FEA12225A71026802EB0112D2F838
:100F7000BC214FEA12429A71026802EB0112D2F8C8
:100F8000BC214FEA1262DA7100680CBF00F10C015B
:100F900000F11001002020220B681A430A60B0BD46
:100FA00000F1240101204FF480220B681A430A60EB
:100FB000B0BD00BF00F1240101204FF400120B6806
:100FC0001A430A60B0BD000090F8201001390129D1
:100FD00084BF002070470068816882688068C1F320
:100FE0008061C2F3C0621144C0F3007008447047CE
:100FF0002DE9F04F81B0044600684669D0F80490AE
:101000008768D0F80CB0D0F810A0D0F81880F1079D
:1010100004D1002530071DD424E000BFF90710D00B
:101020000121BA07816009D4780700F1AF80380741
:1010300000F1B680204600F0EBFA02E0204600F016
:10104000E9FA0025F80500F18780F80300F1B18086
:10105000300707D51BF0100004D0206845F4007558
:101060001021C160700708D51BF0080005D020686A
:101070000821C160204600F0F5F9B00706D52068C8
:10108000C068800702D0204600F0EEF9700607D550
:101090001AF0100004D0206845F480651021016129
:1010A000B00608D51AF0080005D0206808210161B3
:1010B000204600F079FAF00606D52068006980071E
:1010C00002D0204600F072FAB00308D519F01000E3
:1010D00005D0206810214160204600F069FAF00335
:1010E00008D519F0080005D0206808214160204685
:1010F00000F09AFA300440F19B805FEA497040F1B9
:10110000948006F4807008EA102028435FEA887112
:10111000014648BF41F00201B20558BF01465FEAEF
:1011200048700D4648BF45F00405700558BF0D4690
:10113000300540F17A8018F0700000F076801038A9
:10114000000905286CD8DFE800F003655D61596986
:1011500045F0080564E000BF20684FF48071BA05CF
:1011600081600BD4780515D438051DD4204600F0D5
:1011700053FAF8037FF56CAF1BE000BF204600F088
:101180004DFAF8037FF564AF13E000BF4FF400653C
:1011900058E700BF05F50055F8037FF559AF08E0A3
:1011A0004FF480554EE700BF05F58045F8037FF505
:1011B0004FAF20684FF48031BA0381600AD47803BE
:1011C00010D4380314D4204600F02AFA30073FF533
:1011D00041AF47E7204600F025FA30073FF53AAF28
:1011E00040E700BF05F5004530073FF533AF39E76D
:1011F00005F5803530073FF52DAF33E745F0800525
:101200000EE000BF45F020050AE000BF45F04005B4
:1012100006E000BF45F0100502E000BF45F4807510
:101220002068816921F0700181612068042141609A
:1012300055B1606A40EA05012046616201B0BDE82F
:10124000F04FFFF721BE00BF01B0BDE8F08F0000F6
:10125000002804BF01207047B0B5044690F8200074
:1012600010B9204600F06EF82068016841F00101D5
:10127000016000F0F3FC054620684168C90705D10C
:1012800000F0ECFC401B0B28F6D310E0016821F0C5
:101290000201016000F0E2FC054600BF20684168E1
:1012A00089070DD500F0DAFC401B0B28F6D3606AE5
:1012B000052140F400306062012084F82010B0BDA8
:1012C000217E0268012922F0800208BF803202607C
:1012D000617E0268012922F0400208BF40320260AC
:1012E000A17E0268012922F0200208BF203202609C
:1012F000E17E0268012922F0100218BF103202605C
:10130000217F0268012922F0080208BF083202602A
:10131000617F0268012922F0040208BF04320260E2
:10132000D4E901C2D4E9033561691A432A43114360
:10133000ACF101021143C16100200121606284F817
:101340002010B0BD10B586B0006846F60002C4F2A9
:10135000000200219042CDE90411CDE90211019172
:1013600034D046F20041C4F20001884277D140F205
:101370008021C2F200010A6843F64000C4F2020074
:10138000531C0B6052B900210091016841F00071BB
:101390000160016801F00071009100990021009145
:1013A00050F8101C142441F0080140F8101C50F8AB
:1013B000100C032100F008000090009840F200405B
:1013C000C4F2020000F5006035E000BF43F64000C3
:1013D000C4F202000091016841F08061016001687F
:1013E00001F080610091009940F28021C2F2000179
:1013F0000A68531C0B6052B900210091016841F04A
:1014000000710160016801F00071009100990021F4
:10141000009150F8101C402441F0020140F8101CCB
:1014200050F8100C602100F002000090009840F28B
:101430000040C4F2020001910221029100210391B7
:10144000032104910921059101A900F031FB2046F7
:101450000021002200F084FC204600F06FFC06B062
:1014600010BD00007047000010B58AB003AA01ABA0
:1014700000210446FFF710FD40B140F21C10C2F2FB
:101480000000C1880131C1800AB010BD40F2F420D3
:10149000C2F20000844227D040F21C30C2F20000A9
:1014A0008442F1D140F21C10C2F20000C189DDE992
:1014B000052301311A43C181E6D1039840F2062188
:1014C000884265D040F20221884255D040F2012185
:1014D0008842D9D140F2C401C2F2000101A8FFF74D
:1014E0005BFB0AB010BD00BF40F21C10C2F200004E
:1014F0008189DDE9052301311A438181C4D1039833
:10150000A0F201200428BFD8DFE800F0042A1A2046
:10151000100000BF44F24C30C2F2000000F1840120
:1015200001A8FFF739FB0AB010BD00BF40F29021BF
:10153000C2F2000101A8FFF78BFB0AB010BD00BF8B
:1015400044F24C30C2F200001AE000BF44F24C31C9
:10155000C2F2000101A8FFF71FFB0AB010BD00BFD7
:1015600044F24C30C2F2000000F1580101A8FFF72C
:1015700013FB0AB010BD00BF40F2C400C2F200006D
:1015800000F12C0101A8FFF707FB0AB010BD00BF56
:1015900040F29020C2F2000000F12C0101A8FFF7F8
:1015A00057FB0AB010BD00007047000070470000F4
:1015B00070470000B0B5044690F8200001281DD106
:1015C000022084F820002068016821F001010160F8
:1015D00000F044FB054600BF20684068C00713D0F8
:1015E00000F03CFB401B0B28F6D3606A40F400304F
:1015F0006062052084F820000120B0BD606A40F4DC
:10160000002060620120B0BD00206062B0BD00001B
:1016100070470000704700007047000070470000EE
:1016200070470000704700007047000070B5866D7D
:10163000044600F013FB94F83510022928D1054622
:101640002068216C026822F016020260426922F0D2
:101650008002426109B9A16C19B1016821F0080149
:101660000160016821F00101016000BF206800688D
:10167000C00715D000F0F2FA401B0628F6D3202050
:101680006065032084F83500002184F8341070BDB3
:10169000802060650120002184F8341070BD00BFF7
:1016A000E06D3F2101FA00F0B060012084F83500C0
:1016B0000020002184F8341070BD000090F835102F
:1016C000022909D1052180F835100068016821F050
:1016D00001010160002070478021416501207047B1
:1016E000406D7047F0B581B00021009140F24C018F
:1016F000C2F200010B68D0E9166148F2B5153768EF
:101700000822C1F64E358A403A42A3FB05350CD07B
:1017100003681C68640708D51C6824F004041C6076
:10172000B260426D42F00102426501228A403A42B3
:1017300008D003685B691B0604D5B260426D42F0B5
:101740000202426504228A403A4208D003681B68BC
:101750009B0704D5B260426D42F00402426510223C
:101760008A403A4219D001680B681B0715D5B26050
:101770000B680A685B0309D4D20509D40A6822F011
:1017800008020A60016C29B907E000BF110341D4C7
:10179000016C11B1044688472046C26D202101FA30
:1017A00002F33B4243D001680F68FF063FD5B360A8
:1017B00090F835700B68052F1CD123F016030B60D1
:1017C0004B6923F080034B61036C0BB9836C1BB135
:1017D0000B6823F008030B603F219140B1600121A9
:1017E00080F83510016D0022002980F8342054D192
:1017F00058E000BF0A685B0310D4D20512D40A680F
:1018000022F010020A60012180F83510002180F8D2
:10181000341007E0816C0029BCD1BEE7110301D46C
:10182000416C00E0C16B11B1044688472046416D10
:10183000C1B3416DC9072ED0052180F8351001686C
:10184000AA0A0B6823F001030B60009B013393424B
:1018500000931AD80B68DB0717D0009B0133934223
:10186000009312D80B68DB070FD0009B0133934223
:1018700000930AD80B68DB0707D0009B0133934223
:10188000009302D80B68DB07DFD1012180F8351007
:10189000002180F83410C16C21B101B0BDE8F040E6
:1018A000084700BF01B0F0BD2DE9F041044600F04B
:1018B000D5F9ECB10546022084F8350000202168F6
:1018C00084F83400086820F0010008602168086886
:1018D000C00711D000F0C2F9401B0528F6D9032536
:1018E00020230320636584F83550BDE8F08100BFF4
:1018F0000120BDE8F08100BF086848F23F02CFF246
:101900001002D4E9013500EA020C04F10C0898E851
:10191000C10143EA0C032B431843D4E9072E30439B
:1019200038431043626A40EA0E00042A40EA080382
:101930001CD1206BD4E90A2E40EA0E00184308603F
:101940004869BEF1000F20F0030040EA020040F0B9
:10195000040C11D0B8F5005F36D0B8F1000F45D1B6
:10196000022A46D0012A3BD032B942E00B604869D6
:1019700020F0070040EA020C01F0F8004AF6AB2222
:101980001038CAF6AA22A0FB02231A0947F26A639A
:10199000C1F814C0C0F600039A5C40F2FF335F2820
:1019A0004FF03F0021EA030100FA02F088BF043142
:1019B000C4E916128860002301250020636584F8BD
:1019C0003550BDE8F08100BF032AD5D8012540235A
:1019D0000120DFE802F0030E030500BF82E700BF2D
:1019E000AEF1C070B0FA80F0400904E0032A04D3DD
:1019F000C2D1CEF300600028BED0012540230120D3
:101A0000636584F83550BDE8F081000090F834C07B
:101A1000BCF1010F04BF0220704770B54FF0010CFC
:101A200080F834C0D0F858E090F835C0BCF1010F10
:101A300038D14FF0020C80F835C04FF0000CC0F8E0
:101A400054C0D0F800C08468056CC06DDCF800603C
:101A5000402C26F48026CCF80060CCF804300B46ED
:101A600004BF13460A463F2101FA00F0CCF80830C3
:101A7000CCF80C20CEF80800DCF8000040F016008E
:101A8000CCF800002DB1DCF8000040F00800CCF8E4
:101A90000000DCF8000040F00100CCF8000000205D
:101AA00070BD00BF002180F83410022070BD00001E
:101AB0002DE9F04F83B000F1200200F13E4741F6DE
:101AC0000045009207F1FF77C4F2020508224FEAB1
:101AD000B726A84208BF072200254FF000084FF0A4
:101AE0000009072E38BF4FEAB72201920AE000BF73
:101AF00009F1010908F10208B9F1100F05F1040517
:101B000000F0A2800F68012202FA09FE17EA0E0A0D
:101B1000EED0D1F804C003220CF003077E1E02FAB7
:101B200008F4012E6FEA040B12D88468CE6804EA28
:101B30000B0406FA08F634438460446824EA0E066F
:101B4000CCF3001404FA09F42643466004E000BF15
:101B5000032F01D103271EE0C6688C6806EA0B0636
:101B600004FA08F42643022FC66014D16FF0030272
:101B7000009E02EA590756F807C005F01C040F2220
:101B80000B69A2402CEA0202A3401A43F251D1F899
:101B900004C00CF00307026807FA08F302EA0B021C
:101BA0001A431CF4403F0260A2D0002243F64403D3
:101BB0000292C4F202031A6843F6004442F48042DF
:101BC0001A601A68C4F2010402F480420292029A76
:101BD00029F003024FF6084C2244CFF6FF7C52F85E
:101BE0000C3005F00C070F26BE40B343019E06FAE9
:101BF00007F73B4342F80C30A2684B6842EA0A07F9
:101C000043F60C4CDE0258BF22EA0A07A760C4F272
:101C1000010CDCF800209E0242EA0A0758BF22EAC3
:101C20000A07CCF8007062689E0342EA0A0758BFB0
:101C300022EA0A0767602268DB0342EA0A0758BF04
:101C400022EA0A07276053E703B0BDE8F08F0000DF
:101C5000002A08BF090481617047000044F248303F
:101C6000C2F200000068704740F2080044F24831B8
:101C7000C2F20000C2F2000100780A681044086055
:101C80007047000080B543F60040C4F202000168CE
:101C900041F400710160016841F4806101600168F4
:101CA00041F480710160032000F086F80F2000F0FD
:101CB00005F800F027F8002080BD000070B540F264
:101CC0000806C2F2000640F24C013278C2F200016E
:101CD0004FF47A730968B3FBF2F20446B1FBF2F1F8
:101CE000084600F0F1FD0F2C4FF0010508D838B977
:101CF0004FF0FF3021460022002500F031F87460DB
:101D0000284670BD82B0002043F640010190C4F225
:101D100002014A6842F480424A604A6802F4804202
:101D20000192019A0090086840F0805008600868AD
:101D300000F080500090009802B07047002848BF23
:101D4000704700F01F01012202FA01F11C2202EA91
:101D5000D0004EF20012CEF2000281507047000017
:101D600010B54EF60C5CCEF2000CDCF80030C3F37C
:101D7000022E8EF00704042C28BF0424BEF10303B6
:101D80004FF0FF3E0EFA04F438BF0023A143994000
:101D90000EFA03F39A43114300F00F0200F160437F
:101DA0000901043A03F564436244002848BF02F184
:101DB0000C03197010BD00004EF60C51CEF200015C
:101DC0000A684FF6FF031A4060F30A2242F080606F
:101DD00040F0FD7008607047002804BF0120704784
:101DE0002DE9F04143F60808C4F202080446D8F889
:101DF000F8030D4600F00700814207D988F8F85330
:101E0000D8F8F80300F00700A84277D120688107CE
:101E100017D5410705D5D8F8001041F4E051C8F8AE
:101E20000010010705D5D8F8001041F46041C8F84A
:101E30000010D8F80010A26821F0F0011143C8F892
:101E40000010C00740D1D8F8F80300F00700854221
:101E500007D288F8F853D8F8F80300F00700A84232
:101E60004CD12068410707D5D8F80010E26821F46A
:101E7000E0511143C8F80010000708D5D8F8000059
:101E8000216920F4604040EAC100C8F8000000F079
:101E90007DF8D8F8001047F25262C1F30311C0F682
:101EA0000002515C40F24C0220FA01F140F20C00B9
:101EB000C2F200000068C2F200021160FFF7FEFEED
:101EC0000020BDE8F08100BF6068811E022907D2B2
:101ED00058F8081C89015CBF0120BDE8F08111E0C1
:101EE000012807D158F8081C89035CBF0120BDE810
:101EF000F08107E058F8081C890703D40120BDE8E9
:101F0000F08100BFD8F8001021F003010843C8F8A1
:101F10000000FFF7A3FE064641F28837D8F800001C
:101F2000616800F00C00B0EB810F8CD0FFF796FEDB
:101F3000801BB842F2D90320BDE8F08140F24C008A
:101F400043F60801C2F20000C4F202010068096809
:101F500047F26262C1F38221C0F60002515CC840C0
:101F60007047000040F24C0043F60801C2F2000046
:101F7000C4F202010068096847F26262C1F34231AB
:101F8000C0F60002515CC8407047000010B543F62F
:101F90000404C4F202046168C1F3810142F200400A
:101FA000C0F2F400DFE801F002040A0210BD00BF35
:101FB00041F60030C0F2B70010BD00BF20682168B4
:101FC0002368490241F60031C0F2B70100F03F0238
:101FD000C3F388105CBF42F20041C0F2F401A1FBE0
:101FE00000010023FEF756F921680222C1F30141E6
:101FF00002EB4101B0FBF1F010BD0000002804BF6E
:10200000012070472DE9F04182B00446007843F684
:102010000006C007C4F202060CD0B06800F00C0045
:10202000042840F081803068800303D56068002870
:1020300000F06881207880071BD5B06810F00C0F85
:1020400009D0B06800F00C00082840F08780706864
:10205000400200F183803068800703D5E0680128E2
:1020600040F050813068216920F0F80040EAC1005A
:1020700030602078000713D4207840072AD4A5695F
:10208000002D00F03A81B06800F00C00082840F004
:10209000A580012D40F00E81012002B0BDE8F08145
:1020A0006069002800F082800020C4F247200121EE
:1020B000C0F8801EFFF7D2FD054600BF706F800795
:1020C000DAD4FFF7CBFD401B0228F7D9032002B07A
:1020D000BDE8F081306C5FEAC0080AD400200190AE
:1020E000306C40F080503064306C00F080500190D3
:1020F000019847F20007C4F200073868C00547D4CA
:10210000386840F480703860FFF7A8FD054600BFCE
:102110003868C0053CD4FFF7A1FD401B0228F7D961
:10212000032002B0BDE8F081B06800F00C00082880
:1021300003D1706840023FF576AF61683068B1F551
:10214000803F07D0B1F5A02F40F09A8040F4802066
:102150003060306840F4803030609AE0E0680028F9
:1021600040F20000C4F247205CD001210160FFF77B
:1021700075FD0546306880073FF574AFFFF76EFDCB
:10218000401B0228F6D9032002B0BDE8F08100BF51
:10219000A168306F012905D0052955D140F0040010
:1021A0003067306F40F00100306756E00020C4F225
:1021B00047200021C0F8801EFFF750FD054600BFF4
:1021C000706F80077FF558AFFFF748FD401B02286E
:1021D000F6D9032002B0BDE8F08100BF0027C4F2A9
:1021E000472700203866FFF739FD022D05460DD13F
:1021F0003068800140F18A80FFF730FD401B0228E3
:102200004FF00300F4D902B0BDE8F08130688001DE
:1022100073D5FFF723FD401B02284FF00300F5D9CB
:10222000F1E700BF00210160FFF718FD054600BF80
:10223000306880077FF51DAFFFF710FD401B0228B7
:102240004FF00300F4D9DEE720F001003067306F73
:10225000002920F0040030677AD0FFF7FFFC054624
:1022600041F28837306F800700F18480FFF7F6FC79
:10227000401BB842F6D9032002B0BDE8F08100BF90
:1022800020F4803030603068002920F480203060F5
:102290007AD0FFF7E3FC0546306880033FF5CAAE0D
:1022A000FFF7DCFC401B6428F6D9032002B0BDE830
:1022B000F08100BF7068E16900F480028A4221D198
:1022C000216A00F03F028A421CD147F6C071626A5F
:1022D0000140B1EB821F15D1A16A4FF6FF73C9030C
:1022E000994300F44032A1F580318A420AD1E16A73
:1022F00000F07060B0EB016F04D1002002B0BDE8C7
:10230000F08100BF012002B0BDE8F08104F11C059E
:102310002FCD084340EA8210D9034FF6FF72914354
:10232000A1F5803140EA05600843706001203866FD
:10233000FFF794FC044600BF30688001DDD4FFF74E
:102340008DFC001B02284FF00300F5D95BE700BFAE
:10235000FFF784FC054641F2883700BF306F8007E5
:1023600008D5FFF77BFC401BB8424FF00300F5D9BE
:1023700049E700BFB8F1000F3FF581AE306C20F0A7
:10238000805030647BE600BFFFF768FC054600BF65
:10239000306880037FF54EAEFFF760FC401B642879
:1023A0004FF00300F4D92EE770B528B1416A29B186
:1023B00000210161142106E0012070BD4168B1F5E2
:1023C000827F02D01C21002242500026866290F8B3
:1023D000511029B980F85060054600F03DF82846B4
:1023E000022180F8511090E82E0002F482720C68ED
:1023F00003F4044324F040040C601A4405F4006321
:1024000005691A4405F0020345691A4405F0010301
:102410008569C4691A4405F400731A4404F038034A
:10242000046A1A4404F08003846A1A4304F40053D3
:102430001A430A60436A042202EA154203F01003B9
:102440001A444A60CA6922F40062CA6101214665E1
:1024500080F85110304670BD2DE9F04F87B004462A
:1024600043F200070068C4F201070026B84206964E
:10247000CDE904660396029602D007B0BDE8F08F5E
:1024800043F630000196C4F20200416902AD41F406
:1024900080514161416946F2104801F48051019137
:1024A0000199019601684FF0020941F002010160B3
:1024B00001684FF0030A01F00201019101990196B0
:1024C00001684FF0050B41F00101016000682946E9
:1024D00000F00100019001981820029007F5544087
:1024E000C4F20208CDE90396CDF814A0CDF818B0D7
:1024F000FFF7DEFA8020CDE9020904A880E8400C4D
:1025000007F550402946FFF7D3FA40F24435C2F2AE
:1025100000054FF440304FF0C0674FF48069C5E9C3
:1025200008062846C5E90087C5E90266C5E904969C
:10253000C5E90666FFF7B8F9002818BFFEF782FB69
:10254000E564AC6340F2A43508F14800C2F200052E
:102550004021C5E9000705F10800002280E80602D5
:102560004FF40030C5E908022846C5E90522EA61B2
:10257000FFF79AF9002818BFFEF764FBA564AC6367
:1025800007B0BDE8F08F00002DE9F04383B01E4690
:1025900015460F460446FFF761FB94F8511081463B
:1025A000012909D1002F4FF0010018BF002D0FD1D4
:1025B00003B0BDE8F08300BF6068B0F5827F0DD145
:1025C00004294FF00200F3D1A1680029EAD0EFE717
:1025D000002EEDD094F85000012803D1022003B062
:1025E000BDE8F083012084F8500094F851000021E8
:1025F00004281CBF052084F851006165A563E687A7
:10260000A6872763E6862068A68621646164016840
:10261000490603D4016841F0400101606168731EFE
:10262000E268B1FA81F1B3FA83F3DDF82880490951
:102630005B09B2F5006F41EA030165D131B137F8AA
:10264000021BC1602763E08E0138E086012518F186
:10265000010032D102E000BFFFF700FBE08E18B9A5
:10266000E08F002800F0B8802068816889070CD5C9
:10267000E18E51B1012D08D1216B002531F8022BDB
:10268000C2602163E18E0139E1868168C907E3D028
:10269000E18F0029E0D0C068A16B012521F8020B71
:1026A000A163E08F0138E087D6E700BFFFF7D6FAD5
:1026B000A0EB0900404580F0A580E08E18B9E08FBE
:1026C000002800F089802068816889070CD5E18E98
:1026D00051B1012D08D1216B002531F8022BC260C8
:1026E0002163E18E0139E1868168C907DED0E18F7F
:1026F0000029DBD0C068A16B012521F8020BA16382
:10270000E08F0138E087D1E739B139780173206B68
:1027100001302063E08E0138E086012518F10100C8
:1027200032D101E0FFF79AFAE08E10B9E08F00286D
:1027300052D02068816889070ED5E18E61B1012DE4
:102740000AD1216B002509780173216B20680131C2
:102750002163E18E0139E1868168C907E2D0E18F0A
:102760000029DFD0C068A16B01250870A06B013083
:10277000A063E08F0138E087D4E700BFFFF76EFA6F
:10278000A0EB090040453DD2E08E08B9E08F18B3B8
:102790002068816889070ED5E18E61B1012D0AD1CB
:1027A000216B002509780173216B206801312163B9
:1027B000E18E0139E1868168C907DFD0E18F002908
:1027C000DCD0C068A16B01250870A06B0130A0634C
:1027D000E08F0138E087D1E72046022101224346FD
:1027E000CDF8009001F0FCFEB0B1606D40F020002B
:1027F000606520206065002084F85000012003B04F
:10280000BDE8F083012084F85100002084F85000D6
:10281000032003B0BDE8F08340F24C00C2F2000098
:10282000006849F68171C1F25E61A0FB0101480DAB
:102830004FF47A71484302906068B0F5827F0BD103
:102840002046802100224346CDF8009001F0C8FECA
:102850000028CAD121E000BF0298F0B102980138E7
:10286000029020688168090617D50299A9B10299DA
:1028700001390291816809060FD5029969B102995F
:10288000013902918168090607D5029929B1029997
:102890000139029180680006DED4A06838B90020B2
:1028A00001902068C1680191806801900198012021
:1028B00084F85100002084F85000606D002818BF93
:1028C000012003B0BDE8F083411E0020B0EB116F82
:1028D0001CBF012070474EF21002CEF20002516080
:1028E0004EF62351CEF20001F0230B7007219060C9
:1028F00011607047704700007047000090F83C205E
:10290000012A4FF0020254D010B580F83D20026831
:10291000D2F804E0D2F808C00C682EF0700323430C
:1029200041F2FF74C4F20004A24253600EDC40F294
:10293000FF73C4F200039A4216DCB2F1804F2BD031
:1029400040F20043C4F2000324E000BF40F2FF3332
:10295000C4F201039A4213DC41F60003C4F20003FF
:102960009A4219D0002313E040F60003C4F200039A
:102970009A4211D040F60043C4F200030AE000BFBF
:1029800044F20003C4F201039A4205D040F200432E
:10299000C4F201039A4204D149682CF08003194320
:1029A00091600121002280F83D1080F83C20BDE8B4
:1029B0001040104670470000002804BF01207047F7
:1029C00010B5044690F83D0028B9002084F83C007A
:1029D000204600F01FF8022084F83D002068211DE9
:1029E00001F028FF012084F8460084F83E0084F8B6
:1029F0003F0084F8400084F8410084F8420084F8E5
:102A0000430084F8440084F8450084F83D00002029
:102A100010BD0000006841F20001C4F200018842CC
:102A200018BF704780B582B00020019043F6400087
:102A3000C4F202000168002241F010010160006848
:102A4000012100F01000019001983620FFF788F96D
:102A5000362002B0BDE88040FFF770B990F83D1015
:102A600001291CBF01207047022180F83D10006839
:102A700041F2FF71C4F2000188420DDC40F2FF71A7
:102A8000C4F20001884215DCB0F1804F2AD040F238
:102A90000041C4F2000123E040F2FF31C4F2010121
:102AA000884213DC41F60001C4F20001884219D0CB
:102AB000002113E040F60001C4F20001884211D069
:102AC00040F60041C4F200010AE000BF44F20001F8
:102AD000C4F20101884205D040F20041C4F2010174
:102AE000884206D1816801F00701062904BF002051
:102AF0007047016841F0010101600020704700004B
:102B00007047000070B504460068C5680669B107E3
:102B100016D515F0020113D06FF0020101610121F9
:102B200021778069800703D02046FFF7E9FF05E0A1
:102B3000204600F08FF8204600F08EF80020207725
:102B4000700719D515F0040016D020686FF0040145
:102B5000016102212177806910F4407F04D0204672
:102B6000FFF7CEFF06E000BF204600F073F82046D6
:102B700000F072F800202077300717D515F0080014
:102B800014D020686FF00801016104212177C06929
:102B9000800703D02046FFF7B3FF05E0204600F092
:102BA00059F8204600F058F800202077F00619D593
:102BB00015F0100016D020686FF010010161082197
:102BC0002177C06910F4407F04D02046FFF798FFBA
:102BD00006E000BF204600F03DF8204600F03CF83B
:102BE00000202077F00718BF15F0010002D1300651
:102BF00009D412E020686FF001010161204600F065
:102C00002DF8300609D515F0800006D020686FF049
:102C1000800101612046FFF76DFE700609D515F0B1
:102C2000400006D020686FF040010161204600F0AE
:102C300017F8B00658BF70BD15F0200008D0216805
:102C40006FF0200220460A61BDE87040FFF754BED5
:102C500070BD000070470000704700007047000022
:102C60007047000070B582B090F84250202D0BD113
:102C700013460A460146002A4FF0010018BF002BF8
:102C800006D102B070BD00BF022002B070BD00BF0F
:102C90000863002622204E638A628B854E6481F889
:102CA00042000C680D46C86B44F6F92C44F65941B5
:102CB000C0F6000CC0F60001C0E90FC144F67D115A
:102CC000C0F60001C0E91316211DFEF79FFEE8B310
:102CD000102068642020294685F8420001200A6BF4
:102CE000012A40F0B380002200920A681368009322
:102CF00052680092009A00BF0A6852E8032F0B68DE
:102D000042F0100243E80326002EBAD00A6852E8C7
:102D1000032F0B6842F0100243E80326002EB0D0C8
:102D20000A6852E8032F0B6842F0100243E80326BA
:102D3000002EA6D00A6852E8032F0B6842F010025A
:102D400043E80326002ED7D19BE700BF01962868F1
:102D5000294602680192406801900198286928B3C9
:102D6000086850E8030F0A6840F4807042E80303E3
:102D7000E3B1086850E8030F0A6840F4807042E845
:102D800003039BB1086850E8030F0A6840F48070A1
:102D900042E8030353B1086850E8030F0A6840F49F
:102DA000807042E80303002BDAD100BF086850E8C6
:102DB000050F0A6840F0010042E80503BBB308684C
:102DC00050E8050F0A6840F0010042E8050373B3BC
:102DD000086850E8050F0A6840F0010042E8050362
:102DE0002BB3086850E8050F0A6840F0010042E87C
:102DF0000503002BDAD11AE0086850E8050F0A68CD
:102E000040F0400042E80503DBB1086850E8050FD8
:102E10000A6840F0400042E8050393B1086850E8B2
:102E2000050F0A6840F0400042E805034BB108680E
:102E300050E8050F0A6840F0400042E80503002B07
:102E4000DAD100200A6B012A3FF44DAF012002B015
:102E500070BD0000006844F60002C4F20002904217
:102E600018BF704770B540F23414C2F20004608895
:102E7000122900F10100608004F10600A18050D306
:102E80004EF28F325143090D01EBC1016FF0110277
:102E900002EB410114FA81F393F82910402940D341
:102EA000C1F3011EBEF1000F3BD003F124000378F3
:102EB0004278857862F30A23D208C67865F34A120D
:102EC000A3F58063A2F5806223816281B200037959
:102ED00042EA951263F38A22A2F58062A2815A081F
:102EE00061F3CA124FEA911CA2F58061E181D0F82A
:102EF0000610027B61614189A276027C437C2183BA
:102F0000417BC08963F30A22A083A2F5806084F824
:102F100012E084F813C0E1762082FEF79FFE206263
:102F20002046018824220131018040F2045004F13E
:102F30002401C2F20000FFF795FE40F20440C2F205
:102F400000000068016821F008010160BDE87040E0
:102F50007047000010B50446206850E8030F216850
:102F600020F4907041E80302BAB3206850E8030FE0
:102F7000216820F4907041E8030272B3206850E8A1
:102F8000030F216820F4907041E803022AB32068FF
:102F900050E8030F216820F4907041E80302002AF2
:102FA000DAD11AE0206850E8050F216820F001000E
:102FB00041E80502DAB1206850E8050F216820F0E9
:102FC000010041E8050292B1206850E8050F216830
:102FD00020F0010041E805024AB1206850E8050FE1
:102FE000216820F0010041E80502002ADAD1206BB7
:102FF000012824D1206850E8030F216820F0100038
:1030000041E80302DAB1206850E8030F216820F09C
:10301000100041E8030292B1206850E8030F2168D4
:1030200020F0100041E803024AB1206850E8030F85
:10303000216820F0100041E80302002ADAD120685C
:103040004069400636D500BF206850E8050F21686A
:1030500020F0400041E80502DAB1206850E8050F91
:10306000216820F0400041E8050292B1206850E854
:10307000050F216820F0400041E805024AB12068B0
:1030800050E8050F216820F0400041E80502002AC1
:10309000DAD1E06B70B100210165FEF7C7FA48B1E3
:1030A000E06BFEF71DFB202804D110206064032094
:1030B00010BD00BF00202021E08584F8421020636D
:1030C00010BD0000016844F60002C4F20002914203
:1030D00018BF704710B582B0002201920B680446F9
:1030E00001934B680193019B01920B6801934B681C
:1030F0000193019B01920B6801934B680193019B23
:1031000001920B6801934B680193019B01920B683C
:1031100001934968019101994264FFF71BFF40F256
:103120003410C2F2000000F1240120462422FFF7EF
:1031300099FD40F20440C2F200000068016821F0ED
:103140000801016002B0BDE810407047B0B582B020
:1031500001680A68CC684B6902F02F05202D04F045
:10316000200505D125B102B0BDE8B04001F080BD19
:103170005FEA027C1EBF03F0010E04F4907313EBB0
:103180000E0341D1036BD50618D5012B16D114F0CF
:10319000100313D0002201920A6801924A6801923A
:1031A000019A496949064BD4818DC28DC38D002B8C
:1031B00018BF914240F0068202B0B0BD13062DD573
:1031C00014F080032AD090F84120212AF4D182689B
:1031D000B2F5805F03D10269002A00F07982026AA9
:1031E000531C036212784A60C28C013A1304C284F1
:1031F000E2D1C86820F08000C860C86840F0400094
:10320000C86002B0B0BD00BFD30718BF14F480730C
:1032100040F0E280530700F1E580EAE05206CBD5AA
:1032200014F04002C8D0CA6822F04002CA602021CF
:1032300080F8411002B0BDE8B04000F0EBBA00BF2A
:10324000C26B11684B68858D99B2002900F0B4807B
:10325000A94280F0B180C385D169B1F5807F00F0CB
:10326000A080016851E8031F026821F4807142E8E0
:103270000313DBB1016851E8031F026821F4807178
:1032800042E8031393B1016851E8031F026821F477
:10329000807142E803134BB1016851E8031F0268D3
:1032A00021F4807142E80313002BDAD1016851E860
:1032B000051F026821F0010142E80513BBB3016854
:1032C00051E8051F026821F0010142E8051373B3BC
:1032D000016851E8051F026821F0010142E8051369
:1032E0002BB3016851E8051F026821F0010142E893
:1032F0000513002BDAD11AE0016851E8051F0268B6
:1033000021F0400142E80513DBB1016851E8051FD7
:10331000026821F0400142E8051393B1016851E8C9
:10332000051F026821F0400142E805134BB1016816
:1033300051E8051F026821F0400142E80513002B07
:10334000DAD1202180F8421000210163016851E8A0
:10335000031F026821F0100142E80313DBB101688A
:1033600051E8031F026821F0100142E8031393B1F2
:10337000016851E8031F026821F0100142E80313BD
:103380004BB1016851E8031F026821F0100142E8C7
:103390000313002BDAD1C16B04460846FEF746F949
:1033A000204602214163818DC28D891A89B202B003
:1033B000BDE8B040FFF74EBD8D427FF4FDAED2694F
:1033C000B2F5807F7FF4F8AE0222426302B0BDE81E
:1033D000B040FFF73FBD00BF436C43F001034364BF
:1033E000530706D5BEF1000F03D0436C43F0020330
:1033F0004364930706D5BEF1000F03D0436C43F03E
:1034000004034364BCF1000F06D55EEA050303D054
:10341000436C43F008034364436C002B3FF4CCAE91
:10342000920605D525B1044601F022FC216820460C
:103430004969426C01F0400102F00802891800F06D
:10344000B98000BF016851E8031F026821F4907140
:1034500042E80313BBB3016851E8031F026821F47B
:10346000907142E8031373B3016851E8031F0268C7
:1034700021F4907142E803132BB3016851E8031F54
:10348000026821F4907142E80313002BDAD11AE0AC
:10349000016851E8051F026821F0010142E80513A7
:1034A000DBB1016851E8051F026821F0010142E823
:1034B000051393B1016851E8051F026821F001016D
:1034C00042E805134BB1016851E8051F026821F07D
:1034D000010142E80513002BDAD1016B012924D147
:1034E000016851E8031F026821F0100142E803134C
:1034F000DBB1016851E8031F026821F0100142E8C6
:10350000031393B1016851E8031F026821F0100111
:1035100042E803134BB1016851E8031F026821F030
:10352000100142E80313002BDAD1202180F8421069
:103530000021016301684969490640F1C3800168BF
:1035400051E8051F026821F0400142E80513DBB194
:10355000016851E8051F026821F0400142E80513A7
:1035600093B1016851E8051F026821F0400142E86B
:1035700005134BB1016851E8051F026821F04001B5
:1035800042E80513002BDAD1C16B002900F09A80C4
:1035900044F67112C0F60002044608460A65FEF7BA
:1035A0008DF800283FF408AEE06B016D02B0BDE875
:1035B000B04008470446FFF785FD0020606402B074
:1035C000B0BD00BF891A00BF026852E8032F03682C
:1035D00022F4907243E80325BDB3026852E8032F3A
:1035E000036822F4907243E8032575B3026852E839
:1035F000032F036822F4907243E803252DB3026879
:1036000052E8032F036822F4907243E80325002D4B
:10361000DAD11AE0026852E8052F036822F00102AD
:1036200043E80525DDB1026852E8052F036822F062
:10363000010243E8052595B1026852E8052F0368A9
:1036400022F0010243E805254DB1026852E8052F3A
:10365000036822F0010243E80525002DDAD120227B
:1036600080F8422000220263026852E8032F0368B8
:1036700022F0100243E80325DDB1026852E8032F6F
:10368000036822F0100243E8032595B1026852E86E
:10369000032F036822F0100243E803254DB10268AE
:1036A00052E8032F036822F0100243E80325002D9F
:1036B000DAD1022289B2426302B0BDE8B040FFF71E
:1036C000C9BB00BF02B0BDE8B040FFF7FBBC00BF04
:1036D000026A32F8023B6FF35F234B60026283E5BC
:1036E000002804BF0120704710B5044690F841003F
:1036F00028B9002084F84000204600F021F824205A
:1037000084F841002068C16821F40051C16020465E
:1037100001F02EFB2068016921F4904101614169AB
:1037200021F02A014161C16841F40051C1600020CB
:103730002021606484F8411084F84210606310BD59
:1037400070B586B0044644F600002168C4F200005B
:10375000002681420596CDE903660296019601D0C6
:1037600006B070BD43F630010096C4F202010A694A
:1037700000F5E03042F480220A610A6902F48022F6
:103780000092009A00960A6842F004020A600968F2
:1037900001F00401009100994FF440610191022170
:1037A000CDE90216032104910721059101A9FEF735
:1037B0007FF940F2044546F22800C2F20005C4F247
:1037C00002004FF0006185E843004FF400304FF4F1
:1037D00080624FF48073C5E908062846C5E9036294
:1037E000C5E90566EB61FEF75FF8002818BFFDF735
:1037F00029FA272000210022E563AC63FEF7B0FA26
:103800002720FEF79BFA06B070BD0000704700004D
:103810007047000070470000FEE7000010B540F25E
:10382000F42046F20041C2F20000C4F2000103227B
:1038300000234FF4807480E80E0000F10C014FF477
:10384000002C4FF4401E81E8085084618483FDF70A
:10385000FFFC002808BF10BDBDE81040FDF7F2B91D
:1038600010B540F21C3046F60001C2F20000C4F26E
:103870000001032200234FF4807480E80E0000F161
:103880000C014FF4002C4FF4401E81E80850846175
:103890008483FDF7DDFC002808BF10BDBDE81040A3
:1038A000FDF7D0B980B582B0002043F63001019019
:1038B000C4F202010A6842F400120A600A6802F4C3
:1038C00000120192019A00900868002240F48000E2
:1038D00008600868002100F48000009000980C2027
:1038E000FEF73EFA0C20FEF729FA382000210022CC
:1038F000FEF736FA3820FEF721FA3B20002100229D
:10390000FEF72EFA3B2002B0BDE88040FEF716BA63
:103910002DE9F04387B0002743F630000697CDE944
:103920000477CDE902770197C4F20200016800250F
:1039300041F0020101600168C4F2020501F00201D8
:103940000191019901970168002241F00101016094
:1039500001684FF0100801F00101019101990197F0
:10396000016841F008010160016801F0080101915E
:1039700001990197016841F004010160016801F0BB
:103980000401019101990197016841F080010160F2
:103990000068102100F08000019001982846FEF791
:1039A00057F905F580642046012100220126FEF723
:1039B0004FF9CDE902860DF108084FF002092846BB
:1039C00041460496CDF81490FEF772F8302002902C
:1039D0004FF48810CDE9030705F500604146FEF776
:1039E00067F820464146CDE90266CDE90469FEF755
:1039F0005FF807B0BDE8F083B0B540F2644043F231
:103A00000001C2F20000C4F201014FF482720023EF
:103A100080E80E0000F10C014FF0020C4FF0010E97
:103A20004FF40074382581E808500A21C0E90645A2
:103A3000C0E90833C0E90A31FEF7B6FC002808BF28
:103A4000B0BDBDE8B040FDF7FDB8000080B582B064
:103A500040F2BC4041F200020021C2F20000C4F278
:103A60000002532340F2CF7CCDE90011C0E90023CE
:103A7000C0E9021C8161FEF79FFF002818BFFDF717
:103A8000E1F840F2BC40C2F200006946FEF736FFA2
:103A9000002818BFFDF7D6F802B080BD10B540F27F
:103AA000045044F6000C48F2A062C2F20000C4F2D6
:103AB000000CC0F201024FF4805300214FF4806EDD
:103AC0000C24C0E900C2C0E90231C0E904E4C0E945
:103AD0000611FFF705FE002808BF10BDBDE8104025
:103AE000FDF7B0B8FEE7000082B0FCF797FE30B1FA
:103AF0000A2001F0A7FCFCF791FE0028F8D103F0A2
:103B0000BFF840F2E82440F2842540F24476C2F245
:103B10000004C2F20005C2F2000601AF019000BF2E
:103B2000204629463246FCF785FE00F0D7F8384695
:103B3000022102F01DFAF3E770B540F24C55C2F2D3
:103B40000005002440F210066C606C62C2F20006B0
:103B500096ED000AD6ED010A96ED021AD6ED031A8B
:103B600096ED042A05F1440001F0DEF9AC6296ED11
:103B7000000AD6ED010A96ED021AD6ED031A96ED6B
:103B8000042A05F16C0001F0CFF9EC6296ED000A11
:103B9000D6ED010A96ED021AD6ED031A96ED042A27
:103BA00005F1940001F0C0F92C6396ED000AD6ED02
:103BB000010A96ED021AD6ED031A96ED042A05F1D4
:103BC000BC0001F0B1F996ED050AD6ED060A96EDB6
:103BD000071AD6ED081A96ED092A05F584742046D1
:103BE00001F0A2F99FED0B0A204601F0B9F996ED1C
:103BF0000A0AD6ED0B0A96ED0C1AD6ED0D1A96EDC3
:103C00000E2A05F5987001F08FF90020BDE870408C
:103C100000F002B8CDCC4C3FB0B52DED028B40F298
:103C20004C54C2F200042070002504F14400A56049
:103C3000E56025616561656301F088F99FED268A7D
:103C40000020B0EE480A00F053FC04F16C00A561BE
:103C5000A56301F07BF90120B0EE480A00F048FCB2
:103C600004F19400E561E56301F070F90220B0EE23
:103C7000480A00F03DFC04F1BC002562256401F017
:103C800065F90320B0EE480A00F032FC0020B0EEE7
:103C9000480A00F011FC0120B0EE480A00F00CFCCC
:103CA0000020B0EE480A00F015FC0120B0EE480AF2
:103CB00000F010FC04F5847001F048F904F59870E8
:103CC00001F044F9C4F8F050C4F8005184F80451EC
:103CD000BDEC028BB0BD00BF00000000F0B581B0AC
:103CE0002DED028B40F24C54C2F2000460680130AA
:103CF000606000F067FC58B140F23C15C2F200056C
:103D0000A87A03280ED0022814BF0020032000E068
:103D10000220FFF781FFBDEC028B01B0BDE8F0404F
:103D200000F088BAB5F90620B5F904104FF66C56C4
:103D300012F5257FB5F90000CFF6FF76D8BF3246E1
:103D4000B2F5257F4FF42577A8BF3A4600EE102A3A
:103D50009FEDDF8A11F5257FD8BF3146B8EEC00A46
:103D6000B1F5257FA8BF394601EE101A80EE080A8A
:103D7000B8EEC11A10F5257FD8BF304681EE081A7B
:103D8000B0F5257FA8BF384602EE100AB8EEC22A69
:103D900082EE082AB1EE083A9FEDCF4A20EE030AE0
:103DA00084ED020A21EE030A84ED030AB1EE040A4F
:103DB0009FEDC83A22EE000A84ED040A94ED020A4F
:103DC00094ED031A94ED042A22EE032A30EE013A10
:103DD00030EE410A33EE025A30EE421A30EE020A59
:103DE00025EE045A21EE041A20EE040A84ED055A49
:103DF00084ED061A84ED070A33EE420A20EE040A27
:103E000084ED080A94F80401A8B90020C4F2AF4078
:103E1000C4F8E4004EF20000C4F2AB50C4F8F40061
:103E200004F5847001F092F804F5987001F08EF8B2
:103E3000012084F80401B5F902009FEDA81A10F5DD
:103E4000257FC8BF0646B6F5257FB8BF374600EECA
:103E5000107AB8EEC00A80EE080A94ED3D2A40F2CE
:103E60009020C2F2000020EE010A9FED9D1A20EE84
:103E7000010A30EE020A84ED3D0A94ED3D0A9FED01
:103E8000991A9FED992AB4EE410AF1EE10FAB8BFE3
:103E9000B0EE410AB4EE420AF1EE10FAB8BFB0EE4D
:103EA000402A84ED3D2A01889FED902A00EE101AE9
:103EB000B8EE400A84ED3A0A808D00EE100AB8EEA2
:103EC000400A84ED3E0A94ED390A94ED3A1A30EE38
:103ED000410AB4EE420AF1EE10FA03DD9FED861AB4
:103EE00009E000BF9FED821AB4EE410AF1EE10FA2C
:103EF00003DA9FED801A30EE010A84ED3B0A94ED5F
:103F00003D0A94ED3E1A40F2100530EE410A84ED70
:103F10003F0AC2F20005686904F58473A969EA6979
:103F200007C3286A04F5947C696AAA6AEB6A2F6B56
:103F30008CE88F00686BA96BB3EE0E1AC4E95401CC
:103F400094ED3B0AB0EEC00AB4EE410AF1EE10FA6D
:103F50000ADD94ED3B0ADFED690A9FED611A04F575
:103F6000847000F07FFF05E004F5847000F0EEFF40
:103F70009FED620A84ED3C0A9FED598A94ED3F0A59
:103F8000DFED5E0A04F59870B0EE481A00F06AFFA3
:103F900084ED400A94ED3C0A002000F09BFA94ED79
:103FA000400A0120012600F095FA26702968204673
:103FB00040F8441F6968AA6844F24C36C4E91212FA
:103FC000E9682A69C2F20006C4E919126169B0EE13
:103FD000481A61617168616294ED050AD4ED090ABD
:103FE00000F040FF84ED0D0A94ED0D0A002000F072
:103FF0007FFA2968204640F86C1F6968AA68B0EE0D
:10400000481AC4E91C12E9682A69C4E9231294ED2C
:10401000060AB1EE400A84ED060A316BA16294ED06
:10402000060AD4ED0A0A00F01DFF84ED0E0A94ED95
:104030000E0A012000F05CFA2968204640F8941F1F
:104040006968AA68B0EE481AC4E92612E9682A69C4
:10405000C4E92D12E169E161F16DE16294ED070AB5
:10406000D4ED0B0A00F0FEFE84ED0F0A94ED0F0A6A
:10407000022000F03DFA2868B0EE481A44F8BC0F60
:104080006868A968C4E90101E8682969C4E9080108
:1040900014ED270AB1EE400A04ED270AD6F888008D
:1040A00044F88C0C14ED270A54ED230A204600F046
:1040B000D9FE04ED1F0A14ED1F0A032000F018FAC0
:1040C000BDEC028B01B0BDE8F04000F0B3B800BF1A
:1040D000000025449A99193F75D9164100007A4489
:1040E0006F12033B00409C450080BB4500008045AB
:1040F000000080C500000046000000C6000000006F
:1041000040F2C000C2F200000178002918BF7047D9
:10411000B0B544F24C32C2F200024FF4017440F2E6
:10412000000E44F2000346F2000C546240F20324F5
:10413000C4F2A01EC4F29C63C4F2EA6C00211465B0
:1041400040F2022440F2012582F828101182C2E9CF
:10415000051EC2E9073C1180C2E90111117382F802
:1041600054109187C2E9101EC2E9123C9185C2E940
:104170000C1182F8381082F88010A2F86810C2E999
:104180001B1EC2E91D3CD467A2F85810C2E91711E2
:1041900082F8641082F8AC10A2F89410C2E9261ECE
:1041A000C2E9283CC2F8A850A2F8841082F8901006
:1041B000C2E9221140F290224465C2F2000240F2AC
:1041C000052480F82C108182C0E9061E81800174CC
:1041D000C0E9021180F85810A0F84010C0E9111E83
:1041E000018680F83C10C0E90D1182F82810118278
:1041F000C2E9051E546211801173C2E9011140F237
:10420000062482F854109187C2E9101E918582F825
:104210003810C2E90C110121C0E9083C8562C0E9EF
:10422000133CC2E9073CC2E9123C14650170BDE8C9
:10423000B0407047F0B583B044F24C30C2F2000099
:10424000828C002101910091511EC9B24CF20005EF
:104250000329CFF6FF7519D890ED050A9FED951A41
:104260006F4620EE010ABDEEC00A10EE102AB2F52C
:10427000804FA8BF4FF4804212F5804FD8BF2A4626
:10428000130A07EB410607F811307270B0F85010AE
:104290000139C9B2032919D890ED100A9FED851A8A
:1042A0006F4620EE010ABDEEC00A10EE102AB2F5EC
:1042B000804FA8BF4FF4804212F5804FD8BF2A46E6
:1042C000130A07EB410607F811307270B0F87C1042
:1042D0000139C9B2032919D890ED1B0A9FED751A4F
:1042E0006F4620EE010ABDEEC00A10EE102AB2F5AC
:1042F000804FA8BF4FF4804212F5804FD8BF2A46A6
:10430000130A07EB410607F811307270B0F8A810D5
:104310000139C9B2032919D890ED260A9FED651A13
:104320006B4620EE010ABDEEC00A10EE100AB0F591
:10433000804FA8BF4FF4804010F5804FD8BF28466B
:10434000020A03EB410703F81120787040F2F420D1
:104350006C46C2F200004FF400712246FCF7CCFB21
:1043600040F2C000C2F20000018D00220139C9B242
:1043700003290192009218D890ED060A9FED4D1A7C
:1043800004EB410720EE010ABDEEC00A10EE102A30
:10439000B2F5804FA8BF4FF4804212F5804FD8BFCE
:1043A0002A46130A04F811307A70B0F85410013913
:1043B000C9B2032918D890ED110A9FED3E1A04EBFB
:1043C000410320EE010ABDEEC00A10EE100AB0F55E
:1043D000804FA8BF4FF4804010F5804FD8BF2846CB
:1043E000020A04F81120587040F21C306C46C2F2E8
:1043F00000004FF400712246FCF77EFB40F290264D
:10440000C2F20006B08C0027FB30C0B2032801972F
:10441000009718D896ED050A9FED261A04EB400385
:1044200020EE010ABDEEC00A10EE101AB1F5804F61
:10443000A8BF4FF4804111F5804FD8BF29460A0A22
:1044400004F81020597040F2F4206C46C2F20000CB
:1044500040F2FF112246FCF74FFBB6F850000197DF
:10446000FB30C0B20328009718D896ED100A9FEDD4
:10447000111A04EB400220EE010ABDEEC00A10EE54
:10448000101AB1F5804FA8BF4FF4804111F5804F4D
:10449000C8BF0D46290A04F81010557040F21C30B0
:1044A000C2F200006A4640F2FF11FCF725FB03B0A0
:1044B000F0BD00BF0000C842012888BF704740F22D
:1044C000C001C2F200012C2210FB021080ED060A8E
:1044D00070470000012888BF704740F29021C2F267
:1044E00000012C2210FB021080ED050A704700002D
:1044F000032888BF704744F24C31C2F200012C22DD
:1045000010FB021080ED050A70470000FEE7000076
:10451000EFF30980BFF36F8F154B1A681EF0100F71
:1045200008BF20ED108A20E9F04F10602DE9090046
:104530004FF0500080F31188BFF34F8FBFF36F8FA0
:1045400001F044FE4FF0000080F31188BDE809003F
:1045500019680868B0E8F04F1EF0100F08BFB0EC03
:10456000108A80F30988BFF36F8F704700BF00BFC8
:10457000A401002080B582B040F23411C2F20001E3
:104580000020C1E90200C1E90400C1E90600086297
:10459000019040F20450C2F2000002682431136816
:1045A000019352680192019A2422FEF75BFB40F2CC
:1045B0000440C2F200000068016821F008010160B7
:1045C00002B080BD80B5FDF749FB40F23411C2F264
:1045D0000001096A411A0020652938BF012080BD09
:1045E0002DE9F04381B0089C984615460E46814659
:1045F000FDF734FB201A00EB0804FDF72FFB40F217
:104600004C01C2F200010968C1F3CB316143009152
:10461000D9F800108A683240921BB2FA82F252092D
:10462000954203D1002001B0BDE8F083074618F1A0
:1046300001000ED130E000BF009801380090D9F899
:10464000000080683040801BB0FA80F0400985424D
:10465000E8D0FDF703FBC01BA04227D2009800283A
:10466000EAD10024EBE700BF88683040801BB0FA35
:1046700080F040098542D5D088683040801BB0FA70
:1046800080F040098542CDD088683040801BB0FA68
:1046900080F040098542C5D088683040801BB0FA60
:1046A00080F040098542DFD1BCE700BFD9E90001B5
:1046B0004268B1F5827F22F0E00242600BD1D9F866
:1046C0000810B1F5004F02D0B1F5806F03D1016839
:1046D00021F040010160D9F82810B1F5005F07D141
:1046E000016821F400510160016841F4005101604A
:1046F000012089F85100002089F85000032001B002
:10470000BDE8F08300000000000000000000000091
:10471000074B19680868B0E8F04F80F30988BFF3C9
:104720006F8F4FF0000080F31188704700BF00BF0B
:10473000A401002080B54FF0500080F31188BFF332
:104740006F8FBFF34F8F02F0A1FA30B14EF60450D5
:10475000CEF200004FF080510160002080F31188FC
:10476000BDE88040FDF780BA70B592B006AC204637
:104770003021FBF754FE002543F640000595CDE9B6
:104780000355CDE901550095C4F2020001680226E7
:1047900041F080510160006800F080500090009866
:1047A00047F200000095C4F20000016841F4804126
:1047B0000160006800F4804000900098012006909D
:1047C0004FF4803007904FF480000D9006200E903B
:1047D000A820CDE90F060420119020460C96FDF785
:1047E0000DFC18B172B600BFFEE700BF0F20CDE987
:1047F00001064FF4A05004904FF48050059001A89A
:1048000005210395FDF7E8FA10B172B6FEE700BF87
:1048100012B070BD4EF68850CEF20000016841F42F
:10482000700101607047000040F2BC40C2F200001D
:10483000FEF768B9B0B540F6FF3E0568C4F2000E59
:1048400040F2004C7045C4F2010C25DCB0F1804F01
:104850002FD040F20043C4F20003984229D040F622
:104860000003C4F20003984223D041F6FF73C4F260
:104870000003984228DC70453ADCB0F1804F5BD0F1
:1048800040F20043C4F20003984255D040F60003C2
:10489000C4F200034EE000BF40F60043C4F2000340
:1048A000984206D0604504D00023C4F20103984228
:1048B000DBD14B6825F0700243EA020541F6FF7335
:1048C000C4F200039842D6DD43F6FF73C4F201033D
:1048D00098421FDC42F20003C4F2000398422BD03E
:1048E0000023C4F20103984226D0604524D028E07A
:1048F00040F60043C4F2000398421DD041F6000385
:10490000C4F20003984217D041F60043C4F20003FA
:1049100010E000BF44F20003C4F2010398420BD040
:1049200044F60003C4F20103984205D044F2004368
:10493000C4F20103984204D1CB6825F4407243EAE3
:1049400002050A688C684B69C46240F48064826224
:10495000644504BF09690163026825F0800142F0E3
:10496000040219430260012242610160B0BD0000EF
:10497000806B0021C185FEF7A5BB0000806B01683C
:104980004A6990F84130212B2DD112F080022AD0B3
:104990000021C184016851E8031F026821F0C001B1
:1049A00042E80313DBB1016851E8031F026821F0FC
:1049B000C00142E8031393B1016851E8031F026884
:1049C00021F0C00142E803134BB1016851E8031F15
:1049D000026821F0C00142E80313002BDAD1202144
:1049E00080F841100168496990F84220222A40F07D
:1049F0007D8011F0400179D00021C185016851E826
:104A0000031F026821F4907142E80313BBB30168ED
:104A100051E8031F026821F4907142E8031373B355
:104A2000016851E8031F026821F4907142E8031302
:104A30002BB3016851E8031F026821F4907142E82A
:104A40000313002BDAD11AE0016851E8051F026850
:104A500021F0010142E80513DBB1016851E8051FAF
:104A6000026821F0010142E8051393B1016851E8A1
:104A7000051F026821F0010142E805134BB10168EE
:104A800051E8051F026821F0010142E80513002BDF
:104A9000DAD1016B012924D1016851E8031F0268B2
:104AA00021F0100142E80313DBB1016851E8031F54
:104AB000026821F0100142E8031393B1016851E844
:104AC000031F026821F0100142E803134BB1016893
:104AD00051E8031F026821F0100142E80313002B84
:104AE000DAD1202180F8421000210163416C41F0AD
:104AF00010014164FEF7E6BA0168806B0968C905D8
:104B000000F19F800021C185016851E8031F026800
:104B100021F4807142E80313E3B1016851E8031FF7
:104B2000026821F4807142E803139BB1016851E8E7
:104B3000031F026821F4807142E8031353B1016836
:104B400051E8031F026821F4807142E80313002B2F
:104B5000DAD100BF016851E8051F026821F00101A8
:104B600042E80513BBB3016851E8051F026821F054
:104B7000010142E8051373B3016851E8051F02689B
:104B800021F0010142E805132BB3016851E8051F2C
:104B9000026821F0010142E80513002BDAD11AE086
:104BA000016851E8051F026821F0400142E8051341
:104BB000DBB1016851E8051F026821F0400142E8BD
:104BC000051393B1016851E8051F026821F0400107
:104BD00042E805134BB1016851E8051F026821F056
:104BE000400142E80513002BDAD1202180F8421061
:104BF000016B012925D100BF016851E8031F02683C
:104C000021F0100142E80313DBB1016851E8031FF2
:104C1000026821F0100142E8031393B1016851E8E2
:104C2000031F026821F0100142E803134BB1016831
:104C300051E8031F026821F0100142E80313002B22
:104C4000DAD100214163016B012918BFFEF7DEBDF7
:104C5000818DFEF7FFB80000806B01214163016B7D
:104C6000012918BFFEF7D4BD818D4908FEF7F2B8BF
:104C700081B090F84210222921D183680246B3F511
:104C8000805F09D152F8281F52F8183C002B63D0DE
:104C900003685B680AE000BF52F8281F13B9036974
:104CA000002BF5D003685B6803F07F030B7011687D
:104CB00001311160C18D01390A04C18502D001B0F2
:104CC000704700BF0168CA6822F02002CA60CA6843
:104CD00022F48072CA604A6922F001024A612021EE
:104CE00080F8421000214163026B012A3CD101632C
:104CF000016851E8031F026821F0100142E8031324
:104D0000DBB1016851E8031F026821F0100142E89D
:104D1000031393B1016851E8031F026821F01001E9
:104D200042E803134BB1016851E8031F026821F008
:104D3000100142E80313002BDAD101680A68D20699
:104D400006D5002200920A680092496800910099F5
:104D5000818D01B0FEF77EB8026852686FF35F2262
:104D600021F8022B8162A5E701B0FEF74FBD0000DC
:104D7000B0B50446006804F108030ECB0569194379
:104D800025F440552A4302616269E3691143C26810
:104D9000194349F20C639A431143C1604169A26906
:104DA00021F4407141F20043114340F48062C4F2A7
:104DB00001039A42416103D1FDF7D4F802E000BF3C
:104DC000FDF7BCF8E1694FF69C7563681922C0F6DF
:104DD000FF75B1F5004FA0FB02011FD15A00DB0F98
:104DE000FBF758FA48F21F51C5F2EB11A0FB012363
:104DF0005A0905F1805302FB0300322303EBC00084
:104E0000A0FB01014FF4F87000EA111000EB021052
:104E1000C1F34211084421688860B0BD9A009B0F1D
:104E2000FBF738FA48F21F51C5F2EB11A0FB012342
:104E30005A0902FB0500322303EB0010A0FB01011D
:104E4000F02000EA511000EB0210C1F343110844B6
:104E500021688860B0BD000040F20450C2F200003A
:104E6000FEF774B99FED2F2A002858D0B5EE401AEE
:104E7000F1EE10FA53DD90ED045A30EE600A30EE98
:104E8000455A85EE015A90ED036A90ED097A20EEBD
:104E9000011A31EE061AB1EE476AB4EE461A90EDE9
:104EA000002A90ED013A90ED024AF1EE10FAB4EECC
:104EB000471AB8BFB0EE461AF1EE10FAC8BFB0EE0E
:104EC000471A90ED056A90ED067A35EE465A27EEC0
:104ED000055A80ED031A35EE065A21EE031A22EE2A
:104EE000002A90ED083A32EE011A24EE052A32EE3D
:104EF000012AB1EE431AB4EE412A80ED055AF1EED3
:104F000010FAB4EE432AB8BFB0EE412AF1EE10FA1F
:104F1000C8BFB0EE432A80ED072A80ED040AB0EE48
:104F2000420A704700000000002808BF70474FF099
:104F30007E51002280EC030AC0ED081A80ED092A98
:104F4000C0E90322C0E90521C2617047002808BFFB
:104F500070470021C0E903114161C1617047000041
:104F6000002808BF7047BFEE001AB4EE410AF1EE08
:104F700010FAB8BFB0EE410AB7EE001AB4EE410A1B
:104F8000F1EE10FAB8BFB0EE401AB5EE401AF1EEED
:104F900010FA80ED061ABCBF002181617047000045
:104FA000FEE70000B0B5FBF703FB8020FBF710FD28
:104FB0005520FBF70DFD5520FBF70AFDFBF7F0FA36
:104FC0009620FBF705FCFBF7F3FA8020FBF700FDCA
:104FD0005520FBF7FDFC5520FBF7FAFCFBF7E0FA48
:104FE0009620FBF7F5FBFBF7E3FA7E20FBF7F0FCDE
:104FF000B620FBF7EDFCFBF7D3FA5020FBF7F4FAF1
:10500000FBF7D6FA8020FBF7E3FC5520FBF7E0FC2A
:105010005520FBF7DDFCFBF7C3FA9620FBF7D8FB26
:10502000FBF7C6FA8020FBF7D3FC5520FBF7D0FC3A
:105030005520FBF7CDFC0446FBF7B2FA9620FBF7B0
:10504000C7FB1E2C1CBF0120B0BDFBF7B1FA7D20B1
:10505000FBF7BEFC0420FBF7BBFCFBF7A1FA962094
:10506000FBF7B6FBFBF7A4FAFD20FBF7B1FC5520DC
:10507000FBF7AEFC5520FBF7ABFC0446FBF790FAC0
:105080009620FBF7A5FB47F2B865042CC0F6000597
:1050900063D1FBF78DFA7C20FBF79AFC0020FBF72D
:1050A00097FCFBF77DFA9620FBF792FBFBF780FA63
:1050B000FC20FBF78DFC5520FBF78AFC5520FBF705
:1050C00087FC0446FBF76CFA9620FBF781FB0CB1DA
:1050D000033542E0FBF76CFA4020FBF779FCAB208C
:1050E000FBF776FCFBF75CFA9620FBF771FBFBF70E
:1050F0005FFAC020FBF76CFC5520FBF769FC5520DC
:10510000FBF766FC0446FBF74BFA9620FBF760FBC7
:10511000AB2C21D1FBF74CFA4120FBF759FC0020C6
:10512000FBF756FCFBF73CFA9620FBF751FBFBF72D
:105130003FFAC120FBF74CFC5520FBF749FC5520FA
:10514000FBF746FC0446FBF72BFA9620FBF740FBE7
:1051500044B1093501E000BF0635A878002818BF22
:105160000120B0BDFBF724FA5320FBF731FC0820E7
:10517000FBF72EFCFBF714FA9620FBF729FBFBF755
:1051800017FAD320FBF724FC5520FBF721FC552010
:10519000FBF71EFC0446FBF703FA9620FBF718FB0F
:1051A000082C23D1FBF704FA5820FBF711FC04204C
:1051B000FBF70EFCFBF7F4F99620FBF709FBFBF776
:1051C000F7F9D820FBF704FC5520FBF701FC55202C
:1051D000FBF7FEFB0446FBF7E3F99620FBF7F8FA32
:1051E000042C04BF0020B0BD0F35B6E70C35B4E782
:1051F000B0B5FBF7EFF98020FBF7EAFB5520FBF792
:10520000E7FBFBF7DFF99620FBF7E2FAFBF7E2F9A1
:105210008020FBF7DDFB5520FBF7DAFBFBF7D2F92B
:105220009620FBF7D5FAFBF7D5F91420FBF7D0FB56
:10523000B620FBF7CDFBFBF7C5F95020FBF7D4F9FF
:10524000FBF7C8F98020FBF7C3FB5520FBF7C0FB39
:10525000FBF7B8F99620FBF7BBFAFBF7BBF9802008
:10526000FBF7B6FB5520FBF7B3FB0446FBF7AAF9A7
:105270009620FBF7ADFA0F2C1CBF0120B0BDFBF749
:10528000A9F90F20FBF7A4FB0020FBF7A1FBFBF71C
:1052900099F99620FBF79CFAFBF79CF98F20FBF716
:1052A00097FB5520FBF794FB0446FBF78BF9962000
:1052B000FBF78EFA47F2CA65C0F60005DCBBFBF7C8
:1052C00089F91020FBF784FB8220FBF781FBFBF7B9
:1052D00079F99620FBF77CFAFBF77CF99020FBF735
:1052E00077FB5520FBF774FB0446FBF76BF9962020
:1052F000FBF76EFA822C1DD1FBF76CF91120FBF73E
:1053000067FB0020FBF764FBFBF75CF99620FBF7DB
:105310005FFAFBF75FF99120FBF75AFB5520FBF78B
:1053200057FB0446FBF74EF99620FBF751FA3CB1C8
:10533000063500E00335A878002818BF0120B0BD6D
:10534000FBF748F91520FBF743FB8020FBF740FBF8
:10535000FBF738F99620FBF73BFAFBF73BF9952072
:10536000FBF736FB5520FBF733FB0446FBF72AF926
:105370009620FBF72DFA802C1ED1FBF72BF9162077
:10538000FBF726FB0020FBF723FBFBF71BF996201E
:10539000FBF71EFAFBF71EF99620FBF719FB5520C9
:1053A000FBF716FB0446FBF70DF99620FBF710FA06
:1053B00024B10C35BFE700BF0935BCE7FBF70AF99C
:1053C0001820FBF705FB0120FBF702FBFBF7FAF8BF
:1053D0009620FBF7FDF9FBF7FDF89820FBF7F8FAAC
:1053E0005520FBF7F5FA0446FBF7ECF89620FBF79F
:1053F000EFF9012C04BF0020B0BD0F359BE7000082
:10540000FCF740FCFFF7B0F9FEF782FAFEF74AFA24
:10541000FEF704FAFEF724FAFEF740FBFEF716FB50
:10542000FEF7EAFAFBF7FAFAFEF76AFEFFF7A2F8D0
:10543000FEF782FBFBF78AF800F00CF872B600BFAB
:10544000FEE7000080B5012898BF012000F040FD74
:10545000002080BD80B500F071FE002080BD0000FE
:10546000B0B584B003898C46D0E9001E028A18B218
:10547000B3F1840418BFC41C03AD70466346CDE984
:10548000004501F0BFFA0399012818BF0021084622
:1054900004B0B0BDF0B581B040F2A414C2F2000473
:1054A0000E46E76921680546081D00F08FFB18B11C
:1054B000681C0CD016E000BF20680121C06A626839
:1054C00001FA00F022EA00006060681C0AD14EB1C7
:1054D00054F8500B011D204601B0BDE8F04000F02B
:1054E000CDBB00BF2068ED19456007D3606B216814
:1054F000043101B0BDE8F04000F08EBB206B2168A4
:10550000043100F089FB606A854238BF656201B0F2
:10551000F0BD000040F2A41540F2A4664EF6045817
:10552000C2F20005C2F20006CEF200084FF080572A
:1055300015E000BF00F0BAFBA86CC468201D00F0A5
:1055400045FB286901382861E8680138E86000F007
:10555000D1FB206B00F0E6FB204600F0E3FBE8689F
:105560000028E7D130680228F9D3C8F80070BFF3EB
:105570004F8FBFF36F8FF2E708480068006880F331
:1055800008884FF0000080F3148862B661B6BFF35C
:105590004F8FBFF36F8F00DF00BF000008ED00E00A
:1055A00081B00020009040F25000C2F2000000687C
:1055B0004FF0500181F31188BFF36F8FBFF34F8F0E
:1055C000013007D0FEE700BF009830B9009820B93D
:1055D000009810B900980028F6D001B0704700007C
:1055E00086B040F21C2AC2F2000A0DF10C09EB460B
:1055F000DAF8080005681DB1C068046801E000BF62
:10560000002400F0DBFD01F03BFBDAF81010064649
:10561000884220D3002DCAF8106051D0B4424FD830
:1056200001F04AFCDAF80800C068C7683D1D28464A
:1056300000F0CCFA97F82400410745D400F0FA00B6
:1056400087F8240082E000BF7860DAF80800294675
:105650003F6100F0E1FADAF80800016831B3C06890
:10566000C76804683D1D284600F0B0FA396A38461C
:10567000884797F824004007EDD5B8692044A04238
:10568000E2D8DAF80000002800F03881002003A9F1
:1056900091C101F0E5FADAF8000049460022002342
:1056A00000F0E2FE0028D6D128E100BFDAF80C10A5
:1056B000CAF81060CAE9021001F0FEFB4FE000BF1B
:1056C00065B1002210E000BFB8693F610119B14225
:1056D00079601DD90AF108001FE000BFDAF80C005C
:1056E0000068B0FA80F04209DAF80000A11B00F06F
:1056F000C5FB01F0E1FB90BB4EF60450CEF200007A
:105700004FF080510160BFF34F8FBFF36F8F26E0E2
:10571000311B814206D20AF10C000068294600F0D4
:105720007BFA13E0DAF80000002800F00581002081
:1057300003A991C101F094FADAF800004946002269
:10574000002300F091FE002800F0F680396A384608
:10575000884704E00AF10C02106800F05DFADAF8FC
:1057600000005946002200F0DFFF00283FF440AF60
:1057700000980028F3D4029E706910B1301D00F02B
:1057800025FA01F07DFADAF81010074688420CD3AA
:105790000098CAF8107009283DD9E0E76860DAF887
:1057A000080021462D6100F037FADAF80800016898
:1057B00041B3C068C568D0F800802C1D204600F0B9
:1057C00005FA296A2846884795F824004007ECD551
:1057D000A86940444045E1D8DAF80000002800F00C
:1057E00083800020CDE90308059501F039FADAF845
:1057F000000049460022002300F036FE0028D4D1E4
:1058000072E000BFDAF80C10CAE902100098CAF87A
:1058100010700928A3D8DFE800F005050557415F9F
:105820000505574196F82400B26940F0010101983E
:1058300086F824101318314641F8043FBB42366104
:1058400008D987420AF10802BFF486AF834205D225
:1058500082E700BF381A9042FFF47CAF316A3046CD
:10586000884796F8240040077FF579AFDAF8000002
:1058700000284DD00198B169059608440021CDE972
:10588000031001F0EDF9DAF8000049460022002388
:1058900000F0EAFD00287FF462AF39E096F82400BA
:1058A00040F00101019886F824100028B06139D039
:1058B000384431460AF10C0241F8040F3661B8420F
:1058C00088BF0AF1080247E796F8240000F0FE00BE
:1058D00086F8240043E700BF96F824008107F5D43A
:1058E000304600F01FFA3AE74FF0500080F311887D
:1058F000BFF36F8FBFF34F8FFEE700BF4FF0500035
:1059000080F31188BFF36F8FBFF34F8FFEE700BFA7
:105910004FF0500080F31188BFF36F8FBFF34F8FAC
:10592000FEE700BF4FF0500080F31188BFF36F8F88
:10593000BFF34F8FFEE700BF4FF0500080F3118898
:10594000BFF36F8FBFF34F8FFEE70000F0B581B05C
:10595000044600F0ABF994F94560012E0FDB04F129
:10596000240500BF286850B1284601F06BFA0028D2
:1059700018BF00F077FBF0B2013E0128F2D8FF26F5
:1059800084F8456000F0B6F900F090F994F944709D
:10599000012F0EDB04F11005286850B1284601F0F4
:1059A00051FA002818BF00F05DFBF8B2013F012852
:1059B000F2D884F8446001B0BDE8F04000F09AB934
:1059C00070B5044600F0FAFB40F27C1CC2F2000CF9
:1059D000DCF8042012B19CF8000020E040F248708E
:1059E000C2F20000420700F5705200F1070122F0F8
:1059F000070218BF21F007000021A2F10803CCE93B
:105A00000601CCF8043042E90211DCF80420191A2E
:105A1000C0E900210120CCE902118CF8000000252A
:105A2000002C4FF0000148BF01215AD0084058D146
:105A300024F0070000F11003600708BF04F1080319
:105A4000DCF80800591E81424BD2604650F818EF2E
:105A5000DEF804509D422CD2DEF80010C1B174462D
:105A60004D689D4218D20E68B6B175689D4217D236
:105A70003068A8B145689D4216D20468A4B1656833
:105A80009D4215D22168A6460029E9D111E000BF48
:105A90000CF118000DE000BF8E46204609E000BF63
:105AA000B646084605E000BF8646304601E000BF26
:105AB000A646964514D00268DEF80040E91A11297E
:105AC00004604FD30EEB0305680719D04FF0500068
:105AD00080F31188BFF36F8FBFF34F8FFEE700BFD6
