:020000040800F2
:10000000B062002055020008855C00086D4C0008B5
:1000100005580008DD0800084970000800000000CD
:10002000000000000000000000000000E16800087F
:100030001913000800000000416000080D69000865
:100040006F0200086F0200086F0200086F020008CC
:100050006F0200086F0200086F0200086F020008BC
:100060006F0200086F0200086F0200086F020008AC
:10007000F51200086F0200086F0200086F02000806
:100080006F0200086F0200086F0200086F0200088C
:10009000290900086F0200086F0200086F020008BB
:1000A0006F0200086F0200086F0200086F0200086C
:1000B0006F0200086F0200086F0200086F0200085C
:1000C0006F0200086F0200086F0200086F0200084C
:1000D0006F0200086F0200086F0200083D70000800
:1000E0006F0200086F0200086F0200086F0200082C
:1000F0006F0200086F0200086F0200086F0200081C
:100100006F0200086F0200086F0200086F0200080B
:100110006F0200086F020008016A00080D6A0008FB
:10012000011300086F0200086F0200080D13000899
:100130006F0200086F0200086F0200086F020008DB
:10014000350900086F0200086F0200086F020008FE
:100150006F0200086F0200086F0200086F020008BB
:100160006F0200086F0200086F0200086F020008AB
:100170006F0200086F0200086F0200080000000014
:100180006F0200086F02000800F002F800F052F859
:1001900014A696E8000CB244B344DA4501D100F04D
:1001A00049F8BAE80F000FA696E83000A5EB040561
:1001B00004EB0607AAEB0704A7F101074FEA1515A0
:1001C0004FEA3414A4F10104AC4201D300F032F838
:1001D00013F0010F18BFFB1A43F0010300F001F800
:1001E000DBE718479C950000BC950000103A24BF3F
:1001F00078C878C1FAD8520724BF30C830C144BF8C
:1002000004680C6070470000704700000023002461
:1002100000250026103A28BF78C1FBD8520728BF16
:1002200030C148BF0B6070471FB509F04AFA1FBDC7
:1002300010B510BD00F0ECF81146FFF7F5FF07F020
:1002400033F900F00AF903B4FFF7F2FF03BC00F042
:100250000DF900000948804709480047FEE7FEE71E
:10026000FEE7FEE7FEE7FEE7FEE7FEE7FEE7FEE766
:1002700004480549054A064B70470000ED6900082F
:1002800089010008B05C0020B0620020B05E002050
:10029000B05E002053EA020C00F069802DE9F04BBB
:1002A0004FF00006002B1FBFB3FA83F503FA05F4E5
:1002B00024FA05F65E4012BF1643B2FA82F502FA3E
:1002C00005F4C5F120051EBF22FA05FC44EA0C0422
:1002D000203556EA044C4FEA144418BF641C4FF012
:1002E00000084FF00009904271EB030C39D300294C
:1002F00019BFB1FA81F701FA07F6B0FA80F700FAF0
:1003000007F6C7F120071EBF20FA07FC46EA0C06D5
:100310002037B6FBF4FCA7EB0507103F07F01F0BD7
:10032000CBF120062CFA06F60CFA0BFB44BFB346C1
:100330000026202FA4BF5E464FF0000B5BEA060CA0
:1003400008BF4FF0010B19EB0B0948EB0608ABFB9C
:10035000027C06FB02CC0BFB03CCC01B71EB0C0137
:10036000C1E70B46024641464846BDE8F08B13B54F
:10037000084318BF4FF0FF300146AFF30080BDE8DF
:100380001C40704702F0FF0343EA032242EA0242A4
:1003900000F002B84FF0000200B5134694469646AE
:1003A000203922BFA0E80C50A0E80C50B1F1200188
:1003B000BFF4F7AF090728BFA0E80C5048BF0CC036
:1003C0005DF804EB890028BF40F8042B08BF704794
:1003D00048BF20F8022B11F0804F18BF00F8012B06
:1003E000704770477047704710B500F009F8006813
:1003F00010BD10B5044600F003F8046010BD000005
:10040000004870472000002000487047200000206E
:100410007546FFF7F9FFAE4605006946534620F0E2
:100420000700854618B020B5FFF722FFBDE8204041
:100430004FF000064FF000074FF000084FF0000BA0
:10044000AC46ACE8C009ACE8C009ACE8C009ACE80F
:10045000C00921F007018D46704710B50446AFF37F
:1004600000802046BDE81040FFF7EDBE014918208E
:10047000ABBEFEE726000200704700000020C4F279
:1004800002001021012202F00DBB00000020C4F286
:1004900002001021002202F005BB0000704700009E
:1004A00040F20040C4F202000121012202F0FABA37
:1004B00040F20040C4F202000121002202F0F2BA30
:1004C00070470000002808BF7047B0B54EF2180111
:1004D00049F24002CEF2000110F0030CC0F2020219
:1004E00022D051F804EC0C68002307E023445B1B86
:1004F000A54228BF734493422C460DD20D68A542F5
:10050000F4D10D68A542F1D10D68A542EED10D6878
:10051000A542F3D0EAE700BFBCF1010F08D1A0F17A
:10052000010C042851D247E0844604284DD243E010
:1005300051F804EC0C68002308E000BF23445B1B67
:10054000A54228BF734493422C460DD20D68A542A4
:10055000F4D10D68A542F1D10D68A542EED10D6828
:10056000A542F3D0EAE700BFBCF1020F04D1A0F12D
:10057000020C042829D21FE051F804CC0D68002396
:1005800008E000BF2B441B1BAC4228BF63449342CE
:1005900025460DD20C68AC42F4D10C68AC42F1D1C6
:1005A0000C68AC42EED10C68AC42F3D0EAE700BF75
:1005B000A0F1030C042808D2BDE8B040704700BF8A
:1005C000ACF1040C5FEA0C40F6D051F8040C0D6855
:1005D000002307E02B441B1BAC4228BF034493427B
:1005E00025460DD20C68AC42F4D10C68AC42F1D176
:1005F0000C68AC42EED10C68AC42F3D0EAE700BF25
:1006000051F8040C0D68002308E000BF2B441B1BAD
:10061000AC4228BF0344934225460DD20C68AC423D
:10062000F4D10C68AC42F1D10C68AC42EED10C684C
:10063000AC42F3D0EAE700BF51F8040C0D68002388
:1006400008E000BF2B441B1BAC4228BF034493426D
:1006500025460DD20C68AC42F4D10C68AC42F1D105
:100660000C68AC42EED10C68AC42F3D0EAE700BFB4
:1006700051F8040C0D6800230AE000BF2B441B1B3B
:10068000AC4228BF034493422546BFF499AF00BF54
:100690000C68AC42F2D10C68AC42EFD10C68AC42B1
:1006A000ECD10C68AC42F3D0E8E7000080B54EF224
:1006B0001801CEF20001A82251F804CC00FB02FE82
:1006C000086800230AE000BF03449B1A824228BF47
:1006D00063447345104628BF80BD00BF0A6882424C
:1006E000F2D10A688242EFD10A688242ECD10A68EC
:1006F0008242F3D0E8E7000010B5FFF7CFFEFFF726
:10070000DFFE06F0A3FC044606F0C6FD204310BD44
:100710002DE9F04F83B002920E460190FFF7B6FE2E
:10072000922000F0C3F8922000F0C0F8552000F0AD
:10073000BDF88046552000F0B9F80546552000F078
:10074000B5F88246552000F0B1F80446552000F077
:10075000ADF88346552000F0A9F80746FFF78EFE56
:1007600048EA052040F2080900B2C2F2000900EE92
:10077000100A99ED001AB8EEC00A4AEA042021EEE8
:10078000000A00B286ED000A00EE100A4BEA0720CC
:1007900000B299ED001A02EE100AB8EEC00AB8EEE7
:1007A000C22A21EE000A21EE021A86ED010A86ED28
:1007B000021AFFF77DFE802000F078F8552000F047
:1007C00075F80646552000F071F8552000F06EF8D7
:1007D0008246552000F06AF80546552000F066F87C
:1007E0008346552000F062F80446552000F05EF87C
:1007F0000746552000F05AF88046FFF751FE0F2EAD
:1008000025D14AEA052000B200EE100A99ED011A3E
:10081000B8EEC00A01994BEA042021EE000A00B2AA
:1008200081ED000A00EE100A47EA082000B299EDB7
:10083000011A02EE100AB8EEC00AB8EEC22A21EE82
:10084000000A21EE021A81ED010A81ED021AFFF77A
:100850001DFEA22000F02AF8A22000F027F8552063
:1008600000F024F8044646B2552000F01FF8054673
:10087000FFF704FEE00040EA55104FF60001CFF606
:10088000FF71002E48BF084300EE100AB8EEC00A00
:10089000B4EE001A20EE010AB3EE071A029830EE09
:1008A000010A80ED000A03B0BDE8F08F80B582B088
:1008B0008DF8070040F2D0704FF47A7CC2F200004D
:1008C0000DF107010DF106020123CDF800C002F081
:1008D000E1FD9DF8060002B080BD0000FEE70000CB
:1008E00080B540F62800C2F2000001680022CA6309
:1008F000082103F04DFB002808BF80BDBDE8804003
:1009000000F012BD40F23410C2F20000012101706B
:100910003221418040F62800C2F200000068C16A1E
:1009200001314908C163704740F26060C2F20000C3
:1009300001F036BA40F28860C2F2000001F030BA2D
:1009400080B58AB040F204110020C2F20001CDE966
:100950000200CDE90000C1E90000C1E90200C1E9DF
:100960000400C1E90600C1E90800C1E90A00CDE9B7
:10097000050004900E200121099040F26060CDE94D
:100980000711C2F20000694601F0B2F830B940F236
:100990006060C2F2000001F007FDB8B100F0C4FCD5
:1009A0000E20059040F28860C2F20000694601F016
:1009B0009FF830B940F28860C2F2000001F0F4FC08
:1009C00090B100F0B1FC0AB080BD00BF40F26060A1
:1009D000C2F2000048F6027101F020F8002818BFAA
:1009E00000F0A2FCDCE700BF40F28860C2F2000029
:1009F00048F6027101F012F8002818BF00F094FCCC
:100A00000AB080BD40F20410C2F20000817D11B92D
:100A100090F82E0010B10020704700BF80B540F262
:100A20006060C2F2000001F093F902281CBF0020B0
:100A300080BD40F28860C2F2000001F089F90238FE
:100A4000B0FA80F0400980BD70B58AB040F2886687
:100A5000044640F2606CC2F200060025C2F2000CAF
:100A600040F20410B4420995CDE90755CDE905558A
:100A7000C2F2000008BF00F11805644508BF054632
:100A8000002C4FF0010018BF002901D10AB070BD41
:100A9000002DFBD00820C96A0E9E0890100ADDF8D0
:100AA0003CC08DF80400180A8DF80600300A8DF855
:100AB00008004FEA1C20049100218DF80A0020460E
:100AC000CDE906118DF824108DF805208DF807303A
:100AD0008DF809608DF80BC001F04EF960B104A9E2
:100AE00001AA03AB204600F0B1FF287530B9002001
:100AF00068750AB070BD00BF0220287506462868D8
:100B000001302860204601F089F82861687DFF28BF
:100B100002D0687D01306875687D042802D8286994
:100B2000400701D50120A87530460AB070BD00000D
:100B300010B540F20414C2F20004A07D20B340F2CC
:100B40006060C2F2000001F05DFCE8B940F2606054
:100B5000C2F2000001F05EFBB0B940F26060C2F288
:100B6000000001F021FC78B940F26060C2F20000A0
:100B700048F6027100F052FF30B90020A075607590
:100B80002061E0680130E06094F82E0030B140F25E
:100B90008860C2F2000001F035FC08B110BD00BF52
:100BA00040F28860C2F2000001F034FB0028F5D169
:100BB00040F28860C2F2000001F0F6FB0028EDD19F
:100BC00040F28860C2F2000048F6027100F026FF91
:100BD000002818BF10BD002084F82E0084F82D00D6
:100BE000A062606A0130606210BD000010B52DED9A
:100BF000108B40F20824DFED880A9FED88DA9FED24
:100C0000888AC2F200049FED820A9FED821AB3EE39
:100C100004BAB1EE08CAB3EE099AB2EE00AA2046B1
:100C20004FF400710222F0EE601AB0EE4B2AF0EEA3
:100C30004C2AB0EE4D3AF0EE483AB0EE484AF0EEAB
:100C4000484AB0EE495AF0EE4A5A04F02DFE9FEDA4
:100C500075EA9FED75FA04F190004FF400710222DD
:100C6000B0EE4E0AF0EE4D0AB0EE4F1AF0EE481A12
:100C7000B0EE4B2AF0EE4C2AB0EE4D3AF0EE483A88
:100C8000B0EE484AF0EE484AB0EE495AF0EE4A5A01
:100C900004F00AFE04F590704FF400710222B0EEE9
:100CA0004E0AF0EE4D0AB0EE4F1AF0EE481AB0EED2
:100CB0004B2AF0EE4C2AB0EE4D3AF0EE483AB0EE48
:100CC000484AF0EE484AB0EE495AF0EE4A5A04F06B
:100CD000EBFD04F5D8704FF400710222B0EE4E0A1D
:100CE000F0EE4D0AB0EE4F1AF0EE481AB0EE4B2A75
:100CF000F0EE4C2AB0EE4D3AF0EE483AB0EE484AEB
:100D0000F0EE484AB0EE495AF0EE4A5A04F0CCFDF3
:100D1000DFED460A9FED461AB1EE040A04F5347081
:100D2000F0EE082AF0EE481AB0EE402A05F012F96B
:100D30004BF69930C3F61640C4F85C02C4F86C0256
:100D400040F6D510C3F6A860C4F87C0241F26200F8
:100D5000C3F69870C4F88C0248F67220C3F60E40B1
:100D6000C4F8600249F63D30C3F6D550C4F87002AD
:100D700048F29470C3F61570C4F8800243F64260DE
:100D8000C3F68870C4F8900246F60070C3F60140BE
:100D9000C4F864024BF24660C3F67350C4F87402A0
:100DA00049F6BE70C3F67A70C4F8840249F2753011
:100DB000C3F69070C4F894024AF2E350C3F61B40A5
:100DC000C4F8680246F2A170C3F6B350C4F87802C2
:100DD00043F64260C3F61870C4F8880247F67820DC
:100DE000C3F68570C4F898020020C4F2C820C4F885
:100DF0009C020020C4F8B002C4F8B402C4F8B802DF
:100E0000C4F8BC02C4F8C002BDEC108B10BD00BF1A
:100E1000CDCCCC3E3333333FCDCC4C3ECDCCCC3D92
:100E200000000000CDCC4C3F9A99193F0AD7A33B54
:100E30000000A04270B52DED068B05F017FB40F2C7
:100E400008240028C2F200047AD040F29C06C2F2C4
:100E500000063079002873D096ED020A9FED371A0C
:100E600040F20055C2F2000596ED032A20EE019AE9
:100E700095ED4F0A22EE01AA07F0E0FC95ED4F1A1E
:100E8000B0EE408AB0EE410A07F080FD2AEE000A7B
:100E900029EE081A31EE400A84ED910A95ED4F0AC9
:100EA00007F074FD95ED4F1AB0EE408AB0EE410A9E
:100EB00007F0C4FC2AEE000A29EE081A31EE000AF7
:100EC00040F2002184ED920AC2F2000170790A78A2
:100ED000904215D0087004F1400004F0B3FF04F113
:100EE000D00004F0AFFF04F5B07004F0ABFF04F5E0
:100EF000F87004F0A7FFD4F85802C4F840027079E3
:100F000070B340B200EE100AB8EEC00AB9EE041A8F
:100F100094ED902A20EE010A9FEDEC1A30EE420A81
:100F200094ED902A20EE010A30EE020A84ED900A38
:100F3000D4F84002C4F84C0237E000BF6666E63FD2
:100F400040F200210020C2F20001C4F84402C4F8BB
:100F50004802C4F84C020870C4F8400225E000BF03
:100F600095ED4F0A9FEDDA1AB4EE410AF1EE10FA50
:100F700009DC95ED4F0A9FEDD71AB4EE410AF1EE68
:100F800010FA80F29F8195ED4F0A04F53470F1EE6E
:100F9000400A9FEDD10A04F05BFF94EDBD0A95ED88
:100FA0004B1A30EE010A84ED930A94ED910A94ED08
:100FB000921A94ED932A9FEDC93A30EE411A22EE2F
:100FC000032A9FEDC70A31EE421A81EE001A84ED22
:100FD000071A94ED911A94ED922A94ED934A31EE0A
:100FE000021A24EE432A32EE411A81EE001A84EDF1
:100FF0002B1A94ED911A94ED922A94ED934A31EEC6
:10100000021A24EE032A31EE421A81EE001A84ED10
:101010004F1A94ED911A94ED922A94ED934A32EE80
:10102000411A24EE032A31EE421A81EE001A84EDB1
:10103000731A94ED071A94ED2B3AB0EEC12A9FED86
:10104000A61AB5EE402AF1EE10FAC8BFB0EE421A69
:10105000B0EEC32A94ED4F3AB4EE412AF1EE10FA05
:10106000C8BFB0EE421AB0EEC32A94ED733AB4EEA4
:10107000412AF1EE10FAC8BFB0EE421AB0EEC32A10
:10108000B4EE412AF1EE10FAC8BFB0EE421AB3EE48
:10109000042AB4EE421AF1EE10FA19DD82EE011ABA
:1010A00094ED072A21EE022A84ED072A94ED2B2ADB
:1010B00021EE022A84ED2B2A94ED4F2A21EE022AFA
:1010C00084ED4F2A94ED732A21EE021A84ED731AEF
:1010D00094ED072A94EDAD3A9FED821A32EE433A31
:1010E000B4EE413AF1EE10FA05DD94EDAD2A32EEA0
:1010F000012A84ED072A9FED7C2AB4EE423AF1EEF4
:1011000010FA05DA94EDAD3A33EE023A84ED073A7F
:10111000E069C4F8B40294ED2B3A94EDAE4A33EE94
:10112000443AB4EE413AF1EE10FA05DD94EDAE4AE0
:1011300034EE014A84ED2B4AB4EE423AF1EE10FA55
:1011400005DA94EDAE3A33EE023A84ED2B3AD4F858
:10115000AC00C4F8B80294ED4F3A94EDAF4A33EEC8
:10116000443AB4EE413AF1EE10FA05DD94EDAF4A9F
:1011700034EE014A84ED4F4AB4EE423AF1EE10FAF1
:1011800005DA94EDAF3A33EE023A84ED4F3AD4F8F3
:101190003C01C4F8BC0294ED733A94EDB04A33EECE
:1011A000443AB4EE413AF1EE10FA05DD94EDB04A5E
:1011B00034EE011A84ED731AB4EE423AF1EE10FAED
:1011C00005DA94EDB01A31EE021A84ED731AD4F8F0
:1011D000CC01C4F8C00294ED001A94ED242A04F165
:1011E000400031EE421A94ED482A94ED6C3A31EE0B
:1011F000021A31EE431A21EE001AB5EE002A21EE52
:10120000021A84ED941A94ED001A94ED243A31EE0A
:10121000031A94ED483A94ED6C4A33EE411A31EEDC
:10122000041A21EE000A20EE020A84ED950A94EDDC
:10123000000A94ED241A30EE010A94ED481A94ED58
:101240006C2A30EE010A9FED291A30EE020A9FED5A
:10125000282A20EE010A80EE020A84ED960A94ED17
:10126000070AD4ED000A04F087FE606E606394ED17
:101270002B0AD4ED240A04F1D00004F07DFED4F84A
:10128000F400C4F8C40094ED4F0AD4ED480A04F504
:10129000B07004F071FED4F88401C4F8540194EDE8
:1012A000730AD4ED6C0A04F5F87004F065FED4F806
:1012B0001402C4F8E401BDEC068BBDE8704004F0F4
:1012C000F1BE00BFD5F82C0134E600BFCDCC4C3DBB
:1012D0008FC2F53C8FC2F5BC000000007B14AE3E0F
:1012E000295C8F3D9A99993E9A9999BE295C8FBD48
:1012F0007B14AE3F40F27070C2F2000001F01CB9E6
:1013000040F2B060C2F2000001F016B940F2107075
:10131000C2F2000001F010B97047000040F2140062
:10132000C2F200000078704772B600BFFEE700000E
:1013300040F21400C2F20000022101707047000068
:10134000B0B5044640689FED941A606188880D46E8
:10135000C0BA00EE100AB8EEC00A20EE010AB3EEE1
:10136000041A20EE010A84ED020A8879207301F044
:101370009FFBA063012084F83C0094F83000022811
:1013800020D128889FED881A40BA00EE100AB8EEE6
:10139000400A80EE010A9FED812A20EE020A9FEDAD
:1013A000802A30EE000A20EE020A84ED010A6888E5
:1013B000C0BA00EE100AB8EEC00A80EE011A9FED26
:1013C0007B0A1DE094F8300001282BD128889FED7E
:1013D000731A40BA00EE100AB8EE400A20EE010A75
:1013E0009FED6F1A30EE000A20EE010A84ED010A2B
:1013F00068889FED6C0AC0BA01EE100AB8EEC11AF7
:101400009FED672A31EE011A9FED693A21EE021A2B
:1014100081EE031A84ED001A94ED021A21EE000AFF
:1014200084ED060A94ED040AB5EE400AF1EE10FAD6
:101430000AD194ED050AB5EE400AF1EE10FA03D197
:1014400060682061B0BD00BF94ED010A94ED051AFB
:1014500094F8300057A1022808BF043191ED002A0A
:1014600030EE410AB4EE420AF1EE10FA32EE021A00
:1014700002DD30EE410A08E0B1EE422AB4EE420A43
:10148000F1EE10FAB8BF30EE010A94ED041A30EE16
:10149000010A84ED040A94ED041A9FED480AB4EEA3
:1014A000401AF1EE10FA35DD9FED451A94ED042A4D
:1014B00032EE012A84ED042A94ED042AB4EE402A87
:1014C000F1EE10FA26DD94ED042A32EE012A84EDC5
:1014D000042A94ED042AB4EE402AF1EE10FA19DD44
:1014E00094ED042A32EE012A84ED042A94ED042AB4
:1014F000B4EE402AF1EE10FA0CDD94ED042A32EE3F
:10150000012A84ED042A94ED042AB4EE402AF1EE77
:1015100010FACBDC94ED041A9FED2A0AB4EE401ABF
:10152000F1EE10FA37DA9FED281A1AE094ED042A4A
:1015300032EE012A84ED042A94ED042AB4EE402A06
:10154000F1EE10FAA8BFB0BD94ED042A32EE012AE4
:1015500084ED042A94ED042AB4EE402AF1EE10FA48
:1015600019DA94ED042A32EE012A84ED042A94ED6E
:10157000042AB4EE402AF1EE10FA0CDA94ED042AB3
:1015800032EE012A84ED042A94ED042AB4EE402AB6
:10159000F1EE10FACADBB0BD00008038000000395F
:1015A000560E49402DB23D3F2CA099419A99993E43
:1015B00000007042560E4940714F293EDB0F4940F2
:1015C000DB0FC9C0DB0F49C0DB0FC94010B52DEDE3
:1015D0000A8B40F200549FED378A9FED389A9FEDB9
:1015E00038AA9FED39BAC2F200049FED300ADFED50
:1015F000300ADFED311A9FED334AB1EE04CAB3EE83
:10160000063AF1EE005A204640F2FF110122B0EEF8
:10161000481AB0EE492AF0EE4A2AF0EE4B3AF0EEC4
:101620004B4AB0EE4C5A04F03FF99FED280ADFED2B
:10163000280A04F19000F5EE001AB2EE0E3AB0EE70
:10164000085AF6EE005A40F2FF110122B0EE481A95
:10165000B0EE492AF0EE4A2AF0EE4B3AB0EE4C4A90
:10166000F0EE4B4A04F020F943F2F470C3F68570B3
:10167000C4F838014EF61010C4F2A5004DF20A71FC
:10168000C4F850010020C3F6A361C4F84401C4F8B3
:101690004801C4F854114FF27731C3F60C71C4F805
:1016A0005811C4F85C01BDEC0A8B10BD9A99993EA3
:1016B0008FC2F53DCDCC4C3DEC51383ECDCCCC3F2E
:1016C000CDCC4C3F00000C4200000000CDCCCC3D06
:1016D0000AD7A33CB0B52DED048B40F64810C2F2FA
:1016E0000000816A40F20054C2F20004C4F82011E4
:1016F000416A9FEDC10AC4F8241194ED281A94EDB3
:10170000542A31EE422AB4EE402AF1EE10FA1DDDE1
:101710009FEDBA1A32EE012AB4EE402AF1EE10FA29
:1017200014DD32EE012AB4EE402AF1EE10FA0DDD9E
:1017300032EE012AB4EE402AF1EE10FA06DD32EE66
:10174000012AB4EE402AF1EE10FAE3DC9FEDAC1A68
:10175000B4EE412AF1EE10FA1EDA9FEDAA3A00BF6C
:1017600032EE032AB4EE412AF1EE10FA14DA32EE28
:10177000032AB4EE412AF1EE10FA0DDA32EE032A12
:10178000B4EE412AF1EE10FA06DA32EE032AB4EE94
:10179000412AF1EE10FAE3DB84ED532AC069C4F864
:1017A000340194ED482AB1EE422A84ED4A2A94EDA0
:1017B000012A94ED4E3A32EE432AB4EE402AF1EE7D
:1017C00010FA1DDD9FED8D3A32EE032AB4EE402A69
:1017D000F1EE10FA14DD32EE032AB4EE402AF1EEF7
:1017E00010FA0DDD32EE032AB4EE402AF1EE10FAC3
:1017F00006DD32EE032AB4EE402AF1EE10FAE3DC05
:10180000B4EE412AF1EE10FA1EDA9FED7E3A00BFE7
:1018100032EE032AB4EE412AF1EE10FA14DA32EE77
:10182000032AB4EE412AF1EE10FA0DDA32EE032A61
:10183000B4EE412AF1EE10FA06DA32EE032AB4EEE3
:10184000412AF1EE10FAE3DB40F29C0584ED4F2AC9
:10185000C2F2000595ED042A9FED6B3AB0EEC24A44
:10186000B4EE434AF1EE10FA4CDD94ED4C3A32EE10
:10187000032AB4EE402AF1EE10FA1DDD9FED5F3A27
:1018800032EE032AB4EE402AF1EE10FA14DD32EE05
:10189000032AB4EE402AF1EE10FA0DDD32EE032AEF
:1018A000B4EE402AF1EE10FA06DD32EE032AB4EE71
:1018B000402AF1EE10FAE3DCB4EE412AF1EE10FA20
:1018C0001EDA9FED500A00BF32EE002AB4EE412A24
:1018D000F1EE10FA14DA32EE002AB4EE412AF1EEFB
:1018E00010FA0DDA32EE002AB4EE412AF1EE10FAC7
:1018F00006DA32EE002AB4EE412AF1EE10FAE3DB0A
:1019000084ED4C2A94ED4C0AD4ED4D0A04F16800A4
:1019100004F09EFAD4F88C00C4F82C0194ED230A4C
:10192000D4ED4A0A04F1400004F026FB606E6063C7
:1019300095ED050A94ED511A30EE010A84ED510A35
:1019400094ED510A9FED311AB4EE410AF1EE10FA0E
:10195000C2BF4DF2FE40C3F60870C4F8440194EDD6
:10196000510A9FED2B1AB4EE410AF1EE10FABEBFF8
:101970004BF2D030CBF6B960C4F8440194ED510A73
:10198000D4ED530A04F1F80004F062FAD4F89000A0
:10199000C4F84001D4F81C01C4F8480194ED520A7F
:1019A000D4ED500A04F1D00004F0E6FA94ED578A21
:1019B00094ED550A9FED171A94ED532A94ED563A7B
:1019C00020EE019A32EE430A06F038FF9FED121A1C
:1019D00029EE000A28EE011A31EE000A84ED570ABA
:1019E00094ED570A94ED3D1A31EE400A84ED310A28
:1019F000BDEC048BB0BD00BFDB0F4940DB0FC9C09D
:101A0000DB0F49C0DB0FC9400AD7233CFED4083F97
:101A1000D0B3B9BECDCC4C3FCDCC4C3E90F82020BD
:101A2000013A012A08D8006800F114020020136866
:101A300019431160704700BF00F1240201204FF4E8
:101A400080211368194311607047000010B590F8A9
:101A500020E0D0F800C0AEF1010EBEF1010FDCF8BD
:101A600008E011D81EF0E05F18D0CEF30164012029
:101A7000A04018608B68DBB1D1F804E0C86840EA88
:101A8000CE0040EA030E17E000F1240301204FF4DA
:101A900080211A681143196010BD00BF00F12403B2
:101AA00001204FF400111A681143196010BD00BFE6
:101AB0000868CB6843EA405E0CF5C07000EB041385
:101AC000240140F804E00C69184640F8044F097DF1
:101AD000012903D1016841F480710160506801213E
:101AE000D8601068986000201A681143196010BD12
:101AF00090F82020013A012A30D8B0B546F20060B3
:101B0000C4F20000026842F001020260026822F49E
:101B10007C520260D1F814E0CC694A6A0368012C57
:101B200043EA022202600EF01F024FF0010303FAA3
:101B300002F2C3696FEA020C23EA0203C36113D005
:101B40002CBBC36803EA0C03C360CB688C8844EAEF
:101B5000034300EBCE0423640B4611E0416A41F4D9
:101B60008021416201207047C3681343C3600B6842
:101B70008C8844EA034300EBCE04236401F10C0398
:101B80008C681B8843EA044300EBCE04636443681B
:101B90008D6943EA0204D1F810E0096A002D08BFFC
:101BA00003EA0C0444604369BEF1000F43EA0204F7
:101BB00008BF03EA0C040129446102D1C169114341
:101BC000C161016821F0010101600020B0BD000089
:101BD00010B540F2886240F26061C2F20002C2F2C7
:101BE000000140F2041300249042C2F2000308BF37
:101BF00003F11804884208BF1C4674B100F00EF8C7
:101C000020616168400701F10101616058BF10BDAA
:101C1000A0680130A0600120A07510BD406A704727
:101C2000B0B590F82040013C012C7DD8D0F800C020
:101C300000290CBFDCF80C40DCF81040A4077DD074
:101C40000CF5D8754FEA011C55F80C4014F004044B
:101C5000946055F80CE005EB011C19BF4FEADE0556
:101C600055604FEA5E551560DCF80050E64605F019
:101C70000205D5605EF8044F24075ABFDEF8004025
:101C800004F00F0408241461DEF800400029C4F3B6
:101C900007249461DEF800504FEA15455561DCF8E1
:101CA00008201A70026802EB0112D2F8B8214FEA3C
:101CB00012225A70026802EB0112D2F8B8214FEAE0
:101CC00012429A70026802EB0112D2F8B8214FEA70
:101CD0001262DA70026802EB0112D2F8BC211A71AA
:101CE000026802EB0112D2F8BC214FEA12225A71AB
:101CF000026802EB0112D2F8BC214FEA12429A713B
:101D0000026802EB0112D2F8BC214FEA1262DA71CA
:101D100000680CBF00F10C0100F11001002020222E
:101D20000B681A430A60B0BD00F1240101204FF492
:101D300080220B681A430A60B0BD00BF00F1240185
:101D400001204FF400120B681A430A60B0BD000076
:101D5000014690F82000421ED2B2012A88BF704787
:101D600009684A68920744BF0420704709688907D8
:101D700048BF03207047000090F820100139012966
:101D800084BF002070470068816882688068C1F362
:101D90008061C2F3C0621144C0F300700844704710
:101DA0002DE9F04F81B0044600684669D0F80490F0
:101DB0008768D0F80CB0D0F810A0D0F81880F107E0
:101DC00004D1002530071DD424E000BFF90710D04E
:101DD0000121BA07816009D4780700F1AF80380784
:101DE00000F1B680204600F03DFB02E0204600F006
:101DF0003BFB0025F80500F18780F80300F1B18076
:101E0000300707D51BF0100004D0206845F400759A
:101E10001021C160700708D51BF0080005D02068AC
:101E20000821C160204600F005FAB00706D52068F9
:101E3000C068800702D0204600F0FEF9700607D582
:101E40001AF0100004D0206845F48065102101616B
:101E5000B00608D51AF0080005D0206808210161F5
:101E6000204600F09BFAF00606D52068006980073E
:101E700002D0204600F094FAB00308D519F0100003
:101E800005D0206810214160204600F08BFAF00355
:101E900008D519F0080005D02068082141602046C7
:101EA00000F0ECFA300440F19B805FEA497040F1A9
:101EB000948006F4807008EA102028435FEA887155
:101EC000014648BF41F00201B20558BF01465FEA32
:101ED00048700D4648BF45F00405700558BF0D46D3
:101EE000300540F17A8018F0700000F076801038EC
:101EF000000905286CD8DFE800F003655D615969C9
:101F000045F0080564E000BF20684FF48071BA0511
:101F100081600BD4780515D438051DD4204600F017
:101F2000A5FAF8037FF56CAF1BE000BF204600F078
:101F30009FFAF8037FF564AF13E000BF4FF400652C
:101F400058E700BF05F50055F8037FF559AF08E0E5
:101F50004FF480554EE700BF05F58045F8037FF547
:101F60004FAF20684FF48031BA0381600AD4780300
:101F700010D4380314D4204600F07CFA30073FF523
:101F800041AF47E7204600F077FA30073FF53AAF18
:101F900040E700BF05F5004530073FF533AF39E7AF
:101FA00005F5803530073FF52DAF33E745F0800567
:101FB0000EE000BF45F020050AE000BF45F04005F7
:101FC00006E000BF45F0100502E000BF45F4807553
:101FD0002068816921F070018161206804214160DD
:101FE00055B1606A40EA05012046616201B0BDE872
:101FF000F04FFFF7EDBD00BF01B0BDE8F08F00006E
:10200000002804BF01207047B0B5044690F82000B6
:1020100010B9204600F06EF82068016841F0010117
:10202000016000F045FD054620684168C90705D1FB
:1020300000F03EFD401B0B28F6D310E0016821F0B4
:102040000201016000F034FD054600BF20684168D0
:1020500089070DD500F02CFD401B0B28F6D3606AD4
:10206000052140F400306062012084F82010B0BDEA
:10207000217E0268012922F0800208BF80320260BE
:10208000617E0268012922F0400208BF40320260EE
:10209000A17E0268012922F0200208BF20320260DE
:1020A000E17E0268012922F0100218BF103202609E
:1020B000217F0268012922F0080208BF083202606D
:1020C000617F0268012922F0040208BF0432026025
:1020D000D4E901C2D4E9033561691A432A431143A3
:1020E000ACF101021143C16100200121606284F85A
:1020F0002010B0BD10B586B0006846F60002C4F2EC
:10210000000200219042CDE90411CDE902110191B4
:1021100034D046F20041C4F20001884277D140F247
:102120000421C2F200010A6843F64000C4F2020032
:10213000531C0B6052B900210091016841F00071FD
:102140000160016801F00071009100990021009187
:1021500050F8101C142441F0080140F8101C50F8ED
:10216000100C032100F008000090009840F200409D
:10217000C4F2020000F5006035E000BF43F6400005
:10218000C4F202000091016841F0806101600168C1
:1021900001F080610091009940F20421C2F2000137
:1021A0000A68531C0B6052B900210091016841F08C
:1021B00000710160016801F0007100910099002137
:1021C000009150F8101C402441F0020140F8101C0E
:1021D00050F8100C602100F002000090009840F2CE
:1021E0000040C4F2020001910221029100210391FA
:1021F000032104910921059101A900F083FB2046E8
:102200000521002200F012FD204600F0FDFC06B082
:1022100010BD0000014690F820000138022803D2CA
:10222000002200204A627047486A40F48022012060
:102230004A62704770470000B0B58AB003AA01AB8C
:10224000002104460025FFF7EBFCE8B140F288616D
:1022500040F26060C2F20001C2F2000040F20412DB
:102260008C42C2F2000208BF02F11805844208BF86
:10227000154635B36868013068602046FFF7CEFC2C
:1022800028610AB0B0BD00BFDDE90501084318D1DF
:1022900040F260610398C2F200018C4214D040F217
:1022A0008861C2F200018C420BD140F206218842C3
:1022B00007D140F20050C2F20000903001A9FFF7B0
:1022C0003FF80AB0B0BD00BFA0F201201228F8D834
:1022D000DFE800F00C4A1250580A0A0A0A0A0A0AF1
:1022E0000A0A0A0A0A0A1A00EBE700BF40F20820AD
:1022F000C2F20000E2E700BF40F20820C2F2000094
:1023000000F59070DAE700BFBDF90400BDF90610D2
:1023100000EE100A9FED1E1A02EE101AB8EEC00A67
:10232000B8EEC22A80EE010A82EE011A40F20820BD
:10233000C2F200009FED184A80EDB20A80EDB11A9A
:1023400090EDB20A9FED131A90EDB12A90EDB33AD9
:1023500020EE010A23EE041A20EE020A30EE010AF2
:1023600080EDB30A0AB0B0BD40F20820C2F200000E
:10237000A3E700BF40F20820C2F2000000F5D870C9
:102380009CE700BF40F20050C2F2000096E700BF99
:102390000000C842CDCC4C3FCDCC4C3E7047000035
:1023A0007047000070470000B0B5044690F8200068
:1023B00001281DD1022084F820002068016821F046
:1023C0000101016000F074FB054600BF2068406811
:1023D000C00713D000F06CFB401B0B28F6D3606ADB
:1023E00040F400306062052084F820000120B0BD78
:1023F000606A40F4002060620120B0BD002060628D
:10240000B0BD0000B0B5044690F82000022819D1F4
:102410002068016841F00101016000F049FB0546B8
:1024200020684168C90713D100F042FB401B0B280C
:10243000F6D3606A40F400306062052084F8200022
:102440000120B0BD606A40F4801060620120B0BD20
:10245000016821F002010160012084F820000020C1
:10246000B0BD0000704700007047000070470000DA
:102470007047000070470000704700007047000080
:1024800070B5866D044600F013FB94F835100229F0
:1024900028D105462068216C026822F016020260ED
:1024A000426922F08002426109B9A16C19B1016848
:1024B00021F008010160016821F00101016000BF05
:1024C00020680068C00715D000F0F2FA401B06280B
:1024D000F6D320206065032084F83500002184F8BD
:1024E000341070BD802060650120002184F8341014
:1024F00070BD00BFE06D3F2101FA00F0B060012027
:1025000084F835000020002184F8341070BD0000EC
:1025100090F83510022909D1052180F8351000689E
:10252000016821F0010101600020704780214165B0
:1025300001207047406D7047F0B581B000210091D7
:1025400040F21001C2F200010B68D0E9166148F2B6
:10255000B51537680822C1F64E358A403A42A3FBCA
:1025600005350CD003681C68640708D51C6824F086
:1025700004041C60B260426D42F001024265012217
:102580008A403A4208D003685B691B0604D5B260F2
:10259000426D42F00202426504228A403A4208D06B
:1025A00003681B689B0704D5B260426D42F00402C9
:1025B000426510228A403A4219D001680B681B0715
:1025C00015D5B2600B680A685B0309D4D20509D43B
:1025D0000A6822F008020A60016C29B907E000BF0E
:1025E000110341D4016C11B1044688472046C26DE5
:1025F000202101FA02F33B4243D001680F68FF0635
:102600003FD5B36090F835700B68052F1CD123F0CF
:1026100016030B604B6923F080034B61036C0BB90D
:10262000836C1BB10B6823F008030B603F219140C2
:10263000B160012180F83510016D0022002980F879
:10264000342054D158E000BF0A685B0310D4D2058F
:1026500012D40A6822F010020A60012180F83510B5
:10266000002180F8341007E0816C0029BCD1BEE75E
:10267000110301D4416C00E0C16B11B104468847DD
:102680002046416DC1B3416DC9072ED0052180F8A8
:1026900035100168AA0A0B6823F001030B60009B48
:1026A0000133934200931AD80B68DB0717D0009BC5
:1026B00001339342009312D80B68DB070FD0009BC5
:1026C0000133934200930AD80B68DB0707D0009BC5
:1026D00001339342009302D80B68DB07DFD101215D
:1026E00080F83510002180F83410C16C21B101B0A0
:1026F000BDE8F040084700BF01B0F0BD2DE9F04152
:10270000044600F0D5F9ECB10546022084F8350006
:102710000020216884F83400086820F00100086077
:1027200021680868C00711D000F0C2F9401B0528D5
:10273000F6D9032520230320636584F83550BDE8CE
:10274000F08100BF0120BDE8F08100BF086848F2B9
:102750003F02CFF21002D4E9013500EA020C04F185
:102760000C0898E8C10143EA0C032B431843D4E951
:10277000072E304338431043626A40EA0E00042AB1
:1027800040EA08031CD1206BD4E90A2E40EA0E006F
:10279000184308604869BEF1000F20F0030040EACA
:1027A000020040F0040C11D0B8F5005F36D0B8F14B
:1027B000000F45D1022A46D0012A3BD032B942E06F
:1027C0000B60486920F0070040EA020C01F0F800B5
:1027D0004AF6AB221038CAF6AA22A0FB02231A0935
:1027E00049F22073C1F814C0C0F600039A5C40F2AD
:1027F000FF335F284FF03F0021EA030100FA02F0A7
:1028000088BF0431C4E91612886000230125002026
:10281000636584F83550BDE8F08100BF032AD5D840
:10282000012540230120DFE802F0030E030500BF6D
:1028300082E700BFAEF1C070B0FA80F0400904E05A
:10284000032A04D3C2D1CEF300600028BED00125F4
:1028500040230120636584F83550BDE8F081000015
:1028600090F834C0BCF1010F04BF0220704770B56E
:102870004FF0010C80F834C0D0F858E090F835C023
:10288000BCF1010F38D14FF0020C80F835C04FF089
:10289000000CC0F854C0D0F800C08468056CC06D4E
:1028A000DCF80060402C26F48026CCF80060CCF8E0
:1028B00004300B4604BF13460A463F2101FA00F0DC
:1028C000CCF80830CCF80C20CEF80800DCF800007A
:1028D00040F01600CCF800002DB1DCF8000040F00C
:1028E0000800CCF80000DCF8000040F00100CCF853
:1028F0000000002070BD00BF002180F834100220CD
:1029000070BD00002DE9F04F83B000F1200200F10E
:102910003E4741F60045009207F1FF77C4F20205F9
:1029200008224FEAB726A84208BF072200254FF029
:1029300000084FF00009072E38BF4FEAB722019276
:102940000AE000BF09F1010908F10208B9F1100F0E
:1029500005F1040500F0A2800F68012202FA09FEC9
:1029600017EA0E0AEED0D1F804C003220CF00307D8
:102970007E1E02FA08F4012E6FEA040B12D8846856
:10298000CE6804EA0B0406FA08F63443846044680F
:1029900024EA0E06CCF3001404FA09F42643466038
:1029A00004E000BF032F01D103271EE0C6688C6836
:1029B00006EA0B0604FA08F42643022FC66014D177
:1029C0006FF00302009E02EA590756F807C005F0AF
:1029D0001C040F220B69A2402CEA0202A3401A43F6
:1029E000F251D1F804C00CF00307026807FA08F3AB
:1029F00002EA0B021A431CF4403F0260A2D00022FC
:102A000043F644030292C4F202031A6843F60044F8
:102A100042F480421A601A68C4F2010402F480424F
:102A20000292029A29F003024FF6084C2244CFF694
:102A3000FF7C52F80C3005F00C070F26BE40B34364
:102A4000019E06FA07F73B4342F80C30A2684B6838
:102A500042EA0A0743F60C4CDE0258BF22EA0A0794
:102A6000A760C4F2010CDCF800209E0242EA0A07CB
:102A700058BF22EA0A07CCF8007062689E0342EA57
:102A80000A0758BF22EA0A0767602268DB0342EAA6
:102A90000A0758BF22EA0A07276053E703B0BDE8D8
:102AA000F08F0000002A08BF090481617047000010
:102AB00045F65820C2F200000068704740F200005E
:102AC00045F65821C2F20000C2F2000100780A68FF
:102AD000104408607047000080B543F60040C4F21F
:102AE0000200016841F400710160016841F48061F5
:102AF0000160016841F480710160032000F0C2F8B8
:102B00000F2000F005F800F05DF8002080BD000007
:102B100070B586B0002543F640010195C4F202016C
:102B20000A68044642F020020A60096801A801F020
:102B3000200101910199694600F066F9049E002E7A
:102B400018BF012600F080F94DF68361B040C4F251
:102B50001B31A0FB01014FF0FF3000EB914140F62B
:102B6000B80041F20042C2F20000C4F2000240F29A
:102B7000E733C0E90021C0E902530561856100F037
:102B80008BFE08B106B070BD40F6B800C2F200007E
:102B900000F0EAFE0028F5D1372000F035F80F2CC0
:102BA0000CD837202146002200F040F840F2040102
:102BB0000020C2F200010C6006B070BD012006B01A
:102BC00070BD000082B0002043F640010190C4F2C5
:102BD00002014A6842F480424A604A6802F4804234
:102BE0000192019A00900868002240F0805008602D
:102BF00008680F2100F08050009000986FF00100ED
:102C000002B000F013B80000002848BF704700F081
:102C10001F01012202FA01F11C2202EAD0004EF249
:102C20000012CEF2000281507047000010B54EF63F
:102C30000C5CCEF2000CDCF80030C3F3022E8EF0F8
:102C40000704042C28BF0424BEF103034FF0FF3E09
:102C50000EFA04F438BF0023A14399400EFA03F39F
:102C60009A43114300F00F0200F160430901043A56
:102C700003F564436244002848BF02F10C03197055
:102C800010BD00004EF60C51CEF200010A684FF65E
:102C9000FF031A4060F30A2242F0806040F0FD70AA
:102CA00008607047002804BF012070472DE9F041FB
:102CB00043F60808C4F202080446D8F8F8030D46A3
:102CC00000F00700814207D988F8F853D8F8F803D4
:102CD00000F00700A84277D12068810717D5410787
:102CE00005D5D8F8001041F4E051C8F800100107EC
:102CF00005D5D8F8001041F46041C8F80010D8F8A4
:102D00000010A26821F0F0011143C8F80010C007BC
:102D100040D1D8F8F80300F00700854207D288F8C0
:102D2000F853D8F8F80300F00700A8424CD1206807
:102D3000410707D5D8F80010E26821F4E0511143AB
:102D4000C8F80010000708D5D8F80000216920F461
:102D5000604040EAC100C8F8000000F09DF8D8F8D3
:102D6000001049F20872C1F30311C0F60002515C71
:102D700040F2100220FA01F140F20400C2F2000019
:102D80000068C2F200021160FFF7C2FE0020BDE839
:102D9000F08100BF6068811E022907D258F8081C24
:102DA00089015CBF0120BDE8F08111E0012807D155
:102DB00058F8081C89035CBF0120BDE8F08107E0DA
:102DC00058F8081C890703D40120BDE8F08100BF32
:102DD000D8F8001021F003010843C8F80000FFF7FD
:102DE00067FE064641F28837D8F80000616800F0B7
:102DF0000C00B0EB810F8CD0FFF75AFE801BB8425D
:102E0000F2D90320BDE8F0810F22026043F60802E8
:102E1000C4F20202136803F003034360136803F073
:102E2000F0038360136803F4E053C360D2F800C07A
:102E30004FF4E05303EADC030361D2F8F80300F037
:102E4000070008607047000040F2100043F60801D8
:102E5000C2F20000C4F202010068096849F2187267
:102E6000C1F38221C0F60002515CC84070470000E7
:102E700040F2100043F60801C2F20000C4F2020161
:102E80000068096849F21872C1F34231C0F60002C5
:102E9000515CC8407047000010B543F60404C4F20A
:102EA00002046168C1F3810142F20040C0F2F40003
:102EB000DFE801F002040A0210BD00BF41F6003055
:102EC000C0F2B70010BD00BF206821682368490226
:102ED00041F60031C0F2B70100F03F02C3F38810A1
:102EE0005CBF42F20041C0F2F401A1FB00010023EB
:102EF000FDF7D0F921680222C1F3014102EB410143
:102F0000B0FBF1F010BD0000002804BF01207047A5
:102F10002DE9F04182B00446007843F60006C00770
:102F2000C4F202060CD0B06800F00C00042840F097
:102F300081803068800303D56068002800F06881D4
:102F4000207880071BD5B06810F00C0F09D0B0684E
:102F500000F00C00082840F087807068400200F103
:102F600083803068800703D5E068012840F05081F5
:102F70003068216920F0F80040EAC1003060207814
:102F8000000713D4207840072AD4A569002D00F04B
:102F90003A81B06800F00C00082840F0A580012DAF
:102FA00040F00E81012002B0BDE8F0816069002888
:102FB00000F082800020C4F247200121C0F8801E6A
:102FC000FFF776FD054600BF706F8007DAD4FFF784
:102FD0006FFD401B0228F7D9032002B0BDE8F08145
:102FE000306C5FEAC0080AD400200190306C40F0D9
:102FF00080503064306C00F080500190019847F2AE
:103000000007C4F200073868C00547D4386840F4A8
:1030100080703860FFF74CFD054600BF3868C0057A
:103020003CD4FFF745FD401B0228F7D9032002B02E
:10303000BDE8F081B06800F00C00082803D170688A
:1030400040023FF576AF61683068B1F5803F07D048
:10305000B1F5A02F40F09A8040F4802030603068B5
:1030600040F4803030609AE0E068002840F20000D0
:10307000C4F247205CD001210160FFF719FD05462D
:10308000306880073FF574AFFFF712FD401B022840
:10309000F6D9032002B0BDE8F08100BFA168306F0F
:1030A000012905D0052955D140F004003067306F63
:1030B00040F00100306756E00020C4F247200021B4
:1030C000C0F8801EFFF7F4FC054600BF706F800754
:1030D0007FF558AFFFF7ECFC401B0228F6D9032020
:1030E00002B0BDE8F08100BF0027C4F247270020EE
:1030F0003866FFF7DDFC022D05460DD130688001F2
:1031000040F18A80FFF7D4FC401B02284FF00300F7
:10311000F4D902B0BDE8F0813068800173D5FFF7C3
:10312000C7FC401B02284FF00300F5D9F1E700BFB0
:1031300000210160FFF7BCFC054600BF3068800736
:103140007FF51DAFFFF7B4FC401B02284FF00300D2
:10315000F4D9DEE720F001003067306F002920F05D
:10316000040030677AD0FFF7A3FC054641F28837A8
:10317000306F800700F18480FFF79AFC401BB84253
:10318000F6D9032002B0BDE8F08100BF20F4803002
:1031900030603068002920F4802030607AD0FFF75A
:1031A00087FC0546306880033FF5CAAEFFF780FC18
:1031B000401B6428F6D9032002B0BDE8F08100BFAF
:1031C0007068E16900F480028A4221D1216A00F02E
:1031D0003F028A421CD147F6C071626A0140B1EBDE
:1031E000821F15D1A16A4FF6FF73C903994300F4FA
:1031F0004032A1F580318A420AD1E16A00F0706064
:10320000B0EB016F04D1002002B0BDE8F08100BF37
:10321000012002B0BDE8F08104F11C052FCD084368
:1032200040EA8210D9034FF6FF729143A1F5803135
:1032300040EA05600843706001203866FFF738FCFB
:10324000044600BF30688001DDD4FFF731FC001B6D
:1032500002284FF00300F5D95BE700BFFFF728FC19
:10326000054641F2883700BF306F800708D5FFF769
:103270001FFC401BB8424FF00300F5D949E700BFDF
:10328000B8F1000F3FF581AE306C20F08050306413
:103290007BE600BFFFF70CFC054600BF30688003EB
:1032A0007FF54EAEFFF704FC401B64284FF003008F
:1032B000F4D92EE770B528B1416A29B10021016126
:1032C000142106E0012070BD4168B1F5827F02D073
:1032D0001C21002242500026866290F8511029B924
:1032E00080F85060054600F03DF82846022180F83D
:1032F000511090E82E0002F482720C6803F404432B
:1033000024F040040C601A4405F4006305691A4473
:1033100005F0020345691A4405F001038569C46993
:103320001A4405F400731A4404F03803046A1A447A
:1033300004F08003846A1A4304F400531A430A60B9
:10334000436A042202EA154203F010031A444A6059
:10335000CA6922F40062CA610121466580F85110F1
:10336000304670BD2DE9F04F87B0044643F20007A8
:103370000068C4F201070026B8420696CDE904664B
:103380000396029602D007B0BDE8F08F43F63000F6
:103390000196C4F20200416902AD41F480514161DD
:1033A000416946F2104801F480510191019901965A
:1033B00001684FF0020941F00201016001684FF01D
:1033C000030A01F0020101910199019601684FF091
:1033D000050B41F0010101600068294600F0010081
:1033E000019001981820029007F55440C4F2020899
:1033F000CDE90396CDF814A0CDF818B0FFF782FA06
:103400008020CDE9020904A880E8400C07F550406F
:103410002946FFF777FA40F2B065C2F200054FF493
:1034200040304FF0C0674FF48069C5E90806284670
:10343000C5E90087C5E90266C5E90496C5E90666DF
:10344000FFF75CF9002818BFFDF76EFFE564AC6379
:1034500040F2107508F14800C2F200054021C5E9AC
:10346000000705F10800002280E806024FF4003052
:10347000C5E908022846C5E90522EA61FFF73EF9D9
:10348000002818BFFDF750FFA564AC6307B0BDE886
:10349000F08F00002DE9F04383B01E4615460F461D
:1034A0000446FFF705FB94F851108146012909D124
:1034B000002F4FF0010018BF002D0FD103B0BDE861
:1034C000F08300BF6068B0F5827F0DD104294FF012
:1034D0000200F3D1A1680029EAD0EFE7002EEDD079
:1034E00094F85000012803D1022003B0BDE8F08316
:1034F000012084F8500094F85100002104281CBFDA
:10350000052084F851006165A563E687A6872763D7
:10351000E6862068A686216461640168490603D4B2
:10352000016841F0400101606168731EE268B1FA10
:1035300081F1B3FA83F3DDF8288049095B09B2F51C
:10354000006F41EA030165D131B137F8021BC16058
:103550002763E08E0138E086012518F1010032D1A1
:1035600002E000BFFFF7A4FAE08E18B9E08F002850
:1035700000F0B8802068816889070CD5E18E51B1D0
:10358000012D08D1216B002531F8022BC260216387
:10359000E18E0139E1868168C907E3D0E18F002916
:1035A000E0D0C068A16B012521F8020BA163E08F78
:1035B0000138E087D6E700BFFFF77AFAA0EB0900F1
:1035C000404580F0A580E08E18B9E08F002800F01B
:1035D00089802068816889070CD5E18E51B1012D61
:1035E00008D1216B002531F8022BC2602163E18EE6
:1035F0000139E1868168C907DED0E18F0029DBD07F
:10360000C068A16B012521F8020BA163E08F01388E
:10361000E087D1E739B139780173206B013020633D
:10362000E08E0138E086012518F1010032D101E079
:10363000FFF73EFAE08E10B9E08F002852D02068E4
:10364000816889070ED5E18E61B1012D0AD1216B08
:10365000002509780173216B206801312163E18E17
:103660000139E1868168C907E2D0E18F0029DFD006
:10367000C068A16B01250870A06B0130A063E08FCA
:103680000138E087D4E700BFFFF712FAA0EB09008A
:1036900040453DD2E08E08B9E08F18B320688168BC
:1036A00089070ED5E18E61B1012D0AD1216B00256C
:1036B00009780173216B206801312163E18E0139A2
:1036C000E1868168C907DFD0E18F0029DCD0C068BE
:1036D000A16B01250870A06B0130A063E08F013859
:1036E000E087D1E72046022101224346CDF8009031
:1036F00003F064F8B0B1606D40F0200060652020F8
:103700006065002084F85000012003B0BDE8F0831C
:10371000012084F85100002084F85000032003B0F9
:10372000BDE8F08340F21000C2F20000006849F6E4
:103730008171C1F25E61A0FB0101480D4FF47A7105
:10374000484302906068B0F5827F0BD1204680210B
:1037500000224346CDF8009003F030F80028CAD18B
:1037600021E000BF0298F0B1029801380290206871
:103770008168090617D50299A9B102990139029108
:10378000816809060FD5029969B102990139029140
:103790008168090607D5029929B102990139029178
:1037A00080680006DED4A06838B900200190206847
:1037B000C1680191806801900198012084F851004E
:1037C000002084F85000606D002818BF012003B06D
:1037D000BDE8F083704700007047000090F83C207F
:1037E000012A4FF0020254D010B580F83D20026843
:1037F000D2F804E0D2F808C00C682EF0700323431E
:1038000041F2FF74C4F20004A24253600EDC40F2A5
:10381000FF73C4F200039A4216DCB2F1804F2BD042
:1038200040F20043C4F2000324E000BF40F2FF3343
:10383000C4F201039A4213DC41F60003C4F2000310
:103840009A4219D0002313E040F60003C4F20003AB
:103850009A4211D040F60043C4F200030AE000BFD0
:1038600044F20003C4F201039A4205D040F200433F
:10387000C4F201039A4204D149682CF08003194331
:1038800091600121002280F83D1080F83C20BDE8C5
:103890001040104670470000002804BF0120704708
:1038A00010B5044690F83D0028B9002084F83C008B
:1038B000204600F01FF8022084F83D002068211DFA
:1038C00003F0AAF8012084F8460084F83E0084F84A
:1038D0003F0084F8400084F8410084F8420084F8F6
:1038E000430084F8440084F8450084F83D0000203B
:1038F00010BD000080B582B0006841F20001C4F242
:103900000001884216D040F60001C4F2000188424E
:103910000ED10020019043F64000C4F2020001687D
:1039200041F004010160006800F00400019001987A
:1039300002B080BD0020009043F64000C4F20200B7
:103940000168002241F0100101600068052100F0CB
:103950001000009000983620FFF768F9362002B07A
:10396000BDE88040FFF750B990F83D1001291CBF19
:1039700001207047022180F83D10006841F2FF727B
:10398000C168C4F20002904241F00101C1600DDC47
:1039900040F2FF71C4F20001884215DCB0F1804FA3
:1039A0002AD040F20041C4F2000123E040F2FF318E
:1039B000C4F20101884213DC41F60001C4F20001A7
:1039C000884219D0002113E040F60001C4F2000142
:1039D000884211D040F60041C4F200010AE000BF65
:1039E00044F20001C4F20101884205D040F20041D6
:1039F000C4F20101884206D1816801F0070106295D
:103A000004BF00207047016841F0010101600020FF
:103A10007047000090F83C20012A4FF002026CD061
:103A200080B580F83D20D0F800C04FF67772DCF802
:103A3000083023EA0202CCF808200B684F2B29DC5F
:103A40001F2B45DD202B46D0302B44D0402B40F09F
:103A5000AF80D1F804E0C968DCF82030DCF8202021
:103A600022F00102CCF82020DCF8182022F0F0022D
:103A700042EA011123F00A0242EA0E02CCF81810C1
:103A8000CCF82020DCF8081041F0470121F030018B
:103A900028E000BF6F2B33DDB3F5005F74D0B3F5C2
:103AA000805F21D0702B40F08380D1E901E3C968A9
:103AB000DCF8082043EA0E0322F47F4243EA0121A6
:103AC0001143CCF80810DCF8081041F0770109E048
:103AD0000BB1102B6CD1DCF8081021F070011943E8
:103AE00041F00701CCF808100022012180F83D10B8
:103AF000002180F83C10BDE880401046704700BFB0
:103B0000502B21D0602B53D1D1F804E0C968DCF8E8
:103B10002030DCF8202022F01002CCF82020DCF845
:103B2000182022F4704242EA013123F0A00242EA56
:103B30000E12CCF81810CCF82020DCF8081041F058
:103B4000670121F01001CDE7D1F804E0C968DCF885
:103B50002030DCF8202022F00102CCF82020DCF814
:103B6000182022F0F00242EA011123F00A0242EA90
:103B70000E02CCF81810CCF82020DCF8081041F028
:103B8000570121F02001ADE7D1E901E3C968DCF874
:103B9000082043EA0E0322F47F4243EA0121114345
:103BA000CCF80810DCF8081041F480419AE700BF17
:103BB00001229AE77047000070B504460068C568A6
:103BC0000669B10716D515F0020113D06FF0020196
:103BD0000161012121778069800703D02046FFF72A
:103BE000E9FF05E0204600F08FF8204600F0CEF90E
:103BF00000202077700719D515F0040016D0206832
:103C00006FF00401016102212177806910F4407F87
:103C100004D02046FFF7CEFF06E000BF204600F0AC
:103C200073F8204600F0B2F900202077300717D54E
:103C300015F0080014D020686FF00801016104211C
:103C40002177C069800703D02046FFF7B3FF05E066
:103C5000204600F059F8204600F098F9002020771F
:103C6000F00619D515F0100016D020686FF010017D
:103C7000016108212177C06910F4407F04D02046FB
:103C8000FFF798FF06E000BF204600F03DF8204611
:103C900000F07CF900202077F00718BF15F0010034
:103CA00002D1300609D412E020686FF001010161F1
:103CB000204600F0F5F9300609D515F0800006D051
:103CC00020686FF0800101612046FFF783FD7006D8
:103CD00009D515F0400006D020686FF04001016161
:103CE000204600F0E7F9B00658BF70BD15F020007F
:103CF00008D021686FF0200220460A61BDE87040BC
:103D0000FFF76ABD70BD00007047000090F83C30BE
:103D1000012B04BF022070474FEAB202032A00F2CF
:103D2000FF802DE9F043DFE802F003B13F7F00BFE1
:103D3000036840F200461C6A1A6A24F0020422F06A
:103D400001021A621A46D3F804C052F818EF8F68BD
:103D500043F48065C4F20106B54244EA070405D184
:103D6000CF6824F00C0427F004073C430F68B542E9
:103D700006D1D1E905582CF440762E4346EA080CCA
:103D80002EF073063743C3F804C09F614F6809697A
:103D90005F631C629F6947F008079F619F6927F076
:103DA00004079F61B1E000BF036840F200481C6A4D
:103DB0001A6A24F4007422F480721A621A46D3F844
:103DC00004C052F81CEF8F6843F48065C4F2010808
:103DD000454544EA072408D1CF6840F2FF463F0238
:103DE00024F4406427EA06063443D1F800904545A0
:103DF00006D1D1E905562CF440572E4347EA061C5C
:103E00002EF0730747EA0907C3F804C0DF614F6863
:103E10000969DF631C62DF6947F00807DF61DF695A
:103E200027F00407DF6170E0036840F20045D3F833
:103E300020C01A6A43F4806722F480521A621A463C
:103E40005C6852F81C8FD1F800E08E68C4F201055E
:103E5000AF4204D14D6924F4804444EA85142CF423
:103E6000005747EA063728F4E64646EA0E265C6025
:103E7000DE614E6809691E641F62DF6947F40067EE
:103E8000DF61DF6927F48067DF613DE0036840F2AE
:103E900000481C6A1A6A24F0200422F010021A62F8
:103EA0001A46D3F804C052F818EF8F6843F48065BF
:103EB000C4F20108454544EA071407D1CF686FF002
:103EC000400624F0C00406EA07163443D1F80090F7
:103ED000454506D1D1E905562CF440672E4347EA03
:103EE000860C2EF4E64747EA0927C3F804C09F6111
:103EF0004F6809699F631C629F6947F400679F616F
:103F00009F6927F480679F61090213681943116054
:103F10000021BDE8F043002280F83C2008467047AD
:103F20000121002280F83C2008467047002804BF89
:103F30000120704710B5044690F83D0028B90020D4
:103F400084F83C00204600F01FF8022084F83D0071
:103F50002068211D02F060FD012084F8460084F8ED
:103F60003E0084F83F0084F8400084F8410084F863
:103F7000420084F8430084F8440084F8450084F843
:103F80003D00002010BD0000704700007047000099
:103F9000C1B1042908D0082914BF41224022825C03
:103FA000012A05D016E000BF3F22825C012A11D110
:103FB0000222082910D0042914BF80F8412080F87B
:103FC0003F200BE090F83E20012A03D1022280F826
:103FD0003E2003E00120704780F84020006801F097
:103FE0001F010122036A02FA01F123EA01020262BF
:103FF000026A114341F2FF72C4F200029042016270
:104000000CDC40F2FF71C4F20001884214DCB0F114
:10401000804F37D040F2004116E000BF40F2FF3140
:10402000C4F20101884215DC41F60001C4F200012E
:10403000884227D0002115E040F60001C4F20001BB
:1040400088421FD040F60041C4F20001884219D0D6
:104050001FE000BF44F20001C4F20101884211D008
:1040600040F20041C4F20101884212D1416C40F299
:10407000004340F48062C4F2010341F400419A42DB
:10408000416406D1816801F00701062904BF0020C0
:104090007047016841F00101016000207047000095
:1040A000006841F20041C4F20001884218BF704725
:1040B000FEF704BD7047000070B582B090F8425022
:1040C000202D0BD113460A460146002A4FF001006D
:1040D00018BF002B06D102B070BD00BF022002B095
:1040E00070BD00BF0863002622204E638A628B8564
:1040F0004E6481F842000C680D46C86B46F6DD4CF4
:1041000046F63D61C0F6000CC0F60001C0E90FC1E3
:1041100046F66131C0F60001C0E91316211DFEF715
:104120009FFBE8B3102068642020294685F84200F0
:1041300001200A6B012A40F0B380002200920A6835
:104140001368009352680092009A00BF0A6852E810
:10415000032F0B6842F0100243E80326002EBAD06A
:104160000A6852E8032F0B6842F0100243E8032666
:10417000002EB0D00A6852E8032F0B6842F01002FC
:1041800043E80326002EA6D00A6852E8032F0B68E6
:1041900042F0100243E80326002ED7D19BE700BF70
:1041A00001962868294602680192406801900198AA
:1041B000286928B3086850E8030F0A6840F4807043
:1041C00042E80303E3B1086850E8030F0A6840F4CB
:1041D000807042E803039BB1086850E8030F0A6847
:1041E00040F4807042E8030353B1086850E8030FBD
:1041F0000A6840F4807042E80303002BDAD100BF64
:10420000086850E8050F0A6840F0010042E805031D
:10421000BBB3086850E8050F0A6840F0010042E8A7
:10422000050373B3086850E8050F0A6840F0010001
:1042300042E805032BB3086850E8050F0A6840F010
:10424000010042E80503002BDAD11AE0086850E8C3
:10425000050F0A6840F0400042E80503DBB108683A
:1042600050E8050F0A6840F0400042E8050393B1AA
:10427000086850E8050F0A6840F0400042E805036E
:104280004BB1086850E8050F0A6840F0400042E86A
:104290000503002BDAD100200A6B012A3FF44DAF51
:1042A000012002B070BD0000006844F60002C4F2B4
:1042B0000002904218BF70472DE9F04F83B040F2E2
:1042C000C0041229C2F2000458D34EF28F30484382
:1042D000000D00EBC0006FF0110101EB400014FA7B
:1042E00080F090F82510402948D3C1F30115002D26
:1042F00044D020308A09029202784378877863F3A9
:104300000A22A2F580620192DA08C67867F34A129F
:10431000A2F580620092B200037942EA971263F339
:104320008A22A2F5806B5A0801F00F0142EAC111FE
:10433000027C437CC68863F30A22D0F80880D0F858
:104340000C90A1F58067A2F5806AFEF7B1FB019A97
:10435000E1692280009A01316280029AA4F804B0D7
:10436000E2720022E780A4F808A0A572A681C4F832
:104370000E80C4F81290E282C4E9060140F60010F3
:1043800004F12001C2F200002422FFF795FE40F262
:104390007070C2F200000068016821F0080101603D
:1043A00003B0BDE8F04F704710B50446206850E8F0
:1043B000030F216820F4907041E80302BAB320682B
:1043C00050E8030F216820F4907041E8030272B3B3
:1043D000206850E8030F216820F4907041E8030240
:1043E0002AB3206850E8030F216820F4907041E858
:1043F0000302002ADAD11AE0206850E8050F21688C
:1044000020F0010041E80502DAB1206850E8050F0C
:10441000216820F0010041E8050292B1206850E8CF
:10442000050F216820F0010041E805024AB120682B
:1044300050E8050F216820F0010041E80502002A3C
:10444000DAD1206B012824D1206850E8030F2168BD
:1044500020F0100041E80302DAB1206850E8030FB1
:10446000216820F0100041E8030292B1206850E872
:10447000030F216820F0100041E803024AB12068D0
:1044800050E8030F216820F0100041E80302002AE1
:10449000DAD120684069400636D500BF206850E870
:1044A000050F216820F0400041E80502DAB12068DC
:1044B00050E8050F216820F0400041E8050292B164
:1044C000206850E8050F216820F0400041E805020F
:1044D0004AB1206850E8050F216820F0400041E80B
:1044E0000502002ADAD1E06B70B100210165FDF709
:1044F000C7FF48B1E06BFEF71DF8202804D110205B
:104500006064032010BD00BF00202021E08584F8F6
:104510004210206310BD0000016844F60002C4F29E
:104520000002914218BF704710B582B0002201927C
:104530000B68044601934B680193019B01920B6841
:1045400001934B680193019B01920B6801934B68A7
:104550000193019B01920B6801934B680193019BAE
:1045600001920B6801934968019101994264FFF738
:104570001BFF40F2C000C2F2000000F12001204603
:104580002422FFF799FD40F27070C2F2000000682B
:10459000016821F00801016002B0BDE810407047D9
:1045A000B0B582B001680A68CC684B6902F02F058B
:1045B000202D04F0200505D125B102B0BDE8B040A2
:1045C00002F048BC5FEA027C1EBF03F0010E04F457
:1045D000907313EB0E0341D1036BD50618D5012B55
:1045E00016D114F0100313D0002201920A68019230
:1045F0004A680192019A496949064BD4818DC28D5E
:10460000C38D002B18BF914240F0068202B0B0BDAE
:1046100013062DD514F080032AD090F84120212ACA
:10462000F4D18268B2F5805F03D10269002A00F0FC
:104630007982026A531C036212784A60C28C013A82
:104640001304C284E2D1C86820F08000C860C86842
:1046500040F04000C86002B0B0BD00BFD30718BF33
:1046600014F4807340F0E280530700F1E580EAE043
:104670005206CBD514F04002C8D0CA6822F04002DE
:10468000CA60202180F8411002B0BDE8B04000F0BF
:10469000EBBA00BFC26B11684B68858D99B20029D7
:1046A00000F0B480A94280F0B180C385D169B1F532
:1046B000807F00F0A080016851E8031F026821F4A8
:1046C000807142E80313DBB1016851E8031F0268FF
:1046D00021F4807142E8031393B1016851E8031F8C
:1046E000026821F4807142E803134BB1016851E87C
:1046F000031F026821F4807142E80313002BDAD112
:10470000016851E8051F026821F0010142E8051324
:10471000BBB3016851E8051F026821F0010142E8BE
:10472000051373B3016851E8051F026821F0010108
:1047300042E805132BB3016851E8051F026821F018
:10474000010142E80513002BDAD11AE0016851E8B3
:10475000051F026821F0400142E80513DBB1016842
:1047600051E8051F026821F0400142E8051393B1AA
:10477000016851E8051F026821F0400142E8051375
:104780004BB1016851E8051F026821F0400142E881
:104790000513002BDAD1202180F84210002101639B
:1047A000016851E8031F026821F0100142E8031379
:1047B000DBB1016851E8031F026821F0100142E8F3
:1047C000031393B1016851E8031F026821F010013F
:1047D00042E803134BB1016851E8031F026821F05E
:1047E000100142E80313002BDAD1C16B04460846DE
:1047F000FDF746FE204602214163818DC28D891A54
:1048000089B202B0BDE8B040FFF74EBD8D427FF4E3
:10481000FDAED269B2F5807F7FF4F8AE022242632A
:1048200002B0BDE8B040FFF73FBD00BF436C43F0AE
:1048300001034364530706D5BEF1000F03D0436C58
:1048400043F002034364930706D5BEF1000F03D083
:10485000436C43F004034364BCF1000F06D55EEAE9
:10486000050303D0436C43F008034364436C002BFF
:104870003FF4CCAE920605D525B1044602F0EAFA23
:10488000216820464969426C01F0400102F00802AB
:10489000891800F0B98000BF016851E8031F026861
:1048A00021F4907142E80313BBB3016851E8031F80
:1048B000026821F4907142E8031373B3016851E870
:1048C000031F026821F4907142E803132BB30168BF
:1048D00051E8031F026821F4907142E80313002B92
:1048E000DAD11AE0016851E8051F026821F00101E0
:1048F00042E80513DBB1016851E8051F026821F0A9
:10490000010142E8051393B1016851E8051F0268EF
:1049100021F0010142E805134BB1016851E8051F80
:10492000026821F0010142E80513002BDAD1016B86
:10493000012924D1016851E8031F026821F0100108
:1049400042E80313DBB1016851E8031F026821F05C
:10495000100142E8031393B1016851E8031F026894
:1049600021F0100142E803134BB1016851E8031F25
:10497000026821F0100142E80313002BDAD1202154
:1049800080F842100021016301684969490640F13D
:10499000C380016851E8051F026821F0400142E828
:1049A0000513DBB1016851E8051F026821F04001E1
:1049B00042E8051393B1016851E8051F026821F030
:1049C000400142E805134BB1016851E8051F026838
:1049D00021F0400142E80513002BDAD1C16B002918
:1049E00000F09A8046F65532C0F6000204460846AA
:1049F0000A65FDF78DFD00283FF408AEE06B016D00
:104A000002B0BDE8B04008470446FFF785FD00202E
:104A1000606402B0B0BD00BF891A00BF026852E8EE
:104A2000032F036822F4907243E80325BDB30268A4
:104A300052E8032F036822F4907243E8032575B30C
:104A4000026852E8032F036822F4907243E80325BA
:104A50002DB3026852E8032F036822F4907243E8F2
:104A60000325002DDAD11AE0026852E8052F036809
:104A700022F0010243E80525DDB1026852E8052F66
:104A8000036822F0010243E8052595B1026852E867
:104A9000052F036822F0010243E805254DB10268A5
:104AA00052E8052F036822F0010243E80525002D96
:104AB000DAD1202280F8422000220263026852E804
:104AC000032F036822F0100243E80325DDB10268DA
:104AD00052E8032F036822F0100243E8032595B142
:104AE000026852E8032F036822F0100243E803250E
:104AF0004DB1026852E8032F036822F0100243E828
:104B00000325002DDAD1022289B2426302B0BDE84A
:104B1000B040FFF7C9BB00BF02B0BDE8B040FFF72F
:104B2000FBBC00BF026A32F8023B6FF35F234B60AD
:104B3000026283E5002804BF0120704710B50446D7
:104B400090F8410028B9002084F84000204600F089
:104B500021F8242084F841002068C16821F4005124
:104B6000C160204602F0F6F92068016921F4904105
:104B70000161416921F02A014161C16841F400519C
:104B8000C16000202021606484F8411084F8421044
:104B9000606310BD70B586B0044644F6000021681D
:104BA000C4F20000002681420596CDE90366029614
:104BB000019601D006B070BD43F630010096C4F2F4
:104BC00002010A6900F5E03042F480220A610A69B4
:104BD00002F480220092009A00960A6842F00402D1
:104BE0000A60096801F00401009100994FF44061E6
:104BF00001910221CDE902160321049107210591BB
:104C000001A9FDF77FFE40F2707546F22800C2F25E
:104C10000005C4F202004FF0006185E843004FF444
:104C200000304FF480624FF48073C5E908062846CF
:104C3000C5E90362C5E90566EB61FDF75FFD002884
:104C400018BFFCF771FB272005210022E563AC6348
:104C5000FDF7ECFF2720FDF7D7FF06B070BD000081
:104C6000704700007047000070470000FEE700003A
:104C700040F64810C2F2000090F83C007047000077
:104C800010B52DED0C8B002818BF002902D1BDEC0A
:104C90000C8B10BDB5EE400AF1EE10FAF7DDD1ED48
:104CA000002AD1ED011A40F64814D1ED020AC2F2F1
:104CB000000490ED001A90ED013A90ED022A21EEE9
:104CC000A14A22EEA25A94F83C0035EE044A20EEA6
:104CD000A05A002835EE044A00F0DE81F1EEC43A15
:104CE00094ED0B5A94ED0C4A31EE451A94ED0D5AA1
:104CF00033EE447A32EE456A84ED081A84ED097A7F
:104D000084ED0A6AF1EE0C4A94ED005A94ED014AE2
:104D100094ED023A94ED032AF4EE643AF1EE10FABF
:104D2000C0F2A080F2EE094AF4EE643AF1EE10FA15
:104D300000F39880F7EE004AC4EEA33A64EE024A0C
:104D400065EE045AFEEE006A62EEA32A61EEA31A33
:104D500060EEA30A65EE033A74EEE33A63EE024AAC
:104D600075EEA44A65EE055A75EEA65A62EE026A21
:104D700076EEA55A60EEA46A61EEA57A60EEA30A0B
:104D800061EEA31ADFEDC13A77EEE66A62EEA55A4C
:104D900062EEA42A72EEE11A66EEA32AD4ED164A58
:104DA00070EEE50A62EE802A72EEA42AD4ED174A6C
:104DB00060EEA35A65EE805A75EEA44A61EEA33AFE
:104DC000D4ED185A63EE803ADFEDB17A73EEA53A6E
:104DD000DFEDB05AF4EE672AF1EE10FAB8BFF0EE4C
:104DE000672AF4EE652AF1EE10FAB0EE658AF4EE69
:104DF000674AB8BFB0EE628AF1EE10FAB8BFF0EEC3
:104E0000674AF4EE654AF1EE10FAF0EE652AF4EE28
:104E1000673AB8BFF0EE642AF1EE10FAB8BFF0EED0
:104E2000673AF4EE653AF1EE10FAB8BFF0EE635A65
:104E3000F0EE083A60EEA30A70EEA20A66EEA34A0C
:104E400037EE207A61EEA30A74EE884A70EEA50A66
:104E500031EE241A36EE206A84ED168AC4ED172A44
:104E6000C4ED185A63EE071A64EE412A63EE063A5F
:104E700065EE014A72EEE11A62EE062A74EEA33A7A
:104E800062EE074AF1EE430A71EEE21AF6EE002AEC
:104E900073EEE43A64EE064A65EE075A24EE077AAA
:104EA00025EE066A61EEA21A75EEE44A62EE015A38
:104EB00036EE076A20EE811A63EEA23A75EEA44A36
:104EC00031EE061A21EE806A64EEA24A21EE221A21
:104ED00035EE065A23EE806A34EE064A24EE806AE6
:104EE00021EE000A33EE063A30EE020A24EE041AEE
:104EF00025EE052A32EE011A23EE032A32EE011ABC
:104F000020EE002A32EE011AB1EEC11AB7EE008A85
:104F100088EE011A25EE012A84ED002A24EE012AEA
:104F200084ED012A23EE012A20EE010A84ED022AF3
:104F300084ED030A94ED009A94ED01BA94ED02CA4F
:104F400094ED03AA29EE0B1A2CEE0A0A31EE000AA0
:104F50002CEE0CDA2BEE0B1A31EE0D1A31EE011A93
:104F600030EE000A78EE410A03F012FB84ED040AE9
:104F70002AEE0B0A29EE0C1A31EE400A30EE001A26
:104F8000B4EE481AF1EE10FAB0EE480A0ADCBFEEB1
:104F9000002AB4EE421AB0EE410AF1EE10FAB8BFA0
:104FA000B0EE420A03F05EFA84ED050A2BEE0C0A1D
:104FB00029EE0A1A31EE000A2AEE0A1A3DEE011A0B
:104FC00031EE011A30EE000A78EE410A03F0E0FA01
:104FD00084ED060A94ED191A9FEDB62A30EE411AB7
:104FE000B4EE421AF1EE10FA1EDD9FEDB33A00BFA7
:104FF00031EE031AB4EE421AF1EE10FA14DD31EE7E
:10500000031AB4EE421AF1EE10FA0DDD31EE031A76
:10501000B4EE421AF1EE10FA06DD31EE031AB4EEE8
:10502000421AF1EE10FAE3DC9FEDA42AB4EE421A24
:10503000F1EE10FA1EDA9FEDA23A00BF31EE031A2C
:10504000B4EE421AF1EE10FA14DA31EE031AB4EEAD
:10505000421AF1EE10FA0DDA31EE031AB4EE421AEA
:10506000F1EE10FA06DA31EE031AB4EE421AF1EE5E
:1050700010FAE3DB94ED072A31EE021A84ED071AE9
:1050800084ED190ABDEC0C8B10BD00BFCDCCCC3D1E
:10509000CDCC4CBECDCC4C3E23EE030A21EE015AC2
:1050A00035EE000A22EE025A9FED866A35EE000ABE
:1050B000B4EE460AF1EE10FA00F3F0809FED820A9A
:1050C000B4EE404AF1EE10FAC0F2E8809FED7F0A9C
:1050D000B4EE404AF1EE10FA00F3E08094ED100ACD
:1050E00094ED114A94ED125A94ED136A31EE001AC0
:1050F00033EE043A94ED140A94ED154A32EE869A92
:1051000031EE800A32EE052A30EE844A84ED101A20
:1051100084ED139A84ED113A84ED140A84ED122A79
:1051200084ED154AA06B0130A063A06B31287FF697
:10513000AEAD9FED675A0020C4EE050A80EE050A69
:1051400081EE051A83EE053A82EE052A20EEA04A8A
:1051500020EE005A35EE044AB1EEC48A84ED0B1AF3
:1051600084ED0C3A84ED0D2AC4E91600206603F0A4
:105170000FFA9FED581AF0EE480A89EE011AB0EEC8
:10518000409AB0EE410A03F003FAB6EE001A29EE97
:10519000018A20EE019AB0EE480A03F04FFBB0EE10
:1051A00040AAB0EE480A03F0F1FBB0EE408AB0EE40
:1051B000490A03F043FBB0EE40BAB0EE490A03F0EF
:1051C000E5FB2AEE0B1A84ED001A28EE0B1A84ED8B
:1051D000011A2AEE001A28EE400A84ED021A84ED24
:1051E000030A94ED008A94ED01AA94ED02BA94EDBD
:1051F000039A28EE0A1A2BEE090A31EE000A2BEE6A
:105200000BCA2AEE0A1A31EE0C1A31EE011AB7EE69
:1052100000DA30EE000A7DEE410A03F0B9F984EDC0
:10522000040A29EE0A0A28EE0B1A31EE400A30EE83
:10523000001AB4EE4D1AF1EE10FAB0EE4D0A0ADC87
:10524000BFEE002AB4EE421AB0EE410AF1EE10FAB7
:10525000B8BFB0EE420A03F005F984ED050A2AEE64
:105260000B0A28EE091A31EE000A29EE091A3CEE63
:10527000011A31EE011A30EE000A7DEE410A03F008
:1052800087F9012084ED060A84ED070A84ED190AE6
:1052900084F83C00BDEC0C8B10BD00BF0020A06367
:1052A000C4E91000C4E91200C4E91400BDEC0C8B81
:1052B00010BD00BFDB0F4940DB0FC9C0DB0F49C089
:1052C000DB0FC9400BD7233D0000614200001043B3
:1052D00000004842000048C210B540F2606046F24B
:1052E0000041C2F20000C4F200010322002380E862
:1052F0000E0000F10C014FF4002C4FF4401E4FF053
:10530000012481E808504FF4807184618183FCF7A7
:1053100077FE002808BF10BDBDE81040FCF704B8B8
:1053200010B540F2886046F60001C2F20000C4F2F7
:1053300000010322002380E80E0000F10C014FF46D
:10534000002C4FF4401E4FF0012481E808504FF428
:10535000807184618183FCF753FE002808BF10BD73
:10536000BDE81040FBF7E0BF80B582B0002043F6F7
:1053700030010190C4F202010A6842F400120A608E
:105380000A6802F400120192019A00900868002253
:1053900040F4800008600868052100F48000009057
:1053A00000980C20FDF742FC0C20FDF72DFC382066
:1053B00005210022FDF73AFC3820FDF725FC3B20B3
:1053C00005210022FDF732FC3B2002B0BDE8804001
:1053D000FDF71ABC70B5A4B02E480DF1780E1D90E3
:1053E0002CA000F1040C9CE81E1080698EE81E10B1
:1053F00023901DA8002102F081F840F28006C2F23D
:1054000000062B4930602AA0051D16913ECD80690B
:105410000DF15C0C8CE83E001C9016A8002102F0F7
:105420006DF82A49706029A0051D0F912ECDD0E995
:1054300005400DF1400C8CE82E00CDE914400FA87A
:10544000002102F05BF82849B06027A0051D0891F3
:105450002ECDD0E905400DF1240C8CE82E00CDE9CD
:105460000D4008A8002102F049F82649F06025A067
:10547000051D01912ECDD0E905400DF1080C8CE8F9
:105480002E00CDE9064001A8002102F037F8306176
:1054900024B070BD4D97000805690008FEFF0000AC
:1054A00000000000000200000000000000000000FA
:1054B00028970008B95D0008020000000000000005
:1054C0000004000000000000000000003097000809
:1054D000895C0008FFFF0000000000008000000061
:1054E000000000000000000043970008295E00084B
:1054F00001000000000000000002000000000000A9
:105500000000000039970008095D00080300000052
:10551000000000000001000000000000000000008A
:105520002DE9F04387B0002743F630000697CDE918
:105530000477CDE902770197C4F2020001680025E3
:1055400041F0020101600168C4F2020501F00201AC
:105550000191019901970168012241F00101016067
:1055600001684FF0100801F00101019101990197C4
:105570000168012641F008010160016801F008019D
:10558000019101990197016841F0040101600168EE
:1055900001F00401019101990197016841F0800136
:1055A00001600068102100F08000019001982846F9
:1055B000FDF778FA05F58064204601210122FDF708
:1055C00071FACDE902860DF108084FF0020928466C
:1055D00041460496CDF81490FDF794F930200290DE
:1055E0004FF48810CDE9030705F500604146FDF74B
:1055F00089F920464146CDE90266CDE90469FDF707
:1056000081F907B0BDE8F083B0B540F2D07043F245
:105610000001C2F20000C4F201014FF482720023C3
:1056200080E80E0000F10C014FF0020C4FF0010E6B
:105630004FF40074382581E808500A21C0E9064576
:10564000C0E90833C0E90A31FDF734FE002808BF7D
:10565000B0BDBDE8B040FBF767BE0000B0B594B088
:1056600040F6000540F62800C4F200050021C2F211
:1056700000005322F9230D91CDE90B110991CDE9D9
:105680000711CDE90511CDE90311CDE90111C0E9FB
:105690000052C0E9021301618161FEF7FDF80028A4
:1056A00018BFFBF741FE4FF480500A9040F62800E7
:1056B000C2F200000AA9FEF7ADF9002818BFFBF7F7
:1056C00033FE40F62800C2F20000FEF72FFC00284F
:1056D00018BFFBF729FE40F628000024C2F20000A4
:1056E00008A9CDE90844FEF779F8002818BFFBF7B0
:1056F0001BFE602001907D20CDE90204059440F658
:105700002804C2F2000401A920460822FEF7FEFA8E
:10571000002818BFFBF708FE21680020A94213905B
:10572000CDE9110010900F9002D014B0B0BD00BFB1
:1057300043F630010E90C4F202010A6842F00802FA
:105740000A60096801F008010E910E994FF480413A
:105750000F910221CDE91010CDE9120105F50130BC
:105760000FA9FDF7CFF814B0B0BD000080B582B02E
:1057700040F6700041F200020021C2F20000C4F2C3
:105780000002532340F2CF7CCDE90011C0E9002391
:10579000C0E9021C8161FEF77FF8002818BFFBF703
:1057A000C3FD40F67000C2F200006946FEF716F82D
:1057B000002818BFFBF7B8FD02B080BD10B540F659
:1057C000001044F6000C48F2A062C2F20000C4F2DD
:1057D000000CC0F201024FF4805300214FF4806EA0
:1057E0000C24C0E900C2C0E90231C0E904E4C0E908
:1057F0000611FFF79FF9002808BF10BDBDE8104053
:10580000FBF792BDFEE7000010B540F20824C2F29B
:10581000000494F83C0090B3FDF74AF9A16B401ADC
:10582000642884BF002010BD94F8CC0038B3FDF785
:105830003FF9D4F8C810401A642820D894F85C01C5
:10584000E8B1FDF735F9D4F85811401A642816D894
:1058500094F8EC0198B1FDF72BF9D4F8E811401A4F
:1058600064280CD840F20054C2F2000494F83C00C2
:1058700028B1FDF71DF9A16B401A642802D9002058
:1058800010BD00BF94F8CC0000284FF0000008BF06
:1058900010BDFDF70DF9D4F8C82001460020891A83
:1058A000652938BF012010BD10B52DED0C8B0446C5
:1058B000C16280F8302000206063A06384F83C005F
:1058C00004F14000B0EE658AB0EE459AB0EE64AAED
:1058D000B0EE44BAB0EE63CAB0EE43DA00F03AFB81
:1058E00004F16800B0EE4D0AF0EE4C0AB0EE4B1A2F
:1058F000F0EE4A1AB0EE492AF0EE482ABDEC0C8BC5
:10590000BDE8104000F026BB70B582B040F2606484
:10591000C2F2000440F208210026C2F20001204633
:105920000022002300960196FBF78EF840F2005506
:10593000C2F2000520462946002200230096019667
:10594000FBF782F840F2886005F19001C2F2000096
:105950000022002300960196FBF776F802B070BD96
:1059600040F20821C2F2000191ED0D0A91F83000D9
:10597000022867D19FEDC01AB3EE042AB4EE420AA2
:10598000F1EE10FAB0EE423A0ADCB1EE424AB4EE61
:10599000440AB0EE403AF1EE10FAB8BFB0EE443A25
:1059A00083EE020A21EE000ABDEEC00A10EE100AD4
:1059B00091ED310A91F8C020022A5AD19FEDAE1A1A
:1059C000B3EE042AB4EE420AF1EE10FAB0EE423A17
:1059D0000ADCB1EE424AB4EE440AB0EE403AF1EECF
:1059E00010FAB8BFB0EE443A83EE020A21EE000A84
:1059F000BDEEC00A10EE103A91ED550A91F8502113
:105A0000022A4ED19FED9C1AB3EE042AB4EE420A4C
:105A1000F1EE10FAB0EE423A0ADCB1EE424AB4EED0
:105A2000440AB0EE403AF1EE10FAB8BFB0EE443A94
:105A300083EE020A21EE000ABDEEC00A10EE102A23
:105A400041E000BF91F8300001280BD19FED8B1A87
:105A50009FED8B2AB4EE420AF1EE10FAB0EE423A14
:105A600093DD9DE7002091ED310A91F8C020022AD4
:105A7000A4D091F8C020012A0CD19FED801A9FED8F
:105A8000802AB4EE420AF1EE10FAB0EE423AA0DDFE
:105A9000AAE700BF002391ED550A91F85021022A90
:105AA000B0D091F85021012A0CD19FED741A9FEDCE
:105AB000742AB4EE420AF1EE10FAB0EE423AACDDCE
:105AC000B6E700BF0022B0B582B091ED790A91F837
:105AD000E041022C1ED19FED681AB3EE042AB4EE09
