:020000040800F2
:10000000F0CB012055020008755D0008894D0008FD
:1000100021590008DD080008E56D00080000000017
:10002000000000000000000000000000B1640008B3
:10003000F514000800000000A15F0008DD6400085E
:100040006F0200086F0200086F0200086F020008CC
:100050006F0200086F0200086F0200086F020008BC
:100060006F0200086F0200086F0200086F020008AC
:10007000D11400086F0200086F0200086F02000828
:100080006F0200086F0200086F0200086F0200088C
:10009000050900086F0200086F0200086F020008DF
:1000A0006F0200086F0200086F0200086F0200086C
:1000B0006F0200086F0200086F0200086F0200085C
:1000C0006F0200086F0200086F0200086F0200084C
:1000D0006F0200086F0200086F0200080D6C000834
:1000E0006F0200086F0200086F0200086F0200082C
:1000F0006F0200086F0200086F0200086F0200081C
:100100006F0200086F0200086F0200086F0200080B
:100110006F0200086F020008D1650008DD65000865
:10012000DD1400086F0200086F020008E9140008DF
:100130006F0200086F0200086F0200086F020008DB
:10014000110900086F0200086F0200086F02000822
:100150006F0200086F0200086F0200086F020008BB
:100160006F0200086F0200086F0200086F020008AB
:100170006F0200086F0200086F0200080000000014
:100180006F0200086F02000800F002F800F052F859
:1001900014A696E8000CB244B344DA4501D100F04D
:1001A00049F8BAE80F000FA696E83000A5EB040561
:1001B00004EB0607AAEB0704A7F101074FEA1515A0
:1001C0004FEA3414A4F10104AC4201D300F032F838
:1001D00013F0010F18BFFB1A43F0010300F001F800
:1001E000DBE7184774890000B4890000103A24BF87
:1001F00078C878C1FAD8520724BF30C830C144BF8C
:1002000004680C6070470000704700000023002461
:1002100000250026103A28BF78C1FBD8520728BF16
:1002200030C148BF0B6070471FB508F03CFC1FBDD4
:1002300010B510BD00F0ECF81146FFF7F5FF07F020
:1002400017F800F00AF903B4FFF7F2FF03BC00F05F
:100250000DF900000948804709480047FEE7FEE71E
:10026000FEE7FEE7FEE7FEE7FEE7FEE7FEE7FEE766
:1002700004480549054A064B70470000BD65000863
:1002800089010008F0C50120F0CB0120F0C7012052
:10029000F0C7012053EA020C00F069802DE9F04B11
:1002A0004FF00006002B1FBFB3FA83F503FA05F4E5
:1002B00024FA05F65E4012BF1643B2FA82F502FA3E
:1002C00005F4C5F120051EBF22FA05FC44EA0C0422
:1002D000203556EA044C4FEA144418BF641C4FF012
:1002E00000084FF00009904271EB030C39D300294C
:1002F00019BFB1FA81F701FA07F6B0FA80F700FAF0
:1003000007F6C7F120071EBF20FA07FC46EA0C06D5
:100310002037B6FBF4FCA7EB0507103F07F01F0BD7
:10032000CBF120062CFA06F60CFA0BFB44BFB346C1
:100330000026202FA4BF5E464FF0000B5BEA060CA0
:1003400008BF4FF0010B19EB0B0948EB0608ABFB9C
:10035000027C06FB02CC0BFB03CCC01B71EB0C0137
:10036000C1E70B46024641464846BDE8F08B13B54F
:10037000084318BF4FF0FF300146AFF30080BDE8DF
:100380001C40704702F0FF0343EA032242EA0242A4
:1003900000F002B84FF0000200B5134694469646AE
:1003A000203922BFA0E80C50A0E80C50B1F1200188
:1003B000BFF4F7AF090728BFA0E80C5048BF0CC036
:1003C0005DF804EB890028BF40F8042B08BF704794
:1003D00048BF20F8022B11F0804F18BF00F8012B06
:1003E000704770477047704710B500F009F8006813
:1003F00010BD10B5044600F003F8046010BD000005
:100400000048704718C001200048704718C00120FC
:100410007546FFF7F9FFAE4605006946534620F0E2
:100420000700854618B020B5FFF722FFBDE8204041
:100430004FF000064FF000074FF000084FF0000BA0
:10044000AC46ACE8C009ACE8C009ACE8C009ACE80F
:10045000C00921F007018D46704710B50446AFF37F
:1004600000802046BDE81040FFF7EDBE014918208E
:10047000ABBEFEE726000200704700000020C4F279
:1004800002001021012202F0A5BB00000020C4F2EE
:1004900002001021002202F09DBB00007047000006
:1004A00040F20040C4F202000121012202F092BB9E
:1004B00040F20040C4F202000121002202F08ABB97
:1004C00070470000002808BF7047B0B54EF2180111
:1004D00049F24002CEF2000110F0030CC0F2020219
:1004E00022D051F804EC0C68002307E023445B1B86
:1004F000A54228BF734493422C460DD20D68A542F5
:10050000F4D10D68A542F1D10D68A542EED10D6878
:10051000A542F3D0EAE700BFBCF1010F08D1A0F17A
:10052000010C042851D247E0844604284DD243E010
:1005300051F804EC0C68002308E000BF23445B1B67
:10054000A54228BF734493422C460DD20D68A542A4
:10055000F4D10D68A542F1D10D68A542EED10D6828
:10056000A542F3D0EAE700BFBCF1020F04D1A0F12D
:10057000020C042829D21FE051F804CC0D68002396
:1005800008E000BF2B441B1BAC4228BF63449342CE
:1005900025460DD20C68AC42F4D10C68AC42F1D1C6
:1005A0000C68AC42EED10C68AC42F3D0EAE700BF75
:1005B000A0F1030C042808D2BDE8B040704700BF8A
:1005C000ACF1040C5FEA0C40F6D051F8040C0D6855
:1005D000002307E02B441B1BAC4228BF034493427B
:1005E00025460DD20C68AC42F4D10C68AC42F1D176
:1005F0000C68AC42EED10C68AC42F3D0EAE700BF25
:1006000051F8040C0D68002308E000BF2B441B1BAD
:10061000AC4228BF0344934225460DD20C68AC423D
:10062000F4D10C68AC42F1D10C68AC42EED10C684C
:10063000AC42F3D0EAE700BF51F8040C0D68002388
:1006400008E000BF2B441B1BAC4228BF034493426D
:1006500025460DD20C68AC42F4D10C68AC42F1D105
:100660000C68AC42EED10C68AC42F3D0EAE700BFB4
:1006700051F8040C0D6800230AE000BF2B441B1B3B
:10068000AC4228BF034493422546BFF499AF00BF54
:100690000C68AC42F2D10C68AC42EFD10C68AC42B1
:1006A000ECD10C68AC42F3D0E8E7000080B54EF224
:1006B0001801CEF20001A82251F804CC00FB02FE82
:1006C000086800230AE000BF03449B1A824228BF47
:1006D00063447345104628BF80BD00BF0A6882424C
:1006E000F2D10A688242EFD10A688242ECD10A68EC
:1006F0008242F3D0E8E7000010B5FFF7CFFEFFF726
:10070000DFFE06F087FB044606F0AAFC204310BD7E
:100710002DE9F04F83B002920E460190FFF7B6FE2E
:10072000922000F0C3F8922000F0C0F8552000F0AD
:10073000BDF88046552000F0B9F80546552000F078
:10074000B5F88246552000F0B1F80446552000F077
:10075000ADF88346552000F0A9F80746FFF78EFE56
:1007600048EA052040F2000900B2C2F2000900EE9A
:10077000100A99ED001AB8EEC00A4AEA042021EEE8
:10078000000A00B286ED000A00EE100A4BEA0720CC
:1007900000B299ED001A02EE100AB8EEC00AB8EEE7
:1007A000C22A21EE000A21EE021A86ED010A86ED28
:1007B000021AFFF77DFE802000F078F8552000F047
:1007C00075F80646552000F071F8552000F06EF8D7
:1007D0008246552000F06AF80546552000F066F87C
:1007E0008346552000F062F80446552000F05EF87C
:1007F0000746552000F05AF88046FFF751FE0F2EAD
:1008000025D14AEA052000B200EE100A99ED011A3E
:10081000B8EEC00A01994BEA042021EE000A00B2AA
:1008200081ED000A00EE100A47EA082000B299EDB7
:10083000011A02EE100AB8EEC00AB8EEC22A21EE82
:10084000000A21EE021A81ED010A81ED021AFFF77A
:100850001DFEA22000F02AF8A22000F027F8552063
:1008600000F024F8044646B2552000F01FF8054673
:10087000FFF704FEE00040EA55104FF60001CFF606
:10088000FF71002E48BF084300EE100AB8EEC00A00
:10089000B4EE001A20EE010AB3EE071A029830EE09
:1008A000010A80ED000A03B0BDE8F08F80B582B088
:1008B0008DF8070040F2D0304FF47A7CC2F200008D
:1008C0000DF107010DF106020123CDF800C002F081
:1008D0007BFE9DF8060002B080BD0000FEE7000030
:1008E00080B54CF21C20C2F2010001680022CA63EC
:1008F000082103F0E7FB002808BF80BDBDE8804069
:1009000000F000BE4CF23410C2F2010001F038BB1E
:1009100040F24830C2F2000001F032BB80B58AB02C
:100920000020CDE90500CDE90000CDE902000490EA
:100930000E20012109904CF23410CDE90711C2F2CA
:100940000100694601F0FEF9002818BF00F0DAFD49
:100950004CF23410C2F2010001F0DAFD002818BF99
:1009600000F0D0FD4CF23410C2F20100022101F07F
:100970007FF9002818BF00F0C5FD0E20059040F259
:100980004830C2F20000694601F0DCF9002818BFC7
:1009900000F0B8FD40F24830C2F2000001F0B8FDAE
:1009A000002818BF00F0AEFD40F24830C2F200004F
:1009B000022101F05DF9002818BF00F0A3FD0AB084
:1009C00080BD0000B0B588B005460020CDE901012A
:1009D000CDE9040008218DF81C0028461446069134
:1009E00001F0BAFA40B102A901AB2846224601F053
:1009F00057F908B0B0BD00BF022008B0B0BD00007C
:100A000040F2D801C2F2000191ED020A9FED7D1A79
:100A100020EE014A40B391ED001A91ED012A9FEDBD
:100A20007A6A31EE021A91ED002A91ED013A91EDC8
:100A3000007AD1ED010A21EE061A9FED745A32EECA
:100A4000432A37EE607AD1ED000AD1ED011AB5EEF6
:100A5000401A24EE060AF1EE10FA22EE062A37DDDD
:100A60009FED6C3A3BE000BF91ED000A91ED011A59
:100A700030EE010A9FED641A34EE000A20EE010AFE
:100A800081ED030A91ED000A91ED012A30EE420A50
:100A900030EE440A20EE010A81ED040A91ED000ACD
:100AA00091ED012A30EE420A34EE000A20EE010AEE
:100AB00081ED050A91ED000A91ED012A30EE020A5E
:100AC00030EE440A20EE010A81ED060A704700BFAD
:100AD000B5EE401AF1EE10FA10DA9FED4D3A33EE12
:100AE000403AC3EE012AB7EE003AF4EE432AF1EEA3
:100AF00010FAB8BFB0EE623A02E000BFB7EE003ABB
:100B0000B5EE402A70EEA10A24EE054AF1EE10FA85
:100B100027EE065A02DD9FED3F7A06E0B5EE402A49
:100B2000F1EE10FA0CDA9FED3A7A37EE447A87EE5E
:100B3000027AB4EE437AF1EE10FAB8BFB0EE473A5B
:100B4000B5EE405AF1EE10FA20EE866A02DD9FED16
:100B5000317A06E0B5EE405AF1EE10FA0CDA9FED6C
:100B60002C7A37EE407A87EE057AB4EE437AF1EECE
:100B700010FAB8BFB0EE473AB5EE406AF1EE10FA9F
:100B800002DD9FED247A06E0B5EE406AF1EE10FA40
:100B90000CDA9FED1F7A37EE447A87EE067AB4EED0
:100BA000437AF1EE10FAB8BFB0EE473A9FED1A7AE9
:100BB000B5EE403AF1EE10FAB8BFB0EE473AB7EEF4
:100BC000007AB4EE473AF1EE10FAB8BFB0EE437ACD
:100BD00027EE011A31EE001A81ED031A27EE021AF0
:100BE00031EE041A81ED041A27EE051A31EE000ADF
:100BF00081ED050A27EE060A30EE040A81ED060AA9
:100C0000704700BF9A99193F75D9164175D916C119
:100C1000304662C230466242000000000120704748
:100C20002DE9F04381B02DED068B40F2D804C2F2DD
:100C300000049FED41AA04F15808B3EE048AB2EE15
:100C4000049A00254046B0EE480AF0EE4A0AB0EE9B
:100C50004A1AF0EE491AB0EE4A2AF0EE4A2AB0EEED
:100C60004A3AE56106F094F804F18C094846B0EE82
:100C7000480AF0EE4A0AB0EE4A1AF0EE491AB0EE0F
:100C80004A2AF0EE4A2AB0EE4A3A256206F080F887
:100C900004F1C0063046B0EE480AF0EE4A0AB0EE63
:100CA0004A1AF0EE491AB0EE4A2AF0EE4A2AB0EE9D
:100CB0004A3A656206F06CF804F1F4073846B0EE83
:100CC000480AF0EE4A0AB0EE4A1AF0EE491AB0EEBF
:100CD0004A2AF0EE4A2AB0EE4A3AA56206F058F8DF
:100CE000404625606560A560E560E56206F070F845
:100CF00048462561256306F06BF8304665616563FB
:100D000006F066F83846A561A56306F061F8E5636C
:100D100025646564A564E564A4F85050A4F85250B5
:100D200084F8545084F8555084F85650BDEC068B26
:100D300001B0BDE8F08300BF0000000040F2D80021
:100D4000C2F200000021C163016441648164C16496
:100D5000A0F85010A0F8521080F8541080F85510E8
:100D600080F856107047000040F2D800C2F2000030
:100D70000021C163016441648164C164A0F8501022
:100D8000A0F8521080F8541080F8551080F85610D2
:100D90007047000010B540F2D804C2F2000404F11C
:100DA000580006F015F804F18C0006F011F804F173
:100DB000C00006F00DF804F1F400BDE8104006F0A4
:100DC00007B80000B1EE082A40F2D80020EE020A6F
:100DD000C2F2000080ED000A20EE820A80ED010AD6
:100DE000B1EE000A21EE000A80ED020A7047000011
:100DF00080B52DED088BB1EE082A20EE82BADFED2A
:100E0000180A20EE02AAB0EE410A00F0ADFB9FEDF9
:100E1000151A80EE018AB0EE480A07F0F5FBB0EE35
:100E2000409AB0EE480A07F097FC2BEE001A2AEE23
:100E3000092A40F2D80032EE411AC2F2000080EDD9
:100E4000001A2BEE091A2AEE000A30EE010A4FF0C2
:100E5000814180ED010A8160BDEC088B80BD00BF3F
:100E60000000AF4483F9A2C4B0B540F2D804C2F286
:100E70000004002504F1580025606560A560E56068
:100E8000E56205F0A5FF04F18C002561256305F0FE
:100E90009FFF04F1C0006561656305F099FF04F1EF
:100EA000F400A561A56305F093FFE563256465641F
:100EB000A564E564A4F85050A4F8525084F8545046
:100EC00084F8555084F85650B0BD0000B0B52DEDF3
:100ED000028B40F2D805C2F20005E9680446E960D9
:100EE0000068B0EE408AE86195ED031AD5ED070A77
:100EF00005F15800B0EE410AB0EE481A05F08CFE3C
:100F000085ED0B0A95ED040AB0EE481AB1EE400AE1
:100F100085ED040A6068286295ED040AD5ED080A9B
:100F200005F18C0005F078FE85ED0C0A6869B0EEDD
:100F3000481A6861A068686295ED050AD5ED090A4E
:100F400005F1C00005F068FE85ED0D0A95ED060A75
:100F5000B0EE481AB1EE400A85ED060AE068A862D4
:100F600095ED060AD5ED0A0A05F1F40005F054FEE8
:100F700085ED0E0ABDEC028BB0BD0000B0B540F2AD
:100F8000D805C2F2000500212960696095F8562055
:100F90000446F0EE400A6AB195ED110A9FEDD61AAB
:100FA00030EEC00AB4EE410AF1EE10FA16DA9FED07
:100FB000D31A1CE04FF08C4028640120C5ED110AC3
:100FC000A964E964A5F85010A5F8521085F85410EA
:100FD00085F8551085F85600D2E000BF9FEDEF1A56
:100FE000B4EE410AF1EE10FA03DD9FEDF01A30EE97
:100FF000010AC5ED110A95F85400C8B195ED131A10
:1010000020EE010AB5EE400AF1EE10FA40F3B88086
:1010100095ED101A31EE400A85ED100A95ED100A93
:10102000B5EE400AF1EE10FABCBF00202864A7E03C
:10103000B5F85200632804D8B5F852000130A5F87D
:10104000520095ED121A30EE010A85ED120A95ED67
:10105000120AB3EE041AB0EEC00AB4EE410AF1EE81
:1010600010FAC0F28D8095ED120ABFEE002AB5EE9F
:10107000400A0120B7EE001AF1EE10FAC8BFB0EE38
:10108000412A85ED132A85F8540094ED000A94ED69
:10109000011A94ED022A94ED033A30EE010A30EE83
:1010A000020A30EE030AB5EE001A9FEDEA2A20EE9E
:1010B000010A80EE020A95ED021AB0EEC11AB0EEF6
:1010C000C00AB4EE410A9FEDE41AF1EE10FABCBF7B
:1010D00095ED020AB0EEC00A95ED132A31EE601AC2
:1010E00021EE021AB5EE401AF1EE10FA1EDA9FED6B
:1010F000D82A00BF31EE021AB5EE401AF1EE10FA0E
:1011000014DA31EE021AB5EE401AF1EE10FA0DDAE9
:1011100031EE021AB5EE401AF1EE10FA06DA31EEAF
:10112000021AB5EE401AF1EE10FAE3DB9FEDC82A81
:10113000B4EE421AF1EE10FA80F2668185ED101AD3
:101140009FEDC61A20EE000A9FEDC53A20EE010A77
:101150009FEDC41A20EE030A95ED103A30EE010A15
:10116000B4EE403AF1EE10FA05DA95ED100A30EEE1
:10117000020A85ED100A0020A5F8500085F85500F8
:101180009FEDB50A00F0F0F985ED0F0A95F85400CF
:10119000C0B395F85500002866D094ED001A94ED80
:1011A000012A94ED023A94ED030A31EE021A31EE6F
:1011B000031A31EE001AB5EE002A9FEDA63A21EE91
:1011C000021A81EE031A9FEDA52A9FEDA53A002091
:1011D00021EE011A21EE021A21EE032AB3EE0E1AB5
:1011E00095ED103A32EE012AB4EE423AF1EE10FAE1
:1011F00040F38680A5F850004CF6CD40C3F6CC6095
:10120000A860B2E0B5F852006428C0F0C9800020A0
:10121000A86094ED000AB0EEC01AB7EE000AB4EE72
:10122000401AF1EE10FA00F3B78094ED011AB0EE17
:10123000C11AB4EE401AF1EE10FA00F3AD8094ED4D
:10124000021AB0EEC11AB4EE401AF1EE10FA00F331
:10125000A38094ED031AB0EEC11AB4EE401AF1EE79
:1012600010FA40F3898097E00020A5F8500095ED32
:10127000100A9FED7D1AB4EE410AF1EE10FA40F328
:10128000978095ED100A9FED761A9FED7A2A80EEF1
:10129000010A9FED761A002130EE010A9FED741AC3
:1012A000B5EE400AF1EE10FAB8BFB0EE410AB3EE67
:1012B000001A20EE010AB1EEC00AB1EE001AB4EE37
:1012C000410AF1EE10FAB8BFB0EE401AB4EE421A7D
:1012D000F1EE10FAB8BF0121C907B0EE410AB5EE30
:1012E000401A18BFB0EE420AF1EE10FAC8BFB0EED5
:1012F000401A85ED021AB0BD000080C5000000460E
:10130000A86094ED002AB0EEC23AB7EE002AB4EE1F
:10131000423AF1EE10FA28DC94ED013AB0EEC33A0D
:10132000B4EE423AF1EE10FA1FDC94ED023AB0EE60
:10133000C33AB4EE423AF1EE10FA16DCB0EEC00A4F
:10134000B4EE420AF1EE10FA0FDC95ED100AB4EE9D
:10135000410AF1EE10FA06DCB5F85000312804D845
:10136000B5F850000130A5F85000B5F8500032280B
:101370004FF0000038BFB0BDE86328646864A8641B
:10138000E864A5F85000A5F8520085F8540085F8E7
:10139000550085F856000120B0BD00BF0000804513
:1013A0004FF08140A8600020B0BD00BF000000C623
:1013B000A86094ED000AB0EEC01AB7EE000AB4EED1
:1013C000401AF1EE10FAE7DC94ED011AB0EEC11A02
:1013D000B4EE401AF1EE10FADEDC94ED021AB0EE33
:1013E000C11AB4EE401AF1EE10FAD5DC94ED031AEE
:1013F000B0EEC11AB4EE401AF1EE10FACCDC0120C6
:1014000085F855000020B0BD9FED103A31EE031A6B
:10141000B4EE421AF1EE10FAFFF690AE31EE031A76
:10142000B4EE421AF1EE10FAFFF688AE31EE031A6E
:10143000B4EE421AF1EE10FAFFF680AE31EE031A66
:10144000B4EE421AF1EE10FAE0DA77E6000000C6D8
:1014500000000046F304B5400000AF440000803DAA
:1014600083F9A24436610243A6741C438FC2F5BDC2
:1014700000000000CDCCCC3E02889FED121A12BABB
:10148000120C0A8042889FED112AD2BA00EE102A6F
:10149000B8EEC00A80EE010A9FED0B1A30EE000A8A
:1014A00020EE010A80EE020A81ED010A428812BA9A
:1014B000120C0A81828812BA120C4A818079087350
:1014C000704700BF00007042DB0F49407B146E4143
:1014D0004CF2BC10C2F2010001F0B2B84CF25C1048
:1014E000C2F2010001F0ACB840F27030C2F200006C
:1014F00001F0A6B8704700004CF20C00C2F20100E7
:101500000078704772B600BFFEE700004CF20C0096
:10151000C2F20100022101707047000002889FEDB5
:10152000101A12BA120C0A804288D2BA00EE102A9F
:10153000B8EEC00A80EE010A9FED0A1A30EE000AEA
:1015400020EE010A81ED010A428812BA120C0A81CA
:10155000828812BA120C4A8180790873704700BFE2
:1015600000007042DB0F49409FED0D1A30EE600A1B
:10157000B4EE410AF1EE10FA04DD9FED0C1A30EEE4
:10158000010A70479FED071AB4EE410AF1EE10FA16
:10159000A8BF70479FED041A30EE010A704700BFE4
:1015A00000008045000080C500000046000000C625
:1015B0002DE9F04381B02DED068B40F20025C2F2FB
:1015C00000059FED428A9FED429A05F1440840468E
:1015D000B0EE480AF0EE490AB0EE491AF0EE491AA8
:1015E000B0EE492AF0EE492AB0EE493A05F0D0FBB8
:1015F00005F17809B2EE04AA4846B0EE4A0AF0EEC8
:10160000490AB0EE491AF0EE491AB0EE492AF0EE56
:10161000492AB0EE493A05F0BBFB05F1AC06B1EE44
:10162000080A3046F0EE490AB0EE491AF0EE491ABF
:10163000B0EE492AF0EE492AB0EE493A05F0A8FB8F
:1016400005F1E0073846B0EE480AF0EE490AB0EE80
:10165000491AF0EE491AB0EE492AF0EE492AB0EEE6
:10166000493A05F095FB05F58A742046B0EE4A0A22
:10167000F0EE490AB0EE491AF0EE491AB0EE492AE6
:10168000F0EE492AB0EE493A05F082FB404605F0FB
:101690009FFB484605F09CFB304605F099FB384619
:1016A00005F096FB204605F093FB0020E8602861DA
:1016B00068616862A862E86285F8400085F84100C8
:1016C000BDEC068B01B0BDE8F08300BF0AD7233C18
:1016D0000000000010B540F20024C2F2000404F142
:1016E000440005F075FB04F1780005F071FB04F18E
:1016F000AC0005F06DFB04F1E00005F069FB04F5BA
:101700008A7005F065FB0020E06020616061606226
:10171000A062E06284F8400084F8410010BD00003F
:10172000B0B52DED0C8B40F20024C2F2000494F809
:1017300041000025B0EE628AB0EE429AB0EE61AA96
:10174000B0EE41BAB0EE60CAB0EE40DAC4F2AF45D6
:10175000D8B94EF20000C4F2AB502560A06104F18C
:10176000440005F035FB04F1780005F031FB04F18D
:10177000E00005F02DFB04F58A7005F029FB002040
:1017800084F84000012084F841009FED7E0A94ED2A
:10179000061A2DEE000A20EE080A30EE010A84ED4A
:1017A000060A94ED060A9FED781A9FED782AB4EEAA
:1017B000410AF1EE10FAB8BFB0EE410AB4EE420AA7
:1017C000F1EE10FAB8BFB0EE402A84ED062A94F884
:1017D000400040B1204640F8445B05F0F9FA04F1BE
:1017E000780005F0F5FA002084F8400084ED01CA85
:1017F00084ED04BA94ED000A94ED011A9FED642A79
:1018000030EE410AB4EE420AF1EE10FA02DD9FED2D
:10181000631A08E09FED5F1AB4EE410AF1EE10FA88
:1018200003DA9FED5D1A30EE010A84ED020A94EDB1
:10183000020AB3EE0E1AB0EEC00AB4EE410AF1EE9F
:1018400010FA1DDD94ED020ADFED550A04F14400A3
:10185000B0EE481A05F0E0F9B9EE001AB4EE410A0C
:10186000F1EE10FAB8BFB0EE410AB1EE001AB4EED4
:10187000410AF1EE10FAB8BFB0EE401A06E000BF20
:1018800004F1440005F0A4FA9FED451A84ED031A13
:1018900094ED030AD4ED040A04F17800B0EE481A7E
:1018A00005F0BAF99FED3FBA9FED3FCAB4EE4B0A7F
:1018B000F1EE10FAB8BFB0EE4B0AB4EE4C0AB0EE3F
:1018C0004C1AF1EE10FAB8BFB0EE401A84ED051ACA
:1018D00084ED07AA84ED0A9A94ED060A94ED071A9E
:1018E00030EE410A84ED080A94ED080AB1EE041ABC
:1018F000B0EEC00AB4EE410AF1EE10FA1CDD94ED30
:10190000080ADFED270A04F1E000B0EE481A05F0FE
:1019100083F9B8EE081AB4EE410AF1EE10FAB8BF36
:10192000B0EE410AB0EE081AB4EE410AF1EE10FA38
:10193000B8BFB0EE401A05E004F1E00005F048FA47
:101940009FED171A84ED091A94ED090AD4ED0A0ADD
:1019500004F58A70B0EE481A05F05EF9B4EE4B0A51
:10196000F1EE10FAB8BFB0EE4B0AB4EE4C0AF1EE4D
:1019700010FAB8BFB0EE40CA84ED0BCABDEC0C8BB8
:10198000B0BD00BF00007A4400409C450080BB45CC
:1019900000008045000080C500000046000000C631
:1019A000000000000AD723C30AD72343B0B52DEDAA
:1019B000108B40F20025C2F20005044695F8410064
:1019C000B0EE448AB0EE63BAB0EE43CAB0EE629AAB
:1019D000B0EE42AAB0EE61EAB0EE41FAF0EE608AF3
:1019E000B0EE40DAF0B90020C4F2AF4028604EF209
:1019F0000000C4F2AB50A86105F1440005F0E8F91D
:101A000005F1780005F0E4F905F1E00005F0E0F9F2
:101A100005F58A7005F0DCF9002085F8400001200A
:101A200085F841009FED8A0A95ED061A28EE800A96
:101A300020EE080A30EE010A85ED060A95ED060A49
:101A40009FED841A9FED842AB4EE410AF1EE10FA5C
:101A5000B8BFB0EE410AB4EE420AF1EE10FAB8BFD8
:101A6000B0EE402A85ED062A85ED01FA85ED04EAFF
:101A700095F8400070B985ED0CCA6868E86305F117
:101A8000AC0005F0A5F905F1780005F0A1F90120F9
:101A900085F840005CB1B9EE001A95ED0C0A2DEE08
:101AA000011A21EE081A31EE000A85ED0C0A85EDC7
:101AB0000DCA95ED0C0A95ED0D1A9FED692A30EED1
:101AC000410A85ED0E0A95ED0E0A9FED641AB0EEFF
:101AD000C03AB4EE423A20EE011AF1EE10FA05F1E6
:101AE000AC0085ED021A19DDDFED5E0AB0EE481A92
:101AF00005F092F8B9EE001AB4EE410AF1EE10FAD0
:101B0000B8BFB0EE410AB1EE001AB4EE410AF1EEF0
:101B100010FAB8BFB0EE401A04E000BF05F058F963
:101B20009FED501A85ED031A95ED030AD5ED040AD1
:101B300005F17800B0EE481A05F06EF89FED4ACA3C
:101B40004CF21000B4EE4C0A9FED48DAC2F20100EC
:101B5000F1EE10FAB8BFB0EE4C0A90ED002AB4EEE8
:101B60004D0AB0EE4D1AF1EE10FAB8BFB0EE401AC1
:101B70002BEE020A30EE010AB4EE4C0AF1EE10FA36
:101B8000B8BFB0EE4C0AB4EE4D0AB0EE4D1AF1EE0D
:101B900010FAB8BFB0EE401A85ED051A85ED07AA18
:101BA00085ED0A9A95ED060A95ED071A30EE410A81
:101BB00085ED080A95ED080AB1EE041AB0EEC00AE8
:101BC000B4EE410AF1EE10FA1CDD95ED080ADFEDE6
:101BD000250A05F1E000B0EE481A05F01DF8B8EE50
:101BE000081AB4EE410AF1EE10FAB8BFB0EE410A9D
:101BF000B0EE081AB4EE410AF1EE10FAB8BFB0EE3A
:101C0000401A05E005F1E00005F0E2F89FED151A35
:101C100085ED091A95ED090AD5ED0A0A05F58A70D0
:101C2000B0EE481A04F0F8FFB4EE4C0AF1EE10FAE8
:101C3000B8BFB0EE4C0AB4EE4D0AF1EE10FAB8BFE0
:101C4000B0EE40DA85ED0BDABDEC108BB0BD00BF15
:101C500000007A4400409C450080BB4583F9A244C3
:101C60004260653B000000000AD723C30AD7234324
:101C700090F82020013A012A08D8006800F11402E7
:101C80000020136819431160704700BF00F124025F
:101C900001204FF480211368194311607047000040
:101CA00010B590F820E0D0F800C0AEF1010EBEF102
:101CB000010FDCF808E011D81EF0E05F18D0CEF379
:101CC00001640120A04018608B68DBB1D1F804E00A
:101CD000C86840EACE0040EA030E17E000F1240392
:101CE00001204FF480211A681143196010BD00BF14
:101CF00000F1240301204FF400111A681143196008
:101D000010BD00BF0868CB6843EA405E0CF5C070A8
:101D100000EB0413240140F804E00C69184640F875
:101D2000044F097D012903D1016841F480710160EC
:101D300050680121D8601068986000201A6811432B
:101D4000196010BD90F82020013A012A30D8B0B5B2
:101D500046F20060C4F20000026842F00102026034
:101D6000026822F47C520260D1F814E0CC694A6A1D
:101D70000368012C43EA022202600EF01F024FF0BA
:101D8000010303FA02F2C3696FEA020C23EA0203B9
:101D9000C36113D02CBBC36803EA0C03C360CB68D8
:101DA0008C8844EA034300EBCE0423640B4611E025
:101DB000416A41F48021416201207047C3681343A6
:101DC000C3600B688C8844EA034300EBCE042364B1
:101DD00001F10C038C681B8843EA044300EBCE043A
:101DE000636443688D6943EA0204D1F810E0096A2C
:101DF000002D08BF03EA0C0444604369BEF1000FE4
:101E000043EA020408BF03EA0C040129446102D139
:101E1000C1691143C161016821F001010160002025
:101E2000B0BD000070470000B0B590F82040013C04
:101E3000012C7DD8D0F800C000290CBFDCF80C4084
:101E4000DCF81040A4077DD00CF5D8754FEA011CD2
:101E500055F80C4014F00404946055F80CE005EBC0
:101E6000011C19BF4FEADE0555604FEA5E5515604B
:101E7000DCF80050E64605F00205D5605EF8044F38
:101E800024075ABFDEF8004004F00F040824146150
:101E9000DEF800400029C4F307249461DEF8005006
:101EA0004FEA15455561DCF808201A70026802EB0C
:101EB0000112D2F8B8214FEA12225A70026802EBDE
:101EC0000112D2F8B8214FEA12429A70026802EB6E
:101ED0000112D2F8B8214FEA1262DA70026802EBFE
:101EE0000112D2F8BC211A71026802EB0112D2F879
:101EF000BC214FEA12225A71026802EB0112D2F899
:101F0000BC214FEA12429A71026802EB0112D2F828
:101F1000BC214FEA1262DA7100680CBF00F10C01BB
:101F200000F11001002020220B681A430A60B0BDA6
:101F300000F1240101204FF480220B681A430A604B
:101F4000B0BD00BF00F1240101204FF400120B6866
:101F50001A430A60B0BD000090F820100139012931
:101F600084BF002070470068816882688068C1F380
:101F70008061C2F3C0621144C0F30070084470472E
:101F80002DE9F04F81B0044600684669D0F804900E
:101F90008768D0F80CB0D0F810A0D0F81880F107FE
:101FA00004D1002530071DD424E000BFF90710D06C
:101FB0000121BA07816009D4780700F1AF803807A2
:101FC00000F1B680204600F0D1FA02E0204600F091
:101FD000CFFA0025F80500F18780F80300F1B18001
:101FE000300707D51BF0100004D0206845F40075B9
:101FF0001021C160700708D51BF0080005D02068CB
:102000000821C160204600F0F5F9B00706D5206828
:10201000C068800702D0204600F0EEF9700607D5B0
:102020001AF0100004D0206845F480651021016189
:10203000B00608D51AF0080005D020680821016113
:10204000204600F05FFAF00606D520680069800798
:1020500002D0204600F058FAB00308D519F010005D
:1020600005D0206810214160204600F04FFAF003AF
:1020700008D519F0080005D02068082141602046E5
:1020800000F080FA300440F19B805FEA497040F133
:10209000948006F4807008EA102028435FEA887173
:1020A000014648BF41F00201B20558BF01465FEA50
:1020B00048700D4648BF45F00405700558BF0D46F1
:1020C000300540F17A8018F0700000F0768010380A
:1020D000000905286CD8DFE800F003655D615969E7
:1020E00045F0080564E000BF20684FF48071BA0530
:1020F00081600BD4780515D438051DD4204600F036
:1021000039FAF8037FF56CAF1BE000BF204600F002
:1021100033FAF8037FF564AF13E000BF4FF40065B6
:1021200058E700BF05F50055F8037FF559AF08E003
:102130004FF480554EE700BF05F58045F8037FF565
:102140004FAF20684FF48031BA0381600AD478031E
:1021500010D4380314D4204600F010FA30073FF5AD
:1021600041AF47E7204600F00BFA30073FF53AAFA2
:1021700040E700BF05F5004530073FF533AF39E7CD
:1021800005F5803530073FF52DAF33E745F0800585
:102190000EE000BF45F020050AE000BF45F0400515
:1021A00006E000BF45F0100502E000BF45F4807571
:1021B0002068816921F070018161206804214160FB
:1021C00055B1606A40EA05012046616201B0BDE890
:1021D000F04FFFF727BE00BF01B0BDE8F08F000051
:1021E000002804BF01207047B0B5044690F82000D5
:1021F00010B9204600F06EF82068016841F0010136
:10220000016000F0EDFC054620684168C90705D172
:1022100000F0E6FC401B0B28F6D310E0016821F02B
:102220000201016000F0DCFC054600BF2068416847
:1022300089070DD500F0D4FC401B0B28F6D3606A4B
:10224000052140F400306062012084F82010B0BD08
:10225000217E0268012922F0800208BF80320260DC
:10226000617E0268012922F0400208BF403202600C
:10227000A17E0268012922F0200208BF20320260FC
:10228000E17E0268012922F0100218BF10320260BC
:10229000217F0268012922F0080208BF083202608B
:1022A000617F0268012922F0040208BF0432026043
:1022B000D4E901C2D4E9033561691A432A431143C1
:1022C000ACF101021143C16100200121606284F878
:1022D0002010B0BD10B586B0006846F60002C4F20A
:1022E000000200219042CDE90411CDE902110191D3
:1022F00034D046F20041C4F20001884277D140F266
:10230000D401C2F200010A6843F64000C4F20200A0
:10231000531C0B6052B900210091016841F000711B
:102320000160016801F000710091009900210091A5
:1023300050F8101C142441F0080140F8101C50F80B
:10234000100C032100F008000090009840F20040BB
:10235000C4F2020000F5006035E000BF43F6400023
:10236000C4F202000091016841F0806101600168DF
:1023700001F080610091009940F2D401C2F20001A5
:102380000A68531C0B6052B900210091016841F0AA
:1023900000710160016801F0007100910099002155
:1023A000009150F8101C402441F0020140F8101C2C
:1023B00050F8100C602100F002000090009840F2EC
:1023C0000040C4F202000191022102910021039118
:1023D000032104910921059101A900F02BFB20465E
:1023E0000521002200F0BAFC204600F0A5FC06B052
:1023F00010BD00007047000010B58AB003AA01AB01
:1024000000210446FFF710FD10B10AB010BD00BF57
:10241000DDE905010843F8D14CF234110398C2F20A
:1024200001018C421AD040F24831C2F200018C42C4
:10243000EBD140F20621884258D040F20221884276
:1024400048D040F201218842DFD140F25401C2F26B
:10245000000101A8FFF710F80AB010BDA0F201209A
:102460000428D2D8DFE800F0042A1A20100000BFA8
:1024700048F63030C2F2010000F1480101A8FEF731
:10248000FBFF0AB010BD00BF40F28401C2F20001A0
:1024900001A8FFF743F80AB010BD00BF48F630307E
:1024A000C2F201001AE000BF48F63031C2F2010169
:1024B00001A8FEF7E1FF0AB010BD00BF48F63030BA
:1024C000C2F2010000F1300101A8FEF7D5FF0AB009
:1024D00010BD00BF40F25400C2F2000000F118012C
:1024E00001A8FEF7C9FF0AB010BD00BF40F284008A
:1024F000C2F2000000F1180101A8FFF70FF80AB0BE
:1025000010BD0000704700007047000070470000D9
:10251000B0B5044690F8200001281DD1022084F8AF
:1025200020002068016821F00101016000F058FBE3
:10253000054600BF20684068C00713D000F050FB7C
:10254000401B0B28F6D3606A40F40030606205201F
:1025500084F820000120B0BD606A40F40020606271
:102560000120B0BD00206062B0BD000070470000D7
:10257000704700007047000070470000704700007F
:10258000704700007047000070B5866D044600F08B
:1025900027FB94F83510022928D105462068216CC4
:1025A000026822F016020260426922F08002426153
:1025B00009B9A16C19B1016821F008010160016835
:1025C00021F00101016000BF20680068C00715D03C
:1025D00000F006FB401B0628F6D320206065032090
:1025E00084F83500002184F8341070BD80206065C7
:1025F0000120002184F8341070BD00BFE06D3F2140
:1026000001FA00F0B060012084F8350000200021BC
:1026100084F8341070BD000090F83510022909D1FB
:10262000052180F835100068016821F00101016082
:10263000002070478021416501207047406D704740
:10264000F0B581B0002100914CF20801C2F2010105
:102650000B68D0E9166148F2B51537680822C1F653
:102660004E358A403A42A3FB05350CD003681C68FE
:10267000640708D51C6824F004041C60B260426D35
:1026800042F00102426501228A403A4208D00368C2
:102690005B691B0604D5B260426D42F002024265DE
:1026A00004228A403A4208D003681B689B0704D57D
:1026B000B260426D42F00402426510228A403A4202
:1026C00019D001680B681B0715D5B2600B680A6842
:1026D0005B0309D4D20509D40A6822F008020A6013
:1026E000016C29B907E000BF110341D4016C11B19D
:1026F000044688472046C26D202101FA02F33B427E
:1027000043D001680F68FF063FD5B36090F835707D
:102710000B68052F1CD123F016030B604B6923F0C7
:1027200080034B61036C0BB9836C1BB10B6823F006
:1027300008030B603F219140B160012180F8351002
:10274000016D0022002980F8342054D158E000BFE8
:102750000A685B0310D4D20512D40A6822F0100272
:102760000A60012180F83510002180F8341007E05C
:10277000816C0029BCD1BEE7110301D4416C00E09B
:10278000C16B11B1044688472046416DC1B3416D0C
:10279000C9072ED0052180F835100168AA0A0B68F8
:1027A00023F001030B60009B0133934200931AD87E
:1027B0000B68DB0717D0009B01339342009312D8BC
:1027C0000B68DB070FD0009B0133934200930AD8BC
:1027D0000B68DB0707D0009B01339342009302D8BC
:1027E0000B68DB07DFD1012180F83510002180F86C
:1027F0003410C16C21B101B0BDE8F040084700BF02
:1028000001B0F0BD2DE9F041044600F0E9F9ECB16A
:102810000546022084F835000020216884F8340041
:10282000086820F00100086021680868C00711D01E
:1028300000F0D6F9401B0528F6D9032520230320F4
:10284000636584F83550BDE8F08100BF0120BDE824
:10285000F08100BF086848F23F02CFF21002D4E9CD
:10286000013500EA020C04F10C0898E8C10143EAC2
:102870000C032B431843D4E9072E3043384310434D
:10288000626A40EA0E00042A40EA08031CD1206B69
:10289000D4E90A2E40EA0E00184308604869BEF1E8
:1028A000000F20F0030040EA020040F0040C11D0B9
:1028B000B8F5005F36D0B8F1000F45D1022A46D0F6
:1028C000012A3BD032B942E00B60486920F0070092
:1028D00040EA020C01F0F8004AF6AB221038CAF6C2
:1028E000AA22A0FB02231A0948F6F823C1F814C053
:1028F000C0F600039A5C40F2FF335F284FF03F00C0
:1029000021EA030100FA02F088BF0431C4E916127B
:102910008860002301250020636584F83550BDE8F8
:10292000F08100BF032AD5D8012540230120DFE82C
:1029300002F0030E030500BF82E700BFAEF1C070D6
:10294000B0FA80F0400904E0032A04D3C2D1CEF3E8
:1029500000600028BED0012540230120636584F873
:102960003550BDE8F081000090F834C0BCF1010F93
:1029700004BF0220704770B54FF0010C80F834C0DE
:10298000D0F858E090F835C0BCF1010F38D14FF0C5
:10299000020C80F835C04FF0000CC0F854C0D0F8DD
:1029A00000C08468056CC06DDCF80060402C26F423
:1029B0008026CCF80060CCF804300B4604BF1346E8
:1029C0000A463F2101FA00F0CCF80830CCF80C2080
:1029D000CEF80800DCF8000040F01600CCF800004B
:1029E0002DB1DCF8000040F00800CCF80000DCF865
:1029F000000040F00100CCF80000002070BD00BFD6
:102A0000002180F83410022070BD0000B0B50446EB
:102A100000F0E6F805464CF20000C2F20100007832
:102A2000611C18BF044400BF00F0DAF8401BA0424C
:102A3000FAD3B0BD2DE9F04F83B000F1200200F1D0
:102A40003E4741F60045009207F1FF77C4F20205C8
:102A500008224FEAB726A84208BF072200254FF0F8
:102A600000084FF00009072E38BF4FEAB722019245
:102A70000AE000BF09F1010908F10208B9F1100FDD
:102A800005F1040500F0A2800F68012202FA09FE98
:102A900017EA0E0AEED0D1F804C003220CF00307A7
:102AA0007E1E02FA08F4012E6FEA040B12D8846825
:102AB000CE6804EA0B0406FA08F6344384604468DE
:102AC00024EA0E06CCF3001404FA09F42643466007
:102AD00004E000BF032F01D103271EE0C6688C6805
:102AE00006EA0B0604FA08F42643022FC66014D146
:102AF0006FF00302009E02EA590756F807C005F07E
:102B00001C040F220B69A2402CEA0202A3401A43C4
:102B1000F251D1F804C00CF00307026807FA08F379
:102B200002EA0B021A431CF4403F0260A2D00022CA
:102B300043F644030292C4F202031A6843F60044C7
:102B400042F480421A601A68C4F2010402F480421E
:102B50000292029A29F003024FF6084C2244CFF663
:102B6000FF7C52F80C3005F00C070F26BE40B34333
:102B7000019E06FA07F73B4342F80C30A2684B6807
:102B800042EA0A0743F60C4CDE0258BF22EA0A0763
:102B9000A760C4F2010CDCF800209E0242EA0A079A
:102BA00058BF22EA0A07CCF8007062689E0342EA26
:102BB0000A0758BF22EA0A0767602268DB0342EA75
:102BC0000A0758BF22EA0A07276053E703B0BDE8A7
:102BD000F08F0000002A08BF0904816170470000DF
:102BE00048F62C30C2F20100006870474CF2000039
:102BF00048F62C31C2F20100C2F2010100780A68E5
:102C0000104408607047000080B543F60040C4F2ED
:102C10000200016841F400710160016841F48061C3
:102C20000160016841F480710160032000F0C2F886
:102C30000F2000F005F800F05DF8002080BD0000D6
:102C400070B586B0002543F640010195C4F202013B
:102C50000A68044642F020020A60096801A801F0EF
:102C6000200101910199694600F068F9049E002E47
:102C700018BF012600F082F94DF68361B040C4F21E
:102C80001B31A0FB01014FF0FF3000EB91414CF2F2
:102C9000AC2041F20042C2F20100C4F2000240F254
:102CA000E733C0E90021C0E902530561856100F006
:102CB0008DFE08B106B070BD4CF2AC20C2F201002E
:102CC00000F0ECFE0028F5D1372000F035F80F2C8D
:102CD0000CD837202146002200F040F84CF20401C5
:102CE0000020C2F201010C6006B070BD012006B0E8
:102CF00070BD000082B0002043F640010190C4F294
:102D000002014A6842F480424A604A6802F4804202
:102D10000192019A00900868002240F080500860FB
:102D200008680F2100F08050009000986FF00100BB
:102D300002B000F013B80000002848BF704700F050
:102D40001F01012202FA01F11C2202EAD0004EF218
:102D50000012CEF2000281507047000010B54EF60E
:102D60000C5CCEF2000CDCF80030C3F3022E8EF0C7
:102D70000704042C28BF0424BEF103034FF0FF3ED8
:102D80000EFA04F438BF0023A14399400EFA03F36E
:102D90009A43114300F00F0200F160430901043A25
:102DA00003F564436244002848BF02F10C03197024
:102DB00010BD00004EF60C51CEF200010A684FF62D
:102DC000FF031A4060F30A2242F0806040F0FD7079
:102DD0000860704704F008F8002804BF012070471D
:102DE0002DE9F04143F60808C4F202080446D8F879
:102DF000F8030D4600F00700814207D988F8F85320
:102E0000D8F8F80300F00700A84277D120688107BE
:102E100017D5410705D5D8F8001041F4E051C8F89E
:102E20000010010705D5D8F8001041F46041C8F83A
:102E30000010D8F80010A26821F0F0011143C8F882
:102E40000010C00740D1D8F8F80300F00700854211
:102E500007D288F8F853D8F8F80300F00700A84222
:102E60004CD12068410707D5D8F80010E26821F45A
:102E7000E0511143C8F80010000708D5D8F8000049
:102E8000216920F4604040EAC100C8F8000000F069
:102E90009DF8D8F8001048F6E022C1F30311C0F6FF
:102EA0000002515C4CF2080220FA01F14CF20400DD
:102EB000C2F201000068C2F201021160FFF7C0FE19
:102EC0000020BDE8F08100BF6068811E022907D2A2
:102ED00058F8081C89015CBF0120BDE8F08111E0B1
:102EE000012807D158F8081C89035CBF0120BDE800
:102EF000F08107E058F8081C890703D40120BDE8D9
:102F0000F08100BFD8F8001021F003010843C8F891
:102F10000000FFF765FE064641F28837D8F800004A
:102F2000616800F00C00B0EB810F8CD0FFF758FE09
:102F3000801BB842F2D90320BDE8F0810F22026065
:102F400043F60802C4F20202136803F0030343606D
:102F5000136803F0F0038360136803F4E053C36065
:102F6000D2F800C04FF4E05303EADC030361D2F867
:102F7000F80300F007000860704700004CF20800FA
:102F800043F60801C2F20100C4F2020100680968B8
:102F900048F6F022C1F38221C0F60002515CC8401D
:102FA000704700004CF2080043F60801C2F201002D
:102FB000C4F202010068096848F6F022C1F3423108
:102FC000C0F60002515CC8407047000010B543F6DF
:102FD0000404C4F202046168C1F3810142F20040BA
:102FE000C0F2F400DFE801F002040A0210BD00BFE5
:102FF00041F60030C0F2B70010BD00BF2068216864
:103000002368490241F60031C0F2B70100F03F02E7
:10301000C3F388105CBF42F20041C0F2F401A1FB8F
:1030200000010023FDF736F921680222C1F30141B6
:1030300002EB4101B0FBF1F010BD0000002804BF1D
:10304000012070472DE9F04182B00446007843F634
:103050000006C007C4F202060CD0B06800F00C00F5
:10306000042840F081803068800303D56068002820
:1030700000F06881207880071BD5B06810F00C0F35
:1030800009D0B06800F00C00082840F08780706814
:10309000400200F183803068800703D5E068012892
:1030A00040F050813068216920F0F80040EAC1000A
:1030B00030602078000713D4207840072AD4A5690F
:1030C000002D00F03A81B06800F00C00082840F0B4
:1030D000A580012D40F00E81012002B0BDE8F081F5
:1030E0006069002800F082800020C4F2472001219E
:1030F000C0F8801EFFF774FD054600BF706F8007A3
:10310000DAD4FFF76DFD401B0228F7D9032002B087
:10311000BDE8F081306C5FEAC0080AD4002001905D
:10312000306C40F080503064306C00F08050019082
:10313000019847F20007C4F200073868C00547D479
:10314000386840F480703860FFF74AFD054600BFDC
:103150003868C0053CD4FFF743FD401B0228F7D96F
:10316000032002B0BDE8F081B06800F00C00082830
:1031700003D1706840023FF576AF61683068B1F501
:10318000803F07D0B1F5A02F40F09A8040F4802016
:103190003060306840F4803030609AE0E0680028A9
:1031A00040F20000C4F247205CD001210160FFF72B
:1031B00017FD0546306880073FF574AFFFF710FD37
:1031C000401B0228F6D9032002B0BDE8F08100BF01
:1031D000A168306F012905D0052955D140F00400C0
:1031E0003067306F40F00100306756E00020C4F2D5
:1031F00047200021C0F8801EFFF7F2FC054600BF03
:10320000706F80077FF558AFFFF7EAFC401B02287C
:10321000F6D9032002B0BDE8F08100BF0027C4F258
:10322000472700203866FFF7DBFC022D05460DD14D
:103230003068800140F18A80FFF7D2FC401B0228F1
:103240004FF00300F4D902B0BDE8F081306880018E
:1032500073D5FFF7C5FC401B02284FF00300F5D9DA
:10326000F1E700BF00210160FFF7BAFC054600BF8F
:10327000306880077FF51DAFFFF7B2FC401B0228C6
:103280004FF00300F4D9DEE720F001003067306F23
:10329000002920F0040030677AD0FFF7A1FC054632
:1032A00041F28837306F800700F18480FFF798FC87
:1032B000401BB842F6D9032002B0BDE8F08100BF40
:1032C00020F4803030603068002920F480203060A5
:1032D0007AD0FFF785FC0546306880033FF5CAAE1B
:1032E000FFF77EFC401B6428F6D9032002B0BDE83E
:1032F000F08100BF7068E16900F480028A4221D148
:10330000216A00F03F028A421CD147F6C071626A0E
:103310000140B1EB821F15D1A16A4FF6FF73C903BB
:10332000994300F44032A1F580318A420AD1E16A22
:1033300000F07060B0EB016F04D1002002B0BDE876
:10334000F08100BF012002B0BDE8F08104F11C054E
:103350002FCD084340EA8210D9034FF6FF72914304
:10336000A1F5803140EA05600843706001203866AD
:10337000FFF736FC044600BF30688001DDD4FFF75C
:103380002FFC001B02284FF00300F5D95BE700BFBC
:10339000FFF726FC054641F2883700BF306F8007F3
:1033A00008D5FFF71DFC401BB8424FF00300F5D9CC
:1033B00049E700BFB8F1000F3FF581AE306C20F057
:1033C000805030647BE600BFFFF70AFC054600BF73
:1033D000306880037FF54EAEFFF702FC401B642887
:1033E0004FF00300F4D92EE770B528B1416A29B136
:1033F00000210161142106E0012070BD4168B1F592
:10340000827F02D01C21002242500026866290F862
:10341000511029B980F85060054600F03DF8284663
:10342000022180F8511090E82E0002F482720C689C
:1034300003F4044324F040040C601A4405F40063D0
:1034400005691A4405F0020345691A4405F00103B1
:103450008569C4691A4405F400731A4404F03803FA
:10346000046A1A4404F08003846A1A4304F4005383
:103470001A430A60436A042202EA154203F0100369
:103480001A444A60CA6922F40062CA610121466591
:1034900080F85110304670BD2DE9F04F87B00446DA
:1034A00043F200070068C4F201070026B8420696FE
:1034B000CDE904660396029602D007B0BDE8F08F0E
:1034C00043F630000196C4F20200416902AD41F4B6
:1034D00080514161416946F2104801F480510191E7
:1034E0000199019601684FF0020941F00201016063
:1034F00001684FF0030A01F0020101910199019660
:1035000001684FF0050B41F0010101600068294698
:1035100000F00100019001981820029007F5544036
:10352000C4F20208CDE90396CDF814A0CDF818B086
:10353000FFF780FA8020CDE9020904A880E8400C5A
:1035400007F550402946FFF775FA4CF25C15C2F2B8
:1035500001054FF440304FF0C0674FF48069C5E972
:1035600008062846C5E90087C5E90266C5E904964C
:10357000C5E90666FFF746F9002818BFFDF7C2FF48
:10358000E564AC6340F2703508F14800C2F2000512
:103590004021C5E9000705F10800002280E8060285
:1035A0004FF40030C5E908022846C5E90522EA6162
:1035B000FFF728F9002818BFFDF7A4FFA564AC6346
:1035C00007B0BDE8F08F00002DE9F04383B01E4640
:1035D00015460F460446FFF703FB94F85110814649
:1035E000012909D1002F4FF0010018BF002D0FD184
:1035F00003B0BDE8F08300BF6068B0F5827F0DD1F5
:1036000004294FF00200F3D1A1680029EAD0EFE7C6
:10361000002EEDD094F85000012803D1022003B011
:10362000BDE8F083012084F8500094F85100002197
:1036300004281CBF052084F851006165A563E68756
:10364000A6872763E6862068A686216461640168F0
:10365000490603D4016841F0400101606168731EAE
:10366000E268B1FA81F1B3FA83F3DDF82880490901
:103670005B09B2F5006F41EA030165D131B137F85A
:10368000021BC1602763E08E0138E086012518F136
:10369000010032D102E000BFFFF7A2FAE08E18B9B4
:1036A000E08F002800F0B8802068816889070CD579
:1036B000E18E51B1012D08D1216B002531F8022B8B
:1036C000C2602163E18E0139E1868168C907E3D0D8
:1036D000E18F0029E0D0C068A16B012521F8020B21
:1036E000A163E08F0138E087D6E700BFFFF778FAE3
:1036F000A0EB0900404580F0A580E08E18B9E08F6E
:10370000002800F089802068816889070CD5E18E47
:1037100051B1012D08D1216B002531F8022BC26077
:103720002163E18E0139E1868168C907DED0E18F2E
:103730000029DBD0C068A16B012521F8020BA16331
:10374000E08F0138E087D1E739B139780173206B18
:1037500001302063E08E0138E086012518F1010078
:1037600032D101E0FFF73CFAE08E10B9E08F00287B
:1037700052D02068816889070ED5E18E61B1012D94
:103780000AD1216B002509780173216B2068013172
:103790002163E18E0139E1868168C907E2D0E18FBA
:1037A0000029DFD0C068A16B01250870A06B013033
:1037B000A063E08F0138E087D4E700BFFFF710FA7D
:1037C000A0EB090040453DD2E08E08B9E08F18B368
:1037D0002068816889070ED5E18E61B1012D0AD17B
:1037E000216B002509780173216B20680131216369
:1037F000E18E0139E1868168C907DFD0E18F0029B8
:10380000DCD0C068A16B01250870A06B0130A063FB
:10381000E08F0138E087D1E72046022101224346AC
:10382000CDF8009002F0B2FDB0B1606D40F0200024
:10383000606520206065002084F85000012003B0FE
:10384000BDE8F083012084F85100002084F8500086
:10385000032003B0BDE8F0834CF20800C2F201007F
:10386000006849F68171C1F25E61A0FB0101480D5B
:103870004FF47A71484302906068B0F5827F0BD1B3
:103880002046802100224346CDF8009002F07EFDC4
:103890000028CAD121E000BF0298F0B10298013897
:1038A000029020688168090617D50299A9B102998A
:1038B00001390291816809060FD5029969B102990F
:1038C000013902918168090607D5029929B1029947
:1038D0000139029180680006DED4A06838B9002062
:1038E00001902068C16801918068019001980120D1
:1038F00084F85100002084F85000606D002818BF43
:10390000012003B0BDE8F08370470000704700005D
:1039100090F83C20012A4FF0020254D010B580F8F4
:103920003D200268D2F804E0D2F808C00C682EF0FE
:103930007003234341F2FF74C4F20004A2425360B7
:103940000EDC40F2FF73C4F200039A4216DCB2F1BF
:10395000804F2BD040F20043C4F2000324E000BFAC
:1039600040F2FF33C4F201039A4213DC41F6000334
:10397000C4F200039A4219D0002313E040F600037A
:10398000C4F200039A4211D040F60043C4F200038F
:103990000AE000BF44F20003C4F201039A4205D0DA
:1039A00040F20043C4F201039A4204D149682CF06A
:1039B0008003194391600121002280F83D1080F8B6
:1039C0003C20BDE81040104670470000002804BFAE
:1039D0000120704710B5044690F83D0028B900203A
:1039E00084F83C00204600F01FF8022084F83D00D7
:1039F0002068211D02F0F8FD012084F8460084F8BB
:103A00003E0084F83F0084F8400084F8410084F8C8
:103A1000420084F8430084F8440084F8450084F8A8
:103A20003D00002010BD000080B582B0006841F26A
:103A30000001C4F20001884216D040F60001C4F231
:103A4000000188420ED10020019043F64000C4F2EC
:103A50000200016841F004010160006800F0040008
:103A60000190019802B080BD0020009043F6400014
:103A7000C4F202000168002241F0100101600068F8
:103A8000052100F01000009000983620FFF766F93D
:103A9000362002B0BDE88040FFF74EB990F83D10E7
:103AA00001291CBF01207047022180F83D100068E9
:103AB00041F2FF72C168C4F20002904241F001017C
:103AC000C1600DDC40F2FF71C4F20001884215DCD8
:103AD000B0F1804F2AD040F20041C4F2000123E04F
:103AE00040F2FF31C4F20101884213DC41F60001CB
:103AF000C4F20001884219D0002113E040F6000111
:103B0000C4F20001884211D040F60041C4F2000125
:103B10000AE000BF44F20001C4F20101884205D06E
:103B200040F20041C4F20101884206D1816801F0EF
:103B30000701062904BF00207047016841F0010118
:103B4000016000207047000090F83C20012A4FF0EF
:103B500002026CD080B580F83D20D0F800C04FF64E
:103B60007772DCF8083023EA0202CCF808200B68F0
:103B70004F2B29DC1F2B45DD202B46D0302B44D08A
:103B8000402B40F0AF80D1F804E0C968DCF8203069
:103B9000DCF8202022F00102CCF82020DCF81820EC
:103BA00022F0F00242EA011123F00A0242EA0E0278
:103BB000CCF81810CCF82020DCF8081041F04701B0
:103BC00021F0300128E000BF6F2B33DDB3F5005F3B
:103BD00074D0B3F5805F21D0702B40F08380D1E9A1
:103BE00001E3C968DCF8082043EA0E0322F47F42AF
:103BF00043EA01211143CCF80810DCF8081041F029
:103C0000770109E00BB1102B6CD1DCF8081021F022
:103C10007001194341F00701CCF80810002201217E
:103C200080F83D10002180F83C10BDE8804010462F
:103C3000704700BF502B21D0602B53D1D1F804E046
:103C4000C968DCF82030DCF8202022F01002CCF823
:103C50002020DCF8182022F4704242EA013123F0DF
:103C6000A00242EA0E12CCF81810CCF82020DCF8A2
:103C7000081041F0670121F01001CDE7D1F804E010
:103C8000C968DCF82030DCF8202022F00102CCF8F2
:103C90002020DCF8182022F0F00242EA011123F083
:103CA0000A0242EA0E02CCF81810CCF82020DCF808
:103CB000081041F0570121F02001ADE7D1E901E3FF
:103CC000C968DCF8082043EA0E0322F47F4243EA85
:103CD00001211143CCF80810DCF8081041F48041B0
:103CE0009AE700BF01229AE77047000070B50446CA
:103CF0000068C5680669B10716D515F0020113D032
:103D00006FF002010161012121778069800703D0F2
:103D10002046FFF7E9FF05E0204600F08FF8204637
:103D200000F0CEF900202077700719D515F00400B7
:103D300016D020686FF004010161022121778069AB
:103D400010F4407F04D02046FFF7CEFF06E000BF0E
:103D5000204600F073F8204600F0B2F900202077EA
:103D6000300717D515F0080014D020686FF008014F
:103D7000016104212177C069800703D02046FFF745
:103D8000B3FF05E0204600F059F8204600F098F90E
:103D900000202077F00619D515F0100016D0206805
:103DA0006FF01001016108212177C06910F4407F94
:103DB00004D02046FFF798FF06E000BF204600F041
:103DC0003DF8204600F07CF900202077F00718BF6E
:103DD00015F0010002D1300609D412E020686FF01E
:103DE00001010161204600F0F5F9300609D515F012
:103DF000800006D020686FF0800101612046FFF747
:103E000083FD700609D515F0400006D020686FF0DC
:103E100040010161204600F0E7F9B00658BF70BDCF
:103E200015F0200008D021686FF0200220460A61BA
:103E3000BDE87040FFF76ABD70BD0000704700002C
:103E400090F83C30012B04BF022070474FEAB202C9
:103E5000032A00F2FF802DE9F043DFE802F003B10E
:103E60003F7F00BF036840F200461C6A1A6A24F0D4
:103E7000020422F001021A621A46D3F804C052F872
:103E800018EF8F6843F48065C4F20106B54244EA36
:103E9000070405D1CF6824F00C0427F004073C4345
:103EA0000F68B54206D1D1E905582CF440762E436F
:103EB00046EA080C2EF073063743C3F804C09F612E
:103EC0004F6809695F631C629F6947F008079F613B
:103ED0009F6927F004079F61B1E000BF036840F2CB
:103EE00000481C6A1A6A24F4007422F480721A6270
:103EF0001A46D3F804C052F81CEF8F6843F480656B
:103F0000C4F20108454544EA072408D1CF6840F2CD
:103F1000FF463F0224F4406427EA06063443D1F802
:103F20000090454506D1D1E905562CF440572E4363
:103F300047EA061C2EF0730747EA0907C3F804C0D6
:103F4000DF614F680969DF631C62DF6947F00807BA
:103F5000DF61DF6927F00407DF6170E0036840F28A
:103F60000045D3F820C01A6A43F4806722F48052D7
:103F70001A621A465C6852F81C8FD1F800E08E680D
:103F8000C4F20105AF4204D14D6924F4804444EAEF
:103F900085142CF4005747EA063728F4E64646EA2B
:103FA0000E265C60DE614E6809691E641F62DF696F
:103FB00047F40067DF61DF6927F48067DF613DE078
:103FC000036840F200481C6A1A6A24F0200422F0B8
:103FD00010021A621A46D3F804C052F818EF8F681C
:103FE00043F48065C4F20108454544EA071407D14B
:103FF000CF686FF0400624F0C00406EA0716344389
:10400000D1F80090454506D1D1E905562CF440671A
:104010002E4347EA860C2EF4E64747EA0927C3F801
:1040200004C09F614F6809699F631C629F6947F4E0
:1040300000679F619F6927F480679F610902136889
:10404000194311600021BDE8F043002280F83C20B4
:10405000084670470121002280F83C20084670473E
:10406000002804BF0120704710B5044690F83D00B9
:1040700028B9002084F83C00204600F01FF80220F8
:1040800084F83D002068211D02F0AEFA012084F87A
:10409000460084F83E0084F83F0084F8400084F82D
:1040A000410084F8420084F8430084F8440084F816
:1040B000450084F83D00002010BD0000704700005E
:1040C00070470000C1B1042908D0082914BF41225B
:1040D0004022825C012A05D016E000BF3F22825CAC
:1040E000012A11D10222082910D0042914BF80F816
:1040F000412080F83F200BE090F83E20012A03D1B8
:10410000022280F83E2003E00120704780F8402022
:10411000006801F01F010122036A02FA01F123EA9B
:1041200001020262026A114341F2FF72C4F200020C
:10413000904201620CDC40F2FF71C4F2000188423F
:1041400014DCB0F1804F37D040F2004116E000BFE0
:1041500040F2FF31C4F20101884215DC41F6000152
:10416000C4F20001884227D0002115E040F600018A
:10417000C4F2000188421FD040F60041C4F20001A1
:10418000884219D01FE000BF44F20001C4F20101CF
:10419000884211D040F20041C4F20101884212D19C
:1041A000416C40F2004340F48062C4F2010341F4E8
:1041B00000419A42416406D1816801F00701062955
:1041C00004BF00207047016841F001010160002038
:1041D00070470000006841F20041C4F200018842CB
:1041E00018BF7047FEF702BD7047000070B582B07F
:1041F00090F84250202D0BD113460A460146002A62
:104200004FF0010018BF002B06D102B070BD00BFF7
:10421000022002B070BD00BF0863002622204E635A
:104220008A628B854E6481F842000C680D46C86B2B
:1042300046F6AD0C46F60D21C0F6000CC0F60001A6
:10424000C0E90FC146F23171C0F60001C0E9131692
:10425000211DFEF789FBE8B3102068642020294661
:1042600085F8420001200A6B012A40F0B380002249
:1042700000920A681368009352680092009A00BF87
:104280000A6852E8032F0B6842F0100243E8032645
:10429000002EBAD00A6852E8032F0B6842F01002D1
:1042A00043E80326002EB0D00A6852E8032F0B68BB
:1042B00042F0100243E80326002EA6D00A6852E816
:1042C000032F0B6842F0100243E80326002ED7D1DB
:1042D0009BE700BF01962868294602680192406862
:1042E00001900198286928B3086850E8030F0A680C
:1042F00040F4807042E80303E3B1086850E8030F1C
:104300000A6840F4807042E803039BB1086850E8F3
:10431000030F0A6840F4807042E8030353B1086851
:1043200050E8030F0A6840F4807042E80303002B52
:10433000DAD100BF086850E8050F0A6840F00100B4
:1043400042E80503BBB3086850E8050F0A6840F06F
:10435000010042E8050373B3086850E8050F0A68D6
:1043600040F0010042E805032BB3086850E8050F50
:104370000A6840F0010042E80503002BDAD11AE098
:10438000086850E8050F0A6840F0400042E805035D
:10439000DBB1086850E8050F0A6840F0400042E8C9
:1043A000050393B1086850E8050F0A6840F0400023
:1043B00042E805034BB1086850E8050F0A6840F071
:1043C000400042E80503002BDAD100200A6B012AE5
:1043D0003FF44DAF012002B070BD0000006844F60C
:1043E0000002C4F20002904218BF704770B540F25C
:1043F0000C041229C2F200044ED34EF28F3048430F
:10440000000D00EBC0006FF0110101EB400014FA49
:1044100080F090F8211040293ED3C1F3011EBEF177
:10442000000F39D01C3003784278857862F30A2374
:10443000D208C67865F34A12A3F58063A2F58062BC
:1044400023806280B200037942EA951263F38A22E4
:10445000A2F58062A2805A0861F3CA124FEA911C49
:10446000A2F58061E180D0F80610027BE16041890D
:10447000A274027C437C2182417BC08963F30A22BF
:10448000A082A2F5806084F80AE084F80BC0E17491
:104490002081FEF7A5FBA06140F2284004F11C0139
:1044A000C2F200002422FFF7A1FE4CF2BC10C2F2BF
:1044B00001000068016821F008010160BDE870405A
:1044C0007047000010B50446206850E8030F2168CB
:1044D00020F4907041E80302BAB3206850E8030F5B
:1044E000216820F4907041E8030272B3206850E81C
:1044F000030F216820F4907041E803022AB320687A
:1045000050E8030F216820F4907041E80302002A6C
:10451000DAD11AE0206850E8050F216820F0010088
:1045200041E80502DAB1206850E8050F216820F063
:10453000010041E8050292B1206850E8050F2168AA
:1045400020F0010041E805024AB1206850E8050F5B
:10455000216820F0010041E80502002ADAD1206B31
:10456000012824D1206850E8030F216820F01000B2
:1045700041E80302DAB1206850E8030F216820F017
:10458000100041E8030292B1206850E8030F21684F
:1045900020F0100041E803024AB1206850E8030F00
:1045A000216820F0100041E80302002ADAD12068D7
:1045B0004069400636D500BF206850E8050F2168E5
:1045C00020F0400041E80502DAB1206850E8050F0C
:1045D000216820F0400041E8050292B1206850E8CF
:1045E000050F216820F0400041E805024AB120682B
:1045F00050E8050F216820F0400041E80502002A3C
:10460000DAD1E06B70B100210165FDF7BDFF48B163
:10461000E06BFEF713F8202804D11020606403201B
:1046200010BD00BF00202021E08584F842102063E7
:1046300010BD0000016844F60002C4F2000291427D
:1046400018BF704710B582B0002201920B68044673
:1046500001934B680193019B01920B6801934B6896
:104660000193019B01920B6801934B680193019B9D
:1046700001920B6801934B680193019B01920B68B7
:1046800001934968019101994264FFF71BFF40F2D1
:104690000C00C2F2000000F11C0120462422FFF7AA
:1046A000A5FD4CF2BC10C2F201000068016821F0C7
:1046B0000801016002B0BDE810407047B0B582B09B
:1046C00001680A68CC684B6902F02F05202D04F0C0
:1046D000200505D125B102B0BDE8B04002F0A2B975
:1046E0005FEA027C1EBF03F0010E04F4907313EB2B
:1046F0000E0341D1036BD50618D5012B16D114F04A
:10470000100313D0002201920A6801924A680192B4
:10471000019A496949064BD4818DC28DC38D002B06
:1047200018BF914240F0068202B0B0BD13062DD5ED
:1047300014F080032AD090F84120212AF4D1826815
:10474000B2F5805F03D10269002A00F07982026A23
:10475000531C036212784A60C28C013A1304C2846B
:10476000E2D1C86820F08000C860C86840F040000E
:10477000C86002B0B0BD00BFD30718BF14F4807387
:1047800040F0E280530700F1E580EAE05206CBD525
:1047900014F04002C8D0CA6822F04002CA6020214A
:1047A00080F8411002B0BDE8B04000F0EBBA00BFA5
:1047B000C26B11684B68858D99B2002900F0B480F6
:1047C000A94280F0B180C385D169B1F5807F00F046
:1047D000A080016851E8031F026821F4807142E85B
:1047E0000313DBB1016851E8031F026821F48071F3
:1047F00042E8031393B1016851E8031F026821F4F2
:10480000807142E803134BB1016851E8031F02684D
:1048100021F4807142E80313002BDAD1016851E8DA
:10482000051F026821F0010142E80513BBB30168CE
:1048300051E8051F026821F0010142E8051373B336
:10484000016851E8051F026821F0010142E80513E3
:104850002BB3016851E8051F026821F0010142E80D
:104860000513002BDAD11AE0016851E8051F026830
:1048700021F0400142E80513DBB1016851E8051F52
:10488000026821F0400142E8051393B1016851E844
:10489000051F026821F0400142E805134BB1016891
:1048A00051E8051F026821F0400142E80513002B82
:1048B000DAD1202180F8421000210163016851E81B
:1048C000031F026821F0100142E80313DBB1016805
:1048D00051E8031F026821F0100142E8031393B16D
:1048E000016851E8031F026821F0100142E8031338
:1048F0004BB1016851E8031F026821F0100142E842
:104900000313002BDAD1C16B04460846FDF73CFEC9
:10491000204602214163818DC28D891A89B202B07D
:10492000BDE8B040FFF75ABD8D427FF4FDAED269BD
:10493000B2F5807F7FF4F8AE0222426302B0BDE898
:10494000B040FFF74BBD00BF436C43F0010343642D
:10495000530706D5BEF1000F03D0436C43F00203AA
:104960004364930706D5BEF1000F03D0436C43F0B8
:1049700004034364BCF1000F06D55EEA050303D0CF
:10498000436C43F008034364436C002B3FF4CCAE0C
:10499000920605D525B1044602F044F82168204668
:1049A0004969426C01F0400102F00802891800F0E8
:1049B000B98000BF016851E8031F026821F49071BB
:1049C00042E80313BBB3016851E8031F026821F4F6
:1049D000907142E8031373B3016851E8031F026842
:1049E00021F4907142E803132BB3016851E8031FCF
:1049F000026821F4907142E80313002BDAD11AE027
:104A0000016851E8051F026821F0010142E8051321
:104A1000DBB1016851E8051F026821F0010142E89D
:104A2000051393B1016851E8051F026821F00101E7
:104A300042E805134BB1016851E8051F026821F0F7
:104A4000010142E80513002BDAD1016B012924D1C1
:104A5000016851E8031F026821F0100142E80313C6
:104A6000DBB1016851E8031F026821F0100142E840
:104A7000031393B1016851E8031F026821F010018C
:104A800042E803134BB1016851E8031F026821F0AB
:104A9000100142E80313002BDAD1202180F84210E4
:104AA0000021016301684969490640F1C38001683A
:104AB00051E8051F026821F0400142E80513DBB10F
:104AC000016851E8051F026821F0400142E8051322
:104AD00093B1016851E8051F026821F0400142E8E6
:104AE00005134BB1016851E8051F026821F0400130
:104AF00042E80513002BDAD1C16B002900F09A803F
:104B000046F22572C0F60002044608460A65FDF723
:104B100083FD00283FF408AEE06B016D02B0BDE8F4
:104B2000B04008470446FFF785FD0020606402B0EE
:104B3000B0BD00BF891A00BF026852E8032F0368A6
:104B400022F4907243E80325BDB3026852E8032FB4
:104B5000036822F4907243E8032575B3026852E8B3
:104B6000032F036822F4907243E803252DB30268F3
:104B700052E8032F036822F4907243E80325002DC6
:104B8000DAD11AE0026852E8052F036822F0010228
:104B900043E80525DDB1026852E8052F036822F0DD
:104BA000010243E8052595B1026852E8052F036824
:104BB00022F0010243E805254DB1026852E8052FB5
:104BC000036822F0010243E80525002DDAD12022F6
:104BD00080F8422000220263026852E8032F036833
:104BE00022F0100243E80325DDB1026852E8032FEA
:104BF000036822F0100243E8032595B1026852E8E9
:104C0000032F036822F0100243E803254DB1026828
:104C100052E8032F036822F0100243E80325002D19
:104C2000DAD1022289B2426302B0BDE8B040FFF798
:104C3000D5BB00BF02B0BDE8B040FFF7FBBC00BF72
:104C4000026A32F8023B6FF35F234B60026283E536
:104C5000002804BF0120704710B5044690F84100B9
:104C600028B9002084F84000204600F021F82420D4
:104C700084F841002068C16821F40051C1602046D9
:104C800001F050FF2068016921F490410161416900
:104C900021F02A014161C16841F40051C160002046
:104CA0002021606484F8411084F84210606310BDD4
:104CB00070B586B0044644F600002168C4F20000D6
:104CC000002681420596CDE903660296019601D041
:104CD00006B070BD43F630010096C4F202010A69C5
:104CE00000F5E03042F480220A610A6902F4802271
:104CF0000092009A00960A6842F004020A6009686D
:104D000001F00401009100994FF4406101910221EA
:104D1000CDE90216032104910721059101A9FDF7B0
:104D200089FE4CF2BC1546F22800C2F20105C4F21D
:104D300002004FF0006185E843004FF400304FF46B
:104D400080624FF48073C5E908062846C5E903620E
:104D5000C5E90566EB61FDF755FD002818BFFCF7B6
:104D6000D1FB272005210022E563AC63FDF7F6FFA8
:104D70002720FDF7E1FF06B070BD0000704700007E
:104D80007047000070470000FEE700004CF2F4207E
:104D9000C2F2010090F83C007047000010B52DED04
:104DA0000C8B002818BF002902D1BDEC0C8B10BD64
:104DB000B5EE400AF1EE10FAF7DDD1ED002AD1EDA3
:104DC000011A4CF2F424D1ED020AC2F2010490ED72
:104DD000001A90ED013A90ED022A21EEA14A22EE4E
:104DE000A25A94F83C0035EE044A20EEA05A00285E
:104DF00035EE044A00F0DE81F1EEC43A94ED0B5A30
:104E000094ED0C4A31EE451A94ED0D5A33EE447A86
:104E100032EE456A84ED081A84ED097A84ED0A6A57
:104E2000F1EE0C4A94ED005A94ED014A94ED023AE9
:104E300094ED032AF4EE643AF1EE10FAC0F2A08089
:104E4000F2EE094AF4EE643AF1EE10FA00F39880BB
:104E5000F7EE004AC4EEA33A64EE024A65EE045A45
:104E6000FEEE006A62EEA32A61EEA31A60EEA30AC8
:104E700065EE033A74EEE33A63EE024A75EEA44A35
:104E800065EE055A75EEA65A62EE026A76EEA55AEE
:104E900060EEA46A61EEA57A60EEA30A61EEA31A41
:104EA000DFEDC13A77EEE66A62EEA55A62EEA42A19
:104EB00072EEE11A66EEA32AD4ED164A70EEE50A08
:104EC00062EE802A72EEA42AD4ED174A60EEA35A4D
:104ED00065EE805A75EEA44A61EEA33AD4ED185AF5
:104EE00063EE803ADFEDB17A73EEA53ADFEDB05AAA
:104EF000F4EE672AF1EE10FAB8BFF0EE672AF4EE8E
:104F0000652AF1EE10FAB0EE658AF4EE674AB8BF92
:104F1000B0EE628AF1EE10FAB8BFF0EE674AF4EE36
:104F2000654AF1EE10FAF0EE652AF4EE673AB8BF82
:104F3000F0EE642AF1EE10FAB8BFF0EE673AF4EE44
:104F4000653AF1EE10FAB8BFF0EE635AF0EE083AA7
:104F500060EEA30A70EEA20A66EEA34A37EE207A4C
:104F600061EEA30A74EE884A70EEA50A31EE241AA7
:104F700036EE206A84ED168AC4ED172AC4ED185A5D
:104F800063EE071A64EE412A63EE063A65EE014AC3
:104F900072EEE11A62EE062A74EEA33A62EE074A56
:104FA000F1EE430A71EEE21AF6EE002A73EEE43AED
:104FB00064EE064A65EE075A24EE077A25EE066A85
:104FC00061EEA21A75EEE44A62EE015A36EE076A05
:104FD00020EE811A63EEA23A75EEA44A31EE061A6B
:104FE00021EE806A64EEA24A21EE221A35EE065ABC
:104FF00023EE806A34EE064A24EE806A21EE000A2F
:1050000033EE063A30EE020A24EE041A25EE052AA3
:1050100032EE011A23EE032A32EE011A20EE002AA4
:1050200032EE011AB1EEC11AB7EE008A88EE011A0B
:1050300025EE012A84ED002A24EE012A84ED012ABE
:1050400023EE012A20EE010A84ED022A84ED030AF0
:1050500094ED009A94ED01BA94ED02CA94ED03AA7E
:1050600029EE0B1A2CEE0A0A31EE000A2CEE0CDAAD
:105070002BEE0B1A31EE0D1A31EE011A30EE000A4A
:1050800078EE410A03F06AF984ED040A2AEE0B0A6D
:1050900029EE0C1A31EE400A30EE001AB4EE481A2E
:1050A000F1EE10FAB0EE480A0ADCBFEE002AB4EEC8
:1050B000421AB0EE410AF1EE10FAB8BFB0EE420A61
:1050C00003F0B6F884ED050A2BEE0C0A29EE0A1A55
:1050D00031EE000A2AEE0A1A3DEE011A31EE011AEB
:1050E00030EE000A78EE410A03F038F984ED060A42
:1050F00094ED191A9FEDB62A30EE411AB4EE421A19
:10510000F1EE10FA1EDD9FEDB33A00BF31EE031A47
:10511000B4EE421AF1EE10FA14DD31EE031AB4EED9
:10512000421AF1EE10FA0DDD31EE031AB4EE421A16
:10513000F1EE10FA06DD31EE031AB4EE421AF1EE8A
:1051400010FAE3DC9FEDA42AB4EE421AF1EE10FA55
:105150001EDA9FEDA23A00BF31EE031AB4EE421AF6
:10516000F1EE10FA14DA31EE031AB4EE421AF1EE4F
:1051700010FA0DDA31EE031AB4EE421AF1EE10FA1B
:1051800006DA31EE031AB4EE421AF1EE10FAE3DB5E
:1051900094ED072A31EE021A84ED071A84ED190AFC
:1051A000BDEC0C8B10BD00BFCDCCCC3DCDCC4CBEEE
:1051B000CDCC4C3E23EE030A21EE015A35EE000A17
:1051C00022EE025A9FED866A35EE000AB4EE460AD8
:1051D000F1EE10FA00F3F0809FED820AB4EE404A3F
:1051E000F1EE10FAC0F2E8809FED7F0AB4EE404A7B
:1051F000F1EE10FA00F3E08094ED100A94ED114AFC
:1052000094ED125A94ED136A31EE001A33EE043A1B
:1052100094ED140A94ED154A32EE869A31EE800A26
:1052200032EE052A30EE844A84ED101A84ED139A8A
:1052300084ED113A84ED140A84ED122A84ED154AA6
:10524000A06B0130A063A06B80087C287FF6ADAD19
:105250009FED665A0020C4EE050A80EE050A81EE35
:10526000051A83EE053A82EE052A20EEA04A20EECA
:10527000005A35EE044AB1EEC48A84ED0B1A84ED6F
:105280000C3A84ED0D2AC4E91600206603F066F896
:105290009FED571AF0EE480A89EE011AB0EE409AD7
:1052A000B0EE410A03F05AF8B6EE001A29EE018A70
:1052B00020EE019AB0EE480A03F0A6F9B0EE40AA3B
:1052C000B0EE480A03F048FAB0EE408AB0EE490A60
:1052D00003F09AF9B0EE40BAB0EE490A03F03CFA96
:1052E0002AEE0B1A84ED001A28EE0B1A84ED011A2F
:1052F0002AEE001A28EE400A84ED021A84ED030A11
:1053000094ED008A94ED01AA94ED02BA94ED039A0B
:1053100028EE0A1A2BEE090A31EE000A2BEE0BCA10
:105320002AEE0A1A31EE0C1A31EE011AB7EE00DA43
:1053300030EE000A7DEE410A03F010F884ED040A15
:1053400029EE0A0A28EE0B1A31EE400A30EE001A56
:10535000B4EE4D1AF1EE10FAB0EE4D0A0ADCBFEED3
:10536000002AB4EE421AB0EE410AF1EE10FAB8BFCC
:10537000B0EE420A02F05CFF84ED050A2AEE0B0A49
:1053800028EE091A31EE000A29EE091A3CEE011A3C
:1053900031EE011A30EE000A7DEE410A02F0DEFF26
:1053A000012084ED060A84ED070A84ED190A84F8C9
:1053B0003C00BDEC0C8B10BD0020A063C4E91000C4
:1053C000C4E91200C4E91400BDEC0C8B10BD00BF91
:1053D000DB0F4940DB0FC9C0DB0F49C0DB0FC94001
:1053E0000BD7233D00006142000010430000FA4348
:1053F0000000FAC310B54CF2341046F20041C2F27C
:105400000100C4F200010322002380E80E0000F135
:105410000C014FF4002C4FF4401E4FF0012481E8A2
:1054200008504FF4807184618183FCF7D9FE002815
:1054300008BF10BDBDE81040FCF764B810B540F2DD
:10544000483046F60001C2F20000C4F20001032217
:10545000002380E80E0000F10C014FF4002C4FF403
:10546000401E4FF0012481E808504FF480718461A0
:105470008183FCF7B5FE002808BF10BDBDE81040D1
:10548000FCF740B880B582B0002043F630010190AF
:10549000C4F202010A6842F400120A600A6802F4C7
:1054A00000120192019A00900868002240F48000E6
:1054B00008600868052100F48000009000980C2026
:1054C000FDF74CFC0C20FDF737FC382005210022AD
:1054D000FDF744FC3820FDF72FFC3B20052100227E
:1054E000FDF73CFC3B2002B0BDE88040FDF724BC4A
:1054F00070B5A4B02E480DF1780E1D902CA000F1CF
:10550000040C9CE81E1080698EE81E1023901DA8D4
:10551000002101F0D7FE4CF27806C2F201062B49B9
:1055200030602AA0051D16913ECD80690DF15C0CFE
:105530008CE83E001C9016A8002101F0C3FE2A4909
:10554000706029A0051D0F912ECDD0E905400DF109
:10555000400C8CE82E00CDE914400FA8002101F08A
:10556000B1FE2849B06027A0051D08912ECDD0E9D5
:1055700005400DF1240C8CE82E00CDE90D4008A863
:10558000002101F09FFE2649F06025A0051D019134
:105590002ECDD0E905400DF1080C8CE82E00CDE9A8
:1055A000064001A8002101F08DFE306124B070BDDD
:1055B000258B0008D5640008FEFF000000000000F5
:1055C000000200000000000000000000008B000846
:1055D000BD5E0008020000000000000000040000A2
:1055E0000000000000000000088B0008795D000842
:1055F000FFFF00000000000080000000000000002D
:10560000000000001B8B00082D5F00080100000057
:105610000000000000020000000000000000000088
:10562000118B0008F95D0008030000000000000075
:105630000001000000000000000000002DE9F04320
:1056400087B0002743F630000697CDE90477CDE90F
:1056500002770197C4F202000168002541F00201BF
:1056600001600168C4F2020501F002010191019993
:1056700001970168012241F00101016001684FF0CA
:10568000100801F0010101910199019701680126BB
:1056900041F008010160016801F0080101910199E0
:1056A0000197016841F004010160016801F0040103
:1056B000019101990197016841F080010160006842
:1056C000102100F08000019001982846FDF782FA31
:1056D00005F58064204601210122FDF77BFACDE922
:1056E00002860DF108084FF002092846414604964B
:1056F000CDF81490FDF79EF9302002904FF48810F9
:10570000CDE9030705F500604146FDF793F9204612
:105710004146CDE90266CDE90469FDF78BF907B092
:10572000BDE8F083B0B540F2D03043F20001C2F2E0
:105730000000C4F201014FF48272002380E80E00E1
:1057400000F10C014FF0020C4FF0010E4FF4007409
:10575000382581E808500A21C0E90645C0E9083328
:10576000C0E90A31FDF740FE002808BFB0BDBDE822
:10577000B040FBF7C7BE0000B0B594B040F60005DE
:105780004CF21C20C4F200050021C2F20100532299
:10579000F9230D91CDE90B110991CDE90711CDE95F
:1057A0000511CDE90311CDE90111C0E90052C0E9AD
:1057B000021301618161FEF709F9002818BFFBF7A8
:1057C000A1FE4FF480500A904CF21C20C2F201005E
:1057D0000AA9FEF7B9F9002818BFFBF793FE4CF2AF
:1057E0001C20C2F20100FEF73BFC002818BFFBF7AB
:1057F00089FE4CF21C200024C2F2010008A9CDE968
:105800000844FEF785F8002818BFFBF77BFE6020F0
:1058100001907D20CDE9020405944CF21C24C2F2D3
:10582000010401A920460822FEF70AFB002818BF40
:10583000FBF768FE21680020A9421390CDE9110012
:1058400010900F9002D014B0B0BD00BF43F63001ED
:105850000E90C4F202010A6842F008020A60096868
:1058600001F008010E910E994FF480410F91022131
:10587000CDE91010CDE9120105F501300FA9FDF7B2
:10588000D9F814B0B0BD000080B582B04CF26420ED
:1058900041F200020021C2F20100C4F200025323CF
:1058A00040F2CF7CCDE90011C0E90023C0E9021C21
:1058B0008161FEF78BF8002818BFFBF723FE4CF23E
:1058C0006420C2F201006946FEF722F8002818BFE2
:1058D000FBF718FE02B080BD10B540F2284044F638
:1058E000000C48F2A062C2F20000C4F2000CC0F248
:1058F00001024FF4805300214FF4806E0C24C0E964
:1059000000C2C0E90231C0E904E4C0E90611FFF7B2
:105910009FF9002808BF10BDBDE81040FBF7F2BD9D
:10592000FEE7000040F25000C2F2000001780029BA
:1059300018BF704748F63032C2F201024FF40171CD
:1059400040F2032391820021938540F2022C40F221
:10595000012311611180C2E9011111739162118358
:10596000C2E9071182F82410A2F844C0116411861C
:10597000C2E90D1182F83C10A2F85C309165A2F8E2
:105980004810C2E9131182F8541040F20522416117
:105990008180C0E902110174C1628183C0E90811EC
:1059A00080F82810A0F848204164818680F84010D3
:1059B000C0E90E1140F20622C165A0F84C1080F833
:1059C0005810C0E9141101210383A0F830C0A0F8D9
:1059D00060200170704700002DE9F04182B048F668
:1059E0003030C2F2010090ED041A9FEDC10A818AA5
:1059F000B4EE401A0022F1EE10FA019200920ADC95
:105A00009FEDBC2AB0EE410AB4EE421AF1EE10FA54
:105A1000B8BFB0EE420A0139C9B203290ED89FEDD2
:105A2000B61A6F4620EE010ABDEEC00A10EE102A2B
:105A3000130A07EB410607F81130727090ED0A1A4D
:105A40009FEDAB0A818DB4EE401AF1EE10FA0ADC3C
:105A50009FEDA82AB0EE410AB4EE421AF1EE10FA18
:105A6000B8BFB0EE420A0139C9B203290ED89FED82
:105A7000A21A6F4620EE010ABDEEC00A10EE102AEF
:105A8000130A07EB410607F81130727090ED101AF7
:105A90009FED970AB0F84410B4EE401AF1EE10FAF8
:105AA0000ADC9FED942AB0EE410AB4EE421AF1EE00
:105AB00010FAB8BFB0EE420A0139C9B203290ED8B4
:105AC0009FED8D1A6F4620EE010ABDEEC00A10EE62
:105AD000102A130A07EB410607F81130727090ED97
