:020000040800F2
:10000000604B002055020008795C0008A13C000804
:10001000BD4600081D0A0008116700080000000026
:10002000000000000000000000000000815E0008E9
:10003000090D000800000000815C0008A55E0008B2
:100040006F0200086F0200086F0200086F020008CC
:100050006F0200086F0200086F0200086F020008BC
:100060006F0200086F0200086F0200086F020008AC
:10007000E50C00086F0200086F0200086F0200081C
:100080006F0200086F0200086F0200086F0200088C
:10009000D10A00086F0200086F0200086F02000812
:1000A0006F0200086F0200086F0200086F0200086C
:1000B0006F0200086F0200086F0200086F0200085C
:1000C0006F0200086F0200086F0200086F0200084C
:1000D0006F0200086F0200086F020008C96500087F
:1000E0006F0200086F0200086F0200086F0200082C
:1000F0006F0200086F0200086F0200086F0200081C
:100100006F0200086F0200086F0200086F0200080B
:100110006F0200086F020008995F00086F02000874
:10012000F10C00086F0200086F020008FD0C0008C7
:100130006F0200086F0200086F0200086F020008DB
:10014000DD0A00086F0200086F0200086F02000855
:100150006F0200086F0200086F0200086F020008BB
:100160006F0200086F0200086F0200086F020008AB
:100170006F0200086F0200086F0200080000000014
:100180006F0200086F02000800F002F800F052F859
:1001900014A696E8000CB244B344DA4501D100F04D
:1001A00049F8BAE80F000FA696E83000A5EB040561
:1001B00004EB0607AAEB0704A7F101074FEA1515A0
:1001C0004FEA3414A4F10104AC4201D300F032F838
:1001D00013F0010F18BFFB1A43F0010300F001F800
:1001E000DBE718473095000050950000103A24BF17
:1001F00078C878C1FAD8520724BF30C830C144BF8C
:1002000004680C6070470000704700000023002461
:1002100000250026103A28BF78C1FBD8520728BF16
:1002200030C148BF0B6070471FB509F00CFA1FBD05
:1002300010B510BD00F062F91146FFF7F5FF06F0AA
:1002400097FC00F080F903B4FFF7F2FF03BC00F065
:1002500083F900000948804709480047FEE7FEE7A8
:10026000FEE7FEE7FEE7FEE7FEE7FEE7FEE7FEE766
:1002700004480549054A064B70470000855F0008A1
:100280008901000860450020604B00206047002085
:100290006047002053EA020C00F069802DE9F04B22
:1002A0004FF00006002B1FBFB3FA83F503FA05F4E5
:1002B00024FA05F65E4012BF1643B2FA82F502FA3E
:1002C00005F4C5F120051EBF22FA05FC44EA0C0422
:1002D000203556EA044C4FEA144418BF641C4FF012
:1002E00000084FF00009904271EB030C39D300294C
:1002F00019BFB1FA81F701FA07F6B0FA80F700FAF0
:1003000007F6C7F120071EBF20FA07FC46EA0C06D5
:100310002037B6FBF4FCA7EB0507103F07F01F0BD7
:10032000CBF120062CFA06F60CFA0BFB44BFB346C1
:100330000026202FA4BF5E464FF0000B5BEA060CA0
:1003400008BF4FF0010B19EB0B0948EB0608ABFB9C
:10035000027C06FB02CC0BFB03CCC01B71EB0C0137
:10036000C1E70B46024641464846BDE8F08B13B54F
:10037000084318BF4FF0FF300146AFF30080BDE8DF
:100380001C407047032A40F2308010F0030C00F04C
:10039000158011F8013BBCF1020F624498BF11F8BF
:1003A00001CB00F8013B38BF11F8013BA2F1040278
:1003B00098BF00F801CB38BF00F8013B11F00303F0
:1003C00000F06280083AC0F0088051F8043B083A17
:1003D00051F804CBA0E80810F5E7121D5CBF51F8F6
:1003E000043B40F8043BAFF30080D20724BF11F870
:1003F000013B11F801CB48BF11F8012B24BF00F8D5
:10040000013B00F801CB48BF00F8012B704702F018
:10041000FF0343EA032242EA024200F002B84FF02F
:10042000000200B5134694469646203922BFA0E844
:100430000C50A0E80C50B1F12001BFF4F7AF090750
:1004400028BFA0E80C5048BF0CC05DF804EB890041
:1004500028BF40F8042B08BF704748BF20F8022B84
:1004600011F0804F18BF00F8012B7047704770479C
:10047000704710B500F03AF8006810BD10B504469A
:1004800000F034F8046010BD10B5203AC0F00B80C5
:10049000B1E81850A0E81850B1E81850A0E818507A
:1004A000203ABFF4F5AF5FEA027C24BFB1E81850F0
:1004B000A0E8185044BF18C918C0BDE810405FEA52
:1004C000827C24BF51F8043B40F8043B08BF7047CE
:1004D000D20728BF31F8023B48BF11F8012B28BFD3
:1004E00020F8023B48BF00F8012B704700487047D6
:1004F0007000002000487047700000207546FFF72C
:10050000F9FFAE4605006946534620F007008546D0
:1005100018B020B5FFF7ACFEBDE820404FF0000654
:100520004FF000074FF000084FF0000BAC46ACE86E
:10053000C009ACE8C009ACE8C009ACE8C00921F0CA
:1005400007018D46704710B50446AFF30080204682
:10055000BDE81040FFF777BE01491820ABBEFEE7AB
:10056000260002007047000010B540F22450C2F28D
:10057000000002F0D7FA002818BF00F0C7FB49F2CC
:10058000C060C0F60000002106F026FB40F2D00457
:10059000C2F20004206049F2AC60C0F60000002105
:1005A00006F01AFB21686060002918BF002803D1FB
:1005B000BDE8104000F0AABB10BD00000020C4F24E
:1005C00002001021012201F0A7BB00000020C4F2AC
:1005D00002001021002201F09FBB000070470000C4
:1005E00040F20040C4F202000121012201F094BB5C
:1005F00040F20040C4F202000121002201F08CBB55
:1006000070470000002808BF7047B0B54EF21801CF
:1006100049F24002CEF2000110F0030CC0F20202D7
:1006200022D051F804EC0C68002307E023445B1B44
:10063000A54228BF734493422C460DD20D68A542B3
:10064000F4D10D68A542F1D10D68A542EED10D6837
:10065000A542F3D0EAE700BFBCF1010F08D1A0F139
:10066000010C042851D247E0844604284DD243E0CF
:1006700051F804EC0C68002308E000BF23445B1B26
:10068000A54228BF734493422C460DD20D68A54263
:10069000F4D10D68A542F1D10D68A542EED10D68E7
:1006A000A542F3D0EAE700BFBCF1020F04D1A0F1EC
:1006B000020C042829D21FE051F804CC0D68002355
:1006C00008E000BF2B441B1BAC4228BF634493428D
:1006D00025460DD20C68AC42F4D10C68AC42F1D185
:1006E0000C68AC42EED10C68AC42F3D0EAE700BF34
:1006F000A0F1030C042808D2BDE8B040704700BF49
:10070000ACF1040C5FEA0C40F6D051F8040C0D6813
:10071000002307E02B441B1BAC4228BF0344934239
:1007200025460DD20C68AC42F4D10C68AC42F1D134
:100730000C68AC42EED10C68AC42F3D0EAE700BFE3
:1007400051F8040C0D68002308E000BF2B441B1B6C
:10075000AC4228BF0344934225460DD20C68AC42FC
:10076000F4D10C68AC42F1D10C68AC42EED10C680B
:10077000AC42F3D0EAE700BF51F8040C0D68002347
:1007800008E000BF2B441B1BAC4228BF034493422C
:1007900025460DD20C68AC42F4D10C68AC42F1D1C4
:1007A0000C68AC42EED10C68AC42F3D0EAE700BF73
:1007B00051F8040C0D6800230AE000BF2B441B1BFA
:1007C000AC4228BF034493422546BFF499AF00BF13
:1007D0000C68AC42F2D10C68AC42EFD10C68AC4270
:1007E000ECD10C68AC42F3D0E8E7000080B54EF2E3
:1007F0001801CEF20001A82251F804CC00FB02FE41
:10080000086800230AE000BF03449B1A824228BF05
:1008100063447345104628BF80BD00BF0A6882420A
:10082000F2D10A688242EFD10A688242ECD10A68AA
:100830008242F3D0E8E7000010B5FFF7CFFEFFF7E4
:10084000DFFE05F067FF044606F08AF8204310BD7E
:100850002DE9F04F83B002920E460190FFF7B6FEED
:10086000922000F0C3F8922000F0C0F8552000F06C
:10087000BDF88046552000F0B9F80546552000F037
:10088000B5F88246552000F0B1F80446552000F036
:10089000ADF88346552000F0A9F80746FFF78EFE15
:1008A00048EA052040F2000900B2C2F2000900EE59
:1008B000100A99ED001AB8EEC00A4AEA042021EEA7
:1008C000000A00B286ED000A00EE100A4BEA07208B
:1008D00000B299ED001A02EE100AB8EEC00AB8EEA6
:1008E000C22A21EE000A21EE021A86ED010A86EDE7
:1008F000021AFFF77DFE802000F078F8552000F006
:1009000075F80646552000F071F8552000F06EF895
:100910008246552000F06AF80546552000F066F83A
:100920008346552000F062F80446552000F05EF83A
:100930000746552000F05AF88046FFF751FE0F2E6B
:1009400025D14AEA052000B200EE100A99ED011AFD
:10095000B8EEC00A01994BEA042021EE000A00B269
:1009600081ED000A00EE100A47EA082000B299ED76
:10097000011A02EE100AB8EEC00AB8EEC22A21EE41
:10098000000A21EE021A81ED010A81ED021AFFF739
:100990001DFEA22000F02AF8A22000F027F8552022
:1009A00000F024F8044646B2552000F01FF8054632
:1009B000FFF704FEE00040EA55104FF60001CFF6C5
:1009C000FF71002E48BF084300EE100AB8EEC00ABF
:1009D000B4EE001A20EE010AB3EE071A029830EEC8
:1009E000010A80ED000A03B0BDE8F08F80B582B047
:1009F0008DF8070040F284404FF47A7CC2F2000088
:100A00000DF107010DF106020123CDF800C001F040
:100A10001FFE9DF8060002B080BD0000FEE700004A
:100A200080B540F2DC40C2F2000001680022CA63D7
:100A3000082102F0CFFA002808BF80BDBDE8804041
:100A400000F064B940F29410C2F20000012101707C
:100A500040F2DC41C2F20001096832224280C86AD9
:100A600001304008C863704740F29410C2F20000A1
:100A7000017861B3428822B1013A1304428018BF61
:100A8000704702290CD0012918D1022101702821B8
:100A9000418040F2DC40C2F200000168002215E013
:100AA0000321017040F2DC41C2F2000109683222E8
:100AB0004280C86A0130420808E000BF40F2DC41D1
:100AC000C2F200010968002202704280CA637047C6
:100AD00040F21430C2F2000000F0EEBA40F23C30B6
:100AE000C2F2000000F0E8BA10B58AB00020CDE9EB
:100AF0000500CDE90000CDE9020004900E2001219F
:100B0000099040F21430CDE90711C2F200006946A5
:100B100000F0AEF940F23414C2F2000410B1E088E3
:100B20000130E08040F21430C2F2000000F0A6FD77
:100B300010B1E0880130E08040F21430C2F20000D1
:100B400000F0A6FA10B9E0880130E08040F21430DD
:100B5000C2F20000022100F021F910B1E08801305A
:100B6000E0800E20059040F23C30C2F20000694661
:100B700000F07EF910B1E0880130E08040F23C30B6
:100B8000C2F2000000F07AFD10B1E0880130E08090
:100B900040F23C30C2F2000000F07AFA10B9E0886E
:100BA0000130E08040F23C30C2F20000022100F04F
:100BB000F5F810B1E0880130E08004F019FB0AB0CC
:100BC00010BD000010B588B004460020CDE9010139
:100BD0000821CDE9040006918DF81C0002A901ABA3
:100BE000204600F0F3F8A8B1206840F23411C2F2B8
:100BF000000180698A8840F21433C2F200039C42EB
:100C000002F101028A8007D040F23C32C2F20002B7
:100C1000944209D008B010BD01F1020E01F1100C90
:100C200001F1080407E000BF01F1030E01F1140C0B
:100C300001F10A040131C0F302122388CCF800004C
:100C40000A7001209EF80010904001330843238071
:100C50008EF8000008B010BD642005F0AFFFFBE780
:100C6000B0B5054600889FED1E1A00BA000C08803A
:100C700068880C46C0BA00EE100AB8EEC00A80EED2
:100C8000010A30EE000A10EE100A08F06BFC9FED2E
:100C9000100B53EC102B08F067FB9FED0F0B53EC80
:100CA000102B08F005FA08F0D1F96060688800BAE6
:100CB000000C2081A88800BA000C6081A8792073FC
:100CC0000020E084012084F82800B0BD00BF00BFF0
:100CD000182D4454FB210940000000608FC22D40B4
:100CE0000000704240F22440C2F2000000F05EBDFD
:100CF00040F26430C2F2000000F058BD40F2C4304F
:100D0000C2F2000000F052BD7047000072B600BF92
:100D1000FEE7000000000000B0B5054600889FED2A
:100D20001E1A00BA000C088068880C46C0BA00EE93
:100D3000100AB8EEC00A80EE010A30EE000A10EE8A
:100D4000100A08F00FFC9FED100B53EC102B08F06D
:100D50000BFB9FED0F0B53EC102B08F0A9F908F0DB
:100D600075F96060688800BA000C2081A88800BA14
:100D7000000C6081A87920730020E084012084F8B1
:100D80002800B0BD00BF00BF182D4454FB2109400E
:100D9000000000608FC22D400000704290F82020BB
:100DA000013A012A08D8006800F1140200201368F3
:100DB00019431160704700BF00F1240201204FF475
:100DC00080211368194311607047000010B590F836
:100DD00020E0D0F800C0AEF1010EBEF1010FDCF84A
:100DE00008E011D81EF0E05F18D0CEF301640120B6
:100DF000A04018608B68DBB1D1F804E0C86840EA15
:100E0000CE0040EA030E17E000F1240301204FF466
:100E100080211A681143196010BD00BF00F124033E
:100E200001204FF400111A681143196010BD00BF72
:100E30000868CB6843EA405E0CF5C07000EB041311
:100E4000240140F804E00C69184640F8044F097D7D
:100E5000012903D1016841F48071016050680121CA
:100E6000D8601068986000201A681143196010BD9E
:100E700090F82020013A012A30D8B0B546F200603F
:100E8000C4F20000026842F001020260026822F42B
:100E90007C520260D1F814E0CC694A6A0368012CE4
:100EA00043EA022202600EF01F024FF0010303FA30
:100EB00002F2C3696FEA020C23EA0203C36113D092
:100EC0002CBBC36803EA0C03C360CB688C8844EA7C
:100ED000034300EBCE0423640B4611E0416A41F466
:100EE0008021416201207047C3681343C3600B68CF
:100EF0008C8844EA034300EBCE04236401F10C0325
:100F00008C681B8843EA044300EBCE0463644368A7
:100F10008D6943EA0204D1F810E0096A002D08BF88
:100F200003EA0C0444604369BEF1000F43EA020483
:100F300008BF03EA0C040129446102D1C1691143CD
:100F4000C161016821F0010101600020B0BD000015
:100F500040F23410C2F20000C1880131C1807047F4
:100F6000B0B590F82040013C012C7DD8D0F800C0ED
:100F700000290CBFDCF80C40DCF81040A4077DD041
:100F80000CF5D8754FEA011C55F80C4014F0040418
:100F9000946055F80CE005EB011C19BF4FEADE0523
:100FA00055604FEA5E551560DCF80050E64605F0E6
:100FB0000205D5605EF8044F24075ABFDEF80040F2
:100FC00004F00F0408241461DEF800400029C4F383
:100FD00007249461DEF800504FEA15455561DCF8AE
:100FE00008201A70026802EB0112D2F8B8214FEA09
:100FF00012225A70026802EB0112D2F8B8214FEAAD
:1010000012429A70026802EB0112D2F8B8214FEA3C
:101010001262DA70026802EB0112D2F8BC211A7176
:10102000026802EB0112D2F8BC214FEA12225A7177
:10103000026802EB0112D2F8BC214FEA12429A7107
:10104000026802EB0112D2F8BC214FEA1262DA7197
:1010500000680CBF00F10C0100F1100100202022FB
:101060000B681A430A60B0BD00F1240101204FF45F
:1010700080220B681A430A60B0BD00BF00F1240152
:1010800001204FF400120B681A430A60B0BD000043
:1010900090F820100139012984BF002070470068B2
:1010A000816882688068C1F38061C2F3C0621144C4
:1010B000C0F30070084470472DE9F04F81B004463A
:1010C00000684669D0F804908768D0F80CB0D0F872
:1010D00010A0D0F81880F10704D1002530071DD4E6
:1010E00024E000BFF90710D00121BA07816009D4BC
:1010F000780700F1AF80380700F1B680204600F095
:10110000EBFA02E0204600F0E9FA0025F80500F1CC
:101110008780F80300F1B180300707D51BF010007D
:1011200004D0206845F400751021C160700708D50F
:101130001BF0080005D020680821C160204600F09F
:10114000F5F9B00706D52068C068800702D02046B0
:1011500000F0EEF9700607D51AF0100004D02068F0
:1011600045F4806510210161B00608D51AF0080029
:1011700005D0206808210161204600F079FAF006C8
:1011800006D520680069800702D0204600F072FA78
:10119000B00308D519F0100005D020681021416077
:1011A000204600F069FAF00308D519F0080005D0D0
:1011B000206808214160204600F09AFA300440F18E
:1011C0009B805FEA497040F1948006F4807008EAE1
:1011D000102028435FEA8871014648BF41F00201B0
:1011E000B20558BF01465FEA48700D4648BF45F05A
:1011F0000405700558BF0D46300540F17A8018F09F
:10120000700000F076801038000905286CD8DFE8FF
:1012100000F003655D61596945F0080564E000BFB1
:1012200020684FF48071BA0581600BD4780515D41D
:1012300038051DD4204600F053FAF8037FF56CAF53
:101240001BE000BF204600F04DFAF8037FF564AFC5
:1012500013E000BF4FF4006558E700BF05F50055E7
:10126000F8037FF559AF08E04FF480554EE700BF13
:1012700005F58045F8037FF54FAF20684FF48031C6
:10128000BA0381600AD4780310D4380314D42046FA
:1012900000F02AFA30073FF541AF47E7204600F05B
:1012A00025FA30073FF53AAF40E700BF05F50045A6
:1012B00030073FF533AF39E705F5803530073FF5A7
:1012C0002DAF33E745F080050EE000BF45F0200567
:1012D0000AE000BF45F0400506E000BF45F01005FC
:1012E00002E000BF45F480752068816921F070013B
:1012F000816120680421416055B1606A40EA0501BE
:101300002046616201B0BDE8F04FFFF721BE00BF8B
:1013100001B0BDE8F08F0000002804BF0120704735
:10132000B0B5044690F8200010B9204600F06EF8E1
:101330002068016841F00101016000F0F3FC0546FE
:1013400020684168C90705D100F0ECFC401B0B2860
:10135000F6D310E0016821F00201016000F0E2FC28
:10136000054600BF2068416889070DD500F0DAFC0A
:10137000401B0B28F6D3606A052140F40030606200
:10138000012084F82010B0BD217E0268012922F0DE
:10139000800208BF80320260617E0268012922F06B
:1013A000400208BF40320260A17E0268012922F09B
:1013B000200208BF20320260E17E0268012922F08B
:1013C000100218BF10320260217F0268012922F04A
:1013D000080208BF08320260617F0268012922F01A
:1013E000040208BF04320260D4E901C2D4E9033523
:1013F00061691A432A431143ACF101021143C161EF
:1014000000200121606284F82010B0BD10B586B0C4
:10141000006846F60002C4F2000200219042CDE9C5
:101420000411CDE90211019134D046F20041C4F219
:101430000001884277D140F2A021C2F200010A687F
:1014400043F64000C4F20200531C0B6052B9002165
:101450000091016841F000710160016801F00071C4
:10146000009100990021009150F8101C142441F0C3
:10147000080140F8101C50F8100C032100F008007F
:101480000090009840F20040C4F2020000F50060B5
:1014900035E000BF43F64000C4F20200009101684D
:1014A00041F080610160016801F080610091009964
:1014B00040F2A021C2F200010A68531C0B6052B92D
:1014C00000210091016841F000710160016801F0A4
:1014D0000071009100990021009150F8101C4024E7
:1014E00041F0020140F8101C50F8100C602100F08F
:1014F00002000090009840F20040C4F20200019106
:1015000002210291002103910321049109210591F7
:1015100001A900F031FB20460021002200F084FCEC
:10152000204600F06FFC06B010BD000070470000C0
:1015300010B58AB003AA01AB00210446FFF710FDE5
:1015400040B140F23410C2F20000C1880131C180C4
:101550000AB010BD40F21430C2F20000844227D01D
:1015600040F23C30C2F200008442F1D140F234102B
:10157000C2F20000C189DDE9052301311A43C181AE
:10158000E6D1039840F20621884265D040F202215C
:10159000884255D040F201218842D9D140F2DC0185
:1015A000C2F2000101A8FFF75BFB0AB010BD00BF4B
:1015B00040F23410C2F200008189DDE905230131D7
:1015C0001A438181C4D10398A0F201200428BFD816
:1015D000DFE800F0042A1A20100000BF44F2704037
:1015E000C2F2000000F1840101A8FFF739FB0AB044
:1015F00010BD00BF40F2B021C2F2000101A8FFF708
:101600008BFB0AB010BD00BF44F27040C2F2000074
:101610001AE000BF44F27041C2F2000101A8FFF7D6
:101620001FFB0AB010BD00BF44F27040C2F20000C0
:1016300000F1580101A8FFF713FB0AB010BD00BF6D
:1016400040F2DC00C2F2000000F12C0101A8FFF71B
:1016500007FB0AB010BD00BF40F2B020C2F200008C
:1016600000F12C0101A8FFF757FB0AB010BD0000E4
:10167000704700007047000070470000B0B5044696
:1016800090F8200001281DD1022084F82000206855
:10169000016821F00101016000F044FB054600BF34
:1016A00020684068C00713D000F03CFB401B0B28AB
:1016B000F6D3606A40F400306062052084F82000B0
:1016C0000120B0BD606A40F4002060620120B0BD1E
:1016D00000206062B0BD000070470000704700004D
:1016E000704700007047000070470000704700001E
:1016F0007047000070B5866D044600F013FB94F847
:101700003510022928D105462068216C026822F094
:1017100016020260426922F08002426109B9A16C9E
:1017200019B1016821F008010160016821F001018F
:10173000016000BF20680068C00715D000F0F2FA11
:10174000401B0628F6D320206065032084F835006E
:10175000002184F8341070BD8020606501200021D4
:1017600084F8341070BD00BFE06D3F2101FA00F035
:10177000B060012084F835000020002184F8341086
:1017800070BD000090F83510022909D1052180F8BC
:1017900035100068016821F00101016000207047E8
:1017A0008021416501207047406D7047F0B581B0E0
:1017B0000021009140F26401C2F200010B68D0E9FF
:1017C000166148F2B51537680822C1F64E358A40D1
:1017D0003A42A3FB05350CD003681C68640708D5A2
:1017E0001C6824F004041C60B260426D42F00102E7
:1017F000426501228A403A4208D003685B691B06B1
:1018000004D5B260426D42F00202426504228A4071
:101810003A4208D003681B689B0704D5B260426D4A
:1018200042F00402426510228A403A4219D001680F
:101830000B681B0715D5B2600B680A685B0309D4F7
:10184000D20509D40A6822F008020A60016C29B99D
:1018500007E000BF110341D4016C11B10446884771
:101860002046C26D202101FA02F33B4243D00168B9
:101870000F68FF063FD5B36090F835700B68052FF1
:101880001CD123F016030B604B6923F080034B61DE
:10189000036C0BB9836C1BB10B6823F008030B605E
:1018A0003F219140B160012180F83510016D002287
:1018B000002980F8342054D158E000BF0A685B0347
:1018C00010D4D20512D40A6822F010020A60012155
:1018D00080F83510002180F8341007E0816C002971
:1018E000BCD1BEE7110301D4416C00E0C16B11B162
:1018F000044688472046416DC1B3416DC9072ED0CB
:10190000052180F835100168AA0A0B6823F001034D
:101910000B60009B0133934200931AD80B68DB07DE
:1019200017D0009B01339342009312D80B68DB075A
:101930000FD0009B0133934200930AD80B68DB075A
:1019400007D0009B01339342009302D80B68DB075A
:10195000DFD1012180F83510002180F83410C16CEE
:1019600021B101B0BDE8F040084700BF01B0F0BDB3
:101970002DE9F041044600F0D5F9ECB1054602200E
:1019800084F835000020216884F83400086820F0CD
:101990000100086021680868C00711D000F0C2F992
:1019A000401B0528F6D9032520230320636584F80E
:1019B0003550BDE8F08100BF0120BDE8F08100BFD7
:1019C000086848F23F02CFF21002D4E9013500EA7C
:1019D000020C04F10C0898E8C10143EA0C032B4304
:1019E0001843D4E9072E304338431043626A40EA73
:1019F0000E00042A40EA08031CD1206BD4E90A2E09
:101A000040EA0E00184308604869BEF1000F20F05C
:101A1000030040EA020040F0040C11D0B8F5005F6A
:101A200036D0B8F1000F45D1022A46D0012A3BD06A
:101A300032B942E00B60486920F0070040EA020C2E
:101A400001F0F8004AF6AB221038CAF6AA22A0FB31
:101A500002231A0949F2A463C1F814C0C0F60003B6
:101A60009A5C40F2FF335F284FF03F0021EA030108
:101A700000FA02F088BF0431C4E91612886000231E
:101A800001250020636584F83550BDE8F08100BF72
:101A9000032AD5D8012540230120DFE802F0030EF8
:101AA000030500BF82E700BFAEF1C070B0FA80F05E
:101AB000400904E0032A04D3C2D1CEF30060002819
:101AC000BED0012540230120636584F83550BDE870
:101AD000F081000090F834C0BCF1010F04BF022077
:101AE000704770B54FF0010C80F834C0D0F858E062
:101AF00090F835C0BCF1010F38D14FF0020C80F8DE
:101B000035C04FF0000CC0F854C0D0F800C0846855
:101B1000056CC06DDCF80060402C26F48026CCF803
:101B20000060CCF804300B4604BF13460A463F2140
:101B300001FA00F0CCF80830CCF80C20CEF8080000
:101B4000DCF8000040F01600CCF800002DB1DCF805
:101B5000000040F00800CCF80000DCF8000040F085
:101B60000100CCF80000002070BD00BF002180F80B
:101B70003410022070BD00002DE9F04F83B000F159
:101B8000200200F13E4741F60045009207F1FF7741
:101B9000C4F2020508224FEAB726A84208BF07226E
:101BA00000254FF000084FF00009072E38BF4FEA1C
:101BB000B72201920AE000BF09F1010908F1020809
:101BC000B9F1100F05F1040500F0A2800F680122A1
:101BD00002FA09FE17EA0E0AEED0D1F804C0032279
:101BE0000CF003077E1E02FA08F4012E6FEA040BC4
:101BF00012D88468CE6804EA0B0406FA08F6344367
:101C00008460446824EA0E06CCF3001404FA09F454
:101C10002643466004E000BF032F01D103271EE0E6
:101C2000C6688C6806EA0B0604FA08F42643022FFD
:101C3000C66014D16FF00302009E02EA590756F8FD
:101C400007C005F01C040F220B69A2402CEA020217
:101C5000A3401A43F251D1F804C00CF00307026804
:101C600007FA08F302EA0B021A431CF4403F026031
:101C7000A2D0002243F644030292C4F202031A687F
:101C800043F6004442F480421A601A68C4F2010428
:101C900002F480420292029A29F003024FF6084CA5
:101CA0002244CFF6FF7C52F80C3005F00C070F26CB
:101CB000BE40B343019E06FA07F73B4342F80C309F
:101CC000A2684B6842EA0A0743F60C4CDE0258BF92
:101CD00022EA0A07A760C4F2010CDCF800209E0289
:101CE00042EA0A0758BF22EA0A07CCF80070626885
:101CF0009E0342EA0A0758BF22EA0A076760226881
:101D0000DB0342EA0A0758BF22EA0A07276053E7C3
:101D100003B0BDE8F08F0000002A08BF090481610C
:101D20007047000044F26C40C2F200000068704747
:101D300040F2080044F26C41C2F20000C2F200011D
:101D400000780A68104408607047000080B543F6C8
:101D50000040C4F20200016841F4007101600168B2
:101D600041F480610160016841F4807101600320E9
:101D700000F086F80F2000F005F800F027F80020AA
:101D800080BD000070B540F20806C2F2000640F2C5
:101D900064013278C2F200014FF47A730968B3FB30
:101DA000F2F20446B1FBF2F1084600F0F1FD0F2C0F
:101DB0004FF0010508D838B94FF0FF302146002216
:101DC000002500F031F87460284670BD82B0002014
:101DD00043F640010190C4F202014A6842F4804295
:101DE0004A604A6802F480420192019A00900868B1
:101DF00040F080500860086800F080500090009823
:101E000002B07047002848BF704700F01F01012250
:101E100002FA01F11C2202EAD0004EF20012CEF2C8
:101E2000000281507047000010B54EF60C5CCEF2F7
:101E3000000CDCF80030C3F3022E8EF00704042CF3
:101E400028BF0424BEF103034FF0FF3E0EFA04F452
:101E500038BF0023A14399400EFA03F39A4311437C
:101E600000F00F0200F160430901043A03F56443F6
:101E70006244002848BF02F10C03197010BD000035
:101E80004EF60C51CEF200010A684FF6FF031A40DD
:101E900060F30A2242F0806040F0FD7008607047F5
:101EA000002804BF012070472DE9F04143F60808DF
:101EB000C4F202080446D8F8F8030D4600F0070003
:101EC000814207D988F8F853D8F8F80300F00700E2
:101ED000A84277D12068810717D5410705D5D8F8E2
:101EE000001041F4E051C8F80010010705D5D8F8FA
:101EF000001041F46041C8F80010D8F80010A26842
:101F000021F0F0011143C8F80010C00740D1D8F803
:101F1000F80300F00700854207D288F8F853D8F894
:101F2000F80300F00700A8424CD12068410707D50C
:101F3000D8F80010E26821F4E0511143C8F800100D
:101F4000000708D5D8F80000216920F4604040EA75
:101F5000C100C8F8000000F07DF8D8F8001049F280
:101F60008C62C1F30311C0F60002515C40F26402BE
:101F700020FA01F140F20C00C2F200000068C2F247
:101F800000021160FFF7FEFE0020BDE8F08100BFF7
:101F90006068811E022907D258F8081C89015CBFBD
:101FA0000120BDE8F08111E0012807D158F8081C94
:101FB00089035CBF0120BDE8F08107E058F8081CE8
:101FC000890703D40120BDE8F08100BFD8F80010D4
:101FD00021F003010843C8F80000FFF7A3FE0646FE
:101FE00041F28837D8F80000616800F00C00B0EBCF
:101FF000810F8CD0FFF796FE801BB842F2D90320E8
:10200000BDE8F08140F2640043F60801C2F200002E
:10201000C4F202010068096849F29C62C1F382219E
:10202000C0F60002515CC8407047000040F26400F6
:1020300043F60801C2F20000C4F202010068096818
:1020400049F29C62C1F34231C0F60002515CC840C3
:102050007047000010B543F60404C4F2020461683E
:10206000C1F3810142F20040C0F2F400DFE801F068
:1020700002040A0210BD00BF41F60030C0F2B700F2
:1020800010BD00BF206821682368490241F6003175
:10209000C0F2B70100F03F02C3F388105CBF42F208
:1020A0000041C0F2F401A1FB00010023FEF7F2F8A9
:1020B00021680222C1F3014102EB4101B0FBF1F0C2
:1020C00010BD0000002804BF012070472DE9F04139
:1020D00082B00446007843F60006C007C4F2020648
:1020E0000CD0B06800F00C00042840F0818030680B
:1020F000800303D56068002800F06881207880079D
:102100001BD5B06810F00C0F09D0B06800F00C00BF
:10211000082840F087807068400200F183803068B2
:10212000800703D5E068012840F0508130682169BC
:1021300020F0F80040EAC10030602078000713D496
:10214000207840072AD4A569002D00F03A81B068B4
:1021500000F00C00082840F0A580012D40F00E8111
:10216000012002B0BDE8F0816069002800F08280A3
:102170000020C4F247200121C0F8801EFFF7D2FDE5
:10218000054600BF706F8007DAD4FFF7CBFD401B18
:102190000228F7D9032002B0BDE8F081306C5FEA75
:1021A000C0080AD400200190306C40F080503064A8
:1021B000306C00F080500190019847F20007C4F2A3
:1021C00000073868C00547D4386840F4807038602C
:1021D000FFF7A8FD054600BF3868C0053CD4FFF7EF
:1021E000A1FD401B0228F7D9032002B0BDE8F08111
:1021F000B06800F00C00082803D1706840023FF579
:1022000076AF61683068B1F5803F07D0B1F5A02F97
:1022100040F09A8040F480203060306840F4803094
:1022200030609AE0E068002840F20000C4F24720E5
:102230005CD001210160FFF775FD0546306880071D
:102240003FF574AFFFF76EFD401B0228F6D903205F
:1022500002B0BDE8F08100BFA168306F012905D050
:10226000052955D140F004003067306F40F001007F
:10227000306756E00020C4F247200021C0F8801EDD
:10228000FFF750FD054600BF706F80077FF558AF20
:10229000FFF748FD401B0228F6D9032002B0BDE835
:1022A000F08100BF0027C4F2472700203866FFF7FF
:1022B00039FD022D05460DD13068800140F18A803C
:1022C000FFF730FD401B02284FF00300F4D902B0A5
:1022D000BDE8F0813068800173D5FFF723FD401B16
:1022E00002284FF00300F5D9F1E700BF002101609B
:1022F000FFF718FD054600BF306880077FF51DAF6A
:10230000FFF710FD401B02284FF00300F4D9DEE771
:1023100020F001003067306F002920F004003067A2
:102320007AD0FFF7FFFC054641F28837306F80070F
:1023300000F18480FFF7F6FC401BB842F6D9032079
:1023400002B0BDE8F08100BF20F48030306030681A
:10235000002920F4802030607AD0FFF7E3FC0546A6
:10236000306880033FF5CAAEFFF7DCFC401B6428F1
:10237000F6D9032002B0BDE8F08100BF7068E169C2
:1023800000F480028A4221D1216A00F03F028A4291
:102390001CD147F6C071626A0140B1EB821F15D1B2
:1023A000A16A4FF6FF73C903994300F44032A1F5C7
:1023B00080318A420AD1E16A00F07060B0EB016FAF
:1023C00004D1002002B0BDE8F08100BF012002B0BE
:1023D000BDE8F08104F11C052FCD084340EA8210CE
:1023E000D9034FF6FF729143A1F5803140EA0560B1
:1023F0000843706001203866FFF794FC044600BF74
:1024000030688001DDD4FFF78DFC001B02284FF0FF
:102410000300F5D95BE700BFFFF784FC054641F2F6
:10242000883700BF306F800708D5FFF77BFC401B63
:10243000B8424FF00300F5D949E700BFB8F1000FEB
:102440003FF581AE306C20F0805030647BE600BFF9
:10245000FFF768FC054600BF306880037FF54EAE8D
:10246000FFF760FC401B64284FF00300F4D92EE70F
:1024700070B528B1416A29B100210161142106E03B
:10248000012070BD4168B1F5827F02D01C2100227D
:1024900042500026866290F8511029B980F85060A9
:1024A000054600F03DF82846022180F8511090E8DA
:1024B0002E0002F482720C6803F4044324F04004FA
:1024C0000C601A4405F4006305691A4405F0020320
:1024D00045691A4405F001038569C4691A4405F485
:1024E00000731A4404F03803046A1A4404F08003A9
:1024F000846A1A4304F400531A430A60436A0422AC
:1025000002EA154203F010031A444A60CA6922F431
:102510000062CA610121466580F85110304670BDE5
:102520002DE9F04F87B0044643F200070068C4F27B
:1025300001070026B8420696CDE904660396029686
:1025400002D007B0BDE8F08F43F630000196C4F228
:102550000200416902AD41F480514161416946F296
:10256000104801F4805101910199019601684FF0E2
:10257000020941F00201016001684FF0030A01F015
:10258000020101910199019601684FF0050B41F09C
:10259000010101600068294600F0010001900198E6
:1025A0001820029007F55440C4F20208CDE90396C2
:1025B000CDF814A0CDF818B0FFF7DEFA8020CDE9F1
:1025C000020904A880E8400C07F550402946FFF7AF
:1025D000D3FA40F26435C2F200054FF440304FF0B8
:1025E000C0674FF48069C5E908062846C5E9008739
:1025F000C5E90266C5E90496C5E90666FFF7B8F9BC
:10260000002818BFFEF782FBE564AC6340F2C435D6
:1026100008F14800C2F200054021C5E9000705F1B4
:102620000800002280E806024FF40030C5E90802E5
:102630002846C5E90522EA61FFF79AF9002818BF84
:10264000FEF764FBA564AC6307B0BDE8F08F000043
:102650002DE9F04383B01E4615460F460446FFF7AA
:1026600061FB94F851108146012909D1002F4FF0E8
:10267000010018BF002D0FD103B0BDE8F08300BFEB
:102680006068B0F5827F0DD104294FF00200F3D1CC
:10269000A1680029EAD0EFE7002EEDD094F85000B1
:1026A000012803D1022003B0BDE8F083012084F8A3
:1026B000500094F85100002104281CBF052084F824
:1026C00051006165A563E687A6872763E6862068D3
:1026D000A686216461640168490603D4016841F05B
:1026E000400101606168731EE268B1FA81F1B3FADA
:1026F00083F3DDF8288049095B09B2F5006F41EAF0
:10270000030165D131B137F8021BC1602763E08E48
:102710000138E086012518F1010032D102E000BF46
:10272000FFF700FBE08E18B9E08F002800F0B880BA
:102730002068816889070CD5E18E51B1012D08D13F
:10274000216B002531F8022BC2602163E18E013933
:10275000E1868168C907E3D0E18F0029E0D0C06835
:10276000A16B012521F8020BA163E08F0138E087FE
:10277000D6E700BFFFF7D6FAA0EB0900404580F08E
:10278000A580E08E18B9E08F002800F089802068CD
:10279000816889070CD5E18E51B1012D08D1216BDB
:1027A000002531F8022BC2602163E18E0139E186F8
:1027B0008168C907DED0E18F0029DBD0C068A16B3A
:1027C000012521F8020BA163E08F0138E087D1E7F2
:1027D00039B139780173206B01302063E08E013804
:1027E000E086012518F1010032D101E0FFF79AFAE5
:1027F000E08E10B9E08F002852D0206881688907E8
:102800000ED5E18E61B1012D0AD1216B0025097829
:102810000173216B206801312163E18E0139E1866A
:102820008168C907E2D0E18F0029DFD0C068A16BC1
:1028300001250870A06B0130A063E08F0138E087AC
:10284000D4E700BFFFF76EFAA0EB090040453DD288
:10285000E08E08B9E08F18B32068816889070ED52B
:10286000E18E61B1012D0AD1216B00250978017338
:10287000216B206801312163E18E0139E186816895
:10288000C907DFD0E18F0029DCD0C068A16B01252A
:102890000870A06B0130A063E08F0138E087D1E7BA
:1028A0002046022101224346CDF8009003F050FA61
:1028B000B0B1606D40F020006065202060650020B0
:1028C00084F85000012003B0BDE8F083012084F8B3
:1028D0005100002084F85000032003B0BDE8F083CD
:1028E00040F26400C2F20000006849F68171C1F252
:1028F0005E61A0FB0101480D4FF47A7148430290DC
:102900006068B0F5827F0BD12046802100224346CB
:10291000CDF8009003F01CFA0028CAD121E000BFD6
:102920000298F0B102980138029020688168090687
:1029300017D50299A9B10299013902918168090656
:102940000FD5029969B1029901390291816809068E
:1029500007D5029929B102990139029180680006D0
:10296000DED4A06838B9002001902068C1680191C8
:10297000806801900198012084F85100002084F8BB
:102980005000606D002818BF012003B0BDE8F0833F
:10299000411E0020B0EB116F1CBF012070474EF2AA
:1029A0001002CEF2000251604EF62351CEF2000129
:1029B000F0230B7007219060116070477047000092
:1029C0007047000090F83C20012A4FF0020254D0DA
:1029D00010B580F83D200268D2F804E0D2F808C0B3
:1029E0000C682EF07003234341F2FF74C4F200041C
:1029F000A24253600EDC40F2FF73C4F200039A421D
:102A000016DCB2F1804F2BD040F20043C4F2000339
:102A100024E000BF40F2FF33C4F201039A4213DC0A
:102A200041F60003C4F200039A4219D0002313E0D8
:102A300040F60003C4F200039A4211D040F600436E
:102A4000C4F200030AE000BF44F20003C4F2010331
:102A50009A4205D040F20043C4F201039A4204D1E5
:102A600049682CF08003194391600121002280F80D
:102A70003D1080F83C20BDE8104010467047000033
:102A8000002804BF0120704710B5044690F83D00AF
:102A900028B9002084F83C00204600F01FF80220EE
:102AA00084F83D002068211D03F07CFA012084F8A1
:102AB000460084F83E0084F83F0084F8400084F823
:102AC000410084F8420084F8430084F8440084F80C
:102AD000450084F83D00002010BD0000006841F270
:102AE0000001C4F20001884218BF704780B582B06F
:102AF0000020019043F64000C4F202000168002269
:102B000041F0100101600068012100F01000019007
:102B100001983620FFF788F9362002B0BDE88040E2
:102B2000FFF770B990F83D1001291CBF01207047D4
:102B3000022180F83D10006841F2FF71C4F20001EB
:102B400088420DDC40F2FF71C4F20001884215DCBE
:102B5000B0F1804F2AD040F20041C4F2000123E0DE
:102B600040F2FF31C4F20101884213DC41F600015A
:102B7000C4F20001884219D0002113E040F60001A0
:102B8000C4F20001884211D040F60041C4F20001B5
:102B90000AE000BF44F20001C4F20101884205D0FE
:102BA00040F20041C4F20101884206D1816801F07F
:102BB0000701062904BF00207047016841F00101A8
:102BC00001600020704700007047000070B50446A7
:102BD0000068C5680669B10716D515F0020113D063
:102BE0006FF002010161012121778069800703D024
:102BF0002046FFF7E9FF05E0204600F08FF8204669
:102C000000F0E6F900202077700719D515F00400D0
:102C100016D020686FF004010161022121778069DC
:102C200010F4407F04D02046FFF7CEFF06E000BF3F
:102C3000204600F073F8204600F0CAF90020207703
:102C4000300717D515F0080014D020686FF0080180
:102C5000016104212177C069800703D02046FFF776
:102C6000B3FF05E0204600F059F8204600F0B0F927
:102C700000202077F00619D515F0100016D0206836
:102C80006FF01001016108212177C06910F4407FC5
:102C900004D02046FFF798FF06E000BF204600F072
:102CA0003DF8204600F094F900202077F00718BF87
:102CB00015F0010002D1300609D412E020686FF04F
:102CC00001010161204600F00DFA300609D515F02A
:102CD000800006D020686FF0800101612046FFF778
:102CE0006DFE700609D515F0400006D020686FF023
:102CF00040010161204600F0F7F9B00658BF70BDF1
:102D000015F0200008D021686FF0200220460A61EB
:102D1000BDE87040FFF754BE70BD00007047000072
:102D200090F83C30012B04BF022070474FEAB202FA
:102D3000032A00F2FF802DE9F043DFE802F003B13F
:102D40003F7F00BF036840F200461C6A1A6A24F005
:102D5000020422F001021A621A46D3F804C052F8A3
:102D600018EF8F6843F48065C4F20106B54244EA67
:102D7000070405D1CF6824F00C0427F004073C4376
:102D80000F68B54206D1D1E905582CF440762E43A0
:102D900046EA080C2EF073063743C3F804C09F615F
:102DA0004F6809695F631C629F6947F008079F616C
:102DB0009F6927F004079F61B1E000BF036840F2FC
:102DC00000481C6A1A6A24F4007422F480721A62A1
:102DD0001A46D3F804C052F81CEF8F6843F480659C
:102DE000C4F20108454544EA072408D1CF6840F2FF
:102DF000FF463F0224F4406427EA06063443D1F834
:102E00000090454506D1D1E905562CF440572E4394
:102E100047EA061C2EF0730747EA0907C3F804C007
:102E2000DF614F680969DF631C62DF6947F00807EB
:102E3000DF61DF6927F00407DF6170E0036840F2BB
:102E40000045D3F820C01A6A43F4806722F4805208
:102E50001A621A465C6852F81C8FD1F800E08E683E
:102E6000C4F20105AF4204D14D6924F4804444EA20
:102E700085142CF4005747EA063728F4E64646EA5C
:102E80000E265C60DE614E6809691E641F62DF69A0
:102E900047F40067DF61DF6927F48067DF613DE0A9
:102EA000036840F200481C6A1A6A24F0200422F0E9
:102EB00010021A621A46D3F804C052F818EF8F684D
:102EC00043F48065C4F20108454544EA071407D17C
:102ED000CF686FF0400624F0C00406EA07163443BA
:102EE000D1F80090454506D1D1E905562CF440674C
:102EF0002E4347EA860C2EF4E64747EA0927C3F833
:102F000004C09F614F6809699F631C629F6947F411
:102F100000679F619F6927F480679F6109021368BA
:102F2000194311600021BDE8F043002280F83C20E5
:102F3000084670470121002280F83C20084670476F
:102F4000002804BF0120704710B5044690F83D00EA
:102F500028B9002084F83C00204600F01FF8022029
:102F600084F83D002068211D03F01CF8012084F83E
:102F7000460084F83E0084F83F0084F8400084F85E
:102F8000410084F8420084F8430084F8440084F847
:102F9000450084F83D00002010BD0000006840F6A8
:102FA0000001C4F20001884218BF704781B00020C0
:102FB000009043F64000C4F20200016841F00401B1
:102FC0000160006800F004000090009801B07047B4
:102FD00070470000C1B1042908D0082914BF41225C
:102FE0004022825C012A05D016E000BF3F22825CAD
:102FF000012A11D10222082910D0042914BF80F817
:10300000412080F83F200BE090F83E20012A03D1B8
:10301000022280F83E2003E00120704780F8402023
:10302000006801F01F010122036A02FA01F123EA9C
:1030300001020262026A114341F2FF72C4F200020D
:10304000904201620CDC40F2FF71C4F20001884240
:1030500014DCB0F1804F37D040F2004116E000BFE1
:1030600040F2FF31C4F20101884215DC41F6000153
:10307000C4F20001884227D0002115E040F600018B
:10308000C4F2000188421FD040F60041C4F20001A2
:10309000884219D01FE000BF44F20001C4F20101D0
:1030A000884211D040F20041C4F20101884212D19D
:1030B000416C40F2004340F48062C4F2010341F4E9
:1030C00000419A42416406D1816801F00701062956
:1030D00004BF00207047016841F001010160002039
:1030E00070470000704700007047000070B582B064
:1030F00090F84250202D0BD113460A460146002A73
:103100004FF0010018BF002B06D102B070BD00BF08
:10311000022002B070BD00BF0863002622204E636B
:103120008A628B854E6481F842000C680D46C86B3C
:1031300046F2692C46F2C931C0F6000CC0F6000117
:10314000C0E90FC146F2ED01C0F60001C0E9131657
:10315000211DFEF7BFFCE8B310206864202029463B
:1031600085F8420001200A6B012A40F0B38000225A
:1031700000920A681368009352680092009A00BF98
:103180000A6852E8032F0B6842F0100243E8032656
:10319000002EBAD00A6852E8032F0B6842F01002E2
:1031A00043E80326002EB0D00A6852E8032F0B68CC
:1031B00042F0100243E80326002EA6D00A6852E827
:1031C000032F0B6842F0100243E80326002ED7D1EC
:1031D0009BE700BF01962868294602680192406873
:1031E00001900198286928B3086850E8030F0A681D
:1031F00040F4807042E80303E3B1086850E8030F2D
:103200000A6840F4807042E803039BB1086850E804
:10321000030F0A6840F4807042E8030353B1086862
:1032200050E8030F0A6840F4807042E80303002B63
:10323000DAD100BF086850E8050F0A6840F00100C5
:1032400042E80503BBB3086850E8050F0A6840F080
:10325000010042E8050373B3086850E8050F0A68E7
:1032600040F0010042E805032BB3086850E8050F61
:103270000A6840F0010042E80503002BDAD11AE0A9
:10328000086850E8050F0A6840F0400042E805036E
:10329000DBB1086850E8050F0A6840F0400042E8DA
:1032A000050393B1086850E8050F0A6840F0400034
:1032B00042E805034BB1086850E8050F0A6840F082
:1032C000400042E80503002BDAD100200A6B012AF6
:1032D0003FF44DAF012002B070BD0000006844F61D
:1032E0000002C4F20002904218BF704770B540F26D
:1032F0004C14C2F200046088122900F101006080C1
:1033000004F10600A18050D34EF28F325143090DD3
:1033100001EBC1016FF0110202EB410114FA81F3DC
:1033200093F82910402940D3C1F3011EBEF1000FCC
:103330003BD003F1240003784278857862F30A23B6
:10334000D208C67865F34A12A3F58063A2F58062BD
:1033500023816281B200037942EA951263F38A22E3
:10336000A2F58062A2815A0861F3CA124FEA911C49
:10337000A2F58061E181D0F80610027B616141898C
:10338000A276027C437C2183417BC08963F30A22BD
:10339000A083A2F5806084F812E084F813C0E1767F
:1033A0002082FEF7BFFC20622046018824220131E2
:1033B000018040F26C5004F12401C2F20000FFF7DA
:1033C00095FE40F22440C2F200000068016821F03E
:1033D00008010160BDE870407047000010B5044668
:1033E000206850E8030F216820F4907041E8030240
:1033F000BAB3206850E8030F216820F4907041E8C8
:10340000030272B3206850E8030F216820F4907023
:1034100041E803022AB3206850E8030F216820F432
:10342000907041E80302002ADAD11AE0206850E8DF
:10343000050F216820F0010041E80502DAB120689B
:1034400050E8050F216820F0010041E8050292B123
:10345000206850E8050F216820F0010041E80502CE
:103460004AB1206850E8050F216820F0010041E8CA
:103470000502002ADAD1206B012824D1206850E807
:10348000030F216820F0100041E80302DAB1206840
:1034900050E8030F216820F0100041E8030292B1C8
:1034A000206850E8030F216820F0100041E8030273
:1034B0004AB1206850E8030F216820F0100041E86D
:1034C0000302002ADAD120684069400636D500BFE1
:1034D000206850E8050F216820F0400041E805020F
:1034E000DAB1206850E8050F216820F0400041E87B
:1034F000050292B1206850E8050F216820F04000D5
:1035000041E805024AB1206850E8050F216820F023
:10351000400041E80502002ADAD1E06B70B10021D9
:103520000165FEF7E7F848B1E06BFEF73DF92028AA
:1035300004D110206064032010BD00BF00202021B2
:10354000E08584F84210206310BD0000016844F655
:103550000002C4F20002914218BF704710B582B059
:10356000002201920B68044601934B680193019B72
:1035700001920B6801934B680193019B01920B68C8
:1035800001934B680193019B01920B6801934B6877
:103590000193019B01920B68019349680191019984
:1035A0004264FFF71BFF40F24C10C2F2000000F132
:1035B000240120462422FFF799FD40F22440C2F264
:1035C00000000068016821F00801016002B0BDE858
:1035D00010407047B0B582B001680A68CC684B698A
:1035E00002F02F05202D04F0200505D125B102B0F1
:1035F000BDE8B04002F0F4BE5FEA027C1EBF03F0FB
:10360000010E04F4907313EB0E0341D1036BD50646
:1036100018D5012B16D114F0100313D000220192FB
:103620000A6801924A680192019A496949064BD495
:10363000818DC28DC38D002B18BF914240F0068250
:1036400002B0B0BD13062DD514F080032AD090F837
:103650004120212AF4D18268B2F5805F03D102694A
:10366000002A00F07982026A531C036212784A60D1
:10367000C28C013A1304C284E2D1C86820F08000F1
:10368000C860C86840F04000C86002B0B0BD00BF6C
:10369000D30718BF14F4807340F0E280530700F1A1
:1036A000E580EAE05206CBD514F04002C8D0CA68E3
:1036B00022F04002CA60202180F8411002B0BDE82B
:1036C000B04000F0EBBA00BFC26B11684B68858D4B
:1036D00099B2002900F0B480A94280F0B180C3857E
:1036E000D169B1F5807F00F0A080016851E8031F27
:1036F000026821F4807142E80313DBB1016851E8EC
:10370000031F026821F4807142E8031393B101683A
:1037100051E8031F026821F4807142E803134BB1A2
:10372000016851E8031F026821F4807142E8031325
:10373000002BDAD1016851E8051F026821F0010170
:1037400042E80513BBB3016851E8051F026821F088
:10375000010142E8051373B3016851E8051F0268CF
:1037600021F0010142E805132BB3016851E8051F60
:10377000026821F0010142E80513002BDAD11AE0BA
:10378000016851E8051F026821F0400142E8051375
:10379000DBB1016851E8051F026821F0400142E8F1
:1037A000051393B1016851E8051F026821F040013B
:1037B00042E805134BB1016851E8051F026821F08A
:1037C000400142E80513002BDAD1202180F8421095
:1037D00000210163016851E8031F026821F0100114
:1037E00042E80313DBB1016851E8031F026821F0CE
:1037F000100142E8031393B1016851E8031F026806
:1038000021F0100142E803134BB1016851E8031F96
:10381000026821F0100142E80313002BDAD1C16BDA
:1038200004460846FDF766FF204602214163818D6C
:10383000C28D891A89B202B0BDE8B040FFF74EBD13
:103840008D427FF4FDAED269B2F5807F7FF4F8AE91
:103850000222426302B0BDE8B040FFF73FBD00BFA7
:10386000436C43F001034364530706D5BEF1000FD8
:1038700003D0436C43F002034364930706D5BEF1C3
:10388000000F03D0436C43F004034364BCF1000F0A
:1038900006D55EEA050303D0436C43F00803436496
:1038A000436C002B3FF4CCAE920605D525B10446FF
:1038B00002F096FD216820464969426C01F0400102
:1038C00002F00802891800F0B98000BF016851E8D1
:1038D000031F026821F4907142E80313BBB301682F
:1038E00051E8031F026821F4907142E8031373B397
:1038F000016851E8031F026821F4907142E8031344
:103900002BB3016851E8031F026821F4907142E86B
:103910000313002BDAD11AE0016851E8051F026891
:1039200021F0010142E80513DBB1016851E8051FF0
:10393000026821F0010142E8051393B1016851E8E2
:10394000051F026821F0010142E805134BB101682F
:1039500051E8051F026821F0010142E80513002B20
:10396000DAD1016B012924D1016851E8031F0268F3
:1039700021F0100142E80313DBB1016851E8031F95
:10398000026821F0100142E8031393B1016851E885
:10399000031F026821F0100142E803134BB10168D4
:1039A00051E8031F026821F0100142E80313002BC5
:1039B000DAD1202180F842100021016301684969B1
:1039C000490640F1C380016851E8051F026821F0F3
:1039D000400142E80513DBB1016851E8051F0268A8
:1039E00021F0400142E8051393B1016851E8051F39
:1039F000026821F0400142E805134BB1016851E82B
:103A0000051F026821F0400142E80513002BDAD1BE
:103A1000C16B002900F09A8046F2E102C0F6000274
:103A2000044608460A65FDF7ADFE00283FF408AEDF
:103A3000E06B016D02B0BDE8B04008470446FFF7F7
:103A400085FD0020606402B0B0BD00BF891A00BFD0
:103A5000026852E8032F036822F4907243E80325BA
:103A6000BDB3026852E8032F036822F4907243E862
:103A7000032575B3026852E8032F036822F490729D
:103A800043E803252DB3026852E8032F036822F4AC
:103A9000907243E80325002DDAD11AE0026852E85B
:103AA000052F036822F0010243E80525DDB1026815
:103AB00052E8052F036822F0010243E8052595B17D
:103AC000026852E8052F036822F0010243E8052549
:103AD0004DB1026852E8052F036822F0010243E865
:103AE0000525002DDAD1202280F842200022026331
:103AF000026852E8032F036822F0100243E803250E
:103B0000DDB1026852E8032F036822F0100243E897
:103B1000032595B1026852E8032F036822F01002D2
:103B200043E803254DB1026852E8032F036822F0F1
:103B3000100243E80325002DDAD1022289B2426344
:103B400002B0BDE8B040FFF7C9BB00BF02B0BDE89E
:103B5000B040FFF7FBBC00BF026A32F8023B6FF3D4
:103B60005F234B60026283E5002804BF0120704799
:103B700010B5044690F8410028B9002084F84000B0
:103B8000204600F021F8242084F841002068C16814
:103B900021F40051C160204602F0A2FC20680169B6
:103BA00021F490410161416921F02A014161C1681C
:103BB00041F40051C16000202021606484F841106C
:103BC00084F84210606310BD70B586B0044644F6B8
:103BD00000002168C4F20000002681420596CDE96C
:103BE00003660296019601D006B070BD43F630011F
:103BF0000096C4F202010A6900F5E03042F4802226
:103C00000A610A6902F480220092009A00960A680A
:103C100042F004020A60096801F004010091009971
:103C20004FF4406101910221CDE902160321049174
:103C30000721059101A9FDF79FFF40F2244546F2B7
:103C40002800C2F20005C4F202004FF0006185E8CE
:103C500043004FF400304FF480624FF48073C5E9A5
:103C600008062846C5E90362C5E90566EB61FDF76C
:103C70007FFE002818BFFDF749F827200021002209
:103C8000E563AC63FEF7D0F82720FEF7BBF806B07B
:103C900070BD0000704700007047000070470000D2
:103CA000FEE7000010B540F2B454C2F20004201D3B
:103CB0006421FCF7B4FB4FF07E50206010BD000083
:103CC00040F2B450C2F2000090F83C00704700008F
:103CD00010B52DED0C8B002818BF002902D1BDECCA
:103CE0000C8B10BDB5EE400AF1EE10FAF7DDD1ED08
:103CF000002AD1ED011A40F2B454D1ED020AC2F209
:103D0000000490ED001A90ED013A90ED022A21EEA8
:103D1000A14A22EEA25A94F83C0035EE044A20EE65
:103D2000A05A002835EE044A00F0DE81F1EEC43AD4
:103D300094ED0B5A94ED0C4A31EE451A94ED0D5A60
:103D400033EE447A32EE456A84ED081A84ED097A3E
:103D500084ED0A6AF1EE0C4A94ED005A94ED014AA2
:103D600094ED023A94ED032AF4EE643AF1EE10FA7F
:103D7000C0F2A080F2EE094AF4EE643AF1EE10FAD5
:103D800000F39880F7EE004AC4EEA33A64EE024ACC
:103D900065EE045AFEEE006A62EEA32A61EEA31AF3
:103DA00060EEA30A65EE033A74EEE33A63EE024A6C
:103DB00075EEA44A65EE055A75EEA65A62EE026AE1
:103DC00076EEA55A60EEA46A61EEA57A60EEA30ACB
:103DD00061EEA31ADFEDC13A77EEE66A62EEA55A0C
:103DE00062EEA42A72EEE11A66EEA32AD4ED164A18
:103DF00070EEE50A62EE802A72EEA42AD4ED174A2C
:103E000060EEA35A65EE805A75EEA44A61EEA33ABD
:103E1000D4ED185A63EE803ADFEDB17A73EEA53A2D
:103E2000DFEDB05AF4EE672AF1EE10FAB8BFF0EE0B
:103E3000672AF4EE652AF1EE10FAB0EE658AF4EE28
:103E4000674AB8BFB0EE628AF1EE10FAB8BFF0EE82
:103E5000674AF4EE654AF1EE10FAF0EE652AF4EEE8
:103E6000673AB8BFF0EE642AF1EE10FAB8BFF0EE90
:103E7000673AF4EE653AF1EE10FAB8BFF0EE635A25
:103E8000F0EE083A60EEA30A70EEA20A66EEA34ACC
:103E900037EE207A61EEA30A74EE884A70EEA50A26
:103EA00031EE241A36EE206A84ED168AC4ED172A04
:103EB000C4ED185A63EE071A64EE412A63EE063A1F
:103EC00065EE014A72EEE11A62EE062A74EEA33A3A
:103ED00062EE074AF1EE430A71EEE21AF6EE002AAC
:103EE00073EEE43A64EE064A65EE075A24EE077A6A
:103EF00025EE066A61EEA21A75EEE44A62EE015AF8
:103F000036EE076A20EE811A63EEA23A75EEA44AF5
:103F100031EE061A21EE806A64EEA24A21EE221AE0
:103F200035EE065A23EE806A34EE064A24EE806AA5
:103F300021EE000A33EE063A30EE020A24EE041AAD
:103F400025EE052A32EE011A23EE032A32EE011A7B
:103F500020EE002A32EE011AB1EEC11AB7EE008A45
:103F600088EE011A25EE012A84ED002A24EE012AAA
:103F700084ED012A23EE012A20EE010A84ED022AB3
:103F800084ED030A94ED009A94ED01BA94ED02CA0F
:103F900094ED03AA29EE0B1A2CEE0A0A31EE000A60
:103FA0002CEE0CDA2BEE0B1A31EE0D1A31EE011A53
:103FB00030EE000A78EE410A04F0A2FC84ED040A17
:103FC0002AEE0B0A29EE0C1A31EE400A30EE001AE6
:103FD000B4EE481AF1EE10FAB0EE480A0ADCBFEE71
:103FE000002AB4EE421AB0EE410AF1EE10FAB8BF60
:103FF000B0EE420A04F0EEFB84ED050A2BEE0C0A4B
:1040000029EE0A1A31EE000A2AEE0A1A3DEE011ACA
:1040100031EE011A30EE000A78EE410A04F070FC2D
:1040200084ED060A94ED191A9FEDB62A30EE411A76
:10403000B4EE421AF1EE10FA1EDD9FEDB33A00BF66
:1040400031EE031AB4EE421AF1EE10FA14DD31EE3D
:10405000031AB4EE421AF1EE10FA0DDD31EE031A36
:10406000B4EE421AF1EE10FA06DD31EE031AB4EEA8
:10407000421AF1EE10FAE3DC9FEDA42AB4EE421AE4
:10408000F1EE10FA1EDA9FEDA23A00BF31EE031AEC
:10409000B4EE421AF1EE10FA14DA31EE031AB4EE6D
:1040A000421AF1EE10FA0DDA31EE031AB4EE421AAA
:1040B000F1EE10FA06DA31EE031AB4EE421AF1EE1E
:1040C00010FAE3DB94ED072A31EE021A84ED071AA9
:1040D00084ED190ABDEC0C8B10BD00BFCDCCCC3DDE
:1040E000CDCC4CBECDCC4C3E23EE030A21EE015A82
:1040F00035EE000A22EE025A9FED866A35EE000A7E
:10410000B4EE460AF1EE10FA00F3F0809FED820A59
:10411000B4EE404AF1EE10FAC0F2E8809FED7F0A5B
:10412000B4EE404AF1EE10FA00F3E08094ED100A8C
:1041300094ED114A94ED125A94ED136A31EE001A7F
:1041400033EE043A94ED140A94ED154A32EE869A51
:1041500031EE800A32EE052A30EE844A84ED101AE0
:1041600084ED139A84ED113A84ED140A84ED122A39
:1041700084ED154AA06B0130A063A06B80087C28F9
:104180007FF6ADAD9FED665A0020C4EE050A80EEC5
:10419000050A81EE051A83EE053A82EE052A20EE25
:1041A000A04A20EE005A35EE044AB1EEC48A84EDEE
:1041B0000B1A84ED0C3A84ED0D2AC4E91600206632
:1041C00004F09EFB9FED571AF0EE480A89EE011AA3
:1041D000B0EE409AB0EE410A04F092FBB6EE001A3F
:1041E00029EE018A20EE019AB0EE480A04F0DEFCC6
:1041F000B0EE40AAB0EE480A04F080FDB0EE408A6E
:10420000B0EE490A04F0D2FCB0EE40BAB0EE490A72
:1042100004F074FD2AEE0B1A84ED001A28EE0B1A36
:1042200084ED011A2AEE001A28EE400A84ED021AE3
:1042300084ED030A94ED008A94ED01AA94ED02BA8C
:1042400094ED039A28EE0A1A2BEE090A31EE000AC1
:104250002BEE0BCA2AEE0A1A31EE0C1A31EE011AB5
:10426000B7EE00DA30EE000A7DEE410A04F048FBBA
:1042700084ED040A29EE0A0A28EE0B1A31EE400AF0
:1042800030EE001AB4EE4D1AF1EE10FAB0EE4D0A0F
:104290000ADCBFEE002AB4EE421AB0EE410AF1EE9B
:1042A00010FAB8BFB0EE420A04F094FA84ED050AA1
:1042B0002AEE0B0A28EE091A31EE000A29EE091A35
:1042C0003CEE011A31EE011A30EE000A7DEE410A91
:1042D00004F016FB012084ED060A84ED070A84ED44
:1042E000190A84F83C00BDEC0C8B10BD0020A063C3
:1042F000C4E91000C4E91200C4E91400BDEC0C8B41
:1043000010BD00BFDB0F4940DB0FC9C0DB0F49C048
:10431000DB0FC9400BD7233D000061420000104372
:104320000000FA430000FAC310B540F2143046F220
:104330000041C2F20000C4F20001032200234FF446
:10434000807480E80E0000F10C014FF4002C4FF453
:10435000401E81E8085084618483FCF7DDFF00285B
:1043600008BF10BDBDE81040FCF7D0BC10B540F24E
:104370003C3046F60001C2F20000C4F20001032204
:1043800000234FF4807480E80E0000F10C014FF41C
:10439000002C4FF4401E81E8085084618483FCF7B0
:1043A000BBFF002808BF10BDBDE81040FCF7AEBC45
:1043B00080B582B0002043F630010190C4F20201C2
:1043C0000A6842F400120A600A6802F400120192BC
:1043D000019A00900868002240F480000860086894
:1043E000002100F48000009000980C20FDF71CFDD7
:1043F0000C20FDF707FD382000210022FDF714FDF9
:104400003820FDF7FFFC3B2000210022FDF70CFDCA
:104410003B2002B0BDE88040FDF7F4BC2DE9F0433D
:1044200087B0002743F630000697CDE90477CDE941
:1044300002770197C4F202000168002541F00201F1
:1044400001600168C4F2020501F0020101910199C5
:1044500001970168002241F00101016001684FF0FD
:10446000100801F00101019101990197016841F0E3
:1044700008010160016801F00801019101990197AB
:10448000016841F004010160016801F0040101913B
:1044900001990197016841F08001016000681021D5
:1044A00000F08000019001982846FDF735FC05F5E5
:1044B00080642046012100220126FDF72DFCCDE974
:1044C00002860DF108084FF002092846414604967D
:1044D000CDF81490FDF750FB302002904FF4881077
:1044E000CDE9030705F500604146FDF745FB204691
:1044F0004146CDE90266CDE90469FDF73DFB07B011
:10450000BDE8F083B0B540F2844043F20001C2F24E
:104510000000C4F201014FF48272002380E80E0013
:1045200000F10C014FF0020C4FF0010E4FF400743B
:10453000382581E808500A21C0E90645C0E908335A
:10454000C0E90A31FDF794FF002808BFB0BDBDE8FF
:10455000B040FCF7DBBB000070B590B040F6000542
:1045600040F2DC40C4F200050021C2F200005322F8
:10457000F923CDE90811CDE90611CDE90411C0E90F
:104580000052C0E9021301618161FEF7D9FC0028E5
:1045900018BFFCF7BBFB40F2DC40C2F2000008A9E8
:1045A000FEF710FA002818BFFCF7B0FB602040F2BD
:1045B000DC4401907D20C2F200040290002601A993
:1045C0002046082203960596FEF7AAFB002818BF8E
:1045D000FCF79CFB20680F96A842CDE90D660C966F
:1045E0000B9601D010B070BD002043F630010A9048
:1045F000C4F202010A6842F008020A60096801F088
:1046000008010A910A994FF480410B910221CDE9EA
:104610000C10CDE90E0105F501300BA9FDF7ACFA40
:1046200010B070BD80B582B040F2245041F200025B
:104630000021C2F20000C4F20002532340F2CF7CFA
:10464000CDE90011C0E90023C0E9021C8161FEF739
:1046500017FA002818BFFCF759FB40F22450C2F2A9
:1046600000006946FEF7AEF9002818BFFCF74EFBC4
:1046700002B080BD10B540F26C5044F6000C48F218
:10468000A062C2F20000C4F2000CC0F201024FF4BA
:10469000805300214FF4806E0C24C0E900C2C0E9B1
:1046A0000231C0E904E4C0E90611FFF75DFA002811
:1046B00008BF10BDBDE81040FCF728BBFEE70000B6
:1046C00082B0FCF7B9F830B10A2002F077FAFCF7B3
:1046D000B3F80028F8D1FFF7E5FA03F08DFE40F2B9
:1046E000083440F2A42540F668069FED0F8AC2F216
:1046F0000004C2F20005C2F2000601AF019000BF43
:10470000204629463246FCF7A3F820462946B0EE5B
:10471000480AFFF7DDFA00F011F9FCF7A5F9384671
:10472000022102F0E1FFEBE76F12033B70B540F2AC
:10473000742040F21C65C2F200000024C2F20005A1
:1047400040F21006448004706C606C62C2F2000695
:1047500096ED010AD6ED020A96ED031AD6ED041A7B
:1047600096ED052A05F1440001F096FFAC6296ED46
:10477000010AD6ED020A96ED031AD6ED041A96ED5B
:10478000052A05F16C0001F087FFEC6296ED010A45
:10479000D6ED020A96ED031AD6ED041A96ED052A17
:1047A00005F1940001F078FF2C6396ED010AD6ED37
:1047B000020A96ED031AD6ED041A96ED052A05F1C4
:1047C000BC0001F069FF96ED060AD6ED070A96EDEA
:1047D000081AD6ED091A96ED0A2A05F59A742046AC
:1047E00001F05AFF9FED150A204601F071FF96ED8A
:1047F0000B0AD6ED0C0A96ED0D1AD6ED0E1A96EDB3
:104800000F2A05F5AE74204601F046FF9FED0C0A15
:10481000204601F05DFF96ED100AD6ED110A96EDE7
:10482000121AD6ED131A96ED142A05F5C27001F08E
:1048300033FF0020BDE8704000F004B8CDCC4C3F01
:10484000CDCC4C3EB0B52DED028B40F21C64C2F2D3
:1048500000042070002504F14400A560E560256196
:104860006561656301F02AFF9FED338A0020B0EE99
:10487000480A00F0B5FE04F16C00A561A56301F0E3
:104880001DFF0120B0EE480A00F0AAFE04F19400DA
:10489000E561E56301F012FF0220B0EE480A00F086
:1048A0009FFE04F1BC002562256401F007FF032090
:1048B000B0EE480A00F094FE0020B0EE480A00F086
:1048C00073FE0120B0EE480A00F06EFE0020B0EE4C
:1048D000480A00F077FE0120B0EE480A00F072FEB0
:1048E00004F59A7001F0EAFE04F5AE7001F0E6FE00
:1048F00004F5C27001F0E2FEC4F8F050C4F80051B3
:10490000C4F81451C4F81851C4F81C51C4F820510B
:10491000C4F82451A4F82851A4F82A5184F82C5141
:1049200084F82D5184F82E5184F82F5184F8305199
:10493000BDEC028BB0BD00BF000000002DE9F047C8
:104940002DED048B40F21C64C2F20004606801305B
:10495000606001F0EFF940F27426C2F20006C8B1BF
:1049600040F2541AC2F2000A9AF80A00317802287A
:104970001CD1002908BFFCF765F801203070002029
:1049800070800320FFF75EFFBDEC048BBDE8F047AD
:1049900000F0C8BC002070800220FFF753FFBDEC80
:1049A000048BBDE8F04700F0BDBC00BF79B103281F
:1049B000E5D17088182803D800F101007080E0D19B
:1049C000002030707080FCF73DF89AF80A00032848
:1049D00018D19AF80B60022E1ED1FFF771F9A8B317
:1049E0000027C4F81471A4F82871A4F82A7184F877
:1049F0002C7184F82D7184F82E7100F053FE4FF065
:104A0000050838E10020FFF71DFFBDEC048BBDE871
:104A1000F04700F087BC00BF2078052803D020783D
:104A2000072840F09D800020A060E06094F82E11DF
:104A300040F2B025C2F2000591B100F0C9FF28880C
:104A400000EE100AB8EE400A24E000BF0620FFF78F
:104A5000F9FEBDEC048BBDE8F04700F063BC00BF7D
:104A60004FF08C41C4F81811298800EE101AB8EEE6
:104A7000400A84ED470AC4F82001C4F82401A4F8D0
:104A80002801A4F82A0184F82C0184F82D010120C2
:104A900084F82E019FEDC91A9FEDC92A31EE400A14
:104AA000B4EE420AF1EE10FA02DD9FEDC61A08E0FC
:104AB0009FEDC51AB4EE410AF1EE10FA03DA9FED4C
:104AC000C31A30EE010A84ED450A94F82C01D8B3DC
:104AD00094F82D01002849D044F27040C2F2000041
:104AE00090ED010A90ED0C1A90ED172A90ED223A04
:104AF00030EE010A30EE020A30EE030AB5EE001A7B
:104B00009FEDB32A20EE010A80EE020A9FEDB11A52
:104B10009FEDB12AB3EE0E8A002020EE000A20EEAF
:104B2000010A20EE020A94ED461A30EE080AB4EEAD
:104B3000401AF1EE10FA5FDDA4F828014CF6CD40E2
:104B4000C3F6CC6020617EE0B4F82A01642861D30A
:104B50000027276101F062F8002840F0818087E09B
:104B600000F04CFD4FF00108002784E00020A4F87D
:104B7000280194ED460A9FED991AB4EE410AF1EE30
:104B800010FA4BDD94ED460A9FED931A9FED942A9F
:104B900080EE010A9FED931A30EE010A9FED921A02
:104BA000B5EE400AF1EE10FAB8BFB0EE410AB3EE2E
:104BB000001A20EE010AB1EEC00AB1EE001AB4EEFE
:104BC000410AF1EE10FAB8BFB0EE401AB4EE421A44
:104BD000F1EE10FAB8BF0120C007B0EE410AB5EE01
:104BE000401A18BFB0EE420AF1EE10FAC8BFB0EE9C
:104BF000401A84ED041A3BE0206101F00FF810B375
:104C000094ED460AB4EE480AF1EE10FA12DD0020E7
:104C100017E000BF4FF08140206129E0206100F0E3
:104C2000FDFF00284FF0010718BF84F82D714FF0E9
:104C3000070820E0B4F82801312804D8B4F8280186
:104C40000130A4F82801B4F82801322810D3002735
:104C5000A4F82871A4F82A7184F82C7184F82D71B5
:104C600084F82E7100F0CAFC4FF0010803E000BF89
:104C70004FF007080127207840450FD004F1440089
:104C800001F01CFD04F16C0001F018FD04F194002A
:104C900001F014FD04F1BC0001F010FD94ED022AB6
:104CA00094ED033A94ED040A9FED501A022E40F25F
:104CB000100620EE010AC2F2000613D19FED4C4A05
:104CC00032EE031A21EE041A32EE432AB5EE401AF0
:104CD00020EE040AF1EE10FA22EE042A26DD9FED02
:104CE000453A2AE032EE031A9FED414A32EE432A5A
:104CF00031EE005A32EE403A32EE002A31EE400AEE
:104D000025EE045A23EE043A22EE042A20EE040A89
:104D1000002F84ED055A84ED063A84ED072A84EDD0
:104D2000080A40F0A38000F04BFDB7E1B5EE401A51
:104D3000F1EE10FA16DA9FED303A33EE403A83EE98
:104D4000014AB7EE003AB4EE434AF1EE10FAB8BFAA
:104D5000B0EE443AB5EE402AF1EE10FA09DD9FEDCF
:104D6000254A0DE0B7EE003AB5EE402AF1EE10FA12
:104D7000F5DCB5EE402AF1EE10FA17DA9FED1E4A87
:104D800030EE045A85EE025A34EE404A84EE024A6E
:104D9000B4EE435AF1EE10FAB8BFB0EE453AB4EEB5
:104DA000434AF1EE10FAB8BFB0EE443AB5EE401AFD
:104DB000F1EE10FA22DD9FED0F4A26E00000AF442D
:104DC00000008045000000C6000080C500000046CD
:104DD000F304B5400000803D83F9A244A6741C434F
:104DE000CDCCCC3E8FC2F5BD000000009A99193F92
:104DF00075D9164130466242304662C2B5EE401A5D
:104E0000F1EE10FA0CDA9FEDF14A30EE044A84EE2E
:104E1000014AB4EE434AF1EE10FAB8BFB0EE443A9C
:104E20009FEDE94AB5EE403AF1EE10FAB8BFB0EEA8
:104E3000443AB7EE004AB4EE443AF1EE10FAB8BF85
:104E4000B0EE434A24EE011A31EE003A24EE022A73
:104E500084ED053A32EE403A32EE002A31EE400A55
:104E600084ED063A84ED072A84ED080A94F83001AF
:104E7000C0B90020C4F2AF40C4F8E4004EF2000014
:104E8000C4F2AB50C4F8F40004F59A7001F016FCBB
:104E900004F5C27001F012FC002084F82F010120FB
:104EA00084F83001BAF902004FF66C57CFF6FF775D
:104EB00010F5257FD8BF3846B0F5257FA8BF4FF441
:104EC000257000EE100A9FEDC28AB8EEC00A80EE8F
:104ED000080A9FEDC01A9FEDC09A9FEDC12A40F2CB
:104EE000B029C2F2000940F2B455C2F2000520EE2A
:104EF000010A94ED3D1A20EE090A30EE010A84ED14
:104F00003D0A94ED3D0A9FEDB51AB4EE410AF1EE6B
:104F100010FAB8BFB0EE410AB4EE420AF1EE10FA50
:104F2000B8BFB0EE402A84ED3D2AB9F8000000EE8B
:104F3000100AB8EE400A84ED3A0A94F82F0168B9D5
:104F4000E869C4F80401D4F8E800C4F8100104F5D5
:104F5000AE7001F0B3FB012084F82F019AF80B002A
:104F600002281CD1BAF90000B9EE002A10F5257FFD
:104F7000C8BF0746B7F5257FA8BF4FF4257700EED9
:104F8000107AB8EEC00A80EE080A94ED411A20EEBD
:104F9000020A20EE090A30EE010A84ED410AE869AE
:104FA00004F5AE73C4F8080194ED410A94ED421A79
:104FB00030EE410A84ED430A94ED430A9FED811AD5
:104FC000B0EEC02A20EE011A84ED3B1AF06A316B74
:104FD000726B07C39FED831AB06BF16BB4EE412A7D
:104FE000F1EE10FAC4E95F0104F5AE7006DDDFED05
:104FF000760A9FED791A01F0EDFA03E001F05EFB0D
:105000009FED710A96ED001A94ED042A04F5C2731F
:1050100021EE021A9FED742A30EE010A9FED731AF9
:10502000B4EE420AF1EE10FAB8BFB0EE420AB4EEA6
:10503000410AF1EE10FAB8BFB0EE401A84ED3C1A06
:10504000B9F82C00DFED600A00EE100AB8EE400A55
:1050500084ED3E0A94ED3D0A94ED3E1A30EE410A8D
:1050600084ED3F0A306C716CB26C07C3F06C316D2B
:105070009FED591AC4E9690194ED3F0A04F5C27025
:1050800001F0A8FA84ED400A94ED3C0A002000F0FB
:1050900099FA94ED400A012000F094FA84F8008017
:1050A0007168204640F8441FB168F26844F27045C8
:1050B000C4E9121231697269C2F20005C4E9191219
:1050C00061699FED458A61616968B0EE481A616265
:1050D00094ED050AD4ED090A01F07CFA84ED0D0A7D
:1050E00094ED0D0A002000F07BFA7168204640F82C
:1050F0006C1FB168F268B0EE481AC4E91C1231693D
:105100007269C4E9231294ED060AB1EE400A84EDF7
:10511000060A296BA16294ED060AD4ED0A0A01F091
:1051200059FA84ED0E0A94ED0E0A012000F058FAA7
:105130007168204640F8941FB168F268B0EE481AD2
:10514000C4E9261231697269C4E92D12E169E1618D
:10515000E96DE16294ED070AD4ED0B0A01F03AFA29
:1051600084ED0F0A94ED0F0A022000F039FA7068FE
:10517000B0EE481A44F8BC0FB068F168C4E9010108
:1051800030697169C4E9080114ED270AB1EE400ADB
:1051900004ED270AD5F8880044F88C0C14ED270A92
:1051A00054ED230A204601F015FA04ED1F0A14ED10
:1051B0001F0A032000F014FABDEC048BBDE8F04791
:1051C00000F0B0B883F9A24400000000304662C28B
:1051D0000000254400007A446F12033B00409C45C8
:1051E0000080BB454260653B0AD723C30AD72343EF
:1051F00040F2D800C2F200000178002918BF7047C1
:10520000B0B544F27042C2F200024FF4017440F2B1
:10521000000E44F2000346F2000C546240F20324F4
:10522000C4F2A01EC4F29C63C4F2EA6C00211465AF
:1052300040F2022440F2012582F828101182C2E9CE
:10524000051EC2E9073C1180C2E90111117382F801
:1052500054109187C2E9101EC2E9123C9185C2E93F
:105260000C1182F8381082F88010A2F86810C2E998
:105270001B1EC2E91D3CD467A2F85810C2E91711E1
:1052800082F8641082F8AC10A2F89410C2E9261ECD
:10529000C2E9283CC2F8A850A2F8841082F8901005
:1052A000C2E9221140F2B0224465C2F2000240F28B
:1052B000052480F82C108182C0E9061E81800174CB
:1052C000C0E9021180F85810A0F84010C0E9111E82
:1052D000018680F83C10C0E90D1182F82810118277
:1052E000C2E9051E546211801173C2E9011140F236
:1052F000062482F854109187C2E9101E918582F825
:105300003810C2E90C110121C0E9083C8562C0E9EE
:10531000133CC2E9073CC2E9123C14650170BDE8C8
:10532000B0407047F0B583B044F27040C2F2000064
:10533000828C002101910091511EC9B24CF20005EE
:105340000329CFF6FF7519D890ED050A9FED951A40
:105350006F4620EE010ABDEEC00A10EE102AB2F52B
:10536000804FA8BF4FF4804212F5804FD8BF2A4625
:10537000130A07EB410607F811307270B0F85010AD
:105380000139C9B2032919D890ED100A9FED851A89
:105390006F4620EE010ABDEEC00A10EE102AB2F5EB
:1053A000804FA8BF4FF4804212F5804FD8BF2A46E5
:1053B000130A07EB410607F811307270B0F87C1041
:1053C0000139C9B2032919D890ED1B0A9FED751A4E
:1053D0006F4620EE010ABDEEC00A10EE102AB2F5AB
:1053E000804FA8BF4FF4804212F5804FD8BF2A46A5
:1053F000130A07EB410607F811307270B0F8A810D5
:105400000139C9B2032919D890ED260A9FED651A12
:105410006B4620EE010ABDEEC00A10EE100AB0F590
:10542000804FA8BF4FF4804010F5804FD8BF28466A
:10543000020A03EB410703F81120787040F21430A0
:105440006C46C2F200004FF400712246FBF7BAFB33
:1054500040F2D800C2F20000018D00220139C9B229
:1054600003290192009218D890ED060A9FED4D1A7B
:1054700004EB410720EE010ABDEEC00A10EE102A2F
:10548000B2F5804FA8BF4FF4804212F5804FD8BFCD
:105490002A46130A04F811307A70B0F85410013912
:1054A000C9B2032918D890ED110A9FED3E1A04EBFA
:1054B000410320EE010ABDEEC00A10EE100AB0F55D
:1054C000804FA8BF4FF4804010F5804FD8BF2846CA
:1054D000020A04F81120587040F23C306C46C2F2C7
:1054E00000004FF400712246FBF76CFB40F2B0263F
:1054F000C2F20006B08C0027FB30C0B2032801972F
:10550000009718D896ED050A9FED261A04EB400384
:1055100020EE010ABDEEC00A10EE101AB1F5804F60
:10552000A8BF4FF4804111F5804FD8BF29460A0A21
:1055300004F81020597040F214306C46C2F200009A
:1055400040F2FF112246FBF73DFBB6F850000197F1
:10555000FB30C0B20328009718D896ED100A9FEDD3
:10556000111A04EB400220EE010ABDEEC00A10EE53
:10557000101AB1F5804FA8BF4FF4804111F5804F4C
:10558000C8BF0D46290A04F81010557040F23C308F
:10559000C2F200006A4640F2FF11FBF713FB03B0B2
:1055A000F0BD00BF0000C842012888BF704740F22C
:1055B000D801C2F200012C2210FB021080ED060A75
:1055C00070470000012888BF704740F2B021C2F246
:1055D00000012C2210FB021080ED050A704700002C
:1055E000032888BF704744F27041C2F200012C22A8
:1055F00010FB021080ED050A7047000040F25410C5
:10560000C2F20000B0F90010B0F90420B0F90600B1
:105610004FF66C5310F5257FCFF6FF73D8BF1846B1
:10562000B0F5257F4FF4257CA8BF604600EE100A38
:105630009FED1B1A12F5257FD8BF1A46B8EEC00A97
:10564000B2F5257FA8BF624602EE102A80EE010A5D
:10565000B8EEC22A11F5257FC8BF0B4682EE012A9B
:10566000B3F5257FA8BF634603EE103AB8EEC33A00
:1056700083EE011AB1EE083A40F21C60C2F200005B
:1056800020EE030A80ED020A22EE030A80ED030AEF
:10569000B1EE000A21EE000A80ED040A704700BF57
:1056A0000000254440F2B020C2F2000002889FEDC5
:1056B0003D1A00EE102AB8EE400A40F2541130EEC6
:1056C000010A9FED391AC2F20001C8888988B4EE38
:1056D000410AF1EE10FA03DD9FED361A09E000BF32
:1056E0009FED321AB4EE410AF1EE10FA03DA9FEDA3
:1056F000301A30EE010A80B52DED088B09B24FF655
:105700006C5211F5257FCFF6FF72D8BF1146B1F567
:10571000257F00B24FF42573A8BF194610F5257FE9
:10572000C8BF024601EE101A9FED232AB2F5257F6D
:10573000A8BF1A4603EE102A9FED204AB8EEC11A00
:10574000B8EEC33A81EE021A83EE022A80EE048A92
:10575000B1EE080A21EE00AA22EE00BAB0EE480A25
:1057600003F024FAB0EE409AB0EE480A03F0C6FA0D
:105770002AEE001A2BEE092A40F21C6032EE411A82
:10578000C2F2000080ED021A2AEE091A2BEE000A7E
:1057900030EE010A4FF0814180ED030A0161BDEC5A
:1057A000088B80BD0000AFC400008045000080C5AC
:1057B00000000046000000C60000254483F9A2C492
:1057C00070B540F21C64C2F2000494F83001002568
:1057D000C4F2AF45A8B94EF20000C4F2AB50C4F811
:1057E000E450C4F8F40004F59A7000F067FF04F583
:1057F000C27000F063FF002084F82F01012084F8BC
:10580000300140F25410C2F20000B0F902004FF62D
:105810006C51CFF6FF7110F5257FC8BF0146B1F579
:10582000257FA8BF4FF4257100EE101A9FED5E1A78
:10583000B8EEC00A80EE010A9FED5C1A94ED3D2A95
:1058400020EE010A9FED5A1A20EE010A30EE020AFC
:1058500084ED3D0A94ED3D0A9FED561A9FED562AC0
:10586000B4EE410AF1EE10FAB8BFB0EE410AB4EE60
:10587000420AF1EE10FAB8BFB0EE402A84ED3D2A9C
:1058800094F82F0128B104F59A70C4F8E45000F0A0
:1058900015FF002040F2B02584F82F01C2F2000568
:1058A00028889FED462A00EE100AB8EE400A84EDE3
:1058B0003A0A94ED390A94ED3A1A30EE410AB4EE00
:1058C000420AF1EE10FA03DD9FED3F1A09E000BF36
:1058D0009FED3B1AB4EE410AF1EE10FA03DA9FEDA8
:1058E000391A30EE010A40F2100684ED3B0AC2F28A
:1058F0000006B06904F59A73F169326A07C3706AE9
:10590000B16AB3EE0E1AC4E9550194ED3B0AB0EE4C
:10591000C00AB4EE410AF1EE10FA0BDD94ED3B0A39
:10592000DFED2A0A9FED221A04F59A7000F052FE6C
:1059300006E000BF04F59A7000F0C0FE9FED230A58
:1059400084ED3C0AA88D04F5C27300EE100AB8EE8F
:10595000400A84ED3E0A94ED3D0A94ED3E1ADFEDD7
:105960001B0A30EE410A84ED3F0A306C716CB26C58
:1059700007C3F06C316D9FED0E1AC4E9690194ED17
:105980003F0A04F5C27000F025FE84ED400A94ED54
:105990003C0A0020FFF716FE94ED400A0120BDE806
:1059A0007040FFF70FBE00BF0000254400007A449E
:1059B0006F12033B00409C450080BB4500008045C2
:1059C000000080C500000046000000C60000000086
:1059D00040F2B020C2F2000000889FED872A00EE5E
:1059E000100A40F21C60C2F20000B8EE401A90EDBE
:1059F000470A31EE400AB4EE420AF1EE10FA03DA39
:105A00009FED802A09E000BF9FED7C2AB4EE420A98
:105A1000F1EE10FA03DD9FED7A2A30EE020A80EDF6
:105A2000471A90F82C11D9B190ED491A20EE010ACD
:105A3000B5EE400AF1EE10FAD8BF704790ED461A65
:105A400031EE400A80ED460A90ED460AB5EE400A76
:105A5000F1EE10FABCBF0021C0F81811704700BF6A
:105A6000B0F82A11632904D8B0F82A110131A0F83E
:105A70002A1190ED482A30EE020A80ED480A90ED96
:105A8000480AB3EE042AB0EEC00AB4EE420AF1EEC0
:105A900010FA01DA704700BF90ED480ABFEE003AF5
:105AA000B5EE400A0121B7EE002AF1EE10FAC8BFA8
:105AB000B0EE423A80ED493A80F82C1144F2704140
:105AC000C2F2000190ED492A91ED010A91ED0C3AE4
:105AD00091ED174A91ED225A30EE030A30EE040A96
