:020000040800F2
:100000007009002055020008592F0008112A000825
:10001000992B00084D0400088135000800000000FD
:10002000000000000000000000000000B52F0008E4
:1000300081060008000000005D2F0008B92F0008AD
:100040006F0200086F0200086F0200086F020008CC
:100050006F0200086F0200086F0200086F020008BC
:100060006F0200086F0200086F0200086F020008AC
:10007000650600086F0200086F0200086F020008A2
:100080006F0200086F0200086F0200086F0200088C
:10009000510400086F0200086F0200086F02000898
:1000A0006F0200086F0200086F0200086F0200086C
:1000B0006F0200086F0200086F0200086F0200085C
:1000C0006F0200086F0200086F0200086F0200084C
:1000D0006F0200086F0200086F0200086535000813
:1000E0006F0200086F0200086F0200086F0200082C
:1000F0006F0200086F0200086F0200086F0200081C
:100100006F0200086F0200086F0200086F0200080B
:100110006F0200086F0200086F0200086F020008FB
:100120006F0200086F0200086F0200086F020008EB
:100130006F0200086F0200086F0200086F020008DB
:100140005D0400086F0200086F0200086F020008DB
:100150006F0200086F0200086F0200086F020008BB
:100160006F0200086F0200086F0200086F020008AB
:100170006F0200086F0200086F0200080000000014
:100180006F0200086F02000800F002F800F052F859
:1001900014A696E8000CB244B344DA4501D100F04D
:1001A00049F8BAE80F000FA696E83000A5EB040561
:1001B00004EB0607AAEB0704A7F101074FEA1515A0
:1001C0004FEA3414A4F10104AC4201D300F032F838
:1001D00013F0010F18BFFB1A43F0010300F001F800
:1001E000DBE718471C3A00003C3A0000103A24BFF5
:1001F00078C878C1FAD8520724BF30C830C144BF8C
:1002000004680C6070470000704700000023002461
:1002100000250026103A28BF78C1FBD8520728BF16
:1002200030C148BF0B6070471FB503F0C6FC1FBD4F
:1002300010B510BD00F0D0F81146FFF7F5FF03F040
:10024000A1F900F0EEF803B4FFF7F2FF03BC00F0F1
:10025000F5F800000948804709480047FEE7FEE737
:10026000FEE7FEE7FEE7FEE7FEE7FEE7FEE7FEE766
:1002700004480549054A064B7047000069300008EC
:10028000890100087003002070090020700500201B
:100290007005002053EA020C00F069802DE9F04B54
:1002A0004FF00006002B1FBFB3FA83F503FA05F4E5
:1002B00024FA05F65E4012BF1643B2FA82F502FA3E
:1002C00005F4C5F120051EBF22FA05FC44EA0C0422
:1002D000203556EA044C4FEA144418BF641C4FF012
:1002E00000084FF00009904271EB030C39D300294C
:1002F00019BFB1FA81F701FA07F6B0FA80F700FAF0
:1003000007F6C7F120071EBF20FA07FC46EA0C06D5
:100310002037B6FBF4FCA7EB0507103F07F01F0BD7
:10032000CBF120062CFA06F60CFA0BFB44BFB346C1
:100330000026202FA4BF5E464FF0000B5BEA060CA0
:1003400008BF4FF0010B19EB0B0948EB0608ABFB9C
:10035000027C06FB02CC0BFB03CCC01B71EB0C0137
:10036000C1E70B46024641464846BDE8F08B13B54F
:10037000084318BF4FF0FF300146AFF30080BDE8DF
:100380001C4070474FF0000200B513469446964655
:10039000203922BFA0E80C50A0E80C50B1F1200198
:1003A000BFF4F7AF090728BFA0E80C5048BF0CC046
:1003B0005DF804EB890028BF40F8042B08BF7047A4
:1003C00048BF20F8022B11F0804F18BF00F8012B16
:1003D0007047704770477047754600F02BF8AE467F
:1003E00005006946534620F00700854618B020B541
:1003F000FFF73EFFBDE820404FF000064FF000073A
:100400004FF000084FF0000BAC46ACE8C009ACE878
:10041000C009ACE8C009ACE8C00921F007018D466D
:10042000704710B50446AFF300802046BDE8104089
:10043000FFF709BF0048704710000020014918204D
:10044000ABBEFEE72600020070470000FEE700009A
:1004500040F2BC10C2F2000000F0EABA40F2E41030
:10046000C2F2000000F0E4BA10B58AB00020CDE975
:100470000500CDE90000CDE9020004900E20012125
:10048000099040F2BC10CDE90711C2F200006946A4
:1004900000F0AAF940F2CC04C2F2000410B1E088E6
:1004A0000130E08040F2BC10C2F2000000F0A2FD7A
:1004B00010B1E0880130E08040F2BC10C2F20000D0
:1004C00000F0A2FA10B9E0880130E08040F2BC10E0
:1004D000C2F20000022100F01DF910B1E0880130E5
:1004E000E0800E20059040F2E410C2F20000694660
:1004F00000F07AF910B1E0880130E08040F2E410B9
:10050000C2F2000000F076FD10B1E0880130E0801A
:1005100040F2E410C2F2000000F076FA10B9E08870
:100520000130E08040F2E410C2F20000022100F04D
:10053000F1F810B1E0880130E08002F02FFB0AB042
:1005400010BD000010B588B004460020CDE90101BF
:100550000821CDE9040006918DF81C0002A901AB29
:10056000204600F0EFF8A8B1206840F2CC01C2F2BA
:10057000000180698A8840F2BC13C2F200039C42E9
:1005800002F101028A8007D040F2E412C2F20002B6
:10059000944209D008B010BD01F1020E01F1100C17
:1005A00001F1080407E000BF01F1030E01F1140C92
:1005B00001F10A040131C0F302122388CCF80000D3
:1005C0000A7001209EF800109040013308432380F8
:1005D0008EF8000008B010BD02F07ABB00000000E9
:1005E000B0B5054600889FED1E1A00BA000C0880C1
:1005F00068880C46C0BA00EE100AB8EEC00A80EE59
:10060000010A30EE000A10EE100A03F065FA9FEDC1
:10061000100B53EC102B03F061F99FED0F0B53EC13
:10062000102B02F0FFFF02F0CBFF6060688800BA79
:10063000000C2081A88800BA000C6081A879207382
:100640000020E084012084F82800B0BD00BF00BF76
:10065000182D4454FB210940000000608FC22D403A
:100660000000704240F25C11C2F200010868421CB6
:1006700040F20C20C2F200000A6000F053BD0000FE
:100680007047000072B600BFFEE7000000000000E7
:10069000B0B5054600889FED1E1A00BA000C088010
:1006A00068880C46C0BA00EE100AB8EEC00A80EEA8
:1006B000010A30EE000A10EE100A03F00DFA9FED69
:1006C000100B53EC102B03F009F99FED0F0B53ECBB
:1006D000102B02F0A7FF02F073FF6060688800BA79
:1006E000000C2081A88800BA000C6081A8792073D2
:1006F0000020E084012084F82800B0BD00BF00BFC6
:10070000182D4454FB210940000000608FC22D4089
:100710000000704290F82020013A012A08D80068B1
:1007200000F114020020136819431160704700BFE4
:1007300000F1240201204FF4802113681943116055
:100740007047000010B590F820E0D0F800C0AEF17E
:10075000010EBEF1010FDCF808E011D81EF0E05FD9
:1007600018D0CEF301640120A04018608B68DBB183
:10077000D1F804E0C86840EACE0040EA030E17E072
:1007800000F1240301204FF480211A6811431960FD
:1007900010BD00BF00F1240301204FF400111A68BE
:1007A0001143196010BD00BF0868CB6843EA405E82
:1007B0000CF5C07000EB0413240140F804E00C6950
:1007C000184640F8044F097D012903D1016841F41E
:1007D0008071016050680121D86010689860002025
:1007E0001A681143196010BD90F82020013A012ABF
:1007F00030D8B0B546F20060C4F20000026842F0A2
:1008000001020260026822F47C520260D1F814E016
:10081000CC694A6A0368012C43EA022202600EF0A6
:100820001F024FF0010303FA02F2C3696FEA020CE0
:1008300023EA0203C36113D02CBBC36803EA0C0391
:10084000C360CB688C8844EA034300EBCE04236486
:100850000B4611E0416A41F480214162012070475A
:10086000C3681343C3600B688C8844EA034300EBFE
:10087000CE04236401F10C038C681B8843EA044313
:1008800000EBCE04636443688D6943EA0204D1F847
:1008900010E0096A002D08BF03EA0C0444604369B4
:1008A000BEF1000F43EA020408BF03EA0C04012969
:1008B000446102D1C1691143C161016821F00101A4
:1008C00001600020B0BD000040F2CC00C2F2000088
:1008D000C1880131C1807047B0B590F82040013C1B
:1008E000012C7DD8D0F800C000290CBFDCF80C40EA
:1008F000DCF81040A4077DD00CF5D8754FEA011C38
:1009000055F80C4014F00404946055F80CE005EB25
:10091000011C19BF4FEADE0555604FEA5E551560B0
:10092000DCF80050E64605F00205D5605EF8044F9D
:1009300024075ABFDEF8004004F00F0408241461B5
:10094000DEF800400029C4F307249461DEF800506B
:100950004FEA15455561DCF808201A70026802EB71
:100960000112D2F8B8214FEA12225A70026802EB43
:100970000112D2F8B8214FEA12429A70026802EBD3
:100980000112D2F8B8214FEA1262DA70026802EB63
:100990000112D2F8BC211A71026802EB0112D2F8DE
:1009A000BC214FEA12225A71026802EB0112D2F8FE
:1009B000BC214FEA12429A71026802EB0112D2F88E
:1009C000BC214FEA1262DA7100680CBF00F10C0121
:1009D00000F11001002020220B681A430A60B0BD0C
:1009E00000F1240101204FF480220B681A430A60B1
:1009F000B0BD00BF00F1240101204FF400120B68CC
:100A00001A430A60B0BD000090F820100139012996
:100A100084BF002070470068816882688068C1F3E5
:100A20008061C2F3C0621144C0F300700844704793
:100A30002DE9F04F81B0044600684669D0F8049073
:100A40008768D0F80CB0D0F810A0D0F81880F10763
:100A500004D1002530071DD424E000BFF90710D0D1
:100A60000121BA07816009D4780700F1AF80380707
:100A700000F1B680204600F0EBFA02E0204600F0DC
:100A8000E9FA0025F80500F18780F80300F1B1804C
:100A9000300707D51BF0100004D0206845F400751E
:100AA0001021C160700708D51BF0080005D0206830
:100AB0000821C160204600F0F5F9B00706D520688E
:100AC000C068800702D0204600F0EEF9700607D516
:100AD0001AF0100004D0206845F4806510210161EF
:100AE000B00608D51AF0080005D020680821016179
:100AF000204600F079FAF00606D5206800698007E4
:100B000002D0204600F072FAB00308D519F01000A8
:100B100005D0206810214160204600F069FAF003FA
:100B200008D519F0080005D020680821416020464A
:100B300000F09AFA300440F19B805FEA497040F17E
:100B4000948006F4807008EA102028435FEA8871D8
:100B5000014648BF41F00201B20558BF01465FEAB5
:100B600048700D4648BF45F00405700558BF0D4656
:100B7000300540F17A8018F0700000F0768010386F
:100B8000000905286CD8DFE800F003655D6159694C
:100B900045F0080564E000BF20684FF48071BA0595
:100BA00081600BD4780515D438051DD4204600F09B
:100BB00053FAF8037FF56CAF1BE000BF204600F04E
:100BC0004DFAF8037FF564AF13E000BF4FF4006502
:100BD00058E700BF05F50055F8037FF559AF08E069
:100BE0004FF480554EE700BF05F58045F8037FF5CB
:100BF0004FAF20684FF48031BA0381600AD4780384
:100C000010D4380314D4204600F02AFA30073FF5F8
:100C100041AF47E7204600F025FA30073FF53AAFED
:100C200040E700BF05F5004530073FF533AF39E732
:100C300005F5803530073FF52DAF33E745F08005EA
:100C40000EE000BF45F020050AE000BF45F040057A
:100C500006E000BF45F0100502E000BF45F48075D6
:100C60002068816921F07001816120680421416060
:100C700055B1606A40EA05012046616201B0BDE8F5
:100C8000F04FFFF721BE00BF01B0BDE8F08F0000BC
:100C9000002804BF01207047B0B5044690F820003A
:100CA00010B9204600F06EF82068016841F001019B
:100CB000016000F001FD054620684168C90705D1C3
:100CC00000F0FAFC401B0B28F6D310E0016821F07D
:100CD0000201016000F0F0FC054600BF2068416899
:100CE00089070DD500F0E8FC401B0B28F6D3606A9D
:100CF000052140F400306062012084F82010B0BD6E
:100D0000217E0268012922F0800208BF8032026041
:100D1000617E0268012922F0400208BF4032026071
:100D2000A17E0268012922F0200208BF2032026061
:100D3000E17E0268012922F0100218BF1032026021
:100D4000217F0268012922F0080208BF08320260F0
:100D5000617F0268012922F0040208BF04320260A8
:100D6000D4E901C2D4E9033561691A432A43114326
:100D7000ACF101021143C16100200121606284F8DD
:100D80002010B0BD10B586B0006846F60002C4F26F
:100D9000000200219042CDE90411CDE90211019138
:100DA00034D046F20041C4F20001884277D140F2CB
:100DB0005811C2F200010A6843F64000C4F2020072
:100DC000531C0B6052B900210091016841F0007181
:100DD0000160016801F0007100910099002100910B
:100DE00050F8101C142441F0080140F8101C50F871
:100DF000100C032100F008000090009840F2004021
:100E0000C4F2020000F5006035E000BF43F6400088
:100E1000C4F202000091016841F080610160016844
:100E200001F080610091009940F25811C2F2000176
:100E30000A68531C0B6052B900210091016841F00F
:100E400000710160016801F00071009100990021BA
:100E5000009150F8101C402441F0020140F8101C91
:100E600050F8100C602100F002000090009840F251
:100E70000040C4F20200019102210291002103917D
:100E8000032104910921059101A900F045FB2046A9
:100E90000021002200F092FC204600F07DFC06B00C
:100EA00010BD00007047000070B540F2CC06C2F2E1
:100EB000000606F1180406F120020021234605462B
:100EC000FFF70AFD20B1F0880130F08070BD00BF4F
:100ED00040F2BC10C2F20000854223D040F2E41080
:100EE000C2F200008542F1D1F089D6E90A12013040
:100EF0001143F081EAD1306A40F20621884267D07E
:100F000040F20221884257D040F201218842DDD1CF
:100F100040F27401C2F200012046BDE87040FFF7C4
:100F20005FBB00BFB089D6E90A1201301143B0811E
:100F3000CCD1306AA0F20120042888BF70BDDFE860
:100F400000F0032F19250F0040F2BC20C2F2000070
:100F500000F184012046BDE87040FFF741BB00BFAF
:100F600040F26411C2F200012046BDE87040FFF774
:100F70008FBB00BF40F2BC20C2F2000000F12C0188
:100F80002046BDE87040FFF72BBB00BF40F2BC21FC
:100F9000C2F200012046BDE87040FFF721BB00BF50
:100FA00040F2BC20C2F2000000F158012046BDE82A
:100FB0007040FFF715BB00BF40F27400C2F20000A2
:100FC00000F12C012046BDE87040FFF709BB00BFCF
:100FD00040F26410C2F2000000F12C012046BDE88E
:100FE0007040FFF755BB00007047000070470000DD
:100FF00070470000B0B5044690F8200001281DD1CC
:10100000022084F820002068016821F001010160BD
:1010100000F052FB054600BF20684068C00713D0AF
:1010200000F04AFB401B0B28F6D3606A40F4003006
:101030006062052084F820000120B0BD606A40F4A1
:10104000002060620120B0BD00206062B0BD0000E1
:1010500070470000704700007047000070470000B4
:1010600070470000704700007047000070B5866D43
:10107000044600F021FB94F83510022928D10546DA
:101080002068216C026822F016020260426922F098
:101090008002426109B9A16C19B1016821F008010F
:1010A0000160016821F00101016000BF2068006853
:1010B000C00715D000F000FB401B0628F6D3202007
:1010C0006065032084F83500002184F8341070BD79
:1010D000802060650120002184F8341070BD00BFBD
:1010E000E06D3F2101FA00F0B060012084F8350086
:1010F0000020002184F8341070BD000090F83510F5
:10110000022909D1052180F835100068016821F015
:101110000101016000207047802141650120704776
:10112000406D7047F0B581B00021009140F2080198
:10113000C2F200010B68D0E9166148F2B5153768B4
:101140000822C1F64E358A403A42A3FB05350CD041
:1011500003681C68640708D51C6824F004041C603C
:10116000B260426D42F00102426501228A403A4279
:1011700008D003685B691B0604D5B260426D42F07B
:101180000202426504228A403A4208D003681B6882
:101190009B0704D5B260426D42F004024265102202
:1011A0008A403A4219D001680B681B0715D5B26016
:1011B0000B680A685B0309D4D20509D40A6822F0D7
:1011C00008020A60016C29B907E000BF110341D48D
:1011D000016C11B1044688472046C26D202101FAF6
:1011E00002F33B4243D001680F68FF063FD5B3606E
:1011F00090F835700B68052F1CD123F016030B6097
:101200004B6923F080034B61036C0BB9836C1BB1FA
:101210000B6823F008030B603F219140B16001216E
:1012200080F83510016D0022002980F8342054D157
:1012300058E000BF0A685B0310D4D20512D40A68D4
:1012400022F010020A60012180F83510002180F898
:10125000341007E0816C0029BCD1BEE7110301D432
:10126000416C00E0C16B11B1044688472046416DD6
:10127000C1B3416DC9072ED0052180F83510016832
:10128000AA0A0B6823F001030B60009B0133934211
:1012900000931AD80B68DB0717D0009B01339342E9
:1012A000009312D80B68DB070FD0009B01339342E9
:1012B00000930AD80B68DB0707D0009B01339342E9
:1012C000009302D80B68DB07DFD1012180F83510CD
:1012D000002180F83410C16C21B101B0BDE8F040AC
:1012E000084700BF01B0F0BD2DE9F041044600F011
:1012F000E3F9ECB10546022084F8350000202168AE
:1013000084F83400086820F001000860216808684B
:10131000C00711D000F0D0F9401B0528F6D90325ED
:1013200020230320636584F83550BDE8F08100BFB9
:101330000120BDE8F08100BF086848F23F02CFF20B
:101340001002D4E9013500EA020C04F10C0898E817
:10135000C10143EA0C032B431843D4E9072E304361
:1013600038431043626A40EA0E00042A40EA080348
:101370001CD1206BD4E90A2E40EA0E001843086005
:101380004869BEF1000F20F0030040EA020040F07F
:10139000040C11D0B8F5005F36D0B8F1000F45D17C
:1013A000022A46D0012A3BD032B942E00B6048699C
:1013B00020F0070040EA020C01F0F8004AF6AB22E8
:1013C0001038CAF6AA22A0FB02231A0943F6F63304
:1013D000C1F814C0C0F600039A5C40F2FF335F28E6
:1013E0004FF03F0021EA030100FA02F088BF043108
:1013F000C4E916128860002301250020636584F883
:101400003550BDE8F08100BF032AD5D8012540231F
:101410000120DFE802F0030E030500BF82E700BFF2
:10142000AEF1C070B0FA80F0400904E0032A04D3A2
:10143000C2D1CEF300600028BED001254023012098
:10144000636584F83550BDE8F081000090F834C041
:10145000BCF1010F04BF0220704770B54FF0010CC2
:1014600080F834C0D0F858E090F835C0BCF1010FD6
:1014700038D14FF0020C80F835C04FF0000CC0F8A6
:1014800054C0D0F800C08468056CC06DDCF8006002
:10149000402C26F48026CCF80060CCF804300B46B3
:1014A00004BF13460A463F2101FA00F0CCF8083089
:1014B000CCF80C20CEF80800DCF8000040F0160054
:1014C000CCF800002DB1DCF8000040F00800CCF8AA
:1014D0000000DCF8000040F00100CCF80000002023
:1014E00070BD00BF002180F83410022070BD0000E4
:1014F000B0B5044600F0E0F8054640F20000C2F244
:1015000000000078611C18BF044400BF00F0D4F84C
:10151000401BA042FAD3B0BD2DE9F04F83B000F1DB
:10152000200200F13E4741F60045009207F1FF77A7
:10153000C4F2020508224FEAB726A84208BF0722D4
:1015400000254FF000084FF00009072E38BF4FEA82
:10155000B72201920AE000BF09F1010908F102086F
:10156000B9F1100F05F1040500F0A2800F68012207
:1015700002FA09FE17EA0E0AEED0D1F804C00322DF
:101580000CF003077E1E02FA08F4012E6FEA040B2A
:1015900012D88468CE6804EA0B0406FA08F63443CD
:1015A0008460446824EA0E06CCF3001404FA09F4BB
:1015B0002643466004E000BF032F01D103271EE04D
:1015C000C6688C6806EA0B0604FA08F42643022F64
:1015D000C66014D16FF00302009E02EA590756F864
:1015E00007C005F01C040F220B69A2402CEA02027E
:1015F000A3401A43F251D1F804C00CF0030702686B
:1016000007FA08F302EA0B021A431CF4403F026097
:10161000A2D0002243F644030292C4F202031A68E5
:1016200043F6004442F480421A601A68C4F201048E
:1016300002F480420292029A29F003024FF6084C0B
:101640002244CFF6FF7C52F80C3005F00C070F2631
:10165000BE40B343019E06FA07F73B4342F80C3005
:10166000A2684B6842EA0A0743F60C4CDE0258BFF8
:1016700022EA0A07A760C4F2010CDCF800209E02EF
:1016800042EA0A0758BF22EA0A07CCF800706268EB
:101690009E0342EA0A0758BF22EA0A0767602268E7
:1016A000DB0342EA0A0758BF22EA0A07276053E72A
:1016B00003B0BDE8F08F000040F2B820C2F2000095
:1016C0000068704740F2000040F2B821C2F200000A
:1016D000C2F2000100780A681044086070470000F8
:1016E00080B543F60040C4F20200016841F4007185
:1016F0000160016841F480610160016841F480711A
:101700000160032000F086F80F2000F005F800F0DB
:1017100027F8002080BD000070B540F20006C2F23C
:10172000000640F208013278C2F200014FF47A73E9
:101730000968B3FBF2F20446B1FBF2F1084600F08F
:1017400061FB0F2C4FF0010508D838B94FF0FF307E
:1017500021460022002500F031F87460284670BD53
:1017600082B0002043F640010190C4F202014A68B1
:1017700042F480424A604A6802F480420192019A2F
:101780000090086840F080500860086800F08050C1
:101790000090009802B07047002848BF704700F0E2
:1017A0001F01012202FA01F11C2202EAD0004EF2CE
:1017B0000012CEF2000281507047000010B54EF6C4
:1017C0000C5CCEF2000CDCF80030C3F3022E8EF07D
:1017D0000704042C28BF0424BEF103034FF0FF3E8E
:1017E0000EFA04F438BF0023A14399400EFA03F324
:1017F0009A43114300F00F0200F160430901043ADB
:1018000003F564436244002848BF02F10C031970D9
:1018100010BD00004EF60C51CEF200010A684FF6E2
:10182000FF031A4060F30A2242F0806040F0FD702E
:1018300008607047002804BF012070472DE9F0417F
:1018400043F60808C4F202080446D8F8F8030D4627
:1018500000F00700814207D988F8F853D8F8F80358
:1018600000F00700A84277D12068810717D541070B
:1018700005D5D8F8001041F4E051C8F80010010770
:1018800005D5D8F8001041F46041C8F80010D8F828
:101890000010A26821F0F0011143C8F80010C00741
:1018A00040D1D8F8F80300F00700854207D288F845
:1018B000F853D8F8F80300F00700A8424CD120688C
:1018C000410707D5D8F80010E26821F4E051114330
:1018D000C8F80010000708D5D8F80000216920F4E6
:1018E000604040EAC100C8F8000000F07DF8D8F878
:1018F000001043F6DE32C1F30311C0F60002515C62
:1019000040F2080220FA01F140F20400C2F20000A5
:101910000068C2F200021160FFF7FEFE0020BDE881
:10192000F08100BF6068811E022907D258F8081CA8
:1019300089015CBF0120BDE8F08111E0012807D1D9
:1019400058F8081C89035CBF0120BDE8F08107E05E
:1019500058F8081C890703D40120BDE8F08100BFB6
:10196000D8F8001021F003010843C8F80000FFF781
:10197000A3FE064641F28837D8F80000616800F0FF
:101980000C00B0EB810F8CD0FFF796FE801BB842A5
:10199000F2D90320BDE8F08140F2080043F60801C7
:1019A000C2F20000C4F202010068096843F6EE3298
:1019B000C1F38221C0F60002515CC84070470000AC
:1019C00040F2080043F60801C2F20000C4F202012E
:1019D0000068096843F6EE32C1F34231C0F60002F6
:1019E000515CC8407047000010B543F60404C4F2CF
:1019F00002046168C1F3810142F20040C0F2F400C8
:101A0000DFE801F002040A0210BD00BF41F6003019
:101A1000C0F2B70010BD00BF2068216823684902EA
:101A200041F60031C0F2B70100F03F02C3F3881065
:101A30005CBF42F20041C0F2F401A1FB00010023AF
:101A4000FEF728FC21680222C1F3014102EB4101AB
:101A5000B0FBF1F010BD0000002804BF012070476A
:101A60002DE9F04182B00446007843F60006C00735
:101A7000C4F202060CD0B06800F00C00042840F05C
:101A800081803068800303D56068002800F0688199
:101A9000207880071BD5B06810F00C0F09D0B06813
:101AA00000F00C00082840F087807068400200F1C8
:101AB00083803068800703D5E068012840F05081BA
:101AC0003068216920F0F80040EAC10030602078D9
:101AD000000713D4207840072AD4A569002D00F010
:101AE0003A81B06800F00C00082840F0A580012D74
:101AF00040F00E81012002B0BDE8F081606900284D
:101B000000F082800020C4F247200121C0F8801E2E
:101B1000FFF7D2FD054600BF706F8007DAD4FFF7EC
:101B2000CBFD401B0228F7D9032002B0BDE8F081AD
:101B3000306C5FEAC0080AD400200190306C40F09D
:101B400080503064306C00F080500190019847F272
:101B50000007C4F200073868C00547D4386840F46D
:101B600080703860FFF7A8FD054600BF3868C005E3
:101B70003CD4FFF7A1FD401B0228F7D9032002B097
:101B8000BDE8F081B06800F00C00082803D170684F
:101B900040023FF576AF61683068B1F5803F07D00D
:101BA000B1F5A02F40F09A8040F48020306030687A
:101BB00040F4803030609AE0E068002840F2000095
:101BC000C4F247205CD001210160FFF775FD054696
:101BD000306880073FF574AFFFF76EFD401B0228A9
:101BE000F6D9032002B0BDE8F08100BFA168306FD4
:101BF000012905D0052955D140F004003067306F28
:101C000040F00100306756E00020C4F24720002178
:101C1000C0F8801EFFF750FD054600BF706F8007BB
:101C20007FF558AFFFF748FD401B0228F6D9032087
:101C300002B0BDE8F08100BF0027C4F247270020B2
:101C40003866FFF739FD022D05460DD13068800159
:101C500040F18A80FFF730FD401B02284FF003005F
:101C6000F4D902B0BDE8F0813068800173D5FFF788
:101C700023FD401B02284FF00300F5D9F1E700BF18
:101C800000210160FFF718FD054600BF306880079E
:101C90007FF51DAFFFF710FD401B02284FF003003A
:101CA000F4D9DEE720F001003067306F002920F022
:101CB000040030677AD0FFF7FFFC054641F2883711
:101CC000306F800700F18480FFF7F6FC401BB842BC
:101CD000F6D9032002B0BDE8F08100BF20F48030C7
:101CE00030603068002920F4802030607AD0FFF71F
:101CF000E3FC0546306880033FF5CAAEFFF7DCFC25
:101D0000401B6428F6D9032002B0BDE8F08100BF73
:101D10007068E16900F480028A4221D1216A00F0F2
:101D20003F028A421CD147F6C071626A0140B1EBA2
:101D3000821F15D1A16A4FF6FF73C903994300F4BE
:101D40004032A1F580318A420AD1E16A00F0706028
:101D5000B0EB016F04D1002002B0BDE8F08100BFFC
:101D6000012002B0BDE8F08104F11C052FCD08432D
:101D700040EA8210D9034FF6FF729143A1F58031FA
:101D800040EA05600843706001203866FFF794FC64
:101D9000044600BF30688001DDD4FFF78DFC001BD6
:101DA00002284FF00300F5D95BE700BFFFF784FC82
:101DB000054641F2883700BF306F800708D5FFF72E
:101DC0007BFC401BB8424FF00300F5D949E700BF48
:101DD000B8F1000F3FF581AE306C20F080503064D8
:101DE0007BE600BFFFF768FC054600BF3068800354
:101DF0007FF54EAEFFF760FC401B64284FF00300F8
:101E0000F4D92EE7411E0020B0EB116F1CBF01205A
:101E100070474EF21002CEF2000251604EF623518E
:101E2000CEF20001F0230B70072190601160704723
:101E300070B582B090F84250202D0BD113460A465F
:101E40000146002A4FF0010018BF002B06D102B056
:101E500070BD00BF022002B070BD00BF0863002645
:101E600022204E638A628B854E6481F842000C68A2
:101E70000D46C86B43F2052C43F26531C0F6000CE9
:101E8000C0F60001C0E90FC143F28901C0F60001AC
:101E9000C0E91316211DFFF7D9FAE8B310206864D2
:101EA0002020294685F8420001200A6B012A40F0D3
:101EB000B380002200920A6813680093526800926F
:101EC000009A00BF0A6852E8032F0B6842F0100224
:101ED00043E80326002EBAD00A6852E8032F0B68A5
:101EE00042F0100243E80326002EB0D00A6852E800
:101EF000032F0B6842F0100243E80326002EA6D001
:101F00000A6852E8032F0B6842F0100243E80326E8
:101F1000002ED7D19BE700BF0196286829460268AA
:101F20000192406801900198286928B3086850E838
:101F3000030F0A6840F4807042E80303E3B10868C5
:101F400050E8030F0A6840F4807042E803039BB135
:101F5000086850E8030F0A6840F4807042E8030301
:101F600053B1086850E8030F0A6840F4807042E8F3
:101F70000303002BDAD100BF086850E8050F0A6898
:101F800040F0010042E80503BBB3086850E8050FC4
:101F90000A6840F0010042E8050373B3086850E89E
:101FA000050F0A6840F0010042E805032BB30868FA
:101FB00050E8050F0A6840F0010042E80503002BD5
:101FC000DAD11AE0086850E8050F0A6840F04000CE
:101FD00042E80503DBB1086850E8050F0A6840F0E5
:101FE000400042E8050393B1086850E8050F0A680D
:101FF00040F0400042E805034BB1086850E8050F87
:102000000A6840F0400042E80503002BDAD10020C6
:102010000A6B012A3FF44DAF012002B070BD0000F1
:10202000006844F60002C4F20002904218BF7047F4
:1020300070B540F20814C2F200046088122900F161
:102040000100608004F10600A18052D34EF28F326D
:102050005143090D01EBC1016FF0110202EB410187
:1020600014FA81F393F83110402942D3C1F3011ED1
:10207000BEF1000F3DD003F12C0003784278857843
:1020800062F30A23D208C67865F34A12A3F5806387
:10209000A2F5806223826282B200037942EA95123D
:1020A00063F38A22A2F58062A2825A0861F3CA12FF
:1020B0004FEA911CA2F58061E182D0F80610027B04
:1020C000E161418984F82220027C437C2184417BA8
:1020D000C08963F30A22A084A2F5806084F81AE024
:1020E00084F81BC084F823102083FFF7E5FAA06270
:1020F0002046018824220131018040F26C2004F145
:102100002C01C2F20000FFF793FE40F20C20C2F255
:1021100000000068016821F008010160BDE870401E
:102120007047000010B50446206850E8030F21688E
:1021300020F4907041E80302BAB3206850E8030F1E
:10214000216820F4907041E8030272B3206850E8DF
:10215000030F216820F4907041E803022AB320683D
:1021600050E8030F216820F4907041E80302002A30
:10217000DAD11AE0206850E8050F216820F001004C
:1021800041E80502DAB1206850E8050F216820F027
:10219000010041E8050292B1206850E8050F21686E
:1021A00020F0010041E805024AB1206850E8050F1F
:1021B000216820F0010041E80502002ADAD1206BF5
:1021C000012824D1206850E8030F216820F0100076
:1021D00041E80302DAB1206850E8030F216820F0DB
:1021E000100041E8030292B1206850E8030F216813
:1021F00020F0100041E803024AB1206850E8030FC4
:10220000216820F0100041E80302002ADAD120689A
:102210004069400636D500BF206850E8050F2168A8
:1022200020F0400041E80502DAB1206850E8050FCF
:10223000216820F0400041E8050292B1206850E892
:10224000050F216820F0400041E805024AB12068EE
:1022500050E8050F216820F0400041E80502002AFF
:10226000DAD1E06B70B100210165FEF7FFFE48B1E5
:10227000E06BFEF755FF202804D110206064032096
:1022800010BD00BF00202021E08584F842102063AB
:1022900010BD0000016844F60002C4F20002914241
:1022A00018BF7047B0B582B040F20815C2F2000501
:1022B0002A89044601322A81426CEA600022019296
:1022C0000B6801934B680193019B01920B6801938A
:1022D0004B680193019B01920B6801934B6801933A
:1022E000019B01920B6801934B680193019B019242
:1022F0000B6801934968019101994264FFF712FF4D
:1023000005F12C0120462422FFF792FD40F20C201B
:10231000C2F200000068016821F00801016002B00B
:10232000BDE8B04070470000B0B582B001680A68EF
:10233000CC684B6902F02F05202D04F0200505D153
:1023400025B102B0BDE8B04001F018B85FEA027CE8
:102350001EBF03F0010E04F4907313EB0E0341D182
:10236000036BD50618D5012B16D114F0100313D02A
:10237000002201920A6801924A680192019A496911
:1023800049064BD4818DC28DC38D002B18BF91425D
:1023900040F0068202B0B0BD13062DD514F08003C4
:1023A0002AD090F84120212AF4D18268B2F5805FCA
:1023B00003D10269002A00F07982026A531C036289
:1023C00012784A60C28C013A1304C284E2D1C86810
:1023D00020F08000C860C86840F04000C86002B0CB
:1023E000B0BD00BFD30718BF14F4807340F0E28083
:1023F000530700F1E580EAE05206CBD514F0400225
:10240000C8D0CA6822F04002CA60202180F841107A
:1024100002B0BDE8B04000F0F9BA00BFC26B11686D
:102420004B68858D99B2002900F0B480A94280F0F4
:10243000B180C385D169B1F5807F00F0A0800168CB
:1024400051E8031F026821F4807142E80313DBB1F5
:10245000016851E8031F026821F4807142E8031308
:1024600093B1016851E8031F026821F4807142E8CA
:1024700003134BB1016851E8031F026821F4807116
:1024800042E80313002BDAD1016851E8051F026806
:1024900021F0010142E80513BBB3016851E8051FB3
:1024A000026821F0010142E8051373B3016851E8A5
:1024B000051F026821F0010142E805132BB30168F2
:1024C00051E8051F026821F0010142E80513002BC5
:1024D000DAD11AE0016851E8051F026821F04001D5
:1024E00042E80513DBB1016851E8051F026821F0DD
:1024F000400142E8051393B1016851E8051F0268E5
:1025000021F0400142E805134BB1016851E8051F75
:10251000026821F0400142E80513002BDAD12021A6
:1025200080F8421000210163016851E8031F02682E
:1025300021F0100142E80313DBB1016851E8031FE9
:10254000026821F0100142E8031393B1016851E8D9
:10255000031F026821F0100142E803134BB1016828
:1025600051E8031F026821F0100142E80313002B19
:10257000DAD1C16B04460846FEF778FD20460221F9
:102580004163818DC28D891A89B202B0BDE8B04025
:10259000FFF746BD8D427FF4FDAED269B2F5807F74
:1025A0007FF4F8AE0222426302B0BDE8B040FFF70C
:1025B00037BD00BF436C43F001034364530706D5A6
:1025C000BEF1000F03D0436C43F002034364930752
:1025D00006D5BEF1000F03D0436C43F004034364FF
:1025E000BCF1000F06D55EEA050303D0436C43F04F
:1025F00008034364436C002B3FF4CCAE920605D530
:1026000025B1044600F0BAFE216820464969426CB3
:1026100001F0400102F00802891800F0B98000BF03
:10262000016851E8031F026821F4907142E8031326
:10263000BBB3016851E8031F026821F4907142E8BE
:10264000031373B3016851E8031F026821F490710A
:1026500042E803132BB3016851E8031F026821F419
:10266000907142E80313002BDAD11AE0016851E8B7
:10267000051F026821F0010142E80513DBB1016882
:1026800051E8051F026821F0010142E8051393B1EA
:10269000016851E8051F026821F0010142E80513B5
:1026A0004BB1016851E8051F026821F0010142E8C1
:1026B0000513002BDAD1016B012924D1016851E8FF
:1026C000031F026821F0100142E80313DBB1016827
:1026D00051E8031F026821F0100142E8031393B18F
:1026E000016851E8031F026821F0100142E803135A
:1026F0004BB1016851E8031F026821F0100142E864
:102700000313002BDAD1202180F84210002101634D
:1027100001684969490640F1C380016851E8051F15
:10272000026821F0400142E80513DBB1016851E87D
:10273000051F026821F0400142E8051393B10168CA
:1027400051E8051F026821F0400142E805134BB132
:10275000016851E8051F026821F0400142E80513B5
:10276000002BDAD1C16B002900F09A8043F27D0280
:10277000C0F60002044608460A65FEF7BFFC0028C2
:102780003FF408AEE06B016D02B0BDE8B040084711
:102790000446FFF77FFD0020606402B0B0BD00BFBB
:1027A000891A00BF026852E8032F036822F490726E
:1027B00043E80325BDB3026852E8032F036822F4FF
:1027C000907243E8032575B3026852E8032F03684B
:1027D00022F4907243E803252DB3026852E8032FD8
:1027E000036822F4907243E80325002DDAD11AE041
:1027F000026852E8052F036822F0010243E805252C
:10280000DDB1026852E8052F036822F0010243E8B7
:10281000052595B1026852E8052F036822F00102F0
:1028200043E805254DB1026852E8052F036822F000
:10283000010243E80525002DDAD1202280F842204C
:1028400000220263026852E8032F036822F010029C
:1028500043E80325DDB1026852E8032F036822F044
:10286000100243E8032595B1026852E8032F03687C
:1028700022F0100243E803254DB1026852E8032F0D
:10288000036822F0100243E80325002DDAD102226A
:1028900089B2426302B0BDE8B040FFF7C1BB00BFE0
:1028A00002B0BDE8B040FFF7F5BC00BF026A32F8E5
:1028B000023B6FF35F234B60026283E5002804BF95
:1028C0000120704710B5044690F8410028B9002057
:1028D00084F84000204600F021F8242084F84100CC
:1028E0002068C16821F40051C160204600F0C6FD97
:1028F0002068016921F490410161416921F02A01B8
:102900004161C16841F40051C16000202021606430
:1029100084F8411084F84210606310BD70B586B031
:10292000044644F600002168C4F2000000268142FB
:102930000596CDE903660296019601D006B070BDFA
:1029400043F630010096C4F202010A6900F5E03056
:1029500042F480220A610A6902F480220092009AFD
:1029600000960A6842F004020A60096801F0040156
:10297000009100994FF4406101910221CDE90216C6
:10298000032104910721059101A9FEF7C5FD40F23D
:102990000C2546F22800C2F20005C4F202004FF0F6
:1029A000006185E843004FF400304FF480624FF43B
:1029B0008073C5E908062846C5E90362C5E90566CE
:1029C000EB61FEF791FC002818BFFDF75BFE2720A6
:1029D00000210022E563AC63FEF7F0FE2720FEF73E
:1029E000DBFE06B070BD0000006844F60001C4F2D2
:1029F0000001884218BF704740F2B420C2F20000C4
:102A00000188013101807047704700007047000065
:102A1000FEE7000010B540F2BC1046F20041C2F2E1
:102A20000000C4F200010322002380E80E0000F140
:102A30000C014FF4002C4FF4401E4FF0012481E8AC
:102A400008504FF4807184618183FEF721F90028DA
:102A500008BF10BDBDE81040FDF714BE10B540F230
:102A6000E41046F60001C2F20000C4F200010322A5
:102A7000002380E80E0000F10C014FF4002C4FF40D
:102A8000401E4FF0012481E808504FF480718461AA
:102A90008183FEF7FDF8002808BF10BDBDE8104097
:102AA000FDF7F0BD80B582B00020019043F6300004
:102AB000C4F202000168002241F4001101600068C4
:102AC000002100F40010019001980C20FEF776FE22
:102AD0000C2002B0BDE88040FEF75EBE81B0002150
:102AE00043F630000091C4F20200026842F0020294
:102AF0000260026802F002020092009A00910268ED
:102B000042F001020260026802F001020092009AA3
:102B10000091026842F008020260026802F00802B6
:102B20000092009A0091026842F00402026002687A
:102B300002F004020092009A0091016841F08001C5
:102B40000160006800F080000090009801B07047BC
:102B500010B540F26C2044F6000C48F2A062C2F2BC
:102B60000000C4F2000CC0F201024FF480530021B7
:102B70004FF4806E0C24C0E900C2C0E90231C0E904
:102B800004E4C0E90611FFF799FE002808BF10BD54
:102B9000BDE81040FDF776BDFEE7000040F2700092
:102BA000C2F200000178002918BF7047B0B540F2AA
:102BB000BC22C2F200024FF4017440F2000E44F253
:102BC000000346F2000C546240F20324C4F2A01E3B
:102BD000C4F29C63C4F2EA6C0021146540F2022442
:102BE00040F2012582F828101182C2E9051EC2E9CF
:102BF000073C1180C2E90111117382F854109187CA
:102C0000C2E9101EC2E9123C9185C2E90C1182F89A
:102C1000381082F88010A2F86810C2E91B1EC2E9C1
:102C20001D3CD467A2F85810C2E9171182F864104D
:102C300082F8AC10A2F89410C2E9261EC2E9283C22
:102C4000C2F8A850A2F8841082F89010C2E92211AC
:102C500040F264124465C2F2000240F2052480F89A
:102C60002C108182C0E9061E81800174C0E9021126
:102C700080F85810A0F84010C0E9111E018680F8B5
:102C80003C10C0E90D1182F828101182C2E9051E1E
:102C9000546211801173C2E9011140F2062482F8D6
:102CA00054109187C2E9101E918582F83810C2E94C
:102CB0000C110121C0E9083C8562C0E9133CC2E95E
:102CC000073CC2E9123C14650170BDE8B040704792
:102CD000F0B583B0FFF762FF40F2BC20C2F2000003
:102CE000828C002101910091511EC9B24CF2000565
:102CF0000329CFF6FF7519D890ED050A9FED951AB7
:102D00006F4620EE010ABDEEC00A10EE102AB2F5A1
:102D1000804FA8BF4FF4804212F5804FD8BF2A469B
:102D2000130A07EB410607F811307270B0F8501023
:102D30000139C9B2032919D890ED100A9FED851AFF
:102D40006F4620EE010ABDEEC00A10EE102AB2F561
:102D5000804FA8BF4FF4804212F5804FD8BF2A465B
:102D6000130A07EB410607F811307270B0F87C10B7
:102D70000139C9B2032919D890ED1B0A9FED751AC4
:102D80006F4620EE010ABDEEC00A10EE102AB2F521
:102D9000804FA8BF4FF4804212F5804FD8BF2A461B
:102DA000130A07EB410607F811307270B0F8A8104B
:102DB0000139C9B2032919D890ED260A9FED651A89
:102DC0006B4620EE010ABDEEC00A10EE100AB0F507
:102DD000804FA8BF4FF4804010F5804FD8BF2846E1
:102DE000020A03EB410703F81120787040F2BC108F
:102DF0006C46C2F200004FF400712246FDF7A2FBC0
:102E000040F27000C2F20000018D00220139C9B207
:102E100003290192009218D890ED060A9FED4D1AF1
:102E200004EB410720EE010ABDEEC00A10EE102AA5
:102E3000B2F5804FA8BF4FF4804212F5804FD8BF43
:102E40002A46130A04F811307A70B0F85410013988
:102E5000C9B2032918D890ED110A9FED3E1A04EB70
:102E6000410320EE010ABDEEC00A10EE100AB0F5D3
:102E7000804FA8BF4FF4804010F5804FD8BF284640
:102E8000020A04F81120587040F2E4106C46C2F2B5
:102E900000004FF400712246FDF754FB40F2641627
:102EA000C2F20006B08C0027FB30C0B203280197A5
:102EB000009718D896ED050A9FED261A04EB4003FB
:102EC00020EE010ABDEEC00A10EE101AB1F5804FD7
:102ED000A8BF4FF4804111F5804FD8BF29460A0A98
:102EE00004F81020597040F2BC106C46C2F2000089
:102EF00040F2FF112246FDF725FBB6F8500001977E
:102F0000FB30C0B20328009718D896ED100A9FED49
:102F1000111A04EB400220EE010ABDEEC00A10EEC9
:102F2000101AB1F5804FA8BF4FF4804111F5804FC2
:102F3000C8BF0D46290A04F81010557040F2E4107D
:102F4000C2F200006A4640F2FF11FDF7FBFA03B03F
:102F5000F0BD00BF0000C842FEE70000704700005F
:102F600080B582B040F20811C2F200010020C1E930
:102F70000400C1E90600C1E908008862019040F23E
:102F80006C20C2F2000002682C3113680193526871
:102F90000192019A2422FEF74BFF00B100BE40F2DD
:102FA0000C20C2F200000068016821F008010160F5
:102FB00002B080BD70470000FEF784BB70B592B0D0
:102FC00006AC20463021FDF7DDF9002543F6400030
:102FD0000595CDE90355CDE901550095C4F20200F0
:102FE0000168022641F080510160006800F08050C5
:102FF0000090009847F200000095C4F200000168BC
:1030000041F480410160006800F480400090009825
:10301000012006904FF4803007904FF480000D900F
:1030200006200E90A820CDE90F060720119020461B
:103030000C96FEF711FD18B172B600BFFEE700BF97
:103040000F20CDE901064FF4A05004904FF48050BA
:10305000059001A805210395FEF7ECFB10B172B6AF
:10306000FEE700BF12B070BD4EF68850CEF20000F1
:10307000016841F47001016070470000806B00211D
:10308000C185FFF707B90000806B01684A6990F8B5
:103090004130212B2DD112F080022AD00021C18491
:1030A000016851E8031F026821F0C00142E80313E0
:1030B000DBB1016851E8031F026821F0C00142E85A
:1030C000031393B1016851E8031F026821F0C001A6
:1030D00042E803134BB1016851E8031F026821F075
:1030E000C00142E80313002BDAD1202180F84110FF
:1030F0000168496990F84220222A40F07D8011F051
:10310000400179D00021C185016851E8031F0268A0
:1031100021F4907142E80313BBB3016851E8031F27
:10312000026821F4907142E8031373B3016851E817
:10313000031F026821F4907142E803132BB3016866
:1031400051E8031F026821F4907142E80313002B39
:10315000DAD11AE0016851E8051F026821F0010187
:1031600042E80513DBB1016851E8051F026821F050
:10317000010142E8051393B1016851E8051F026897
:1031800021F0010142E805134BB1016851E8051F28
:10319000026821F0010142E80513002BDAD1016B2E
:1031A000012924D1016851E8031F026821F01001B0
:1031B00042E80313DBB1016851E8031F026821F004
:1031C000100142E8031393B1016851E8031F02683C
:1031D00021F0100142E803134BB1016851E8031FCD
:1031E000026821F0100142E80313002BDAD12021FC
:1031F00080F8421000210163416C41F010014164EC
:10320000FFF748B80168806B0968C90500F19F8025
:103210000021C185016851E8031F026821F4807113
:1032200042E80313E3B1016851E8031F026821F487
:10323000807142E803139BB1016851E8031F0268E3
:1032400021F4807142E8031353B1016851E8031F70
:10325000026821F4807142E80313002BDAD100BF29
:10326000016851E8051F026821F0010142E80513D9
:10327000BBB3016851E8051F026821F0010142E873
:10328000051373B3016851E8051F026821F00101BD
:1032900042E805132BB3016851E8051F026821F0CD
:1032A000010142E80513002BDAD11AE0016851E868
:1032B000051F026821F0400142E80513DBB10168F7
:1032C00051E8051F026821F0400142E8051393B15F
:1032D000016851E8051F026821F0400142E805132A
:1032E0004BB1016851E8051F026821F0400142E836
:1032F0000513002BDAD1202180F84210016B01293F
:1033000025D100BF016851E8031F026821F01001B8
:1033100042E80313DBB1016851E8031F026821F0A2
:10332000100142E8031393B1016851E8031F0268DA
:1033300021F0100142E803134BB1016851E8031F6B
:10334000026821F0100142E80313002BDAD10021BA
:103350004163016B012918BFFFF746BB818DFEF762
:103360005FBE0000806B01214163016B012918BF22
:10337000FFF74ABB818D4908FEF752BE81B090F835
:103380004210222921D183680246B3F5805F09D11A
:1033900052F8281F52F8183C002B63D003685B6872
:1033A0000AE000BF52F8281F13B90369002BF5D0BB
:1033B00003685B6803F07F030B70116801311160D3
:1033C000C18D01390A04C18502D001B0704700BF28
:1033D0000168CA6822F02002CA60CA6822F48072BA
:1033E000CA604A6922F001024A61202180F8421035
:1033F00000214163026B012A3CD10163016851E85D
:10340000031F026821F0100142E80313DBB10168D9
:1034100051E8031F026821F0100142E8031393B141
:10342000016851E8031F026821F0100142E803130C
:103430004BB1016851E8031F026821F0100142E816
:103440000313002BDAD101680A68D20606D50022E0
:1034500000920A680092496800910099818D01B03C
:10346000FEF7DEBD026852686FF35F2221F8022B7F
:103470008162A5E701B0FFF7B7BA0000B0B5044616
:10348000006804F108030ECB0569194325F4405583
:103490002A4302616269E3691143C268194349F230
:1034A0000C639A431143C1604169A26921F44071E0
:1034B00041F20043114340F48062C4F201039A4296
:1034C000416103D1FEF77CFA02E000BFFEF764FA27
:1034D000E1694FF69C7563681922C0F6FF75B1F576
:1034E000004FA0FB02011FD15A00DB0FFCF7D2FEF8
:1034F00048F21F51C5F2EB11A0FB01235A0905F157
:10350000805302FB0300322303EBC000A0FB010148
:103510004FF4F87000EA111000EB0210C1F34211F1
:10352000084421688860B0BD9A009B0FFCF7B2FE8A
:1035300048F21F51C5F2EB11A0FB01235A0902FB0F
:103540000500322303EB0010A0FB0101F02000EA8C
:10355000511000EB0210C1F3431108442168886048
:10356000B0BD000040F26011C2F200010868421CC8
:1035700040F26C20C2F200000A60FEF7D5BE0000E7
:10358000FEE70000FEF7ACF8FFF718FDFFF7A6FA1C
:10359000FFF788FAFFF73EFAFFF760FAFFF7D8FA6D
:1035A000FCF762FFFFF7FAFAFFF7DAFC0A20FDF7F3
:1035B0009FFF00BFFDF710F80120FDF799FFF9E725
:1035C00021F0004201F00043A2F16052B2F5801FE9
:1035D00028BFD2F17F6C0BD95FEA001C43EAC2021C
:1035E00042EB507018BF704728BF20F001007047B1
:1035F000B2F5801FBCBF184670474FEA410C1CF55E
:10360000001F02D2084600F0E5BA70B500F010FACB
:1036100000000089FFF7F6BF4FF00040A0F58000E2
:10362000704700002DE9C04130B4DFF8A8C23CEA81
:10363000111418BF3CEA131400F0F0801CEA1114B6
:1036400081EA030544EAD57418BF1CEA131500F09B
:10365000CB80A4EB050404F17F7404F500344FF033
:10366000004545EAC12145EAC32341EA505143EAF6
:1036700052534FEAC0204FEAC222994208BF9042FB
:1036800000F0A0804FEA13650FF24816765D4FEA0E
:10369000134506FB05F7C7F1807706FB07F74FEAEE
:1036A000D737A7FB03687642A7FB06CEC8F580385C
:1036B00038BFA8F1010807FB08E6A6FB028C4FF013
:1036C000000EE6FB03CED8F100086FEA0C0C5CF1AB
:1036D000000C6FEA0E0E4EF1004EA6FB0C584FF098
:1036E0000007E6FB0E87A1FB08C6A0FB07CE16EB82
:1036F0000E064FF0000545F10005E1FB076515F1E9
:10370000E04E7EBFA4F580345FEA46066D4116F1B7
:10371000800745F100054FEA172747EA05674FEA9A
:1037200015254FEA0666A6F1DE46B6F1805F20D980
:10373000384605EBC47124F0010C01EB0C11BCF10F
:10374000FE6F02D8F0BCBDE8008124425CBF01F5E9
:10375000801E9EEAC47F02D4F0BCBDE800812442F2
:1037600000F13980A1F1C041F0BCBDE8004100F09A
:10377000ADB94FEAD02040EA41504FEAD1214FEA9B
:10378000D22242EA43524FEAD323A7FB028607FB29
:10379000036605FB02661EEA0E0F58BFA6EB005635
:1037A000B6EB00564FEA520E4EEAC37E18EB0E0EF1
:1037B00056EB530EBCD518EB02085E417F1C55F149
:1037C0000005B5E74FF480154FF000074FF00006F5
:1037D0004FF00008ACE701F1C04101F000414FF0AB
:1037E0000000F0BCBDE800810CEA131511EA0C1FC3
:1037F00000D00CE013EA0C1F00F025804FF0000011
:1038000081EA030101F00041F0BCBDE80081F0BC99
:10381000BDE8004181EA030100F058B9F0BCBDE801
:10382000004170B500F004F9097EFC3E00F007B8D5
:103830004FF0000081EA030101F00041704781EA86
:10384000030100F043B9F0BCBDE8004122494FF04C
:1038500000007047FFFDFBF9F7F5F4F2F0EEEDEB39
:10386000E9E8E6E4E3E1E0DEDDDBDAD8D7D5D4D37E
:10387000D1D0CFCDCCCBCAC8C7C6C5C4C2C1C0BFCA
:10388000BEBDBCBBBAB9B8B7B6B5B4B3B2B1B0AFD0
:10389000AEADACABAAA9A8A8A7A6A5A4A3A3A2A1B4
:1038A000A09F9F9E9D9C9C9B9A999998979796956F
:1038B00095949393929191908F8F8E8E8D8C8C8B0B
:1038C0008B8A898988888787868585848483838293
:1038D000828181800000FF070000F87F70B5DFF86B
:1038E00048C11CEA111E1EBF1CEA13159EEA0C0FEC
:1038F00095EA0C0F00F06F8081EA03044EEAD47E53
:10390000AE4421EA4C1123EA4C1341F4801143F4F4
:103910008013AEF17F7EA1FB024CA0FB036536193C
:1039200055EB0C05A1FB034C4CF10003A0FB021C62
:1039300016EB0C06654153F10003094218BF46F02F
:10394000010613F4007F0BD14FEA03314FEA053033
:1039500041EA155140EA165034036FF003020AE0C1
:103960004FEAC3214FEAC52041EA555140EA56507B
:10397000F4026FF0020202EB2E4201EB025585EADF
:10398000CE710AD05FEA440C18BF24F0004450F115
:10399000000041F1000120EAD47040F2FE7C624553
:1039A00000D270BDA84214BF4FF080444FF0404495
:1039B000002E08BF0024BEF1806FA8BFA1F1C04156
:1039C000BDE8704080F2828001F1C04101F0004109
:1039D0004FF0000070470CEA13159EEA0C0F18BF59
:1039E00095EA0C0F06D081EA030E4FF000000EF0AE
:1039F000004170BD00F01CF88900013E00F007B8DE
:103A000000F009B84FEA430C5FEA5C5C08D081EA39
:103A1000030100F05BB84FEA410C5FEA5C5CF6D151
:103A200002494FF0000070470000FF070000F87FD8
:103A30000EF1020E2EF0030E5EF8046B364205D432
:103A4000012A43EB030515F5001F12D8012841EBAD
:103A5000010C1CF5001F0CD80ED14FEAD17C0CEBE9
:103A60004C0C0CF1020C15F5001F08BF4CEBD37C7D
:103A700004E04FF0080C01E04FEAD37C0CEB4C055E
:103A800026FA05F606F00706B6F1040C06D20EEB90
:103A9000860CBDE870404CF0010C6047DFE80CF08C
:103AA000090B02024FF00041A1F500214FF0000088
:103AB00070BD19461046012851EB010418BFD4F51A
:103AC000001484BF002001F0004170BD0808A0F57B
:103AD00000114FEA3101704743004FEAD30C4FEA1F
:103AE0003C0C43401FBF40070CF1605113F0FE4FE8
:103AF00070471CF0006F03D10CF0004100207047AC
:103B00000CF0004343EA507040EACC0010B500F0DE
:103B10000EF800BF000000924FEA0001FFF7D6BF89
:103B20004FF00041A1F500214FF0000070470EF169
:103B3000020E2EF0030E5EF8044B244204D44FEA2A
:103B40004102B2F17F4F11D84FEA4003B3F17F4FEA
:103B50000CD80ED14FEAD07C0CEB4C0C0CF1020CC3
:103B6000B2F17F4F08BF4CEBD17C04E04FF0080C62
:103B700001E04FEAD17C0CEB4C0324FA03F404F08F
:103B80000704B4F1040C06D20EEB840CBDE810401F
:103B90004CF0010C6047DFE80CF0070802024FF020
:103BA0000040A0F5800010BD0846420018BFD2F1C9
:103BB000807288BF00F0004010BDF1EE100A4FF691
:103BC000FF71C0F2C03120EA010040F04070E1EE28
:103BD000100A7047FF2141EAD050C005704700002D
:103BE00000000000000001020304060708090000AD
:103BF0000000010203040006101600061016000063
:103C0000203C00080000002010000000EC0100082B
:103C1000303C000810000020600900000C02000881
:103C200001000000100000000024F400000000006B
:040000050800018965
:00000001FF
