:020000040800F2
:10000000689A002055020008C17300085951000881
:10001000216F0008350800085D910008000000000D
:1000200000000000000000000000000051840008F3
:10003000A51100080000000081790008598500081A
:100040006F0200086F0200086F0200086F020008CC
:100050006F0200086F0200086F0200086F020008BC
:100060006F0200086F0200086F0200086F020008AC
:10007000A11000086F0200086F0200086F0200085C
:100080006F0200086F0200086F0200086F0200088C
:10009000F10800086F0200086F0200086F020008F4
:1000A0006F0200086F0200086F0200086F0200086C
:1000B0006F0200086F0200086F0200086F0200085C
:1000C0006F0200086F0200086F0200086F0200084C
:1000D0006F0200086F0200086F02000851910008CB
:1000E0006F0200086F0200086F0200086F0200082C
:1000F0006F0200086F0200086F0200086F0200081C
:100100006F0200086F0200086F0200086F0200080B
:100110006F0200086F0200084D860008598600082B
:10012000AD1000086F0200086F020008B910000847
:100130006F0200086F0200086F0200086F020008DB
:10014000FD0800086F0200086F0200086F02000837
:100150006F0200086F0200086F0200086F020008BB
:100160006F0200086F0200086F0200086F020008AB
:100170006F0200086F0200086F0200080000000014
:100180006F0200086F02000800F002F800F052F859
:1001900014A696E8000CB244B344DA4501D100F04D
:1001A00049F8BAE80F000FA696E83000A5EB040561
:1001B00004EB0607AAEB0704A7F101074FEA1515A0
:1001C0004FEA3414A4F10104AC4201D300F032F838
:1001D00013F0010F18BFFB1A43F0010300F001F800
:1001E000DBE7184778C7000098C70000103A24BF23
:1001F00078C878C1FAD8520724BF30C830C144BF8C
:1002000004680C6070470000704700000023002461
:1002100000250026103A28BF78C1FBD8520728BF16
:1002200030C148BF0B6070471FB50CF0C2FA1FBD4C
:1002300010B510BD00F084F91146FFF7F5FF0AF084
:1002400009FC00F0A2F903B4FFF7F2FF03BC00F0D1
:10025000A5F900000948804709480047FEE7FEE786
:10026000FEE7FEE7FEE7FEE7FEE7FEE7FEE7FEE766
:1002700004480549054A064B7047000039860008C6
:100280008901000868940020689A00206896002080
:100290006896002053EA020C00F069802DE9F04BCB
:1002A0004FF00006002B1FBFB3FA83F503FA05F4E5
:1002B00024FA05F65E4012BF1643B2FA82F502FA3E
:1002C00005F4C5F120051EBF22FA05FC44EA0C0422
:1002D000203556EA044C4FEA144418BF641C4FF012
:1002E00000084FF00009904271EB030C39D300294C
:1002F00019BFB1FA81F701FA07F6B0FA80F700FAF0
:1003000007F6C7F120071EBF20FA07FC46EA0C06D5
:100310002037B6FBF4FCA7EB0507103F07F01F0BD7
:10032000CBF120062CFA06F60CFA0BFB44BFB346C1
:100330000026202FA4BF5E464FF0000B5BEA060CA0
:1003400008BF4FF0010B19EB0B0948EB0608ABFB9C
:10035000027C06FB02CC0BFB03CCC01B71EB0C0137
:10036000C1E70B46024641464846BDE8F08B13B54F
:10037000084318BF4FF0FF300146AFF30080BDE8DF
:100380001C407047032A40F2308010F0030C00F04C
:10039000158011F8013BBCF1020F624498BF11F8BF
:1003A00001CB00F8013B38BF11F8013BA2F1040278
:1003B00098BF00F801CB38BF00F8013B11F00303F0
:1003C00000F02580083AC0F0088051F8043B083A54
:1003D00051F804CBA0E80810F5E7121D5CBF51F8F6
:1003E000043B40F8043BAFF30080D20724BF11F870
:1003F000013B11F801CB48BF11F8012B24BF00F8D5
:10040000013B00F801CB48BF00F8012B704710B545
:10041000203AC0F00B80B1E81850A0E81850B1E8BD
:100420001850A0E81850203ABFF4F5AF5FEA027CFC
:1004300024BFB1E81850A0E8185044BF18C918C02C
:10044000BDE810405FEA827C24BF51F8043B40F8CD
:10045000043B08BF7047D20728BF31F8023B48BFB2
:1004600011F8012B28BF20F8023B48BF00F8012BF0
:10047000704702F0FF0343EA032242EA024200F01F
:1004800024B84FF000020429C0F0128010F0030CD1
:1004900000F01B80CCF1040CBCF1020F18BF00F877
:1004A000012BA8BF20F8022BA1EB0C0100F00DB826
:1004B0005FEAC17C24BF00F8012B00F8012B48BF84
:1004C00000F8012B70474FF0000200B51346944628
:1004D0009646203922BFA0E80C50A0E80C50B1F19C
:1004E0002001BFF4F7AF090728BFA0E80C5048BFB0
:1004F0000CC05DF804EB890028BF40F8042B08BF4E
:10050000704748BF20F8022B11F0804F18BF00F849
:10051000012B704770477047704710B500F008F81E
:10052000006810BD10B5044600F002F8046010BD6C
:1005300000487047C800002000487047C8000020ED
:100540007546FFF7F9FFAE4605006946534620F0B1
:100550000700854618B020B5FFF78AFEBDE82040A9
:100560004FF000064FF000074FF000084FF0000B6F
:10057000AC46ACE8C009ACE8C009ACE8C009ACE8DE
:10058000C00921F007018D46704710B50446AFF34E
:1005900000802046BDE81040FFF755BE01491820F5
:1005A000ABBEFEE726000200704700000020C4F248
:1005B00002001021012202F051BC00000020C4F210
:1005C00002001021002202F049BC000010B50024F6
:1005D000C4F2020420461021012202F03FFC04F57F
:1005E000806001210122BDE8104002F037BC00000C
:1005F00040F20040C4F202000121012202F02EBCB0
:1006000040F20040C4F202000121002202F026BCA8
:100610007047000000EE100A9FED031AB8EE400A82
:1006200020EE010A00F04EBD6F12833A00EE100A70
:100630009FED031AB8EE400A20EE010A00F042BD19
:10064000BD37863510B5FFF7C1FFFFF7E1FF09F0B1
:10065000CBFF04460AF0F2F8204310BD2DE9F04F1D
:1006600083B002920E460190FFF7A8FF922000F09F
:10067000C3F8922000F0C0F8552000F0BDF8804685
:10068000552000F0B9F80546552000F0B5F882462F
:10069000552000F0B1F80446552000F0ADF883462F
:1006A000552000F0A9F80746FFF780FF48EA05202B
:1006B00040F2240900B2C2F2000900EE100A99EDDE
:1006C000001AB8EEC00A4AEA042021EE000A00B27D
:1006D00086ED000A00EE100A4BEA072000B299ED01
:1006E000001A02EE100AB8EEC00AB8EEC22A21EED5
:1006F000000A21EE021A86ED010A86ED021AFFF7C2
:100700007FFF802000F078F8552000F075F806464D
:10071000552000F071F8552000F06EF88246552003
:1007200000F06AF80546552000F066F8834655202B
:1007300000F062F80446552000F05EF807465520A8
:1007400000F05AF88046FFF753FF0F2E25D14AEAF2
:10075000052000B200EE100A99ED011AB8EEC00AA9
:1007600001994BEA042021EE000A00B281ED000A53
:1007700000EE100A47EA082000B299ED011A02EED5
:10078000100AB8EEC00AB8EEC22A21EE000A21EE25
:10079000021A81ED010A81ED021AFFF70FFFA22074
:1007A00000F02AF8A22000F027F8552000F024F8E5
:1007B000044646B2552000F01FF80546FFF7F6FE46
:1007C000E00040EA55104FF60001CFF6FF71002E11
:1007D00048BF084300EE100AB8EEC00AB4EE001A93
:1007E00020EE010AB3EE071A029830EE010A80EDFE
:1007F000000A03B0BDE8F08F10B582B08DF8070095
:1008000041F20C0000244FF00A0CC2F200000DF17E
:1008100007010DF1060201238DF80640CDF800C056
:1008200003F014F89DF80610002818BF2146C8B23E
:1008300002B010BDFEE7000080B541F26400C2F2D4
:10084000000001680022CA63082103F07DFD002832
:1008500008BF80BDBDE8804000F0ACBC40F288100D
:10086000C2F20000012101703221418041F2640096
:10087000C2F200000068C16A01314908C1637047D3
:1008800040F28810C2F20000017881B3418811B1B2
:100890004188013941804188002918BF704701789B
:1008A00002290DD0012919D102210170282141808E
:1008B00041F26400C2F200000068002116E000BFAF
:1008C000032101703221418041F26400C2F2000034
:1008D0000068C16A0131490808E000BF00210170C9
:1008E000418041F26400C2F200000068C1637047B9
:1008F00040F69C60C2F2000001F00EBC40F6C460FD
:10090000C2F2000001F008BC80B58AB040F2581174
:100910000020C2F20001CDE90200CDE90000C1E9EA
:100920000000C1E90200C1E90400C1E90600C1E913
:100930000800C1E90A00CDE9050004900E2001215C
:10094000099040F69C60CDE90711C2F200006946AB
:1009500001F08AFA30B940F69C60C2F2000001F062
:10096000EBFEB8B100F026FC0E20059040F6C46006
:10097000C2F20000694601F077FA30B940F6C4606F
:10098000C2F2000001F0D8FE90B100F013FC0AB0F2
:1009900080BD00BF40F69C60C2F2000048F60271C4
:1009A00001F0F8F9002818BF00F004FCDCE700BFF4
:1009B00040F6C460C2F2000048F6027101F0EAF9A4
:1009C000002818BF00F0F6FB0AB080BD40F25810B6
:1009D000C2F20000817D11B990F82E0010B1002004
:1009E000704700BF80B540F69C60C2F2000001F085
:1009F0006BFB02281CBF002080BD40F6C460C2F221
:100A0000000001F061FB0238B0FA80F0400980BDBF
:100A100070B58AB040F6C466044640F69C6CC2F2DB
:100A200000060025C2F2000C40F25810B4420995AD
:100A3000CDE90755CDE90555C2F2000008BF00F128
:100A40001805644508BF0546002C4FF0010018BF8B
:100A5000002901D10AB070BD002DFBD00820C96A61
:100A60000E9E0890100ADDF83CC08DF80400180AAC
:100A70008DF80600300A8DF808004FEA1C2004911A
:100A800000218DF80A002046CDE906118DF82410CA
:100A90008DF805208DF807308DF809608DF80BC0B2
:100AA00001F026FB60B104A901AA03AB204601F0C6
:100AB00089F9287530B9002068750AB070BD00BF8B
:100AC000022028750646286801302860204601F07B
:100AD00061FA2861687DFF2802D0687D0130687561
:100AE000687D042802D82869400701D50120A8752F
:100AF00030460AB070BD000010B540F25814C2F282
:100B00000004A07D20B340F69C60C2F2000001F01A
:100B100041FEE8B940F69C60C2F2000001F036FDEB
:100B2000B0B940F69C60C2F2000001F005FE78B951
:100B300040F69C60C2F2000048F6027101F02AF90A
:100B400030B90020A07560752061E0680130E06078
:100B500094F82E0030B140F6C460C2F2000001F0FB
:100B600019FE08B110BD00BF40F6C460C2F200001B
:100B700001F00CFD0028F5D140F6C460C2F200007F
:100B800001F0DAFD0028EDD140F6C460C2F20000A9
:100B900048F6027101F0FEF8002818BF10BD0020D1
:100BA00084F82E0084F82D00A062606A0130606233
:100BB00010BD000070B52DED108B88B040F24816C6
:100BC00040F2A85549F69A11C2F200060020C2F27E
:100BD0000005C3F69951307049F20C3245F2555375
:100BE000C5E9021005F11001C3F68962C4F255137C
:100BF0000DC1002048F65C74C4F240004AF2C011F6
:100C0000C3F6C264C4F2FC01C5E9A2006846C5E9A6
:100C10000044C5F8901207F0C1FABDF81400DFEDEA
:100C20007C0A70800020C4F2C8209FED7ADA9FED24
:100C30007A8AC5F824034FF07E509FED730A9FED2A
:100C4000731AB3EE04BAB1EE08CAB3EE099AB2EE63
:100C500000AAC5F8B40305F11C004FF4007102228C
:100C6000F0EE601AB0EE4B2AF0EE4C2AB0EE4D3AA0
:100C7000F0EE483AB0EE484AF0EE484AB0EE495A33
:100C8000F0EE4A5A06F092F99FED64EA9FED64FA9D
:100C900005F1B4004FF400710222B0EE4E0AF0EEFE
:100CA0004D0AB0EE4F1AF0EE481AB0EE4B2AF0EEB5
:100CB0004C2AB0EE4D3AF0EE483AB0EE484AF0EE2B
:100CC000484AB0EE495AF0EE4A5A06F06FF905F577
:100CD000A6704FF400710222B0EE4E0AF0EE4D0AFB
:100CE000B0EE4F1AF0EE481AB0EE4B2AF0EE4C2A56
:100CF000B0EE4D3AF0EE483AB0EE484AF0EE484ACF
:100D0000B0EE495AF0EE4A5A06F050F905F5F27085
:100D10004FF400710222B0EE4E0AF0EE4D0AB0EE32
:100D20004F1AF0EE481AB0EE4B2AF0EE4C2AB0EE15
:100D30004D3AF0EE483AB0EE484AF0EE484AB0EE8E
:100D4000495AF0EE4A5A06F031F9B1EE049A05F527
:100D50006070B1EE000AB0EE001AF0EE081AF0EE84
:100D6000480AB0EE492A06F061FD05F52870B0EE9C
:100D7000480AF0EE480AB0EE481AF0EE481AB0EE13
:100D8000482A06F053FD05F53370B0EE480AF0EE40
:100D9000480AB0EE481AF0EE481AB0EE482A06F0BB
:100DA00045FD05F53E70B0EE490AF0EE480AB0EE9A
:100DB000481AF0EE481AB0EE482A06F037FD9FEDCB
:100DC000199A05F54A70B0EE490AF0EE480A07F0A4
:100DD0005BFB05F54E70B0EE490AF0EE480A07F0ED
:100DE00053FB9FED110A05F55A70F0EE480A07F023
:100DF0004BFB07F03FF900F01FF80120307008B0FE
:100E0000BDEC108B70BD00BFCDCCCC3E3333333F37
:100E1000CDCC4C3ECDCCCC3D00000000CDCC4C3FE9
:100E20009A99193F6F12833B0BD7A33C40F24810AD
:100E3000C2F200000078704770B52DED028B88B0CB
:100E4000684607F0ABF9BDF8140040F2481640F2CE
:100E5000A8559FED318AC2F20006C2F200057080EB
:100E600005F54A70B0EE480A07F05CFB05F54E70D8
:100E7000B0EE480A07F056FB05F55A742046B0EE6E
:100E8000480A07F04FFB9FED250A204607F052FB6A
:100E90004FF07E500024C5F8B40305F560707470FF
:100EA000C5E99F44C5F88442C5E9A544C5F89C42FC
:100EB00085F8B04306F0B2FC05F5287006F0AEFCEC
:100EC00005F5337006F0AAFC05F53E7006F0A6FCA9
:100ED00005F15C00AC632C6506F0A0FC05F1F400A4
:100EE000C5F8D040C5F8E84006F098FC05F5C67096
:100EF000C5F86841C5F8804106F090FC05F5097019
:100F0000C5F80042C5F8184206F088FC07F01CF945
:100F100008B0BDEC028B70BD000000000BD7A33CF5
:100F2000F0B581B02DED0A8B88B040F2A857C2F21F
:100F3000000797EDEB9AB0EE490A0BF0E5F8B0EE3A
:100F4000408AB0EE490A0BF037F897EDA2BA97ED58
:100F5000A3AA6846B0EE409A07F020F940F2BC041C
:100F6000C2F200042078002874D0BDF9040007F014
:100F7000ADF9BDF90600B1EE40CA07F0A7F997F840
:100F8000B003013801280AD82078002814BF97ED53
:100F9000ED1A9FED421A2BEE01BA2AEE01AA20EEBD
:100FA000001A2CEE0C2A32EE011AB1EEC11AB7EE7D
:100FB000002A07F54A742046B4EE421AF1EE10FA00
:100FC000C8BFB0EE412A8CEE021A80EE02CA21EEB2
:100FD0000B0A07F0B7FA07F54E752CEE0A0A2846F9
:100FE00007F0B0FA204607F05FFA284607F05CFAEF
:100FF00007F55A76304607F057FA204607F03AFAD6
:101000002846B0EE40AA07F035FA28EE000A2AEE8C
:10101000091A31EE000AB1EE400A204687ED9F0A18
:1010200007F028FA2846B0EE40AA07F023FA29EE86
:10103000000A2AEE081A30EE410A304687EDA00A6F
:1010400007F018FA87EDA10A08B0BDEC0A8B01B0D1
:10105000F0BD00BFBDF814009FED0F2AC0F3800162
:10106000020701EBE27100EE101A00F001018007A7
:1010700001EBE07001EE100AB8EEC00AB8EEC11A3A
:1010800020EE02CA21EE020A97F8B00301380128C7
:101090007FF67AAF83E700BF9A99193FCDCCCC3E5B
:1010A00040F6AC70C2F2000001F00EBC40F6EC60FD
:1010B000C2F2000001F008BC40F64C70C2F2000021
:1010C00001F002BC41F2040040F2D812CEF200005E
:1010D000C2F20002016892ED001AB8EE411A20EE49
:1010E000010A16E00268521A01EE102AB8EE411AFF
:1010F000B4EE410AF1EE10FAD8BF70470268521AF6
:1011000001EE102AB8EE411AB4EE410AF1EE10FADF
:1011100015DD0268521A01EE102AB8EE411AB4EE3B
:10112000410AF1EE10FA0ADD0268521A01EE102AA5
:10113000B8EE411AB4EE410AF1EE10FAD2DC704773
:1011400010B54EF6FC5CCEF2000CDCF8002044F248
:101150004023C0F20F0342F08072584344F6D35349
:10116000CCF8002041F20002C1F26203CEF200028C
:101170004FF0000CA0FB033EC2F804C04DF68361A3
:101180001368C4F21B31A0FB011443F0010111608C
:1011900040F2D811C2F200014FEA9E12A30C81E87E
:1011A0000D1010BD7047000040F20800C2F20000B0
:1011B0004078704772B600BFFEE7000070B540F29D
:1011C0000804C2F20004022040F20435607020706E
:1011D00020710120C2F20005002660712E706E7031
:1011E00003F0CAFF686007F093F8A671E6726868BA
:1011F000A06170BD2DE9F04389B001AE304606F024
:10120000CDFF07F037F8054603F0C4FF40F20804AD
:10121000C2F20004E57180469DF80E009DF80F10A3
:1012200020723046617206F09BFFA07206F0D8FF74
:10123000E07284F80C80FFF7F9FD607300F0C0FBEA
:10124000A073FFF7C3FB40F2A857C2F20007E07398
:1012500007F11C0005F0E4FE0646002807F1B40083
:1012600018BF012605F0DCFE002807F5A67018BFA0
:10127000023605F0D5FE002807F5F27018BF0436D7
:1012800005F0CEFE40F60427C2F2000700283846DB
:1012900018BF083605F0C4FE002807F1980018BFF3
:1012A00046F0100605F0BCFE002818BF46F02006E8
:1012B000267403F061FF40F204396061C2F2000954
:1012C000D9F80400A06199F80100A07135B19DF82A
:1012D0000E00022806D10325012723E0022501275D
:1012E00020E000BF00F0FD00012815D1B8F1000F8B
:1012F00016D0607BC0B3A07B002847D0E07B0028DD
:1013000056D005F00FFE002864D099F8010000289F
:1013100072D00D20002520E00127012502E000BF4A
:1013200005250027002689F8016003F025FFC9F88C
:10133000040006F0EDFFA671E672D9F80400A06182
:1013400057B1681EC0B240F20311C000C0F20201E2
:1013500021FA00F001E000BF0420657025702571BE
:10136000607109B0BDE8F083002589F8015003F0F1
:1013700003FFC9F8040006F0CBFFA571E572D9F8A8
:1013800004000425A0610520E7E700BF002589F8D7
:10139000015003F0F1FEC9F8040006F0B9FFA57191
:1013A000E572D9F804000425A0610620D5E700BF46
:1013B000002589F8015003F0DFFEC9F8040006F0AB
:1013C000A7FFA571E572D9F804000725A0610720E1
:1013D000C3E700BF002589F8015003F0CDFEC9F82E
:1013E000040006F095FFA571E572D9F80400062502
:1013F000A0610820B1E700BF9DF80F0003280DD1C0
:10140000A07A88B106F0ECFEA0B103F0B5FED9F8E1
:101410000410884212D10C2004259EE700F014F835
:101420000920042599E700BF00F00EF80A200425E2
:1014300093E700BF0B2004258FE700BF012089F848
:101440000100A07165E70000B0B540F20434C2F2BB
:1014500000040025657003F08FFE606006F058FF01
:1014600040F20800C2F200008571C57261688161B6
:10147000B0BD0000B0B540F20434C2F200042078E0
:10148000002818BFB0BD0025657003F075FE6060D0
:1014900006F03EFF40F20800C2F200008571C572FE
:1014A0006168816103214170017001710221417104
:1014B0000120207040F23810C2F20000006818B11C
:1014C000BDE8B04009F024BBB0BD0000B0B5044693
:1014D00040689FED941A606188880D46C0BA00EE9E
:1014E000100AB8EEC00A20EE010AB3EE041A20EE8C
:1014F000010A84ED020A8879207301F0B5FCA0632B
:10150000012084F83C0094F83000022820D128887B
:101510009FED881A40BA00EE100AB8EE400A80EE3D
:10152000010A9FED812A20EE020A9FED802A30EE0B
:10153000000A20EE020A84ED010A6888C0BA00EEB3
:10154000100AB8EEC00A80EE011A9FED7B0A1DE07A
:1015500094F8300001282BD128889FED731A40BAE7
:1015600000EE100AB8EE400A20EE010A9FED6F1A55
:1015700030EE000A20EE010A84ED010A68889FED32
:101580006C0AC0BA01EE100AB8EEC11A9FED672AC4
:1015900031EE011A9FED693A21EE021A81EE031A2B
:1015A00084ED001A94ED021A21EE000A84ED060A79
:1015B00094ED040AB5EE400AF1EE10FA0AD194ED6A
:1015C000050AB5EE400AF1EE10FA03D16068206119
:1015D000B0BD00BF94ED010A94ED051A94F83000F7
:1015E00057A1022808BF043191ED002A30EE410ACC
:1015F000B4EE420AF1EE10FA32EE021A02DD30EEDB
:10160000410A08E0B1EE422AB4EE420AF1EE10FAC5
:10161000B8BF30EE010A94ED041A30EE010A84EDF1
:10162000040A94ED041A9FED480AB4EE401AF1EE54
:1016300010FA35DD9FED451A94ED042A32EE012AA9
:1016400084ED042A94ED042AB4EE402AF1EE10FA57
:1016500026DD94ED042A32EE012A84ED042A94ED6D
:10166000042AB4EE402AF1EE10FA19DD94ED042AB2
:1016700032EE012A84ED042A94ED042AB4EE402AC5
:10168000F1EE10FA0CDD94ED042A32EE012A84ED1D
:10169000042A94ED042AB4EE402AF1EE10FACBDCD1
:1016A00094ED041A9FED2A0AB4EE401AF1EE10FAF6
:1016B00037DA9FED281A1AE094ED042A32EE012A57
:1016C00084ED042A94ED042AB4EE402AF1EE10FAD7
:1016D000A8BFB0BD94ED042A32EE012A84ED042A9D
:1016E00094ED042AB4EE402AF1EE10FA19DA94EDE2
:1016F000042A32EE012A84ED042A94ED042AB4EE81
:10170000402AF1EE10FA0CDA94ED042A32EE012AA6
:1017100084ED042A94ED042AB4EE402AF1EE10FA86
:10172000CADBB0BD0000803800000039560E4940C9
:101730002DB23D3F2CA099419A99993E00007042EC
:10174000560E4940714F293EDB0F4940DB0FC9C09F
:10175000DB0F49C0DB0FC94010B5B0F89011B0EEF7
:10176000401A0229A1F1010E08D38A1E032A0EF0A5
:10177000030C07D29FED2D0A002327E09FED2B0AD3
:1017800047E000BF9FED290A2EF00302A0F11004EC
:10179000002300BF94ED052A94ED063A94ED074A24
:1017A00030EE020A94ED085A30EE030A30EE040AD5
:1017B000043384ED042A84ED053A84ED064A84ED71
:1017C000075A103430EE050A9A42E3D1BCF1000FFB
:1017D0001FD05A1C00EB820494ED002A00EB830218
:1017E000BCF1010F30EE020A82ED002A11D0023363
:1017F00000EB830393ED002ABCF1020F30EE020AE6
:1018000084ED002A05D092ED032A30EE020A83ED22
:10181000002A02EE101A31EE000AB8EE422A80EEDB
:10182000020A00EB8E0080ED001A10BD00000000DF
:10183000B0F89011002908BF704780B58900FEF705
:1018400042FE80BD0029A0F8901108BF704780B506
:101850008900FEF738FE80BD10B503F08DFC40F224
:101860004C11C2F200018860012040F60424487047
:10187000C2F200040020C4F83C01606304F16C0073
:1018800005F0CCFF04F14000BDE8104005F0C6BFF4
:1018900070B52DED0A8B88B040F24C1540F604244B
:1018A0009FED419A9FED41AA9FED41BA9FED41CA3C
:1018B000C2F200050020C2F20004B6EE008ADFED9D
:1018C000391A2870B2EE003AB1EE045AF1EE005A1D
:1018D000204640F2FF110122B0EE480AF0EE4C0A19
:1018E000B0EE4C1AB0EE492AF0EE4A2AF0EE4C3A2D
:1018F000B0EE4B4AF0EE4C4A012605F057FB9FED47
:101900002E0A9FED2E1A04F19800F5EE001AB0EEA3
:10191000085A40F2FF110122F0EE4B0AB0EE492ABC
:10192000F0EE4A2AB0EE4C3AF0EE4C3AB0EE4C4AA9
:10193000F0EE4C4AF0EE485A05F038FB43F2F470F2
:10194000C3F68570C4F8480103F01CFC4EF6101075
:10195000C4F2A5004DF20A714FF2773204F5B0736C
:10196000C3F6A361C3F60C7207C3684684ED500A40
:1019700084ED510A06F012FC07980521686040F6D4
:101980000850C2F20000FFF75DFF40F67430C2F26B
:1019900000000521FFF756FF2E7008B0BDEC0A8B42
:1019A00070BD00BFEC51383ECDCCCC3FCDCC4C3FD0
:1019B0000AD7A33C00000000CDCCCC3DCDCC4C3DA3
:1019C00040F24C10C2F200000078704700000000A6
:1019D000B0B52DED088B88B0684606F0DFFB40F20D
:1019E000BC00C2F20000007820B3BDF9000006F090
:1019F0006DFCB1EE081A20EE010A9FEDDB1ABDF96D
:101A0000020020EE019A06F061FC079840F24C11AA
:101A1000C2F20001486040F60850C2F20000FFF731
:101A200007FF40F67430C2F20000FFF701FF9FEDA0
:101A3000CF8A4EE040F24C11C2F2000107984A688A
:101A4000904205D19FEDC99AB0EE498A41E000BFAE
:101A5000BDF90C209FEDC6AA00EE102A4860B8EE32
:101A6000C00A40F6085020EE0A0AC2F20000FFF752
:101A700073FEBDEE00BAB4EE4B0AF1EE10FAB8BF39
:101A8000B0EE4B0AB5EE008ABDF90E00B4EE480A7E
:101A9000B0EE489AF1EE10FAB8BFB0EE409A00EE00
:101AA000100AB8EEC00A40F6743020EE0A0AC2F2FC
:101AB0000000FFF751FEB4EE4B0AF1EE10FAB8BF8A
:101AC000B0EE4B0AB4EE480AF1EE10FAB8BFB0EE31
:101AD000408A684603F042FB40F60425C2F2000546
:101AE00095ED2A0A95ED581A9FEDA2AA30EE410A0B
:101AF00001980299B4EE4A0AF1EE10FAC5E94C10C9
:101B00001EDD9FED9D1A00BF30EE010AB4EE4A0AB9
:101B1000F1EE10FA14DD30EE010AB4EE4A0AF1EEED
:101B200010FA0DDD30EE010AB4EE4A0AF1EE10FAB9
:101B300006DD30EE010AB4EE4A0AF1EE10FAE3DCFB
:101B40009FED8EBAB4EE4B0AF1EE10FA1EDA9FED5D
:101B50008C1A00BF30EE010AB4EE4B0AF1EE10FA17
:101B600014DA30EE010AB4EE4B0AF1EE10FA0DDA97
:101B700030EE010AB4EE4B0AF1EE10FA06DA30EE5E
:101B8000010AB4EE4B0AF1EE10FAE3DB85ED570AD9
:101B900003F0F8FAF0EE400A85ED510A95ED010ADE
:101BA00095ED4C1A95ED522AB1EE413A30EE421ABB
:101BB000B4EE4A1AF1EE10FA85ED4E3A1EDD9FEDB5
:101BC0006E0A00BF31EE001AB4EE4A1AF1EE10FAB6
:101BD00014DD31EE001AB4EE4A1AF1EE10FA0DDD02
:101BE00031EE001AB4EE4A1AF1EE10FA06DD31EECB
:101BF000001AB4EE4A1AF1EE10FAE3DCB4EE4B1A16
:101C0000F1EE10FA1EDA9FED5E0A00BF31EE001A07
:101C1000B4EE4B1AF1EE10FA14DA31EE001AB4EE0B
:101C20004B1AF1EE10FA0DDA31EE001AB4EE4B1A3F
:101C3000F1EE10FA06DA31EE001AB4EE4B1AF1EEBC
:101C400010FAE3DB95ED500AB5EE409A05F16C0011
:101C5000F1EE10FA85ED531A1CBF39EE000A85ED3E
:101C6000500A05F0F7FD95ED220AD5ED4E0A05F173
:101C7000400085ED4F0A05F0EDFD95ED550AE86D44
:101C800038EE008A686318EE100A0AF0F7FC9FED40
:101C9000320B53EC102B0AF02AFD9FED3A0A002874
:101CA00018BFB0EE408A18EE100A0AF0E7FC9FED6C
:101CB0002C0B53EC102B0AF02FFD00284FF00000E6
:101CC00005F582749FED300A18BFB0EE408AC5F862
:101CD0005001C5F85801C5F86C01C5F8CC00204684
:101CE00085ED558A05F09AFD95ED550AD5ED570A13
:101CF000204605F0AFFDD5ED260A95ED480A05F121
:101D0000D800C5ED540A85ED560A05F0A3FD95ED02
:101D1000570A95ED5A2A95ED591A9FED1C3A95ED03
:101D20005B8A30EE420A21EE039A0AF045F99FEDF4
:101D3000181A29EE000A28EE011A31EE000A95ED74
:101D40003D1A85ED5B0A31EE400A85ED330A08B095
:101D5000BDEC088BB0BD00BFB4C876BE9F1AE13F92
:101D6000BC96900F7A36D7BF6F1203BB00000000FD
:101D7000A69B44BBDB0F4940DB0FC9C0DB0F49C04A
:101D8000DB0FC940FED4083FD0B3B9BECDCC4C3F29
:101D9000CDCC4C3E90F82020013A012A08D80068AA
:101DA00000F114020020136819431160704700BF4E
:101DB00000F1240201204FF48021136819431160BF
:101DC0007047000010B590F820E0D0F800C0AEF1E8
:101DD000010EBEF1010FDCF808E011D81EF0E05F43
:101DE00018D0CEF301640120A04018608B68DBB1ED
:101DF000D1F804E0C86840EACE0040EA030E17E0DC
:101E000000F1240301204FF480211A681143196066
:101E100010BD00BF00F1240301204FF400111A6827
:101E20001143196010BD00BF0868CB6843EA405EEB
:101E30000CF5C07000EB0413240140F804E00C69B9
:101E4000184640F8044F097D012903D1016841F487
:101E50008071016050680121D8601068986000208E
:101E60001A681143196010BD90F82020013A012A28
:101E700030D8B0B546F20060C4F20000026842F00B
:101E800001020260026822F47C520260D1F814E080
:101E9000CC694A6A0368012C43EA022202600EF010
:101EA0001F024FF0010303FA02F2C3696FEA020C4A
:101EB00023EA0203C36113D02CBBC36803EA0C03FB
:101EC000C360CB688C8844EA034300EBCE042364F0
:101ED0000B4611E0416A41F48021416201207047C4
:101EE000C3681343C3600B688C8844EA034300EB68
:101EF000CE04236401F10C038C681B8843EA04437D
:101F000000EBCE04636443688D6943EA0204D1F8B0
:101F100010E0096A002D08BF03EA0C04446043691D
:101F2000BEF1000F43EA020408BF03EA0C040129D2
:101F3000446102D1C1691143C161016821F001010D
:101F400001600020B0BD000010B540F6C46240F64C
:101F50009C61C2F20002C2F2000140F25813002458
:101F60009042C2F2000308BF03F11804884208BF80
:101F70001C4674B100F00EF820616168400701F161
:101F80000101616058BF10BDA0680130A060012050
:101F9000A07510BD406A7047B0B590F82040013C74
:101FA000012C7DD8D0F800C000290CBFDCF80C4013
:101FB000DCF81040A4077DD00CF5D8754FEA011C61
:101FC00055F80C4014F00404946055F80CE005EB4F
:101FD000011C19BF4FEADE0555604FEA5E551560DA
:101FE000DCF80050E64605F00205D5605EF8044FC7
:101FF00024075ABFDEF8004004F00F0408241461DF
:10200000DEF800400029C4F307249461DEF8005094
:102010004FEA15455561DCF808201A70026802EB9A
:102020000112D2F8B8214FEA12225A70026802EB6C
:102030000112D2F8B8214FEA12429A70026802EBFC
:102040000112D2F8B8214FEA1262DA70026802EB8C
:102050000112D2F8BC211A71026802EB0112D2F807
:10206000BC214FEA12225A71026802EB0112D2F827
:10207000BC214FEA12429A71026802EB0112D2F8B7
:10208000BC214FEA1262DA7100680CBF00F10C014A
:1020900000F11001002020220B681A430A60B0BD35
:1020A00000F1240101204FF480220B681A430A60DA
:1020B000B0BD00BF00F1240101204FF400120B68F5
:1020C0001A430A60B0BD0000014690F82000421E8D
:1020D000D2B2012A88BF704709684A68920744BF94
:1020E000042070470968890748BF03207047000033
:1020F00090F820100139012984BF00207047006842
:10210000816882688068C1F38061C2F3C062114453
:10211000C0F30070084470472DE9F04F81B00446C9
:1021200000684669D0F804908768D0F80CB0D0F801
:1021300010A0D0F81880F10704D1002530071DD475
:1021400024E000BFF90710D00121BA07816009D44B
:10215000780700F1AF80380700F1B680204600F024
:1021600049FB02E0204600F047FB0025F80500F19E
:102170008780F80300F1B180300707D51BF010000D
:1021800004D0206845F400751021C160700708D59F
:102190001BF0080005D020680821C160204600F02F
:1021A00005FAB00706D52068C068800702D020462F
:1021B00000F0FEF9700607D51AF0100004D0206870
:1021C00045F4806510210161B00608D51AF00800B9
:1021D00005D0206808210161204600F0A7FAF0062A
:1021E00006D520680069800702D0204600F0A0FADA
:1021F000B00308D519F0100005D020681021416007
:10220000204600F097FAF00308D519F0080005D031
:10221000206808214160204600F0F8FA300440F1BF
:102220009B805FEA497040F1948006F4807008EA70
:10223000102028435FEA8871014648BF41F002013F
:10224000B20558BF01465FEA48700D4648BF45F0E9
:102250000405700558BF0D46300540F17A8018F02E
:10226000700000F076801038000905286CD8DFE88F
:1022700000F003655D61596945F0080564E000BF41
:1022800020684FF48071BA0581600BD4780515D4AD
:1022900038051DD4204600F0B1FAF8037FF56CAF85
:1022A0001BE000BF204600F0ABFAF8037FF564AFF7
:1022B00013E000BF4FF4006558E700BF05F5005577
:1022C000F8037FF559AF08E04FF480554EE700BFA3
:1022D00005F58045F8037FF54FAF20684FF4803156
:1022E000BA0381600AD4780310D4380314D420468A
:1022F00000F088FA30073FF541AF47E7204600F08D
:1023000083FA30073FF53AAF40E700BF05F50045D7
:1023100030073FF533AF39E705F5803530073FF536
:102320002DAF33E745F080050EE000BF45F02005F6
:102330000AE000BF45F0400506E000BF45F010058B
:1023400002E000BF45F480752068816921F07001CA
:10235000816120680421416055B1606A40EA05014D
:102360002046616201B0BDE8F04FFFF7EDBD00BF50
:1023700001B0BDE8F08F0000002804BF01207047C5
:10238000B0B5044690F8200010B9204600F06EF871
:102390002068016841F00101016000F065FD05461B
:1023A00020684168C90705D100F05EFD401B0B287D
:1023B000F6D310E0016821F00201016000F054FD45
:1023C000054600BF2068416889070DD500F04CFD27
:1023D000401B0B28F6D3606A052140F40030606290
:1023E000012084F82010B0BD217E0268012922F06E
:1023F000800208BF80320260617E0268012922F0FB
:10240000400208BF40320260A17E0268012922F02A
:10241000200208BF20320260E17E0268012922F01A
:10242000100218BF10320260217F0268012922F0D9
:10243000080208BF08320260617F0268012922F0A9
:10244000040208BF04320260D4E901C2D4E90335B2
:1024500061691A432A431143ACF101021143C1617E
:1024600000200121606284F82010B0BD10B586B054
:10247000006846F60002C4F2000200219042CDE955
:102480000411CDE90211019134D046F20041C4F2A9
:102490000001884277D140F23431C2F200010A686B
:1024A00043F64000C4F20200531C0B6052B90021F5
:1024B0000091016841F000710160016801F0007154
:1024C000009100990021009150F8101C142441F053
:1024D000080140F8101C50F8100C032100F008000F
:1024E0000090009840F20040C4F2020000F5006045
:1024F00035E000BF43F64000C4F2020000910168DD
:1025000041F080610160016801F0806100910099F3
:1025100040F23431C2F200010A68531C0B6052B918
:1025200000210091016841F000710160016801F033
:102530000071009100990021009150F8101C402476
:1025400041F0020140F8101C50F8100C602100F01E
:1025500002000090009840F20040C4F20200019195
:102560000221029100210391032104910921059187
:1025700001A900F0A3FB20460521002200F032FD56
:10258000204600F01DFD06B010BD0000014690F889
:1025900020000138022803D2002200204A6270473E
:1025A000486A40F4802201204A6270477047000068
:1025B000B0B58AB003AA01AB002104460025FFF79D
:1025C000EBFCE8B140F6C46140F69C60C2F2000149
:1025D000C2F2000040F258128C42C2F2000208BF60
:1025E00002F11805844208BF154635B3686801300A
:1025F00068602046FFF7CEFC28610AB0B0BD00BF7E
:10260000DDE90501084318D140F69C610398C2F248
:1026100000018C4214D040F6C461C2F200018C4229
:102620000BD140F20621884207D140F60420C2F2C5
:102630000000983001A9FEF749FF0AB0B0BD00BF05
:10264000A0F201201228F8D8DFE800F00C56125C46
:10265000640A0A0A0A0A0A0A0A0A0A0A0A0A1A007A
:10266000EBE700BF40F2A850C2F200001C30E1E7E7
:1026700040F2A850C2F2000000F5A670DAE700BFF1
:10268000BDF90400BDF9061000EE100A9FED241AF2
:1026900002EE101AB8EEC00AB8EEC22A80EE010AA5
:1026A00082EE011A40F2A854C2F200049FED1E4AC5
:1026B00084EDF10A84EDF21A94EDF10A9FED191AF6
:1026C00094EDF22A94EDF33A20EE010A23EE041A77
:1026D00020EE020A30EE010A84EDF30A00F0C4FB9A
:1026E000C4F8D003012084F8D803D4F8D40301300F
:1026F000C4F8D4030AB0B0BD40F2A850C2F2000042
:10270000B43097E740F2A850C2F2000000F5F27032
:1027100090E700BF40F60420C2F200008AE700BF45
:102720000000C842CDCC4C3FCDCC4C3E70470000A1
:102730007047000070470000B0B5044690F82000D4
:1027400001281DD1022084F820002068016821F0B2
:102750000101016000F088FB054600BF2068406869
:10276000C00713D000F080FB401B0B28F6D3606A33
:1027700040F400306062052084F820000120B0BDE4
:10278000606A40F4002060620120B0BD00206062F9
:10279000B0BD0000B0B5044690F82000022819D161
:1027A0002068016841F00101016000F05DFB054611
:1027B00020684168C90713D100F056FB401B0B2865
:1027C000F6D3606A40F400306062052084F820008F
:1027D0000120B0BD606A40F4801060620120B0BD8D
:1027E000016821F002010160012084F8200000202E
:1027F000B0BD000070470000704700007047000047
:1028000070470000704700007047000070470000EC
:1028100070B5866D044600F027FB94F83510022948
:1028200028D105462068216C026822F01602026059
:10283000426922F08002426109B9A16C19B10168B4
:1028400021F008010160016821F00101016000BF71
:1028500020680068C00715D000F006FB401B062862
:10286000F6D320206065032084F83500002184F829
:10287000341070BD802060650120002184F8341080
:1028800070BD00BFE06D3F2101FA00F0B060012093
:1028900084F835000020002184F8341070BD000059
:1028A00090F83510022909D1052180F8351000680B
:1028B000016821F00101016000207047802141651D
:1028C00001207047406D7047F0B581B00021009144
:1028D00040F2C001C2F200010B68D0E9166148F273
:1028E000B51537680822C1F64E358A403A42A3FB37
:1028F00005350CD003681C68640708D51C6824F0F3
:1029000004041C60B260426D42F001024265012283
:102910008A403A4208D003685B691B0604D5B2605E
:10292000426D42F00202426504228A403A4208D0D7
:1029300003681B689B0704D5B260426D42F0040235
:10294000426510228A403A4219D001680B681B0781
:1029500015D5B2600B680A685B0309D4D20509D4A7
:102960000A6822F008020A60016C29B907E000BF7A
:10297000110341D4016C11B1044688472046C26D51
:10298000202101FA02F33B4243D001680F68FF06A1
:102990003FD5B36090F835700B68052F1CD123F03C
:1029A00016030B604B6923F080034B61036C0BB97A
:1029B000836C1BB10B6823F008030B603F2191402F
:1029C000B160012180F83510016D0022002980F8E6
:1029D000342054D158E000BF0A685B0310D4D205FC
:1029E00012D40A6822F010020A60012180F8351022
:1029F000002180F8341007E0816C0029BCD1BEE7CB
:102A0000110301D4416C00E0C16B11B10446884749
:102A10002046416DC1B3416DC9072ED0052180F814
:102A200035100168AA0A0B6823F001030B60009BB4
:102A30000133934200931AD80B68DB0717D0009B31
:102A400001339342009312D80B68DB070FD0009B31
:102A50000133934200930AD80B68DB0707D0009B31
:102A600001339342009302D80B68DB07DFD10121C9
:102A700080F83510002180F83410C16C21B101B00C
:102A8000BDE8F040084700BF01B0F0BD2DE9F041BE
:102A9000044600F0E9F9ECB10546022084F835005F
:102AA0000020216884F83400086820F001000860E4
:102AB00021680868C00711D000F0D6F9401B05282E
:102AC000F6D9032520230320636584F83550BDE83B
:102AD000F08100BF0120BDE8F08100BF086848F226
:102AE0003F02CFF21002D4E9013500EA020C04F1F2
:102AF0000C0898E8C10143EA0C032B431843D4E9BE
:102B0000072E304338431043626A40EA0E00042A1D
:102B100040EA08031CD1206BD4E90A2E40EA0E00DB
:102B2000184308604869BEF1000F20F0030040EA36
:102B3000020040F0040C11D0B8F5005F36D0B8F1B7
:102B4000000F45D1022A46D0012A3BD032B942E0DB
:102B50000B60486920F0070040EA020C01F0F80021
:102B60004AF6AB221038CAF6AA22A0FB02231A09A1
:102B70004CF6E803C1F814C0C0F600039A5C40F2BA
:102B8000FF335F284FF03F0021EA030100FA02F013
:102B900088BF0431C4E91612886000230125002093
:102BA000636584F83550BDE8F08100BF032AD5D8AD
:102BB000012540230120DFE802F0030E030500BFDA
:102BC00082E700BFAEF1C070B0FA80F0400904E0C7
:102BD000032A04D3C2D1CEF300600028BED0012561
:102BE00040230120636584F83550BDE8F081000082
:102BF00090F834C0BCF1010F04BF0220704770B5DB
:102C00004FF0010C80F834C0D0F858E090F835C08F
:102C1000BCF1010F38D14FF0020C80F835C04FF0F5
:102C2000000CC0F854C0D0F800C08468056CC06DBA
:102C3000DCF80060402C26F48026CCF80060CCF84C
:102C400004300B4604BF13460A463F2101FA00F048
:102C5000CCF80830CCF80C20CEF80800DCF80000E6
:102C600040F01600CCF800002DB1DCF8000040F078
:102C70000800CCF80000DCF8000040F00100CCF8BF
:102C80000000002070BD00BF002180F83410022039
:102C900070BD0000B0B5044600F0E6F8054640F20D
:102CA0000000C2F200000078611C18BF044400BF9D
:102CB00000F0DAF8401BA042FAD3B0BD2DE9F04F86
:102CC00083B000F1200200F13E4741F6004500923A
:102CD00007F1FF77C4F2020508224FEAB726A8429F
:102CE00008BF072200254FF000084FF00009072E0B
:102CF00038BF4FEAB72201920AE000BF09F101098B
:102D000008F10208B9F1100F05F1040500F0A280E6
:102D10000F68012202FA09FE17EA0E0AEED0D1F876
:102D200004C003220CF003077E1E02FA08F4012EF1
:102D30006FEA040B12D88468CE6804EA0B0406FA22
:102D400008F634438460446824EA0E06CCF3001489
:102D500004FA09F42643466004E000BF032F01D1C2
:102D600003271EE0C6688C6806EA0B0604FA08F41E
:102D70002643022FC66014D16FF00302009E02EAC0
:102D8000590756F807C005F01C040F220B69A24032
:102D90002CEA0202A3401A43F251D1F804C00CF00D
:102DA0000307026807FA08F302EA0B021A431CF44D
:102DB000403F0260A2D0002243F644030292C4F2D4
:102DC00002031A6843F6004442F480421A601A680B
:102DD000C4F2010402F480420292029A29F0030232
:102DE0004FF6084C2244CFF6FF7C52F80C3005F029
:102DF0000C070F26BE40B343019E06FA07F73B437C
:102E000042F80C30A2684B6842EA0A0743F60C4CC1
:102E1000DE0258BF22EA0A07A760C4F2010CDCF800
:102E200000209E0242EA0A0758BF22EA0A07CCF8AD
:102E3000007062689E0342EA0A0758BF22EA0A0746
:102E400067602268DB0342EA0A0758BF22EA0A07E2
:102E5000276053E703B0BDE8F08F0000002A08BFE9
:102E6000090481617047000049F21020C2F200009D
:102E70000068704740F2000049F21021C2F20000E1
:102E8000C2F2000100780A68104408607047000030
:102E900080B543F60040C4F20200016841F40071BD
:102EA0000160016841F480610160016841F4807152
:102EB0000160032000F0C2F80F2000F005F800F0D8
:102EC0005DF8002080BD000070B586B0002543F697
:102ED00040010195C4F202010A68044642F0200252
:102EE0000A60096801A801F0200101910199694671
:102EF00000F066F9049E002E18BF012600F080F94C
:102F00004DF68361B040C4F21B31A0FB01014FF0CC
:102F1000FF3000EB914141F2F40041F20042C2F275
:102F20000000C4F2000240F2E733C0E90021C0E92A
:102F300002530561856100F08BFE08B106B070BDDB
:102F400041F2F400C2F2000000F0EAFE0028F5D1E0
:102F5000372000F035F80F2C0CD8372021460022FE
:102F600000F040F840F204010020C2F200010C60C1
:102F700006B070BD012006B070BD000082B0002018
:102F800043F640010190C4F202014A6842F48042D3
:102F90004A604A6802F480420192019A00900868EF
:102FA000002240F08050086008680F2100F0805037
:102FB000009000986FF0010002B000F013B800001C
:102FC000002848BF704700F01F01012202FA01F1FA
:102FD0001C2202EAD0004EF20012CEF20002815012
:102FE0007047000010B54EF60C5CCEF2000CDCF819
:102FF0000030C3F3022E8EF00704042C28BF0424F3
:10300000BEF103034FF0FF3E0EFA04F438BF002375
:10301000A14399400EFA03F39A43114300F00F02C3
:1030200000F160430901043A03F564436244002857
:1030300048BF02F10C03197010BD00004EF60C5190
:10304000CEF200010A684FF6FF031A4060F30A222D
:1030500042F0806040F0FD7008607047002804BFB7
:10306000012070472DE9F04143F60808C4F2020838
:103070000446D8F8F8030D4600F00700814207D94E
:1030800088F8F853D8F8F80300F00700A84277D181
:103090002068810717D5410705D5D8F8001041F4FD
:1030A000E051C8F80010010705D5D8F8001041F428
:1030B0006041C8F80010D8F80010A26821F0F001B3
:1030C0001143C8F80010C00740D1D8F8F80300F049
:1030D0000700854207D288F8F853D8F8F80300F0C3
:1030E0000700A8424CD12068410707D5D8F8001046
:1030F000E26821F4E0511143C8F80010000708D538
:10310000D8F80000216920F4604040EAC100C8F806
:10311000000000F09DF8D8F800104CF64002C1F312
:103120000311C0F60002515C40F2C00220FA01F126
:1031300040F20400C2F200000068C2F20002116016
:10314000FFF7C2FE0020BDE8F08100BF6068811E6D
:10315000022907D258F8081C89015CBF0120BDE88C
:10316000F08111E0012807D158F8081C89035CBFE1
:103170000120BDE8F08107E058F8081C890703D456
:103180000120BDE8F08100BFD8F8001021F0030154
:103190000843C8F80000FFF767FE064641F288378B
:1031A000D8F80000616800F00C00B0EB810F8CD003
:1031B000FFF75AFE801BB842F2D90320BDE8F08128
:1031C0000F22026043F60802C4F20202136803F001
:1031D00003034360136803F0F0038360136803F490
:1031E000E053C360D2F800C04FF4E05303EADC03BD
:1031F0000361D2F8F80300F0070008607047000090
:1032000040F2C00043F60801C2F20000C4F202011D
:10321000006809684CF65002C1F38221C0F6000232
:10322000515CC8407047000040F2C00043F60801FE
:10323000C2F20000C4F20201006809684CF65002B4
:10324000C1F34231C0F60002515CC8407047000033
:1032500010B543F60404C4F202046168C1F38101AD
:1032600042F20040C0F2F400DFE801F002040A027A
:1032700010BD00BF41F60030C0F2B70010BD00BF66
:10328000206821682368490241F60031C0F2B70185
:1032900000F03F02C3F388105CBF42F20041C0F26D
:1032A000F401A1FB00010023FCF7F4FF21680222D6
:1032B000C1F3014102EB4101B0FBF1F010BD000090
:1032C000002804BF012070472DE9F04182B0044678
:1032D000007843F60006C007C4F202060CD0B068BE
:1032E00000F00C00042840F081803068800303D592
:1032F0006068002800F06881207880071BD5B068DE
:1033000010F00C0F09D0B06800F00C00082840F055
:1033100087807068400200F183803068800703D5A1
:10332000E068012840F050813068216920F0F80001
:1033300040EAC10030602078000713D420784007AD
:103340002AD4A569002D00F03A81B06800F00C0085
:10335000082840F0A580012D40F00E81012002B028
:10336000BDE8F0816069002800F082800020C4F28E
:1033700047200121C0F8801EFFF776FD054600BFFB
:10338000706F8007DAD4FFF76FFD401B0228F7D972
:10339000032002B0BDE8F081306C5FEAC0080AD4B7
:1033A00000200190306C40F080503064306C00F0B0
:1033B00080500190019847F20007C4F20007386876
:1033C000C00547D4386840F480703860FFF74CFD82
:1033D000054600BF3868C0053CD4FFF745FD401BDB
:1033E0000228F7D9032002B0BDE8F081B06800F0F0
:1033F0000C00082803D1706840023FF576AF616881
:103400003068B1F5803F07D0B1F5A02F40F09A8029
:1034100040F480203060306840F4803030609AE0C2
:10342000E068002840F20000C4F247205CD001218F
:103430000160FFF719FD0546306880073FF574AF5E
:10344000FFF712FD401B0228F6D9032002B0BDE8A9
:10345000F08100BFA168306F012905D0052955D141
:1034600040F004003067306F40F00100306756E0F4
:103470000020C4F247200021C0F8801EFFF7F4FCB2
:10348000054600BF706F80077FF558AFFFF7ECFC73
:10349000401B0228F6D9032002B0BDE8F08100BF2E
:1034A0000027C4F2472700203866FFF7DDFC022D15
:1034B00005460DD13068800140F18A80FFF7D4FCC9
:1034C000401B02284FF00300F4D902B0BDE8F081A0
:1034D0003068800173D5FFF7C7FC401B02284FF00E
:1034E0000300F5D9F1E700BF00210160FFF7BCFC44
:1034F000054600BF306880077FF51DAFFFF7B4FCBD
:10350000401B02284FF00300F4D9DEE720F0010051
:103510003067306F002920F0040030677AD0FFF761
:10352000A3FC054641F28837306F800700F18480A4
:10353000FFF79AFC401BB842F6D9032002B0BDE861
:10354000F08100BF20F4803030603068002920F422
:10355000802030607AD0FFF787FC05463068800312
:103560003FF5CAAEFFF780FC401B6428F6D9032064
:1035700002B0BDE8F08100BF7068E16900F480022C
:103580008A4221D1216A00F03F028A421CD147F6CB
:10359000C071626A0140B1EB821F15D1A16A4FF67A
:1035A000FF73C903994300F44032A1F580318A4288
:1035B0000AD1E16A00F07060B0EB016F04D1002025
:1035C00002B0BDE8F08100BF012002B0BDE8F0818B
:1035D00004F11C052FCD084340EA8210D9034FF6B1
:1035E000FF729143A1F5803140EA056008437060A5
:1035F00001203866FFF738FC044600BF30688001C0
:10360000DDD4FFF731FC001B02284FF00300F5D991
:103610005BE700BFFFF728FC054641F2883700BF93
:10362000306F800708D5FFF71FFC401BB8424FF0F2
:103630000300F5D949E700BFB8F1000F3FF581AEAF
:10364000306C20F0805030647BE600BFFFF70CFC4C
:10365000054600BF306880037FF54EAEFFF704FCDF
:10366000401B64284FF00300F4D92EE770B528B151
:10367000416A29B100210161142106E0012070BDD9
:103680004168B1F5827F02D01C2100224250002601
:10369000866290F8511029B980F85060054600F014
:1036A0003DF82846022180F8511090E82E0002F4DF
:1036B00082720C6803F4044324F040040C601A4442
:1036C00005F4006305691A4405F0020345691A44CC
:1036D00005F001038569C4691A4405F400731A44AE
:1036E00004F03803046A1A4404F08003846A1A431D
:1036F00004F400531A430A60436A042202EA1542A2
:1037000003F010031A444A60CA6922F40062CA61D5
:103710000121466580F85110304670BD2DE9F04F0B
:1037200087B0044643F200070068C4F20107002690
:10373000B8420696CDE904660396029602D007B019
:10374000BDE8F08F43F630000196C4F202004169F3
:1037500002AD41F480514161416946F2104801F4E3
:10376000805101910199019601684FF0020941F0E1
:103770000201016001684FF0030A01F002010191AA
:103780000199019601684FF0050B41F001010160BC
:103790000068294600F0010001900198182002906D
:1037A00007F55440C4F20208CDE90396CDF814A001
:1037B000CDF818B0FFF782FA8020CDE9020904A8FD
:1037C00080E8400C07F550402946FFF777FA40F6AD
:1037D000EC65C2F200054FF440304FF0C0674FF483
:1037E0008069C5E908062846C5E90087C5E902667B
:1037F000C5E90496C5E90666FFF748F9002818BF31
:10380000FDF7D8FCE564AC6340F64C7508F1480060
:10381000C2F200054021C5E9000705F108000022B9
:1038200080E806024FF40030C5E908022846C5E9E1
:103830000522EA61FFF72AF9002818BFFDF7BAFC54
:10384000A564AC6307B0BDE8F08F00002DE9F0433C
:1038500083B01E4615460F460446FFF705FB94F855
:1038600051108146012909D1002F4FF0010018BFE6
:10387000002D0FD103B0BDE8F08300BF6068B0F544
:10388000827F0DD104294FF00200F3D1A1680029F5
:10389000EAD0EFE7002EEDD094F85000012803D1D4
:1038A000022003B0BDE8F083012084F8500094F8B2
:1038B0005100002104281CBF052084F851006165D7
:1038C000A563E687A6872763E6862068A686216427
:1038D00061640168490603D4016841F04001016058
:1038E0006168731EE268B1FA81F1B3FA83F3DDF81F
:1038F000288049095B09B2F5006F41EA030165D1EF
:1039000031B137F8021BC1602763E08E0138E086D1
:10391000012518F1010032D102E000BFFFF7A4FA3F
:10392000E08E18B9E08F002800F0B8802068816828
:1039300089070CD5E18E51B1012D08D1216B0025ED
:1039400031F8022BC2602163E18E0139E186816882
:10395000C907E3D0E18F0029E0D0C068A16B012541
:1039600021F8020BA163E08F0138E087D6E700BFA2
:10397000FFF77AFAA0EB0900404580F0A580E08EC1
:1039800018B9E08F002800F08980206881688907D5
:103990000CD5E18E51B1012D08D1216B002531F8F4
:1039A000022BC2602163E18E0139E1868168C9077B
:1039B000DED0E18F0029DBD0C068A16B012521F8A2
:1039C000020BA163E08F0138E087D1E739B1397884
:1039D0000173206B01302063E08E0138E086012501
:1039E00018F1010032D101E0FFF73EFAE08E10B984
:1039F000E08F002852D02068816889070ED5E18EBB
:103A000061B1012D0AD1216B002509780173216B69
:103A1000206801312163E18E0139E1868168C9079F
:103A2000E2D0E18F0029DFD0C068A16B01250870CA
:103A3000A06B0130A063E08F0138E087D4E700BFBE
:103A4000FFF712FAA0EB090040453DD2E08E08B91D
:103A5000E08F18B32068816889070ED5E18E61B1C7
:103A6000012D0AD1216B002509780173216B206893
:103A700001312163E18E0139E1868168C907DFD018
:103A8000E18F0029DCD0C068A16B01250870A06B14
:103A90000130A063E08F0138E087D1E720460221A2
:103AA00001224346CDF8009004F040FCB0B1606DB7
:103AB00040F02000606520206065002084F8500000
:103AC000012003B0BDE8F083012084F851000020FC
:103AD00084F85000032003B0BDE8F08340F2C0003A
:103AE000C2F20000006849F68171C1F25E61A0FB7C
:103AF0000101480D4FF47A71484302906068B0F5B7
:103B0000827F0BD12046802100224346CDF80090D1
:103B100004F00CFC0028CAD121E000BF0298F0B1EB
:103B200002980138029020688168090617D5029929
:103B3000A9B1029901390291816809060FD502994C
:103B400069B10299013902918168090607D5029984
:103B500029B102990139029180680006DED4A0687B
:103B600038B9002001902068C168019180680190F7
:103B70000198012084F85100002084F85000606D05
:103B8000002818BF012003B0BDE8F0837047000093
:103B90007047000090F83C20012A4FF0020254D0F8
:103BA00010B580F83D200268D2F804E0D2F808C0D1
:103BB0000C682EF07003234341F2FF74C4F200043A
:103BC000A24253600EDC40F2FF73C4F200039A423B
:103BD00016DCB2F1804F2BD040F20043C4F2000358
:103BE00024E000BF40F2FF33C4F201039A4213DC29
:103BF00041F60003C4F200039A4219D0002313E0F7
:103C000040F60003C4F200039A4211D040F600438C
:103C1000C4F200030AE000BF44F20003C4F201034F
:103C20009A4205D040F20043C4F201039A4204D103
:103C300049682CF08003194391600121002280F82B
:103C40003D1080F83C20BDE8104010467047000051
:103C5000002804BF0120704710B5044690F83D00CD
:103C600028B9002084F83C00204600F01FF802200C
:103C700084F83D002068211D04F0F4FC012084F844
:103C8000460084F83E0084F83F0084F8400084F841
:103C9000410084F8420084F8430084F8440084F82A
:103CA000450084F83D00002010BD000080B582B0C2
:103CB000006841F20001C4F20001884216D040F6CB
:103CC0000001C4F2000188420ED10020019043F6A9
:103CD0004000C4F20200016841F004010160006884
:103CE00000F004000190019802B080BD0020009017
:103CF00043F64000C4F202000168002241F01001C6
:103D000001600068052100F0100000900098362046
:103D1000FFF768F9362002B0BDE88040FFF750B9E0
:103D200090F83D1001291CBF01207047022180F846
:103D30003D10006841F2FF72C168C4F20002904277
:103D400041F00101C1600DDC40F2FF71C4F20001DD
:103D5000884215DCB0F1804F2AD040F20041C4F215
:103D6000000123E040F2FF31C4F20101884213DC7C
:103D700041F60001C4F20001884219D0002113E08D
:103D800040F60001C4F20001884211D040F6004123
:103D9000C4F200010AE000BF44F20001C4F20101D4
:103DA000884205D040F20041C4F20101884206D1A8
:103DB000816801F00701062904BF002070470168EF
:103DC00041F00101016000207047000090F83C20A4
:103DD000012A4FF002026CD080B580F83D20D0F867
:103DE00000C04FF67772DCF8083023EA0202CCF804
:103DF00008200B684F2B29DC1F2B45DD202B46D0DC
:103E0000302B44D0402B40F0AF80D1F804E0C9689B
:103E1000DCF82030DCF8202022F00102CCF8202051
:103E2000DCF8182022F0F00242EA011123F00A0225
:103E300042EA0E02CCF81810CCF82020DCF808106A
:103E400041F0470121F0300128E000BF6F2B33DD46
:103E5000B3F5005F74D0B3F5805F21D0702B40F0D4
:103E60008380D1E901E3C968DCF8082043EA0E0346
:103E700022F47F4243EA01211143CCF80810DCF818
:103E8000081041F0770109E00BB1102B6CD1DCF880
:103E9000081021F07001194341F00701CCF8081017
:103EA0000022012180F83D10002180F83C10BDE87F
:103EB00080401046704700BF502B21D0602B53D15B
:103EC000D1F804E0C968DCF82030DCF8202022F0CA
:103ED0001002CCF82020DCF8182022F4704242EACC
:103EE000013123F0A00242EA0E12CCF81810CCF8EF
:103EF0002020DCF8081041F0670121F01001CDE727
:103F0000D1F804E0C968DCF82030DCF8202022F089
:103F10000102CCF82020DCF8182022F0F00242EA5E
:103F2000011123F00A0242EA0E02CCF81810CCF874
:103F30002020DCF8081041F0570121F02001ADE706
:103F4000D1E901E3C968DCF8082043EA0E0322F452
:103F50007F4243EA01211143CCF80810DCF8081035
:103F600041F480419AE700BF01229AE770470000C0
:103F700070B504460068C5680669B10716D515F026
:103F8000020113D06FF002010161012121778069E4
:103F9000800703D02046FFF7E9FF05E0204600F048
:103FA0008FF8204600F0CEF900202077700719D551
:103FB00015F0040016D020686FF0040101610221A1
:103FC0002177806910F4407F04D02046FFF7CEFFB0
:103FD00006E000BF204600F073F8204600F0B2F97A
:103FE00000202077300717D515F0080014D020687E
:103FF0006FF00801016104212177C069800703D0B7
:104000002046FFF7B3FF05E0204600F059F82046B0
:1040100000F098F900202077F00619D515F010006F
:1040200016D020686FF01001016108212177C06966
:1040300010F4407F04D02046FFF798FF06E000BF51
:10404000204600F03DF8204600F07CF90020207763
:10405000F00718BF15F0010002D1300609D412E0B4
:1040600020686FF001010161204600F0F5F930068B
:1040700009D515F0800006D020686FF0800101613D
:104080002046FFF783FD700609D515F0400006D0E5
:1040900020686FF040010161204600F0E7F9B006AA
:1040A00058BF70BD15F0200008D021686FF02002C5
:1040B00020460A61BDE87040FFF76ABD70BD000090
:1040C0007047000090F83C30012B04BF022070477D
:1040D0004FEAB202032A00F2FF802DE9F043DFE845
:1040E00002F003B13F7F00BF036840F200461C6A44
:1040F0001A6A24F0020422F001021A621A46D3F866
:1041000004C052F818EF8F6843F48065C4F20106CA
:10411000B54244EA070405D1CF6824F00C0427F027
:1041200004073C430F68B54206D1D1E905582CF489
:1041300040762E4346EA080C2EF073063743C3F848
:1041400004C09F614F6809695F631C629F6947F003
:1041500008079F619F6927F004079F61B1E000BFD6
:10416000036840F200481C6A1A6A24F4007422F4BE
:1041700080721A621A46D3F804C052F81CEF8F6896
:1041800043F48065C4F20108454544EA072408D198
:10419000CF6840F2FF463F0224F4406427EA060657
:1041A0003443D1F80090454506D1D1E905562CF4A9
:1041B00040572E4347EA061C2EF0730747EA0907CB
:1041C000C3F804C0DF614F680969DF631C62DF69FF
:1041D00047F00807DF61DF6927F00407DF6170E05F
:1041E000036840F20045D3F820C01A6A43F48067A0
:1041F00022F480521A621A465C6852F81C8FD1F879
:1042000000E08E68C4F20105AF4204D14D6924F488
:10421000804444EA85142CF4005747EA063728F412
:10422000E64646EA0E265C60DE614E6809691E6459
:104230001F62DF6947F40067DF61DF6927F4806789
:10424000DF613DE0036840F200481C6A1A6A24F00E
:10425000200422F010021A621A46D3F804C052F861
:1042600018EF8F6843F48065C4F20108454544EABD
:10427000071407D1CF686FF0400624F0C00406EAA7
:1042800007163443D1F80090454506D1D1E90556CB
:104290002CF440672E4347EA860C2EF4E64747EAA3
:1042A0000927C3F804C09F614F6809699F631C62B6
:1042B0009F6947F400679F619F6927F480679F614A
:1042C00009021368194311600021BDE8F043002280
:1042D00080F83C20084670470121002280F83C20ED
:1042E00008467047002804BF0120704710B50446F7
:1042F00090F83D0028B9002084F83C00204600F0EA
:104300001FF8022084F83D002068211D04F0AAF95E
:10431000012084F8460084F83E0084F83F0084F8C9
:10432000400084F8410084F8420084F8430084F897
:10433000440084F8450084F83D00002010BD0000D2
:104340007047000070470000C1B1042908D0082957
:1043500014BF41224022825C012A05D016E000BF32
:104360003F22825C012A11D10222082910D004299F
:1043700014BF80F8412080F83F200BE090F83E20E9
:10438000012A03D1022280F83E2003E00120704779
:1043900080F84020006801F01F010122036A02FA40
:1043A00001F123EA01020262026A114341F2FF7243
:1043B000C4F20002904201620CDC40F2FF71C4F2D0
:1043C0000001884214DCB0F1804F37D040F2004148
:1043D00016E000BF40F2FF31C4F20101884215DC53
:1043E00041F60001C4F20001884227D0002115E007
:1043F00040F60001C4F2000188421FD040F600419F
:10440000C4F20001884219D01FE000BF44F200014D
:10441000C4F20101884211D040F20041C4F201010E
:10442000884212D1416C40F2004340F48062C4F2F1
:10443000010341F400419A42416406D1816801F0D0
:104440000701062904BF00207047016841F00101FF
:104450000160002070470000006841F20041C4F292
:104460000001884218BF7047FEF704BD7047000086
:1044700070B582B090F84250202D0BD113460A46F9
:104480000146002A4FF0010018BF002B06D102B0F0
:1044900070BD00BF022002B070BD00BF08630026DF
:1044A00022204E638A628B854E6481F842000C683C
:1044B0000D46C86B48F6F15C48F65171C0F6000C29
:1044C000C0F60001C0E90FC148F67541C0F6000111
:1044D000C0E91316211DFEF78BFBE8B310206864BA
:1044E0002020294685F8420001200A6B012A40F06D
:1044F000B380002200920A68136800935268009209
:10450000009A00BF0A6852E8032F0B6842F01002BD
:1045100043E80326002EBAD00A6852E8032F0B683E
:1045200042F0100243E80326002EB0D00A6852E899
:10453000032F0B6842F0100243E80326002EA6D09A
:104540000A6852E8032F0B6842F0100243E8032682
:10455000002ED7D19BE700BF019628682946026844
:104560000192406801900198286928B3086850E8D2
:10457000030F0A6840F4807042E80303E3B108685F
:1045800050E8030F0A6840F4807042E803039BB1CF
:10459000086850E8030F0A6840F4807042E803039B
:1045A00053B1086850E8030F0A6840F4807042E88D
:1045B0000303002BDAD100BF086850E8050F0A6832
:1045C00040F0010042E80503BBB3086850E8050F5E
:1045D0000A6840F0010042E8050373B3086850E838
:1045E000050F0A6840F0010042E805032BB3086894
:1045F00050E8050F0A6840F0010042E80503002B6F
:10460000DAD11AE0086850E8050F0A6840F0400067
:1046100042E80503DBB1086850E8050F0A6840F07E
:10462000400042E8050393B1086850E8050F0A68A6
:1046300040F0400042E805034BB1086850E8050F20
:104640000A6840F0400042E80503002BDAD1002060
:104650000A6B012A3FF44DAF012002B070BD00008B
:10466000006844F60002C4F20002904218BF70478E
:104670002DE9F04F8BB04EF28F30C0F638608A468D
:10468000A1FB0010AAF1010140F28C1B2329C2F208
:10469000000B00F2E38000EBC000AAEB4000002812
:1046A00040F0DC804FF000080AE000BF00208BF8EB
:1046B000000008F112001FFA80F8D04580F0D18088
:1046C0000BEB080494F8241094F8252094F8267035
:1046D00062F30A21D20894F82760A1F5806567F398
:1046E0004A12ADF82850A2F58065ADF82650B60004
:1046F00094F8285094F8299046EA971765F38A278A
:104700006D08A7F5806669F3CA15ADF82460A5F5B4
:104710008066ADF8226094F8346094F8353000205B
:1047200063F30A26A6F58063ADF82030638DADF8FB
:104730000A00ADF81830A38DE08D4FEA991EC9F339
:10474000011C8DF81DE0ADF81630ADF8140094F89A
:10475000303094F831E0608EBCF1000F8DF81EC04F
:104760008DF812308DF811E0ADF80C009ED0B9F143
:10477000400F9BD3A1F2BD6080B24FF687218842E3
:1047800094D3A2F2BD6080B288428FD3A7F2BD60FD
:1047900080B288428AD3A5F2BD6080B28842FFF41D
:1047A00085AFA6F2BD6080B28842FFF47FAF012BD7
:1047B0003FF67CAFBEF1010F4FF000003FF677AF40
:1047C000FEF752FB0190DBF8200001300090BDF8AD
:1047D0002800ABF80400BDF82600ABF80600BDF8D1
:1047E0002400ABF80800BDF82200ABF80A00BDF8C1
:1047F0002000ABF80C009DF81E008BF80E009DF811
:104800001D008BF80F00BDF81800ABF81000BDF8C4
:104810001600ABF81200BDF81400ABF814009DF8B8
:1048200012008BF816009DF811008BF81700BDF8E8
:104830000C00ABF81800BDF80A00ABF81A0001989C
:10484000CBF81C000098CBF820009BF8000004284F
:104850003FF62FAF9BF80000013028E700208BF8CF
:10486000000041F23C100BF12401C2F200002422AE
:10487000FFF7FEFD40F6AC70C2F200000068016870
:1048800021F0080101600BB0BDE8F04F7047000057
:1048900010B50446206850E8030F216820F490709A
:1048A00041E80302BAB3206850E8030F216820F4FE
:1048B000907041E8030272B3206850E8030F21684A
:1048C00020F4907041E803022AB3206850E8030FF7
:1048D000216820F4907041E80302002ADAD11AE03E
:1048E000206850E8050F216820F0010041E805022A
:1048F000DAB1206850E8050F216820F0010041E896
:10490000050292B1206850E8050F216820F00100EF
:1049100041E805024AB1206850E8050F216820F0FF
:10492000010041E80502002ADAD1206B012824D1D8
:10493000206850E8030F216820F0100041E80302CE
:10494000DAB1206850E8030F216820F0100041E838
:10495000030292B1206850E8030F216820F0100094
:1049600041E803024AB1206850E8030F216820F0B3
:10497000100041E80302002ADAD1206840694006AD
:1049800036D500BF206850E8050F216820F04000B0
:1049900041E80502DAB1206850E8050F216820F0EF
:1049A000400041E8050292B1206850E8050F2168F7
:1049B00020F0400041E805024AB1206850E8050FA8
:1049C000216820F0400041E80502002ADAD1E06BBE
:1049D00070B100210165FDF71BFF48B1E06BFDF7E9
:1049E00071FF202804D110206064032010BD00BF97
:1049F00000202021E08584F84210206310BD0000D3
:104A0000016844F60002C4F20002914218BF7047E8
:104A1000B0B582B040F28C14C2F20004002204F857
:104A2000242B01920B68054601934B680193019B6F
:104A300001920B6801934B680193019B01920B68F3
:104A400001934B680193019B01920B6801934B68A2
:104A50000193019B01920B680193496801910199AF
:104A60004264FFF715FF284621462422FFF700FD88
:104A700040F6AC70C2F200000068016821F0080145
:104A8000016002B0BDE8B04070470000B0B582B030
:104A900001680A68CC684B6902F02F05202D04F0EC
:104AA000200505D125B102B0BDE8B04004F05CBAE4
:104AB0005FEA027C1EBF03F0010E04F4907313EB57
:104AC0000E0341D1036BD50618D5012B16D114F076
:104AD000100313D0002201920A6801924A680192E1
:104AE000019A496949064BD4818DC28DC38D002B33
:104AF00018BF914240F0068202B0B0BD13062DD51A
:104B000014F080032AD090F84120212AF4D1826841
:104B1000B2F5805F03D10269002A00F07982026A4F
:104B2000531C036212784A60C28C013A1304C28497
:104B3000E2D1C86820F08000C860C86840F040003A
:104B4000C86002B0B0BD00BFD30718BF14F48073B3
:104B500040F0E280530700F1E580EAE05206CBD551
:104B600014F04002C8D0CA6822F04002CA60202176
:104B700080F8411002B0BDE8B04000F0EBBA00BFD1
:104B8000C26B11684B68858D99B2002900F0B48022
:104B9000A94280F0B180C385D169B1F5807F00F072
:104BA000A080016851E8031F026821F4807142E887
:104BB0000313DBB1016851E8031F026821F480711F
:104BC00042E8031393B1016851E8031F026821F41E
:104BD000807142E803134BB1016851E8031F02687A
:104BE00021F4807142E80313002BDAD1016851E807
:104BF000051F026821F0010142E80513BBB30168FB
:104C000051E8051F026821F0010142E8051373B362
:104C1000016851E8051F026821F0010142E805130F
:104C20002BB3016851E8051F026821F0010142E839
:104C30000513002BDAD11AE0016851E8051F02685C
:104C400021F0400142E80513DBB1016851E8051F7E
:104C5000026821F0400142E8051393B1016851E870
:104C6000051F026821F0400142E805134BB10168BD
:104C700051E8051F026821F0400142E80513002BAE
:104C8000DAD1202180F8421000210163016851E847
:104C9000031F026821F0100142E80313DBB1016831
:104CA00051E8031F026821F0100142E8031393B199
:104CB000016851E8031F026821F0100142E8031364
:104CC0004BB1016851E8031F026821F0100142E86E
:104CD0000313002BDAD1C16B04460846FDF798FD9B
:104CE000204602214163818DC28D891A89B202B0AA
:104CF000BDE8B040FFF7B4BC8D427FF4FDAED26991
:104D0000B2F5807F7FF4F8AE0222426302B0BDE8C4
:104D1000B040FFF7A5BC00BF436C43F00103436400
:104D2000530706D5BEF1000F03D0436C43F00203D6
:104D30004364930706D5BEF1000F03D0436C43F0E4
:104D400004034364BCF1000F06D55EEA050303D0FB
:104D5000436C43F008034364436C002B3FF4CCAE38
:104D6000920605D525B1044604F0FEF821682046D8
:104D70004969426C01F0400102F00802891800F014
:104D8000B98000BF016851E8031F026821F49071E7
:104D900042E80313BBB3016851E8031F026821F422
:104DA000907142E8031373B3016851E8031F02686E
:104DB00021F4907142E803132BB3016851E8031FFB
:104DC000026821F4907142E80313002BDAD11AE053
:104DD000016851E8051F026821F0010142E805134E
:104DE000DBB1016851E8051F026821F0010142E8CA
:104DF000051393B1016851E8051F026821F0010114
:104E000042E805134BB1016851E8051F026821F023
:104E1000010142E80513002BDAD1016B012924D1ED
:104E2000016851E8031F026821F0100142E80313F2
:104E3000DBB1016851E8031F026821F0100142E86C
:104E4000031393B1016851E8031F026821F01001B8
:104E500042E803134BB1016851E8031F026821F0D7
:104E6000100142E80313002BDAD1202180F8421010
:104E70000021016301684969490640F1C380016866
:104E800051E8051F026821F0400142E80513DBB13B
:104E9000016851E8051F026821F0400142E805134E
:104EA00093B1016851E8051F026821F0400142E812
:104EB00005134BB1016851E8051F026821F040015C
:104EC00042E80513002BDAD1C16B002900F09A806B
:104ED00048F66942C0F60002044608460A65FDF736
:104EE000DFFC00283FF408AEE06B016D02B0BDE8C6
:104EF000B04008470446FFF783FD0020606402B01D
:104F0000B0BD00BF891A00BF026852E8032F0368D2
:104F100022F4907243E80325BDB3026852E8032FE0
:104F2000036822F4907243E8032575B3026852E8DF
:104F3000032F036822F4907243E803252DB302681F
:104F400052E8032F036822F4907243E80325002DF2
:104F5000DAD11AE0026852E8052F036822F0010254
:104F600043E80525DDB1026852E8052F036822F009
:104F7000010243E8052595B1026852E8052F036850
:104F800022F0010243E805254DB1026852E8052FE1
:104F9000036822F0010243E80525002DDAD1202222
:104FA00080F8422000220263026852E8032F03685F
:104FB00022F0100243E80325DDB1026852E8032F16
:104FC000036822F0100243E8032595B1026852E815
:104FD000032F036822F0100243E803254DB1026855
:104FE00052E8032F036822F0100243E80325002D46
:104FF000DAD1022289B2426302B0BDE8B040FFF7C5
:105000002FBB00BF02B0BDE8B040FFF7F9BC00BF46
:10501000026A32F8023B6FF35F234B60026283E562
:10502000002804BF0120704710B5044690F84100E5
:1050300028B9002084F84000204600F021F8242000
:1050400084F841002068C16821F40051C160204605
:1050500004F00AF82068016921F490410161416976
:1050600021F02A014161C16841F40051C160002072
:105070002021606484F8411084F84210606310BD00
:1050800070B586B0044644F600002168C4F2000002
:10509000002681420596CDE903660296019601D06D
:1050A00006B070BD43F630010096C4F202010A69F1
:1050B00000F5E03042F480220A610A6902F480229D
:1050C0000092009A00960A6842F004020A60096899
:1050D00001F00401009100994FF440610191022117
:1050E000CDE90216032104910721059101A9FDF7DD
:1050F000E5FD40F6AC7546F22800C2F20005C4F2A8
:1051000002004FF0006185E843004FF400304FF497
:1051100080624FF48073C5E908062846C5E903623A
:10512000C5E90566EB61FDF7B1FC002818BFFCF787
:1051300041F8272005210022E563AC63FDF752FF0B
:105140002720FDF73DFF06B070BD0000704700004E
:105150007047000070470000FEE70000002808BF0D
:10516000704740F20421C2F20001CA6802600A6975
:10517000426049698160704740F20420C2F2000039
:105180004068704740F20420C2F2000090ED170A18
:105190007047000040F20420C2F20000007870471F
:1051A00085B0D0F8EC104FF07E5291ED000A91EDF1
:1051B000011A91ED022A91ED033A8DED030A8DED6E
:1051C000021A8DED012A8DED003A9DED034A9DED09
:1051D000035A9DED026A9DED027A24EE054A26EE01
:1051E000076A9DED015A9DED017A34EE064A25EEDF
:1051F000075A9DED006A9DED007A35EE044A26EED1
:10520000075A35EE044AB1EEC44A04929DED045AA1
:1052100085EE044A8DED044A049A04929DED044AF9
:1052200024EE000A81ED000A9DED040A20EE010A39
:1052300081ED010A9DED040A20EE020A81ED020AC9
:105240009DED040A20EE030A81ED030A40F2C83105
:10525000C2F200019DED020A91ED6F1AD0F8002113
:1052600020EE010AB6EE001A20EE010A82ED040AD1
:105270009DED010A91ED6F2A20EE020A20EE010A4F
:1052800082ED050A9DED030A91ED6F2A20EE420A98
:1052900020EE010A82ED0A0A9DED000A91ED6F2AC7
:1052A00020EE020A20EE010A82ED0B0A9DED000AB3
:1052B00091ED6F2A20EE420A20EE010A82ED100ADB
:1052C0009DED030A91ED6F2A20EE420A20EE010ABD
:1052D00082ED110A9DED010A91ED6F2A20EE020A7E
:1052E00020EE010A82ED160A9DED020A91ED6F2A69
:1052F00020EE420A20EE010A82ED170AD0F8F800EB
:1053000091ED740A90ED1C1A81EE002A90ED230AAB
:1053100080ED1C2A91ED741A44F2000180EE010A1E
:105320009FED0A1AC4F21C61B4EE412AF1EE10FAA4
:10533000B4EE410A80ED230AC8BF0167F1EE10FA0E
:10534000C8BFC0F88C1005B0704700BF00401C46B5
:10535000B0B540F2C834C2F20004012020704CF60F
:105360007740C3F22B20C4F8CC0104F5D87080EC50
:10537000030AB7EE000A0025F4EE401A201D0621AC
:1053800000220323C4ED642A84F83851C4E950553F
:10539000C4E9525584ED6F2AF1EE10FAC8BFF0EE61
:1053A000401AC4ED741A00F0C9FD04F5E07004F56C
:1053B000E4730121012204F057F9D4F8EC104FF006
:1053C0007E52C1E90025C1E9025545F22141C0F6EE
:1053D000000145F2A11245F25D4345F6E90504F1ED
:1053E000D00CC0F60002C0F60003C0F600058CE841
:1053F0002E0040F20111D4F80401E1854CF6580169
:10540000C0F600019022FBF702F8D4F8FC0040F24D
:105410002C01C2F200019022FAF7F9FFB0BD0000A2
:1054200010B50446D0F8F81040F22C00C2F200008B
:105430009022FAF7ECFFD4F81C1140F28030C2F24F
:1054400000004822FAF7E3FFD4F80C1140F238309C
:10545000C2F200004822FAF7DAFF10BD10B584B09E
:105460000446D0F8EC0040F2002190ED000A90EDE7
:10547000011A90ED022A30EE000A90ED033A8DED0C
:10548000030A31EE010A8DED020A32EE020A8DEDB9
:10549000010A33EE030A8DED000AC2F20001098809
:1054A000A27B237BD4F80C0151435943FBF70BF843
:1054B0009DED010AD4F80C01B1EE400A80ED000A1E
:1054C000009900F1180C41609DED030AB1EE400A0D
:1054D00080ED020A0299C1600299039A009B019C27
:1054E0008CE81E00039901639DED020A9DED011AEF
:1054F000B1EE400AB1EE411A80ED0D0A80ED0E1AB0
:105500000099C16304B010BDB0B52DED0C8B84B013
:1055100040F2C834C2F20004B0EE429A94ED582A28
:1055200094ED593A94ED5A4A94ED6F5A30EE420A8E
:10553000B6EE00BA84ED5B0A20EE0B0A30EEC32A09
:1055400031EE441A20EE050A84ED5C2A84ED5D1AE2
:105550008DED030A22EE0B0A20EE050A8DED020AFC
:1055600021EE0B0A20EE050A8DED010AD4F80401A4
:105570004CF65801C0F600019022B0EE628AB0EEFF
:1055800061AAFAF744FF9DED030AD4F804019DEDEA
:10559000021A9DED012AB1EE400AB1EE411AB1EEB8
:1055A000422A80ED010A80ED021A80ED032A039958
:1055B0008161019901629DED020AB1EE400A80ED20
:1055C000090A029901639DED010AB1EE400A80EDDE
:1055D0000D0A0399C1630199029AC0E912129DED67
:1055E000030AD4E95212B1EE400A114380ED140AC5
:1055F00006D094ED5E2A94ED5F1A94ED600A09E0FE
:1056000000200121B0EE480AB0EE491AB0EE4A2A55
:10561000C4E9521094ED643A94ED6F4A22EE032AE5
:1056200033EE045A2AEE046A23EE011A29EE047AB4
:1056300082EE052A86EE056A81EE051A87EE057A66
:1056400023EE000A28EE043A80EE050A83EE053ABE
:1056500000210022002532EE062A22EE024A37EE11
:10566000011A84ED5E2A84ED5F1A33EE000A21EE02
:10567000013A34EE033A20EE004A34EE033AB1EE3A
:10568000C33AB7EE004A84ED600A84EE034A84ED23
:10569000663A8DED004A9DED000AA06822EE000AF0
:1056A00080ED000A94ED5F0A9DED001A20EE010ADC
:1056B00080ED010A94ED600A9DED001A20EE010ACA
:1056C00080ED020A94ED5B0A94ED5C1A94ED5D2A7C
:1056D00021EE011A20EE000A30EE010A22EE021A33
:1056E00031EE000AB1EEC00A9FED782A94ED661AF9
:1056F000002084ED650AB4EE420A9FED750AF1EED2
:1057000010FAB4EE401AB8BF0120F1EE10FAC8BF8B
:10571000012194ED6C2A94ED6F3A0840D4F81811E9
:1057200022EE032A81ED002A9FED6A0A94ED6C2A8D
:1057300094ED6F3AB4EE401A22EE030A81ED070AA7
:1057400094ED6C0A94ED6F1AF1EE10FA20EE010A56
:1057500081ED0E0A94ED6C0A94ED6F1A20EE010AA9
:1057600081ED150A94ED6D0A94ED6F1AB8BF012210
:1057700020EE010A81ED1C0A94ED6D0A94ED6F1A7A
:10578000104020EE010A81ED230A94ED6E0AD4F850
:105790001C1184F8390181ED000A81ED040AD4F866
:1057A000B8010862201D00F021FF606890ED000A3A
:1057B00084ED540A90ED011A84ED551A90ED022AF9
:1057C00020EE010A84ED562A90ED033A21EE011AEB
:1057D00084ED573A22EE033A3BEE411A22EE022ABA
:1057E00030EE030A71EE420A04F5D07003F0B8FC03
:1057F00094ED680A9FED388A94ED549A94ED55AA79
:1058000094ED56CA94ED57DA20EE080A84ED680A42
:1058100029EE0C0A2AEE0D1A30EE410A30EE000A8B
:1058200006F034FB20EE080A84ED690A2DEE090A21
:105830002AEE0C1A31EE000A2CEE0C1A3BEE411A3D
:105840002DEE0D2A71EE420A04F5D47003F088FCA7
:1058500094ED6A0A606820EE080A84ED6A0A01691C
:1058600094ED761A9FED1D2AC4F8601130EE411AAE
:105870004069B4EE421AF1EE10FAC4F86401C4F8BB
:10588000685103DDB4F8D401013809E09FED142A12
:10589000B4F8D401B4EE421AF1EE10FA02DA013093
:1058A000A4F8D40100B201EE100A9FED0E2AB8EE62
:1058B000C11A21EE021A31EE001A84ED6B1A84ED42
:1058C000760A04B0BDEC0C8BB0BD00BF9A99993E2E
:1058D000CDCC1441CDCC2441E12E654200003443AF
:1058E000000034C30000B4432DE9F04F85B000F14F
:1058F000780500F1800804462846414604F06CFD16
:1059000084F8C800B4F87800274627F8A80FB4F840
:105910005A0004F15801A4F8AA0028463A4600911A
:1059200004F03AFB84F8C8003888A346B4F8821023
:105930002BF8B00FA4F8B210384641465A4604F08E
:105940002BFB214684F8C80051F8900F264646F8F4
:10595000A00F5846324603F011FE84F8C8003046C6
:10596000594603F085FE84F8C800D4F8EC00D4F85A
:105970002C6190E80E00C06804910392029301909C
:10598000B4F87800A2464FF001092AF8B80FA4F83D
:10599000BA909DED030A9DED011A9DED042A9DED3F
:1059A000023A20EE010A22EE032A30EE420A30EEDD
:1059B000000A86ED000A9DED041A9DED032A9DED77
:1059C000023A9DED014A21EE021A23EE043A31EE2D
:1059D000031A31EE011A86ED011A9DED041A9DEDB0
:1059E000042A9DED033A9DED034A21EE021A23EEAF
:1059F000043A9DED022A9DED024A31EE431A22EE51
:105A0000042A9DED013A9DED014A31EE421A23EE42
:105A1000042A32EE011AB0EEC00A86ED021A06F030
:105A2000A9F940F2C835C2F2000585ED610A96ED8C
:105A3000010AB0EEC00A06F09DF985ED620A96ED06
:105A4000020AB0EEC00A06F095F9204630F8481F69
:105A5000264626F8C01F5146324685ED630AA6F851
:105A6000029004F043FC318884F8C800398058461D
:105A700031463A46A4F8AA9004F08EFA84F8C80099
:105A800030885146A4F8BA003046AAF8009004F0D5
:105A9000A3FC84F8C80005F5E0725046394604F0CE
:105AA0007BFA95ED731A95ED720AB6EE002A21EE97
:105AB000022AB4EE420AF1EE10FA84F8C80007DABE
:105AC00085F83891B4EE410AF1EE10FA0CDC25E0CD
:105AD00095F83891B9F1000F18BF4FF00109B4EEF5
